{"universal-router/UniversalRouter.sol":{"UniversalRouter":{"abi":[{"inputs":[{"components":[{"internalType":"address","name":"permit2","type":"address"},{"internalType":"address","name":"weth9","type":"address"},{"internalType":"address","name":"seaportV1_5","type":"address"},{"internalType":"address","name":"seaportV1_4","type":"address"},{"internalType":"address","name":"openseaConduit","type":"address"},{"internalType":"address","name":"nftxZap","type":"address"},{"internalType":"address","name":"x2y2","type":"address"},{"internalType":"address","name":"foundation","type":"address"},{"internalType":"address","name":"sudoswap","type":"address"},{"internalType":"address","name":"elementMarket","type":"address"},{"internalType":"address","name":"nft20Zap","type":"address"},{"internalType":"address","name":"cryptopunks","type":"address"},{"internalType":"address","name":"looksRareV2","type":"address"},{"internalType":"address","name":"routerRewardsDistributor","type":"address"},{"internalType":"address","name":"looksRareRewardsDistributor","type":"address"},{"internalType":"address","name":"looksRareToken","type":"address"},{"internalType":"address","name":"v2Factory","type":"address"},{"internalType":"address","name":"v3Factory","type":"address"},{"internalType":"bytes32","name":"pairInitCodeHash","type":"bytes32"},{"internalType":"bytes32","name":"poolInitCodeHash","type":"bytes32"}],"internalType":"struct RouterParameters","name":"params","type":"tuple"}],"stateMutability":"nonpayable","type":"constructor"},{"inputs":[],"name":"BalanceTooLow","type":"error"},{"inputs":[],"name":"BuyPunkFailed","type":"error"},{"inputs":[],"name":"ContractLocked","type":"error"},{"inputs":[],"name":"ETHNotAccepted","type":"error"},{"inputs":[{"internalType":"uint256","name":"commandIndex","type":"uint256"},{"internalType":"bytes","name":"message","type":"bytes"}],"name":"ExecutionFailed","type":"error"},{"inputs":[],"name":"FromAddressIsNotOwner","type":"error"},{"inputs":[],"name":"InsufficientETH","type":"error"},{"inputs":[],"name":"InsufficientToken","type":"error"},{"inputs":[],"name":"InvalidBips","type":"error"},{"inputs":[{"internalType":"uint256","name":"commandType","type":"uint256"}],"name":"InvalidCommandType","type":"error"},{"inputs":[],"name":"InvalidOwnerERC1155","type":"error"},{"inputs":[],"name":"InvalidOwnerERC721","type":"error"},{"inputs":[],"name":"InvalidPath","type":"error"},{"inputs":[],"name":"InvalidReserves","type":"error"},{"inputs":[],"name":"InvalidSpender","type":"error"},{"inputs":[],"name":"LengthMismatch","type":"error"},{"inputs":[],"name":"SliceOutOfBounds","type":"error"},{"inputs":[],"name":"TransactionDeadlinePassed","type":"error"},{"inputs":[],"name":"UnableToClaim","type":"error"},{"inputs":[],"name":"UnsafeCast","type":"error"},{"inputs":[],"name":"V2InvalidPath","type":"error"},{"inputs":[],"name":"V2TooLittleReceived","type":"error"},{"inputs":[],"name":"V2TooMuchRequested","type":"error"},{"inputs":[],"name":"V3InvalidAmountOut","type":"error"},{"inputs":[],"name":"V3InvalidCaller","type":"error"},{"inputs":[],"name":"V3InvalidSwap","type":"error"},{"inputs":[],"name":"V3TooLittleReceived","type":"error"},{"inputs":[],"name":"V3TooMuchRequested","type":"error"},{"anonymous":false,"inputs":[{"indexed":false,"internalType":"uint256","name":"amount","type":"uint256"}],"name":"RewardsSent","type":"event"},{"inputs":[{"internalType":"bytes","name":"looksRareClaim","type":"bytes"}],"name":"collectRewards","outputs":[],"stateMutability":"nonpayable","type":"function"},{"inputs":[{"internalType":"bytes","name":"commands","type":"bytes"},{"internalType":"bytes[]","name":"inputs","type":"bytes[]"}],"name":"execute","outputs":[],"stateMutability":"payable","type":"function"},{"inputs":[{"internalType":"bytes","name":"commands","type":"bytes"},{"internalType":"bytes[]","name":"inputs","type":"bytes[]"},{"internalType":"uint256","name":"deadline","type":"uint256"}],"name":"execute","outputs":[],"stateMutability":"payable","type":"function"},{"inputs":[{"internalType":"address","name":"","type":"address"},{"internalType":"address","name":"","type":"address"},{"internalType":"uint256[]","name":"","type":"uint256[]"},{"internalType":"uint256[]","name":"","type":"uint256[]"},{"internalType":"bytes","name":"","type":"bytes"}],"name":"onERC1155BatchReceived","outputs":[{"internalType":"bytes4","name":"","type":"bytes4"}],"stateMutability":"pure","type":"function"},{"inputs":[{"internalType":"address","name":"","type":"address"},{"internalType":"address","name":"","type":"address"},{"internalType":"uint256","name":"","type":"uint256"},{"internalType":"uint256","name":"","type":"uint256"},{"internalType":"bytes","name":"","type":"bytes"}],"name":"onERC1155Received","outputs":[{"internalType":"bytes4","name":"","type":"bytes4"}],"stateMutability":"pure","type":"function"},{"inputs":[{"internalType":"address","name":"","type":"address"},{"internalType":"address","name":"","type":"address"},{"internalType":"uint256","name":"","type":"uint256"},{"internalType":"bytes","name":"","type":"bytes"}],"name":"onERC721Received","outputs":[{"internalType":"bytes4","name":"","type":"bytes4"}],"stateMutability":"pure","type":"function"},{"inputs":[{"internalType":"bytes4","name":"interfaceId","type":"bytes4"}],"name":"supportsInterface","outputs":[{"internalType":"bool","name":"","type":"bool"}],"stateMutability":"pure","type":"function"},{"inputs":[{"internalType":"int256","name":"amount0Delta","type":"int256"},{"internalType":"int256","name":"amount1Delta","type":"int256"},{"internalType":"bytes","name":"data","type":"bytes"}],"name":"uniswapV3SwapCallback","outputs":[],"stateMutability":"nonpayable","type":"function"},{"stateMutability":"payable","type":"receive"}],"evm":{"bytecode":{"linkReferences":{},"object":"346200059f5762004bd738819003610300601f8201601f19168101906001600160401b03821190821017620005895761028092829160405261030039126200059f5760405161028081016001600160401b0381118282101762000589576040526200006c610300620005c4565b808252906200007d610320620005c4565b6020820181905262000091610340620005c4565b6040830152620000a3610360620005c4565b6060830152620000b5610380620005c4565b60808301819052620000c96103a0620005c4565b60a0840152620000db6103c0620005c4565b60c0840152620000ed6103e0620005c4565b60e0840152620000ff610400620005c4565b61010084018190529162000115610420620005c4565b61012085015262000128610440620005c4565b6101408501526200013b610460620005c4565b6101608501526200014e610480620005c4565b610180850152620001616104a0620005c4565b6101a0850152620001746104c0620005c4565b6101c0850152620001876104e0620005c4565b6101e08501526200019a610500620005c4565b610200850152620001ad610520620005c4565b6102208501526105405161024085015261056051610260850152620001d1620005a4565b6001600160a01b0395861681529085166020820152908416604082015290831660608201526102008201516102208301516102408401516102608501519395928316939290911662000222620005a4565b9384526020840152604080840191909152606080840192909252838101519184015160a085015160c086015160e08701516101008801516101208901516101408a01516101608b01516101808c01516101a0808e01516101c08f01516101e0909f01519b516001600160a01b039b8c169f909d8c169c8c169b9081169a918116999381169894811697958116968116958116948116938116929116908d01808e116001600160401b0390911117620005895760609e60208e8e6101a082016040528152015260408d01528d8c015260808b015260a08a015260c089015260e088015261010087015261012086015261014085015261016084015261018083015260805260018060a01b0360208201511660a05260018060a01b0360408201511660c05260018060a01b03838201511660e05260018060a01b036080820151166101005260018060a01b0360c0820151166101205260018060a01b0360e0820151166101405260018060a01b03610100820151166101605260018060a01b03610120820151166101805260018060a01b03610180820151166101a05260018060a01b03610160820151166101c05261014060018060a01b03910151166101e05260018060a01b038151166102005260408101516102205260018060a01b036020820151166102405201516102605260018060a01b036020820151166102805260018060a01b038151166102a05260018060a01b036040820151166102c052606060018060a01b03910151166102e0526000196000556001808060a01b0319815416176001556040516145fd620005da8239608051816127fb015260a051816131b1015260c051816128af015260e051818181612d590152612e5b01526101005181612f690152610120518161314801526101405181612e03015261016051816128ed0152610180518161285801526101a0518161051001526101c051816104b401526101e0518161059801526102005181818161193901528181611d490152613ffe01526102205181818161191801528181611d280152613fdd0152610240518161453b0152610260518161451901526102805181818161213e01526122c501526102a0518181816113580152818161145801528181611fb7015281816124dd0152613b0a01526102c0518161339101526102e051818181612dac015261349301526145fd90f35b634e487b7160e01b600052604160045260246000fd5b600080fd5b60405190608082016001600160401b038111838210176200058957604052565b51906001600160a01b03821682036200059f5756fe60a0604081815260049081361015610022575b505050361561002057600080fd5b005b600092833560e01c90816301ffc9a71461093d57508063150b7a02146108af57806324856bc3146107e85780633593564c146106b1578063709a1cc21461044f578063bc197c811461038a578063f23a6e61146102f95763fa461e330361001257346102f55760607ffffffffffffffffffffffffffffffffffffffffffffffffffffffffffffffffc3601126102f557813590602435926044359067ffffffffffffffff918281116102f1576100db9036908301610a97565b919092878613908115806102e7575b6102bf5783850186868203126102bb5785359182116102bb5761010e9186016136d0565b5060208401359373ffffffffffffffffffffffffffffffffffffffff938486168096036102bb5761013e91614279565b959097602b89106102935786359260178460601c98019561016d62ffffff883560601c9660481c16868b614484565b3391160361026b571561026157508186105b15610197575050505061019493503391613be1565b80f35b9395945091929091906042871061021b5750505083601711610217577f8000000000000000000000000000000000000000000000000000000000000000821015610217577fffffffffffffffffffffffffffffffffffffffffffffffffffffffffffffffe961021194019161020c33916142d4565b614301565b50505080f35b8480fd5b91969550929391508454841161023957506101949394503391613be1565b8590517f739dbe52000000000000000000000000000000000000000000000000000000008152fd5b965085821061017f565b8483517f32b13d91000000000000000000000000000000000000000000000000000000008152fd5b8382517f3b99b53d000000000000000000000000000000000000000000000000000000008152fd5b8980fd5b8286517f316cf0eb000000000000000000000000000000000000000000000000000000008152fd5b50888813156100ea565b8680fd5b8280fd5b5082346103875760a07ffffffffffffffffffffffffffffffffffffffffffffffffffffffffffffffffc36011261038757610332610a2b565b5061033b610a53565b506084359067ffffffffffffffff8211610387575060209261035f91369101610a97565b5050517ff23a6e61000000000000000000000000000000000000000000000000000000008152f35b80fd5b5082346103875760a07ffffffffffffffffffffffffffffffffffffffffffffffffffffffffffffffffc360112610387576103c3610a2b565b506103cc610a53565b5067ffffffffffffffff9060443582811161044b576103ee9036908601610ac5565b505060643582811161044b576104079036908601610ac5565b5050608435918211610387575060209261042391369101610a97565b5050517fbc197c81000000000000000000000000000000000000000000000000000000008152f35b5080fd5b50346102f557602090817ffffffffffffffffffffffffffffffffffffffffffffffffffffffffffffffffc3601126106ad5783833567ffffffffffffffff811161044b576104a1829136908701610a97565b90818551928392833781018381520390827f00000000000000000000000000000000000000000000000000000000000000005af16104dd613675565b50156106855780517f70a082310000000000000000000000000000000000000000000000000000000081523084820152907f000000000000000000000000000000000000000000000000000000000000000073ffffffffffffffffffffffffffffffffffffffff168383602481845afa92831561067b578693610646575b5081517fa9059cbb00000000000000000000000000000000000000000000000000000000815273ffffffffffffffffffffffffffffffffffffffff7f0000000000000000000000000000000000000000000000000000000000000000169581019586526020860184905294849186918290899082906040015b03925af193841561063c577f1e8f03f716bc104bf7d728131967a0c771e85ab54d09c1e2d6ed9e0bc4e2a16c9461060f575b5051908152a180f35b61062e90843d8611610635575b61062681836135fa565b81019061388d565b5038610606565b503d61061c565b81513d87823e3d90fd5b9092508381813d8311610674575b61065e81836135fa565b810103126106705751916105d461055b565b8580fd5b503d610654565b82513d88823e3d90fd5b9050517f7d529919000000000000000000000000000000000000000000000000000000008152fd5b8380fd5b5060607ffffffffffffffffffffffffffffffffffffffffffffffffffffffffffffffffc3601126102f55767ffffffffffffffff8235818111610217576106fb9036908501610a97565b91602435908111610670576107139036908601610ac5565b92909160443542116107c0573330146107b1576001958654958773ffffffffffffffffffffffffffffffffffffffff88160361078b5750509185949391610782937fffffffffffffffffffffffff00000000000000000000000000000000000000009586339116178755610b54565b81541617905580f35b517f6f5ffb7e000000000000000000000000000000000000000000000000000000008152fd5b90919293506101949450610b54565b8585517f5bf6f916000000000000000000000000000000000000000000000000000000008152fd5b50807ffffffffffffffffffffffffffffffffffffffffffffffffffffffffffffffffc3601126102f55767ffffffffffffffff8235818111610217576108319036908501610a97565b91602435908111610670576108499036908601610ac5565b9290913330146107b1576001958654958773ffffffffffffffffffffffffffffffffffffffff88160361078b5750509185949391610782937fffffffffffffffffffffffff00000000000000000000000000000000000000009586339116178755610b54565b5082346103875760807ffffffffffffffffffffffffffffffffffffffffffffffffffffffffffffffffc360112610387576108e8610a2b565b506108f1610a53565b506064359067ffffffffffffffff8211610387575060209261091591369101610a97565b5050517f150b7a02000000000000000000000000000000000000000000000000000000008152f35b849084346102f55760207ffffffffffffffffffffffffffffffffffffffffffffffffffffffffffffffffc3601126102f557357fffffffff0000000000000000000000000000000000000000000000000000000081168091036102f557602092507f4e2312e0000000000000000000000000000000000000000000000000000000008114908115610a01575b81156109d7575b5015158152f35b7f01ffc9a700000000000000000000000000000000000000000000000000000000915014836109d0565b7f150b7a0200000000000000000000000000000000000000000000000000000000811491506109c9565b6004359073ffffffffffffffffffffffffffffffffffffffff82168203610a4e57565b600080fd5b6024359073ffffffffffffffffffffffffffffffffffffffff82168203610a4e57565b359073ffffffffffffffffffffffffffffffffffffffff82168203610a4e57565b9181601f84011215610a4e5782359167ffffffffffffffff8311610a4e5760208381860195010111610a4e57565b9181601f84011215610a4e5782359167ffffffffffffffff8311610a4e576020808501948460051b010111610a4e57565b919082519283825260005b848110610b405750507fffffffffffffffffffffffffffffffffffffffffffffffffffffffffffffffe0601f8460006020809697860101520116010190565b602081830181015184830182015201610b01565b9192909260805282810361350d5791906000905b828210610b755750505050565b8382959394951015611b4c5760059282841b60805101357fffffffffffffffffffffffffffffffffffffffffffffffffffffffffffffffe19182608051360301821215610a4e578160805101359767ffffffffffffffff8911610a4e576020836080510101988036038a13610a4e57606097603f90818989013560f81c166001976020821060001461317157506010808210156127b4575060088082101561187e57508061109157505050610c2a908a6142b7565b92909860a08560805101013560001461108757610c6173ffffffffffffffffffffffffffffffffffffffff600154169b5b35613854565b9960408660805101013585829d927f80000000000000000000000000000000000000000000000000000000000000008314610fcf575b50959c95505b7f8000000000000000000000000000000000000000000000000000000000000000811015610a4e5760428610610fc85730915b86602b11610a4e578d91601783013560601c9083359462ffffff8660601c96610d1573ffffffffffffffffffffffffffffffffffffffff92839260481c16868a614484565b169084881015610fac57806401000276a4965b602b60405199604060208c01528160608c015260808b0137600060ab8a015216604088015260a0875260c087019587871067ffffffffffffffff881117610f7d576040948288958688527f128acb080000000000000000000000000000000000000000000000000000000087521660c48a0152868a1060e48a01526101048901521661012487015260a06101448701528160007fffffffffffffffffffffffffffffffffffffffffffffffffffffffffffffff4088610deb610164820182610af6565b0301925af1928315610f71576000928394610f2f575b5050610e159310600014610f2857506142d4565b9a60428510610e5657309085601711610a4e5760177fffffffffffffffffffffffffffffffffffffffffffffffffffffffffffffffe991019501949b610c9d565b50985098606091969597949392509160805101013511610efe575b1580610ed1575b610e8a57506001019291929092610b68565b90610ecd60409283519384937f2c4029e9000000000000000000000000000000000000000000000000000000008552600485015260248401526044830190610af6565b0390fd5b507f8000000000000000000000000000000000000000000000000000000000000000828501351615610e78565b60046040517f39d35496000000000000000000000000000000000000000000000000000000008152fd5b90506142d4565b91929093506040843d604011610f69575b81610f4d604093866135fa565b8101031261038757505160e092909201519190610e1538610e01565b3d9150610f40565b6040513d6000823e3d90fd5b7f4e487b7100000000000000000000000000000000000000000000000000000000600052604160045260246000fd5b8073fffd8963efd1fc6a506488495d951d5263988d2596610d28565b8b91610cd0565b60149192501061105d576020602491604051928380927f70a082310000000000000000000000000000000000000000000000000000000082523060048301523560601c5afa908115610f715760009161102b575b503880610c97565b906020823d602011611055575b81611045602093836135fa565b8101031261038757505138611023565b3d9150611038565b60046040517f3b99b53d000000000000000000000000000000000000000000000000000000008152fd5b610c61309b610c5b565b6001819d969d9b989794959a999b146000146111b7575050506040926110bf848360805101013593826142b7565b608051840160a00135156111ab5760606110f273ffffffffffffffffffffffffffffffffffffffff600154169435613854565b946080510101356000557f8000000000000000000000000000000000000000000000000000000000000000851015610a4e576111319361020c866142d4565b9091901561119c5750611143906142d4565b0361117357507fffffffffffffffffffffffffffffffffffffffffffffffffffffffffffffffff6000555b610e71565b600490517fd4e0248e000000000000000000000000000000000000000000000000000000008152fd5b6111a691506142d4565b611143565b60606110f23094610c5b565b9194929391600281036112065750505061116e925073ffffffffffffffffffffffffffffffffffffffff600154166111ff604060608560805101013594608051010135613854565b9135613aef565b9193916003810361157857505060805181018084019390604090850312610a4e57823567ffffffffffffffff8111610a4e5782608051010192606084860312610a4e57604051946060860186811067ffffffffffffffff821117610f7d57604052602085013567ffffffffffffffff8111610a4e57850160208201809882011215610a4e5760208101359061129a826136a5565b926112a860405194856135fa565b8284526040602085019360071b830101918a8311610a4e57604001925b828410611513575050505085526112de60408501610a76565b956020860196875260606040870195013585526040846080510101359067ffffffffffffffff8211610a4e57602061131f92611325966080510101016136d0565b5061429a565b909173ffffffffffffffffffffffffffffffffffffffff600154169473ffffffffffffffffffffffffffffffffffffffff7f0000000000000000000000000000000000000000000000000000000000000000163b15610a4e5794929391906040519586947f2a2d80d100000000000000000000000000000000000000000000000000000000865260048601526060602486015260c48501935193606060648701528451809152602060e487019501906000905b80821061149a575050509461143e9285949273ffffffffffffffffffffffffffffffffffffffff600098511660848701525160a48601527ffffffffffffffffffffffffffffffffffffffffffffffffffffffffffffffffc858403016044860152613537565b03818373ffffffffffffffffffffffffffffffffffffffff7f0000000000000000000000000000000000000000000000000000000000000000165af18015610f715761148b575b50610e71565b61149490613576565b38611485565b9197965091929394602060806001928a5173ffffffffffffffffffffffffffffffffffffffff815116825273ffffffffffffffffffffffffffffffffffffffff848201511684830152606065ffffffffffff918260408201511660408501520151166060820152019801920188969795949392916113d8565b608060208584030112610a4e5760206080916040516115318161358a565b61153a87610a76565b8152611547838801610a76565b83820152611557604088016136bd565b6040820152611568606088016136bd565b60608201528152019301926112c5565b600495509193508482036116e757505090916040606061159e8286608051010135613854565b608051909501013573ffffffffffffffffffffffffffffffffffffffff908116933516806116145750479283106115ee575050806115de575b5050610e71565b6115e791613984565b38806115d7565b517f6a12f104000000000000000000000000000000000000000000000000000000008152fd5b9391908051937f70a082310000000000000000000000000000000000000000000000000000000085523083860152602085602481895afa9485156116dc576000956116a8575b50841061168257505081611671575b505050610e71565b61167a926139f2565b388080611669565b517f675cae38000000000000000000000000000000000000000000000000000000008152fd5b90946020823d6020116116d4575b816116c3602093836135fa565b81010312610387575051933861165a565b3d91506116b6565b82513d6000823e3d90fd5b8103611714575061116e925061170d604060608460805101013593608051010135613854565b90356138a5565b9091906006810361184e57506080510160608101359060409061173990820135613854565b9282158015611843575b61181b573573ffffffffffffffffffffffffffffffffffffffff16938461177f57505061116e92506117786127109147613aa3565b0490613984565b8151907f70a082310000000000000000000000000000000000000000000000000000000082523090820152602081602481885afa91821561181157506000916117dd575b506117d661116e94939261271092613aa3565b04916139f2565b906020823d602011611809575b816117f7602093836135fa565b810103126103875750516117d66117c3565b3d91506117ea565b513d6000823e3d90fd5b8482517fdeaa01e6000000000000000000000000000000000000000000000000000000008152fd5b506127108311611743565b83602491604051917fd76a1e9e000000000000000000000000000000000000000000000000000000008352820152fd5b819d969d9b989794959a999b93929314600014611b85575050506040916118ad838360805101013591856142b7565b92909460a082608051010135600014611b7b576118e373ffffffffffffffffffffffffffffffffffffffff600154169135613854565b908615611b4c576118f385613bb3565b8760011015611b4c5761191561195d9161190f60208901613bb3565b90613d53565b907f00000000000000000000000000000000000000000000000000000000000000007f0000000000000000000000000000000000000000000000000000000000000000613c4b565b938481611b32575b5050507fffffffffffffffffffffffffffffffffffffffffffffffffffffffffffffffff860193868511611b03576119b9946119be73ffffffffffffffffffffffffffffffffffffffff9687928a85613ba3565b613bb3565b16948651947f70a082310000000000000000000000000000000000000000000000000000000091828752841693600499858b89015260249460208987818d5afa988915611af857600099611ac3575b509160209695949391611a1f93613dcc565b8751968793849283528a8301525afa928315611ab857600093611a83575b50906060611a519260805101013592613bd4565b10611a5d575050610e71565b517f849eaf98000000000000000000000000000000000000000000000000000000008152fd5b90926020823d602011611ab0575b81611a9e602093836135fa565b81010312610387575051916060611a3d565b3d9150611a91565b84513d6000823e3d90fd5b90986020823d602011611af0575b81611ade602093836135fa565b81010312610387575051976020611a0d565b3d9150611ad1565b8b513d6000823e3d90fd5b7f4e487b7100000000000000000000000000000000000000000000000000000000600052601160045260246000fd5b611b4492611b3f88613bb3565b613be1565b388084611965565b7f4e487b7100000000000000000000000000000000000000000000000000000000600052603260045260246000fd5b6118e33091610c5b565b919492939160098103611f66575050611b9e90826142b7565b608051840160a0013515611f5c57611bcf73ffffffffffffffffffffffffffffffffffffffff600154169335613854565b92611bd9836136a5565b95611be760405197886135fa565b83875283901b820160208701368211610a4e5783905b828210611f44575050506000946002875110611f1a576040816080510101359680517fffffffffffffffffffffffffffffffffffffffffffffffffffffffffffffffff8101908111611b035790815b611ca757505060805101606001358611611c7d578215611b4c5761116e9585611c7892611b3f85613bb3565b613dcc565b60046040517f8ab0bc16000000000000000000000000000000000000000000000000000000008152fd5b90977fffffffffffffffffffffffffffffffffffffffffffffffffffffffffffffffff89019750888811611b035773ffffffffffffffffffffffffffffffffffffffff611cf7611d6d9984613b8f565b5116611d2373ffffffffffffffffffffffffffffffffffffffff611d1b8c86613b8f565b511682613d53565b819a917f00000000000000000000000000000000000000000000000000000000000000007f0000000000000000000000000000000000000000000000000000000000000000613c4b565b90604051907f0902f1ac00000000000000000000000000000000000000000000000000000000825260608260048173ffffffffffffffffffffffffffffffffffffffff87165afa9a8b15610f7157600092839c611ed1575b5073ffffffffffffffffffffffffffffffffffffffff1603611eb7576dffffffffffffffffffffffffffff8091169916905b9880158015611eaf575b611e855782611e0f91613aa3565b916103e892838102938185041490151715611b0357611e2d91613bd4565b6103e590818102918183041490151715611b0357611e4a91613ab6565b60018101809111611b0357978015611b03577fffffffffffffffffffffffffffffffffffffffffffffffffffffffffffffffff019081611c4c565b60046040517f7b9c8916000000000000000000000000000000000000000000000000000000008152fd5b508115611e01565b6dffffffffffffffffffffffffffff998a16991690611df7565b611f0a919c5073ffffffffffffffffffffffffffffffffffffffff935060603d8111611f13575b611f0281836135fa565b810190613d96565b509b9092611dc5565b503d611ef8565b60046040517f20db8267000000000000000000000000000000000000000000000000000000008152fd5b60208091611f5184610a76565b815201910190611bfd565b611bcf3093610c5b565b92945091600a81036120cc5750608051830160e08101358101946020808701359450909291611f9991908703018461426c565b1161105d5773ffffffffffffffffffffffffffffffffffffffff93847f00000000000000000000000000000000000000000000000000000000000000001692856001541691843b15610a4e5760409587875198899687967f2b67b570000000000000000000000000000000000000000000000000000000008852600488015261202190610a76565b166024860152808883608051010161203890610a76565b16604486015265ffffffffffff808360805101606001612057906136bd565b166064870152826080510160800161206e906136bd565b166084860152816080510160a00161208590610a76565b1660a48501526080510160c0013560c484015261010060e48401526120b1916101048401918701613537565b03815a6000948591f1908115611811575061148b5750610e71565b600b8103612296575050506120eb604080926080510101359235613854565b91807f80000000000000000000000000000000000000000000000000000000000000008103612266575050475b8061212557505050610e71565b73ffffffffffffffffffffffffffffffffffffffff90817f000000000000000000000000000000000000000000000000000000000000000016803b15610a4e578351927fd0e30db0000000000000000000000000000000000000000000000000000000008452600493600081868187875af1801561225b5761224c575b5030908616036121b4575b5050611669565b6122139460006020948651978895869485937fa9059cbb00000000000000000000000000000000000000000000000000000000855284016020909392919373ffffffffffffffffffffffffffffffffffffffff60408201951681520152565b03925af1908115611811575061222d575b808080806121ad565b6122459060203d6020116106355761062681836135fa565b5038612224565b61225590613576565b386121a2565b86513d6000823e3d90fd5b47101561211857600482517f6a12f104000000000000000000000000000000000000000000000000000000008152fd5b600c810361242657505050906122ac9035613854565b9073ffffffffffffffffffffffffffffffffffffffff807f00000000000000000000000000000000000000000000000000000000000000001660408051937f70a08231000000000000000000000000000000000000000000000000000000008552600430818701526024916020878481885afa968715611ab8576000976123f2575b506080510183013586106123cb578561234e575b50505050505050610e71565b833b15610a4e57600091869183855196879485937f2e1a7d4d0000000000000000000000000000000000000000000000000000000085528401525af190811561181157506123bc575b5030908316036123ac575b8080808080612342565b6123b591613984565b38806123a2565b6123c590613576565b38612397565b82517f6a12f104000000000000000000000000000000000000000000000000000000008152fd5b90966020823d60201161241e575b8161240d602093836135fa565b81010312610387575051958361232e565b3d9150612400565b600d8103612681575082608051010191602083019360208260805101850312610a4e573567ffffffffffffffff8111610a4e57849160805101019182011215610a4e57602081013590612478826136a5565b93604093612488855196876135fa565b838652602086019285849560071b820101928311610a4e578501925b82841061261f575050505073ffffffffffffffffffffffffffffffffffffffff90816001541684519060005b8281106125b357505050817f00000000000000000000000000000000000000000000000000000000000000001691823b15610a4e5783517f0d58b1db000000000000000000000000000000000000000000000000000000008152602060048201529451602486018190528592604484019290916000915b81831061256f57505050509181600081819503925af1908115611811575061148b5750610e71565b91938395506080602091846060600195975182815116845282868201511686850152828d820151168d85015201511660608201520195019301909187949392612547565b81856125bf838a613b8f565b515116036125f6577fffffffffffffffffffffffffffffffffffffffffffffffffffffffffffffffff8114611b03576001016124d0565b600486517fe7002877000000000000000000000000000000000000000000000000000000008152fd5b608060208584030112610a4e576020608091875161263c8161358a565b61264587610a76565b8152612652838801610a76565b83820152612661898801610a76565b8982015261267160608801610a76565b60608201528152019301926124a4565b9294505050600e810361278357506040918251907f70a0823100000000000000000000000000000000000000000000000000000000825260208260248173ffffffffffffffffffffffffffffffffffffffff806004983516888301528886608051010135165afa918215611ab85760009261274e575b5060805101606001351180159290612710575050610e71565b517fa3281672000000000000000000000000000000000000000000000000000000006020820152908152909150612746816135c2565b9038806115d7565b90916020823d60201161277b575b81612769602093836135fa565b810103126103875750519060606126f7565b3d915061275c565b602490604051907fd76a1e9e0000000000000000000000000000000000000000000000000000000082526004820152fd5b9150915060189b95939897999692949b808310600014612d435750810361282a5750505060009250906127e883928261429a565b81604051928392833781018481520391357f00000000000000000000000000000000000000000000000000000000000000005af1612824613675565b90610e71565b6011810361288157505050600092509061284583928261429a565b81604051928392833781018481520391357f00000000000000000000000000000000000000000000000000000000000000005af1612824613675565b601281036128d857505050600092509061289c83928261429a565b81604051928392833781018481520391357f00000000000000000000000000000000000000000000000000000000000000005af1612824613675565b919392509060138103612a3e575050909150357f0000000000000000000000000000000000000000000000000000000000000000916040600080825160208101907f8264fe9800000000000000000000000000000000000000000000000000000000825260248781830152815261294e816135de565b5190606086608051010135885af192612965613675565b948415612a04578273ffffffffffffffffffffffffffffffffffffffff612993921694608051010135613854565b90833b15610a4e5782517f8b72a2ec00000000000000000000000000000000000000000000000000000000815273ffffffffffffffffffffffffffffffffffffffff9290921660048301526024820152916000908390604490829084905af1908115611811575061148b5750610e71565b505091925050517fae9bdf0000000000000000000000000000000000000000000000000000000000602082015260048152612824816135c2565b60158103612b4f57505090604091828051917f6352211e0000000000000000000000000000000000000000000000000000000083526020836024816004976060816080510101358983015273ffffffffffffffffffffffffffffffffffffffff968791608051010135165afa928315612b4457600093612b05575b5081903516911614918215612acf575050610e71565b517f7dbe7e89000000000000000000000000000000000000000000000000000000006020820152908152909150612746816135c2565b6020939193813d602011612b3c575b81612b21602093836135fa565b8101031261044b575190828216820361038757509181612ab9565b3d9150612b14565b85513d6000823e3d90fd5b60168103612c765750506040918251907efdd58e00000000000000000000000000000000000000000000000000000000825260208280612bc160049660608660805101013590358884016020909392919373ffffffffffffffffffffffffffffffffffffffff60408201951681520152565b038173ffffffffffffffffffffffffffffffffffffffff8886608051010135165afa918215611ab857600092612c41575b5060809081510101351191821592612c0b575050610e71565b517f483a6929000000000000000000000000000000000000000000000000000000006020820152908152909150612746816135c2565b90916020823d602011612c6e575b81612c5c602093836135fa565b81010312610387575051906080612bf2565b3d9150612c4f565b909290601714612c87575050610e71565b60409073ffffffffffffffffffffffffffffffffffffffff612caf8383608051010135613854565b93351692833b15610a4e5782517f42842e0e00000000000000000000000000000000000000000000000000000000815260805130600483015273ffffffffffffffffffffffffffffffffffffffff909216602482015291016060013560448201529160009083908183816064810103925af19081156118115750612d34575b806115d7565b612d3d90613576565b38612d2e565b9396938214159050612d7e5750505061282492507f000000000000000000000000000000000000000000000000000000000000000091613717565b60198103612dd5575050506000925090612d9983928261429a565b81604051928392833781018481520391357f00000000000000000000000000000000000000000000000000000000000000005af1612824613675565b601a8103612e2c575050506000925090612df083928261429a565b81604051928392833781018481520391357f00000000000000000000000000000000000000000000000000000000000000005af1612824613675565b601b8103612f53575050506000612e4481928461429a565b9390604094818651928392833781018481520391357f00000000000000000000000000000000000000000000000000000000000000005af1918291612e87613675565b92612e95575b505090610e71565b73ffffffffffffffffffffffffffffffffffffffff608083815101013516612ec4606084608051010135613854565b90825190612ed1826135a6565b60008252803b15610a4e57612f2d94600080948651978895869485937ff242432a00000000000000000000000000000000000000000000000000000000855260a060c0836080510101359260805101013590306004870161380f565b03925af19081156118115750612f44575b80612e8d565b612f4d90613576565b38612f3e565b91949091601c8103612f8e5750505061282492507f000000000000000000000000000000000000000000000000000000000000000091613717565b9193929091601d81036131175750506060816080510101359060409173ffffffffffffffffffffffffffffffffffffffff612fcf8484608051010135613854565b9435168351947efdd58e0000000000000000000000000000000000000000000000000000000086526004936020878061302e87308a84016020909392919373ffffffffffffffffffffffffffffffffffffffff60408201951681520152565b0381865afa96871561225b576000976130e2575b50608090815101013586106130ba57845161305c816135a6565b60008152823b15610a4e576000946130a486928851998a97889687957ff242432a0000000000000000000000000000000000000000000000000000000087523090870161380f565b03925af1908115611811575061148b5750610e71565b8385517f675cae38000000000000000000000000000000000000000000000000000000008152fd5b90966020823d60201161310f575b816130fd602093836135fa565b81010312610387575051956080613042565b3d91506130f0565b929450925050601e810361278357508161313560009392849361429a565b81604051928392833781018481520391357f00000000000000000000000000000000000000000000000000000000000000005af1612824613675565b9499989a92506020819d9792969d989498146000146131da575050505050508061319e600093849361429a565b81604051928392833781018481520391357f00000000000000000000000000000000000000000000000000000000000000005af1612824613675565b602190808203613351575050505090916131ff6131f78686614279565b96909561429a565b929061324160409788519760208901997f24856bc3000000000000000000000000000000000000000000000000000000008b5260248a01526064890191613537565b7fffffffffffffffffffffffffffffffffffffffffffffffffffffffffffffffdc878203016044880152818152602082818301951b82010195856000915b8483106132d357505050505050505091816132c5600094938594037fffffffffffffffffffffffffffffffffffffffffffffffffffffffffffffffe081018352826135fa565b519082305af1612824613675565b90919293949596977fffffffffffffffffffffffffffffffffffffffffffffffffffffffffffffffe085820301885288358284360301811215610a4e578301906020823592019167ffffffffffffffff8111610a4e578036038313610a4e5761334160209283928b95613537565b9a0198019695949301919061327f565b929750929593509350602281146000146127835750604080936080510101359060009060028310156134e1575050808491156000146134895750506000907f0000000000000000000000000000000000000000000000000000000000000000925b6020838251937f095ea7b3000000000000000000000000000000000000000000000000000000008552600496878601526024947fffffffffffffffffffffffffffffffffffffffffffffffffffffffffffffffff868201526044968792355af13d15601f3d1187600051141617161561342e5750505050610e71565b91600e7f415050524f56455f4641494c45440000000000000000000000000000000000009260206064969551957f08c379a0000000000000000000000000000000000000000000000000000000008752860152840152820152fd5b036134b8576000907f0000000000000000000000000000000000000000000000000000000000000000926133b2565b600482517f5461585f000000000000000000000000000000000000000000000000000000008152fd5b602492507f4e487b71000000000000000000000000000000000000000000000000000000008252600452fd5b60046040517fff633a38000000000000000000000000000000000000000000000000000000008152fd5b601f82602094937fffffffffffffffffffffffffffffffffffffffffffffffffffffffffffffffe0938186528686013760008582860101520116010190565b67ffffffffffffffff8111610f7d57604052565b6080810190811067ffffffffffffffff821117610f7d57604052565b6020810190811067ffffffffffffffff821117610f7d57604052565b6040810190811067ffffffffffffffff821117610f7d57604052565b6060810190811067ffffffffffffffff821117610f7d57604052565b90601f7fffffffffffffffffffffffffffffffffffffffffffffffffffffffffffffffe0910116810190811067ffffffffffffffff821117610f7d57604052565b67ffffffffffffffff8111610f7d57601f017fffffffffffffffffffffffffffffffffffffffffffffffffffffffffffffffe01660200190565b3d156136a0573d906136868261363b565b9161369460405193846135fa565b82523d6000602084013e565b606090565b67ffffffffffffffff8111610f7d5760051b60200190565b359065ffffffffffff82168203610a4e57565b81601f82011215610a4e578035906136e78261363b565b926136f560405194856135fa565b82845260208383010111610a4e57816000926020809301838601378301015290565b919290613724908361429a565b90938460405195869384378201906000958693838580955203918635905af19261374c613675565b9284613756575050565b73ffffffffffffffffffffffffffffffffffffffff60608201351661377e6040830135613854565b91813b156106ad576040517f42842e0e00000000000000000000000000000000000000000000000000000000815230600482015273ffffffffffffffffffffffffffffffffffffffff93909316602484015260800135604483015290919081908390606490829084905af190811561380357506137f85750565b61380190613576565b565b604051903d90823e3d90fd5b919261385195949160a09473ffffffffffffffffffffffffffffffffffffffff8092168552166020840152604083015260608201528160808201520190610af6565b90565b73ffffffffffffffffffffffffffffffffffffffff908082166001810361387e5750506001541690565b90915060020361385157503090565b90816020910312610a4e57518015158103610a4e5790565b9092919073ffffffffffffffffffffffffffffffffffffffff16806138cf57506138019192613984565b7f80000000000000000000000000000000000000000000000000000000000000008214613902575b9261380192936139f2565b9050604051927f70a08231000000000000000000000000000000000000000000000000000000008452306004850152602084602481855afa938415610f7157600094613951575b5092906138f7565b6020813d821161397c575b81613969602093836135fa565b8101031261021757519350613801613949565b3d915061395c565b600080809381935af11561399457565b60646040517f08c379a000000000000000000000000000000000000000000000000000000000815260206004820152601360248201527f4554485f5452414e534645525f4641494c4544000000000000000000000000006044820152fd5b60009182604492602095604051937fa9059cbb000000000000000000000000000000000000000000000000000000008552600485015260248401525af13d15601f3d1160016000511416171615613a4557565b60646040517f08c379a000000000000000000000000000000000000000000000000000000000815260206004820152600f60248201527f5452414e534645525f4641494c454400000000000000000000000000000000006044820152fd5b81810292918115918404141715611b0357565b8115613ac0570490565b7f4e487b7100000000000000000000000000000000000000000000000000000000600052601260045260246000fd5b919273ffffffffffffffffffffffffffffffffffffffff91827f00000000000000000000000000000000000000000000000000000000000000001693843b15610a4e5760009484869281608496816040519b8c9a8b997f36c78516000000000000000000000000000000000000000000000000000000008b521660048a01521660248801521660448601521660648401525af18015610f71576137f85750565b8051821015611b4c5760209160051b010190565b9190811015611b4c5760051b0190565b3573ffffffffffffffffffffffffffffffffffffffff81168103610a4e5790565b91908203918211611b0357565b92919073ffffffffffffffffffffffffffffffffffffffff8082163003613c0d575050613801926138a5565b8084959411613c2157613801941692613aef565b60046040517fc4bd89a9000000000000000000000000000000000000000000000000000000008152fd5b9173ffffffffffffffffffffffffffffffffffffffff93613d4c916040519060208201927fffffffffffffffffffffffffffffffffffffffff000000000000000000000000809260601b16845260601b16603482015260288152613cae816135de565b519020613d20604051938492602084019687917fffffffffffffffffffffffffffffffffffffffff000000000000000000000000605594927fff00000000000000000000000000000000000000000000000000000000000000855260601b166001840152601583015260358201520190565b037fffffffffffffffffffffffffffffffffffffffffffffffffffffffffffffffe081018352826135fa565b5190201690565b73ffffffffffffffffffffffffffffffffffffffff8281169082161015613d775791565b9091565b51906dffffffffffffffffffffffffffff82168203610a4e57565b90816060910312610a4e57613daa81613d7b565b916040613db960208401613d7b565b92015163ffffffff81168103610a4e5790565b9260028210614242578115611b4c57613de484613bb3565b9160019481861015611b4c5791613e0260209461190f868601613bb3565b50926000935b7fffffffffffffffffffffffffffffffffffffffffffffffffffffffffffffffff84018510613e3b575050505050505050565b613e496119b9868685613ba3565b92613e5a6119b98a88018786613ba3565b936040908151957f0902f1ac00000000000000000000000000000000000000000000000000000000875273ffffffffffffffffffffffffffffffffffffffff80941694606092600493808a86818b5afa998a1561225b57908d9594939291600091829c61421c575b50508780916dffffffffffffffffffffffffffff8091169c16921692168214998a600014614216575b8651958680947f70a082310000000000000000000000000000000000000000000000000000000082528b8883015260249889915afa92831561420b578e6000946141da575b5050808303918115938480156141d2575b6141aa57826103e5808602958604149114171561417d57613f629083613aa3565b926103e880830292830414171561415057613f879291613f819161426c565b90613ab6565b971561414857600097905b898b7ffffffffffffffffffffffffffffffffffffffffffffffffffffffffffffffffe820181101561413c579161190f6119b9613fd89360026140229c9601908d613ba3565b8198917f00000000000000000000000000000000000000000000000000000000000000007f0000000000000000000000000000000000000000000000000000000000000000613c4b565b965b988551918d83019367ffffffffffffffff948481108682111761410f57885260008452813b15610a4e5760008a936140a282968b519c8d97889687957f022c0d9f0000000000000000000000000000000000000000000000000000000087528d8701528d860152166044840152608060648401526084830190610af6565b03925af18015611ab857908d9695949392916140c7575b505050505094019391613e08565b9091929380959650116140e357505052879038808080806140b9565b6041907f4e487b7100000000000000000000000000000000000000000000000000000000600052526000fd5b876041887f4e487b7100000000000000000000000000000000000000000000000000000000600052526000fd5b5050508b956000614024565b600090613f92565b856011867f4e487b7100000000000000000000000000000000000000000000000000000000600052526000fd5b866011877f4e487b7100000000000000000000000000000000000000000000000000000000600052526000fd5b8689517f7b9c8916000000000000000000000000000000000000000000000000000000008152fd5b508115613f41565b8181959293953d8311614204575b6141f281836135fa565b8101031261038757505191388e613f30565b503d6141e8565b87513d6000823e3d90fd5b90613eeb565b899c50899250908161423992903d10611f1357611f0281836135fa565b509b9091613ec2565b60046040517fae52ad0c000000000000000000000000000000000000000000000000000000008152fd5b91908201809211611b0357565b91823583019161429360208435958186019503018561426c565b1161105d57565b91602083013583019161429360208435958186019503018561426c565b91606083013583019161429360208435958186019503018561426c565b7f80000000000000000000000000000000000000000000000000000000000000008114611b035760000390565b939193602b841061105d578462ffffff60006143869461440d6143b89935988960601c9a8b9a61435a601789013560601c9d8e109c73ffffffffffffffffffffffffffffffffffffffff9e8f998a9460481c1691614484565b16968b8614614469576401000276a49a5b60409d8e9b8c93845196879560208701526060860191613537565b91168b830152037fffffffffffffffffffffffffffffffffffffffffffffffffffffffffffffffe081018352826135fa565b848851998a98899788967f128acb080000000000000000000000000000000000000000000000000000000088521660048701528c6024870152604486015216606484015260a0608484015260a4830190610af6565b03925af190811561445e576000938492614428575b50509192565b9080949250813d8311614457575b61444081836135fa565b810103126103875750602082519201513880614422565b503d614436565b83513d6000823e3d90fd5b73fffd8963efd1fc6a506488495d951d5263988d259a61436b565b73ffffffffffffffffffffffffffffffffffffffff92838316848316116145e8575b62ffffff90846040519481602087019516855216604085015216606083015260608252608082019082821067ffffffffffffffff831117610f7d577fffffffffffffffffffffffffffffffffffffffffffffffffffffffffffffff80613d4c918360405284519020936145bb60a08201957f0000000000000000000000000000000000000000000000000000000000000000907f000000000000000000000000000000000000000000000000000000000000000088917fffffffffffffffffffffffffffffffffffffffff000000000000000000000000605594927fff00000000000000000000000000000000000000000000000000000000000000855260601b166001840152601583015260358201520190565b037fffffffffffffffffffffffffffffffffffffffffffffffffffffffffffffff608101845201826135fa565b9091906144a656fea164736f6c6343000811000a","opcodes":"CALLVALUE PUSH3 0x59F JUMPI PUSH3 0x4BD7 CODESIZE DUP2 SWAP1 SUB PUSH2 0x300 PUSH1 0x1F DUP3 ADD PUSH1 0x1F NOT AND DUP2 ADD SWAP1 PUSH1 0x1 PUSH1 0x1 PUSH1 0x40 SHL SUB DUP3 GT SWAP1 DUP3 LT OR PUSH3 0x589 JUMPI PUSH2 0x280 SWAP3 DUP3 SWAP2 PUSH1 0x40 MSTORE PUSH2 0x300 CODECOPY SLT PUSH3 0x59F JUMPI PUSH1 0x40 MLOAD PUSH2 0x280 DUP2 ADD PUSH1 0x1 PUSH1 0x1 PUSH1 0x40 SHL SUB DUP2 GT DUP3 DUP3 LT OR PUSH3 0x589 JUMPI PUSH1 0x40 MSTORE PUSH3 0x6C PUSH2 0x300 PUSH3 0x5C4 JUMP JUMPDEST DUP1 DUP3 MSTORE SWAP1 PUSH3 0x7D PUSH2 0x320 PUSH3 0x5C4 JUMP JUMPDEST PUSH1 0x20 DUP3 ADD DUP2 SWAP1 MSTORE PUSH3 0x91 PUSH2 0x340 PUSH3 0x5C4 JUMP JUMPDEST PUSH1 0x40 DUP4 ADD MSTORE PUSH3 0xA3 PUSH2 0x360 PUSH3 0x5C4 JUMP JUMPDEST PUSH1 0x60 DUP4 ADD MSTORE PUSH3 0xB5 PUSH2 0x380 PUSH3 0x5C4 JUMP JUMPDEST PUSH1 0x80 DUP4 ADD DUP2 SWAP1 MSTORE PUSH3 0xC9 PUSH2 0x3A0 PUSH3 0x5C4 JUMP JUMPDEST PUSH1 0xA0 DUP5 ADD MSTORE PUSH3 0xDB PUSH2 0x3C0 PUSH3 0x5C4 JUMP JUMPDEST PUSH1 0xC0 DUP5 ADD MSTORE PUSH3 0xED PUSH2 0x3E0 PUSH3 0x5C4 JUMP JUMPDEST PUSH1 0xE0 DUP5 ADD MSTORE PUSH3 0xFF PUSH2 0x400 PUSH3 0x5C4 JUMP JUMPDEST PUSH2 0x100 DUP5 ADD DUP2 SWAP1 MSTORE SWAP2 PUSH3 0x115 PUSH2 0x420 PUSH3 0x5C4 JUMP JUMPDEST PUSH2 0x120 DUP6 ADD MSTORE PUSH3 0x128 PUSH2 0x440 PUSH3 0x5C4 JUMP JUMPDEST PUSH2 0x140 DUP6 ADD MSTORE PUSH3 0x13B PUSH2 0x460 PUSH3 0x5C4 JUMP JUMPDEST PUSH2 0x160 DUP6 ADD MSTORE PUSH3 0x14E PUSH2 0x480 PUSH3 0x5C4 JUMP JUMPDEST PUSH2 0x180 DUP6 ADD MSTORE PUSH3 0x161 PUSH2 0x4A0 PUSH3 0x5C4 JUMP JUMPDEST PUSH2 0x1A0 DUP6 ADD MSTORE PUSH3 0x174 PUSH2 0x4C0 PUSH3 0x5C4 JUMP JUMPDEST PUSH2 0x1C0 DUP6 ADD MSTORE PUSH3 0x187 PUSH2 0x4E0 PUSH3 0x5C4 JUMP JUMPDEST PUSH2 0x1E0 DUP6 ADD MSTORE PUSH3 0x19A PUSH2 0x500 PUSH3 0x5C4 JUMP JUMPDEST PUSH2 0x200 DUP6 ADD MSTORE PUSH3 0x1AD PUSH2 0x520 PUSH3 0x5C4 JUMP JUMPDEST PUSH2 0x220 DUP6 ADD MSTORE PUSH2 0x540 MLOAD PUSH2 0x240 DUP6 ADD MSTORE PUSH2 0x560 MLOAD PUSH2 0x260 DUP6 ADD MSTORE PUSH3 0x1D1 PUSH3 0x5A4 JUMP JUMPDEST PUSH1 0x1 PUSH1 0x1 PUSH1 0xA0 SHL SUB SWAP6 DUP7 AND DUP2 MSTORE SWAP1 DUP6 AND PUSH1 0x20 DUP3 ADD MSTORE SWAP1 DUP5 AND PUSH1 0x40 DUP3 ADD MSTORE SWAP1 DUP4 AND PUSH1 0x60 DUP3 ADD MSTORE PUSH2 0x200 DUP3 ADD MLOAD PUSH2 0x220 DUP4 ADD MLOAD PUSH2 0x240 DUP5 ADD MLOAD PUSH2 0x260 DUP6 ADD MLOAD SWAP4 SWAP6 SWAP3 DUP4 AND SWAP4 SWAP3 SWAP1 SWAP2 AND PUSH3 0x222 PUSH3 0x5A4 JUMP JUMPDEST SWAP4 DUP5 MSTORE PUSH1 0x20 DUP5 ADD MSTORE PUSH1 0x40 DUP1 DUP5 ADD SWAP2 SWAP1 SWAP2 MSTORE PUSH1 0x60 DUP1 DUP5 ADD SWAP3 SWAP1 SWAP3 MSTORE DUP4 DUP2 ADD MLOAD SWAP2 DUP5 ADD MLOAD PUSH1 0xA0 DUP6 ADD MLOAD PUSH1 0xC0 DUP7 ADD MLOAD PUSH1 0xE0 DUP8 ADD MLOAD PUSH2 0x100 DUP9 ADD MLOAD PUSH2 0x120 DUP10 ADD MLOAD PUSH2 0x140 DUP11 ADD MLOAD PUSH2 0x160 DUP12 ADD MLOAD PUSH2 0x180 DUP13 ADD MLOAD PUSH2 0x1A0 DUP1 DUP15 ADD MLOAD PUSH2 0x1C0 DUP16 ADD MLOAD PUSH2 0x1E0 SWAP1 SWAP16 ADD MLOAD SWAP12 MLOAD PUSH1 0x1 PUSH1 0x1 PUSH1 0xA0 SHL SUB SWAP12 DUP13 AND SWAP16 SWAP1 SWAP14 DUP13 AND SWAP13 DUP13 AND SWAP12 SWAP1 DUP2 AND SWAP11 SWAP2 DUP2 AND SWAP10 SWAP4 DUP2 AND SWAP9 SWAP5 DUP2 AND SWAP8 SWAP6 DUP2 AND SWAP7 DUP2 AND SWAP6 DUP2 AND SWAP5 DUP2 AND SWAP4 DUP2 AND SWAP3 SWAP2 AND SWAP1 DUP14 ADD DUP1 DUP15 GT PUSH1 0x1 PUSH1 0x1 PUSH1 0x40 SHL SUB SWAP1 SWAP2 GT OR PUSH3 0x589 JUMPI PUSH1 0x60 SWAP15 PUSH1 0x20 DUP15 DUP15 PUSH2 0x1A0 DUP3 ADD PUSH1 0x40 MSTORE DUP2 MSTORE ADD MSTORE PUSH1 0x40 DUP14 ADD MSTORE DUP14 DUP13 ADD MSTORE PUSH1 0x80 DUP12 ADD MSTORE PUSH1 0xA0 DUP11 ADD MSTORE PUSH1 0xC0 DUP10 ADD MSTORE PUSH1 0xE0 DUP9 ADD MSTORE PUSH2 0x100 DUP8 ADD MSTORE PUSH2 0x120 DUP7 ADD MSTORE PUSH2 0x140 DUP6 ADD MSTORE PUSH2 0x160 DUP5 ADD MSTORE PUSH2 0x180 DUP4 ADD MSTORE PUSH1 0x80 MSTORE PUSH1 0x1 DUP1 PUSH1 0xA0 SHL SUB PUSH1 0x20 DUP3 ADD MLOAD AND PUSH1 0xA0 MSTORE PUSH1 0x1 DUP1 PUSH1 0xA0 SHL SUB PUSH1 0x40 DUP3 ADD MLOAD AND PUSH1 0xC0 MSTORE PUSH1 0x1 DUP1 PUSH1 0xA0 SHL SUB DUP4 DUP3 ADD MLOAD AND PUSH1 0xE0 MSTORE PUSH1 0x1 DUP1 PUSH1 0xA0 SHL SUB PUSH1 0x80 DUP3 ADD MLOAD AND PUSH2 0x100 MSTORE PUSH1 0x1 DUP1 PUSH1 0xA0 SHL SUB PUSH1 0xC0 DUP3 ADD MLOAD AND PUSH2 0x120 MSTORE PUSH1 0x1 DUP1 PUSH1 0xA0 SHL SUB PUSH1 0xE0 DUP3 ADD MLOAD AND PUSH2 0x140 MSTORE PUSH1 0x1 DUP1 PUSH1 0xA0 SHL SUB PUSH2 0x100 DUP3 ADD MLOAD AND PUSH2 0x160 MSTORE PUSH1 0x1 DUP1 PUSH1 0xA0 SHL SUB PUSH2 0x120 DUP3 ADD MLOAD AND PUSH2 0x180 MSTORE PUSH1 0x1 DUP1 PUSH1 0xA0 SHL SUB PUSH2 0x180 DUP3 ADD MLOAD AND PUSH2 0x1A0 MSTORE PUSH1 0x1 DUP1 PUSH1 0xA0 SHL SUB PUSH2 0x160 DUP3 ADD MLOAD AND PUSH2 0x1C0 MSTORE PUSH2 0x140 PUSH1 0x1 DUP1 PUSH1 0xA0 SHL SUB SWAP2 ADD MLOAD AND PUSH2 0x1E0 MSTORE PUSH1 0x1 DUP1 PUSH1 0xA0 SHL SUB DUP2 MLOAD AND PUSH2 0x200 MSTORE PUSH1 0x40 DUP2 ADD MLOAD PUSH2 0x220 MSTORE PUSH1 0x1 DUP1 PUSH1 0xA0 SHL SUB PUSH1 0x20 DUP3 ADD MLOAD AND PUSH2 0x240 MSTORE ADD MLOAD PUSH2 0x260 MSTORE PUSH1 0x1 DUP1 PUSH1 0xA0 SHL SUB PUSH1 0x20 DUP3 ADD MLOAD AND PUSH2 0x280 MSTORE PUSH1 0x1 DUP1 PUSH1 0xA0 SHL SUB DUP2 MLOAD AND PUSH2 0x2A0 MSTORE PUSH1 0x1 DUP1 PUSH1 0xA0 SHL SUB PUSH1 0x40 DUP3 ADD MLOAD AND PUSH2 0x2C0 MSTORE PUSH1 0x60 PUSH1 0x1 DUP1 PUSH1 0xA0 SHL SUB SWAP2 ADD MLOAD AND PUSH2 0x2E0 MSTORE PUSH1 0x0 NOT PUSH1 0x0 SSTORE PUSH1 0x1 DUP1 DUP1 PUSH1 0xA0 SHL SUB NOT DUP2 SLOAD AND OR PUSH1 0x1 SSTORE PUSH1 0x40 MLOAD PUSH2 0x45FD PUSH3 0x5DA DUP3 CODECOPY PUSH1 0x80 MLOAD DUP2 PUSH2 0x27FB ADD MSTORE PUSH1 0xA0 MLOAD DUP2 PUSH2 0x31B1 ADD MSTORE PUSH1 0xC0 MLOAD DUP2 PUSH2 0x28AF ADD MSTORE PUSH1 0xE0 MLOAD DUP2 DUP2 DUP2 PUSH2 0x2D59 ADD MSTORE PUSH2 0x2E5B ADD MSTORE PUSH2 0x100 MLOAD DUP2 PUSH2 0x2F69 ADD MSTORE PUSH2 0x120 MLOAD DUP2 PUSH2 0x3148 ADD MSTORE PUSH2 0x140 MLOAD DUP2 PUSH2 0x2E03 ADD MSTORE PUSH2 0x160 MLOAD DUP2 PUSH2 0x28ED ADD MSTORE PUSH2 0x180 MLOAD DUP2 PUSH2 0x2858 ADD MSTORE PUSH2 0x1A0 MLOAD DUP2 PUSH2 0x510 ADD MSTORE PUSH2 0x1C0 MLOAD DUP2 PUSH2 0x4B4 ADD MSTORE PUSH2 0x1E0 MLOAD DUP2 PUSH2 0x598 ADD MSTORE PUSH2 0x200 MLOAD DUP2 DUP2 DUP2 PUSH2 0x1939 ADD MSTORE DUP2 DUP2 PUSH2 0x1D49 ADD MSTORE PUSH2 0x3FFE ADD MSTORE PUSH2 0x220 MLOAD DUP2 DUP2 DUP2 PUSH2 0x1918 ADD MSTORE DUP2 DUP2 PUSH2 0x1D28 ADD MSTORE PUSH2 0x3FDD ADD MSTORE PUSH2 0x240 MLOAD DUP2 PUSH2 0x453B ADD MSTORE PUSH2 0x260 MLOAD DUP2 PUSH2 0x4519 ADD MSTORE PUSH2 0x280 MLOAD DUP2 DUP2 DUP2 PUSH2 0x213E ADD MSTORE PUSH2 0x22C5 ADD MSTORE PUSH2 0x2A0 MLOAD DUP2 DUP2 DUP2 PUSH2 0x1358 ADD MSTORE DUP2 DUP2 PUSH2 0x1458 ADD MSTORE DUP2 DUP2 PUSH2 0x1FB7 ADD MSTORE DUP2 DUP2 PUSH2 0x24DD ADD MSTORE PUSH2 0x3B0A ADD MSTORE PUSH2 0x2C0 MLOAD DUP2 PUSH2 0x3391 ADD MSTORE PUSH2 0x2E0 MLOAD DUP2 DUP2 DUP2 PUSH2 0x2DAC ADD MSTORE PUSH2 0x3493 ADD MSTORE PUSH2 0x45FD SWAP1 RETURN JUMPDEST PUSH4 0x4E487B71 PUSH1 0xE0 SHL PUSH1 0x0 MSTORE PUSH1 0x41 PUSH1 0x4 MSTORE PUSH1 0x24 PUSH1 0x0 REVERT JUMPDEST PUSH1 0x0 DUP1 REVERT JUMPDEST PUSH1 0x40 MLOAD SWAP1 PUSH1 0x80 DUP3 ADD PUSH1 0x1 PUSH1 0x1 PUSH1 0x40 SHL SUB DUP2 GT DUP4 DUP3 LT OR PUSH3 0x589 JUMPI PUSH1 0x40 MSTORE JUMP JUMPDEST MLOAD SWAP1 PUSH1 0x1 PUSH1 0x1 PUSH1 0xA0 SHL SUB DUP3 AND DUP3 SUB PUSH3 0x59F JUMPI JUMP INVALID PUSH1 0xA0 PUSH1 0x40 DUP2 DUP2 MSTORE PUSH1 0x4 SWAP1 DUP2 CALLDATASIZE LT ISZERO PUSH2 0x22 JUMPI JUMPDEST POP POP POP CALLDATASIZE ISZERO PUSH2 0x20 JUMPI PUSH1 0x0 DUP1 REVERT JUMPDEST STOP JUMPDEST PUSH1 0x0 SWAP3 DUP4 CALLDATALOAD PUSH1 0xE0 SHR SWAP1 DUP2 PUSH4 0x1FFC9A7 EQ PUSH2 0x93D JUMPI POP DUP1 PUSH4 0x150B7A02 EQ PUSH2 0x8AF JUMPI DUP1 PUSH4 0x24856BC3 EQ PUSH2 0x7E8 JUMPI DUP1 PUSH4 0x3593564C EQ PUSH2 0x6B1 JUMPI DUP1 PUSH4 0x709A1CC2 EQ PUSH2 0x44F JUMPI DUP1 PUSH4 0xBC197C81 EQ PUSH2 0x38A JUMPI DUP1 PUSH4 0xF23A6E61 EQ PUSH2 0x2F9 JUMPI PUSH4 0xFA461E33 SUB PUSH2 0x12 JUMPI CALLVALUE PUSH2 0x2F5 JUMPI PUSH1 0x60 PUSH32 0xFFFFFFFFFFFFFFFFFFFFFFFFFFFFFFFFFFFFFFFFFFFFFFFFFFFFFFFFFFFFFFFC CALLDATASIZE ADD SLT PUSH2 0x2F5 JUMPI DUP2 CALLDATALOAD SWAP1 PUSH1 0x24 CALLDATALOAD SWAP3 PUSH1 0x44 CALLDATALOAD SWAP1 PUSH8 0xFFFFFFFFFFFFFFFF SWAP2 DUP3 DUP2 GT PUSH2 0x2F1 JUMPI PUSH2 0xDB SWAP1 CALLDATASIZE SWAP1 DUP4 ADD PUSH2 0xA97 JUMP JUMPDEST SWAP2 SWAP1 SWAP3 DUP8 DUP7 SGT SWAP1 DUP2 ISZERO DUP1 PUSH2 0x2E7 JUMPI JUMPDEST PUSH2 0x2BF JUMPI DUP4 DUP6 ADD DUP7 DUP7 DUP3 SUB SLT PUSH2 0x2BB JUMPI DUP6 CALLDATALOAD SWAP2 DUP3 GT PUSH2 0x2BB JUMPI PUSH2 0x10E SWAP2 DUP7 ADD PUSH2 0x36D0 JUMP JUMPDEST POP PUSH1 0x20 DUP5 ADD CALLDATALOAD SWAP4 PUSH20 0xFFFFFFFFFFFFFFFFFFFFFFFFFFFFFFFFFFFFFFFF SWAP4 DUP5 DUP7 AND DUP1 SWAP7 SUB PUSH2 0x2BB JUMPI PUSH2 0x13E SWAP2 PUSH2 0x4279 JUMP JUMPDEST SWAP6 SWAP1 SWAP8 PUSH1 0x2B DUP10 LT PUSH2 0x293 JUMPI DUP7 CALLDATALOAD SWAP3 PUSH1 0x17 DUP5 PUSH1 0x60 SHR SWAP9 ADD SWAP6 PUSH2 0x16D PUSH3 0xFFFFFF DUP9 CALLDATALOAD PUSH1 0x60 SHR SWAP7 PUSH1 0x48 SHR AND DUP7 DUP12 PUSH2 0x4484 JUMP JUMPDEST CALLER SWAP2 AND SUB PUSH2 0x26B JUMPI ISZERO PUSH2 0x261 JUMPI POP DUP2 DUP7 LT JUMPDEST ISZERO PUSH2 0x197 JUMPI POP POP POP POP PUSH2 0x194 SWAP4 POP CALLER SWAP2 PUSH2 0x3BE1 JUMP JUMPDEST DUP1 RETURN JUMPDEST SWAP4 SWAP6 SWAP5 POP SWAP2 SWAP3 SWAP1 SWAP2 SWAP1 PUSH1 0x42 DUP8 LT PUSH2 0x21B JUMPI POP POP POP DUP4 PUSH1 0x17 GT PUSH2 0x217 JUMPI PUSH32 0x8000000000000000000000000000000000000000000000000000000000000000 DUP3 LT ISZERO PUSH2 0x217 JUMPI PUSH32 0xFFFFFFFFFFFFFFFFFFFFFFFFFFFFFFFFFFFFFFFFFFFFFFFFFFFFFFFFFFFFFFE9 PUSH2 0x211 SWAP5 ADD SWAP2 PUSH2 0x20C CALLER SWAP2 PUSH2 0x42D4 JUMP JUMPDEST PUSH2 0x4301 JUMP JUMPDEST POP POP POP DUP1 RETURN JUMPDEST DUP5 DUP1 REVERT JUMPDEST SWAP2 SWAP7 SWAP6 POP SWAP3 SWAP4 SWAP2 POP DUP5 SLOAD DUP5 GT PUSH2 0x239 JUMPI POP PUSH2 0x194 SWAP4 SWAP5 POP CALLER SWAP2 PUSH2 0x3BE1 JUMP JUMPDEST DUP6 SWAP1 MLOAD PUSH32 0x739DBE5200000000000000000000000000000000000000000000000000000000 DUP2 MSTORE REVERT JUMPDEST SWAP7 POP DUP6 DUP3 LT PUSH2 0x17F JUMP JUMPDEST DUP5 DUP4 MLOAD PUSH32 0x32B13D9100000000000000000000000000000000000000000000000000000000 DUP2 MSTORE REVERT JUMPDEST DUP4 DUP3 MLOAD PUSH32 0x3B99B53D00000000000000000000000000000000000000000000000000000000 DUP2 MSTORE REVERT JUMPDEST DUP10 DUP1 REVERT JUMPDEST DUP3 DUP7 MLOAD PUSH32 0x316CF0EB00000000000000000000000000000000000000000000000000000000 DUP2 MSTORE REVERT JUMPDEST POP DUP9 DUP9 SGT ISZERO PUSH2 0xEA JUMP JUMPDEST DUP7 DUP1 REVERT JUMPDEST DUP3 DUP1 REVERT JUMPDEST POP DUP3 CALLVALUE PUSH2 0x387 JUMPI PUSH1 0xA0 PUSH32 0xFFFFFFFFFFFFFFFFFFFFFFFFFFFFFFFFFFFFFFFFFFFFFFFFFFFFFFFFFFFFFFFC CALLDATASIZE ADD SLT PUSH2 0x387 JUMPI PUSH2 0x332 PUSH2 0xA2B JUMP JUMPDEST POP PUSH2 0x33B PUSH2 0xA53 JUMP JUMPDEST POP PUSH1 0x84 CALLDATALOAD SWAP1 PUSH8 0xFFFFFFFFFFFFFFFF DUP3 GT PUSH2 0x387 JUMPI POP PUSH1 0x20 SWAP3 PUSH2 0x35F SWAP2 CALLDATASIZE SWAP2 ADD PUSH2 0xA97 JUMP JUMPDEST POP POP MLOAD PUSH32 0xF23A6E6100000000000000000000000000000000000000000000000000000000 DUP2 MSTORE RETURN JUMPDEST DUP1 REVERT JUMPDEST POP DUP3 CALLVALUE PUSH2 0x387 JUMPI PUSH1 0xA0 PUSH32 0xFFFFFFFFFFFFFFFFFFFFFFFFFFFFFFFFFFFFFFFFFFFFFFFFFFFFFFFFFFFFFFFC CALLDATASIZE ADD SLT PUSH2 0x387 JUMPI PUSH2 0x3C3 PUSH2 0xA2B JUMP JUMPDEST POP PUSH2 0x3CC PUSH2 0xA53 JUMP JUMPDEST POP PUSH8 0xFFFFFFFFFFFFFFFF SWAP1 PUSH1 0x44 CALLDATALOAD DUP3 DUP2 GT PUSH2 0x44B JUMPI PUSH2 0x3EE SWAP1 CALLDATASIZE SWAP1 DUP7 ADD PUSH2 0xAC5 JUMP JUMPDEST POP POP PUSH1 0x64 CALLDATALOAD DUP3 DUP2 GT PUSH2 0x44B JUMPI PUSH2 0x407 SWAP1 CALLDATASIZE SWAP1 DUP7 ADD PUSH2 0xAC5 JUMP JUMPDEST POP POP PUSH1 0x84 CALLDATALOAD SWAP2 DUP3 GT PUSH2 0x387 JUMPI POP PUSH1 0x20 SWAP3 PUSH2 0x423 SWAP2 CALLDATASIZE SWAP2 ADD PUSH2 0xA97 JUMP JUMPDEST POP POP MLOAD PUSH32 0xBC197C8100000000000000000000000000000000000000000000000000000000 DUP2 MSTORE RETURN JUMPDEST POP DUP1 REVERT JUMPDEST POP CALLVALUE PUSH2 0x2F5 JUMPI PUSH1 0x20 SWAP1 DUP2 PUSH32 0xFFFFFFFFFFFFFFFFFFFFFFFFFFFFFFFFFFFFFFFFFFFFFFFFFFFFFFFFFFFFFFFC CALLDATASIZE ADD SLT PUSH2 0x6AD JUMPI DUP4 DUP4 CALLDATALOAD PUSH8 0xFFFFFFFFFFFFFFFF DUP2 GT PUSH2 0x44B JUMPI PUSH2 0x4A1 DUP3 SWAP2 CALLDATASIZE SWAP1 DUP8 ADD PUSH2 0xA97 JUMP JUMPDEST SWAP1 DUP2 DUP6 MLOAD SWAP3 DUP4 SWAP3 DUP4 CALLDATACOPY DUP2 ADD DUP4 DUP2 MSTORE SUB SWAP1 DUP3 PUSH32 0x0 GAS CALL PUSH2 0x4DD PUSH2 0x3675 JUMP JUMPDEST POP ISZERO PUSH2 0x685 JUMPI DUP1 MLOAD PUSH32 0x70A0823100000000000000000000000000000000000000000000000000000000 DUP2 MSTORE ADDRESS DUP5 DUP3 ADD MSTORE SWAP1 PUSH32 0x0 PUSH20 0xFFFFFFFFFFFFFFFFFFFFFFFFFFFFFFFFFFFFFFFF AND DUP4 DUP4 PUSH1 0x24 DUP2 DUP5 GAS STATICCALL SWAP3 DUP4 ISZERO PUSH2 0x67B JUMPI DUP7 SWAP4 PUSH2 0x646 JUMPI JUMPDEST POP DUP2 MLOAD PUSH32 0xA9059CBB00000000000000000000000000000000000000000000000000000000 DUP2 MSTORE PUSH20 0xFFFFFFFFFFFFFFFFFFFFFFFFFFFFFFFFFFFFFFFF PUSH32 0x0 AND SWAP6 DUP2 ADD SWAP6 DUP7 MSTORE PUSH1 0x20 DUP7 ADD DUP5 SWAP1 MSTORE SWAP5 DUP5 SWAP2 DUP7 SWAP2 DUP3 SWAP1 DUP10 SWAP1 DUP3 SWAP1 PUSH1 0x40 ADD JUMPDEST SUB SWAP3 GAS CALL SWAP4 DUP5 ISZERO PUSH2 0x63C JUMPI PUSH32 0x1E8F03F716BC104BF7D728131967A0C771E85AB54D09C1E2D6ED9E0BC4E2A16C SWAP5 PUSH2 0x60F JUMPI JUMPDEST POP MLOAD SWAP1 DUP2 MSTORE LOG1 DUP1 RETURN JUMPDEST PUSH2 0x62E SWAP1 DUP5 RETURNDATASIZE DUP7 GT PUSH2 0x635 JUMPI JUMPDEST PUSH2 0x626 DUP2 DUP4 PUSH2 0x35FA JUMP JUMPDEST DUP2 ADD SWAP1 PUSH2 0x388D JUMP JUMPDEST POP CODESIZE PUSH2 0x606 JUMP JUMPDEST POP RETURNDATASIZE PUSH2 0x61C JUMP JUMPDEST DUP2 MLOAD RETURNDATASIZE DUP8 DUP3 RETURNDATACOPY RETURNDATASIZE SWAP1 REVERT JUMPDEST SWAP1 SWAP3 POP DUP4 DUP2 DUP2 RETURNDATASIZE DUP4 GT PUSH2 0x674 JUMPI JUMPDEST PUSH2 0x65E DUP2 DUP4 PUSH2 0x35FA JUMP JUMPDEST DUP2 ADD SUB SLT PUSH2 0x670 JUMPI MLOAD SWAP2 PUSH2 0x5D4 PUSH2 0x55B JUMP JUMPDEST DUP6 DUP1 REVERT JUMPDEST POP RETURNDATASIZE PUSH2 0x654 JUMP JUMPDEST DUP3 MLOAD RETURNDATASIZE DUP9 DUP3 RETURNDATACOPY RETURNDATASIZE SWAP1 REVERT JUMPDEST SWAP1 POP MLOAD PUSH32 0x7D52991900000000000000000000000000000000000000000000000000000000 DUP2 MSTORE REVERT JUMPDEST DUP4 DUP1 REVERT JUMPDEST POP PUSH1 0x60 PUSH32 0xFFFFFFFFFFFFFFFFFFFFFFFFFFFFFFFFFFFFFFFFFFFFFFFFFFFFFFFFFFFFFFFC CALLDATASIZE ADD SLT PUSH2 0x2F5 JUMPI PUSH8 0xFFFFFFFFFFFFFFFF DUP3 CALLDATALOAD DUP2 DUP2 GT PUSH2 0x217 JUMPI PUSH2 0x6FB SWAP1 CALLDATASIZE SWAP1 DUP6 ADD PUSH2 0xA97 JUMP JUMPDEST SWAP2 PUSH1 0x24 CALLDATALOAD SWAP1 DUP2 GT PUSH2 0x670 JUMPI PUSH2 0x713 SWAP1 CALLDATASIZE SWAP1 DUP7 ADD PUSH2 0xAC5 JUMP JUMPDEST SWAP3 SWAP1 SWAP2 PUSH1 0x44 CALLDATALOAD TIMESTAMP GT PUSH2 0x7C0 JUMPI CALLER ADDRESS EQ PUSH2 0x7B1 JUMPI PUSH1 0x1 SWAP6 DUP7 SLOAD SWAP6 DUP8 PUSH20 0xFFFFFFFFFFFFFFFFFFFFFFFFFFFFFFFFFFFFFFFF DUP9 AND SUB PUSH2 0x78B JUMPI POP POP SWAP2 DUP6 SWAP5 SWAP4 SWAP2 PUSH2 0x782 SWAP4 PUSH32 0xFFFFFFFFFFFFFFFFFFFFFFFF0000000000000000000000000000000000000000 SWAP6 DUP7 CALLER SWAP2 AND OR DUP8 SSTORE PUSH2 0xB54 JUMP JUMPDEST DUP2 SLOAD AND OR SWAP1 SSTORE DUP1 RETURN JUMPDEST MLOAD PUSH32 0x6F5FFB7E00000000000000000000000000000000000000000000000000000000 DUP2 MSTORE REVERT JUMPDEST SWAP1 SWAP2 SWAP3 SWAP4 POP PUSH2 0x194 SWAP5 POP PUSH2 0xB54 JUMP JUMPDEST DUP6 DUP6 MLOAD PUSH32 0x5BF6F91600000000000000000000000000000000000000000000000000000000 DUP2 MSTORE REVERT JUMPDEST POP DUP1 PUSH32 0xFFFFFFFFFFFFFFFFFFFFFFFFFFFFFFFFFFFFFFFFFFFFFFFFFFFFFFFFFFFFFFFC CALLDATASIZE ADD SLT PUSH2 0x2F5 JUMPI PUSH8 0xFFFFFFFFFFFFFFFF DUP3 CALLDATALOAD DUP2 DUP2 GT PUSH2 0x217 JUMPI PUSH2 0x831 SWAP1 CALLDATASIZE SWAP1 DUP6 ADD PUSH2 0xA97 JUMP JUMPDEST SWAP2 PUSH1 0x24 CALLDATALOAD SWAP1 DUP2 GT PUSH2 0x670 JUMPI PUSH2 0x849 SWAP1 CALLDATASIZE SWAP1 DUP7 ADD PUSH2 0xAC5 JUMP JUMPDEST SWAP3 SWAP1 SWAP2 CALLER ADDRESS EQ PUSH2 0x7B1 JUMPI PUSH1 0x1 SWAP6 DUP7 SLOAD SWAP6 DUP8 PUSH20 0xFFFFFFFFFFFFFFFFFFFFFFFFFFFFFFFFFFFFFFFF DUP9 AND SUB PUSH2 0x78B JUMPI POP POP SWAP2 DUP6 SWAP5 SWAP4 SWAP2 PUSH2 0x782 SWAP4 PUSH32 0xFFFFFFFFFFFFFFFFFFFFFFFF0000000000000000000000000000000000000000 SWAP6 DUP7 CALLER SWAP2 AND OR DUP8 SSTORE PUSH2 0xB54 JUMP JUMPDEST POP DUP3 CALLVALUE PUSH2 0x387 JUMPI PUSH1 0x80 PUSH32 0xFFFFFFFFFFFFFFFFFFFFFFFFFFFFFFFFFFFFFFFFFFFFFFFFFFFFFFFFFFFFFFFC CALLDATASIZE ADD SLT PUSH2 0x387 JUMPI PUSH2 0x8E8 PUSH2 0xA2B JUMP JUMPDEST POP PUSH2 0x8F1 PUSH2 0xA53 JUMP JUMPDEST POP PUSH1 0x64 CALLDATALOAD SWAP1 PUSH8 0xFFFFFFFFFFFFFFFF DUP3 GT PUSH2 0x387 JUMPI POP PUSH1 0x20 SWAP3 PUSH2 0x915 SWAP2 CALLDATASIZE SWAP2 ADD PUSH2 0xA97 JUMP JUMPDEST POP POP MLOAD PUSH32 0x150B7A0200000000000000000000000000000000000000000000000000000000 DUP2 MSTORE RETURN JUMPDEST DUP5 SWAP1 DUP5 CALLVALUE PUSH2 0x2F5 JUMPI PUSH1 0x20 PUSH32 0xFFFFFFFFFFFFFFFFFFFFFFFFFFFFFFFFFFFFFFFFFFFFFFFFFFFFFFFFFFFFFFFC CALLDATASIZE ADD SLT PUSH2 0x2F5 JUMPI CALLDATALOAD PUSH32 0xFFFFFFFF00000000000000000000000000000000000000000000000000000000 DUP2 AND DUP1 SWAP2 SUB PUSH2 0x2F5 JUMPI PUSH1 0x20 SWAP3 POP PUSH32 0x4E2312E000000000000000000000000000000000000000000000000000000000 DUP2 EQ SWAP1 DUP2 ISZERO PUSH2 0xA01 JUMPI JUMPDEST DUP2 ISZERO PUSH2 0x9D7 JUMPI JUMPDEST POP ISZERO ISZERO DUP2 MSTORE RETURN JUMPDEST PUSH32 0x1FFC9A700000000000000000000000000000000000000000000000000000000 SWAP2 POP EQ DUP4 PUSH2 0x9D0 JUMP JUMPDEST PUSH32 0x150B7A0200000000000000000000000000000000000000000000000000000000 DUP2 EQ SWAP2 POP PUSH2 0x9C9 JUMP JUMPDEST PUSH1 0x4 CALLDATALOAD SWAP1 PUSH20 0xFFFFFFFFFFFFFFFFFFFFFFFFFFFFFFFFFFFFFFFF DUP3 AND DUP3 SUB PUSH2 0xA4E JUMPI JUMP JUMPDEST PUSH1 0x0 DUP1 REVERT JUMPDEST PUSH1 0x24 CALLDATALOAD SWAP1 PUSH20 0xFFFFFFFFFFFFFFFFFFFFFFFFFFFFFFFFFFFFFFFF DUP3 AND DUP3 SUB PUSH2 0xA4E JUMPI JUMP JUMPDEST CALLDATALOAD SWAP1 PUSH20 0xFFFFFFFFFFFFFFFFFFFFFFFFFFFFFFFFFFFFFFFF DUP3 AND DUP3 SUB PUSH2 0xA4E JUMPI JUMP JUMPDEST SWAP2 DUP2 PUSH1 0x1F DUP5 ADD SLT ISZERO PUSH2 0xA4E JUMPI DUP3 CALLDATALOAD SWAP2 PUSH8 0xFFFFFFFFFFFFFFFF DUP4 GT PUSH2 0xA4E JUMPI PUSH1 0x20 DUP4 DUP2 DUP7 ADD SWAP6 ADD ADD GT PUSH2 0xA4E JUMPI JUMP JUMPDEST SWAP2 DUP2 PUSH1 0x1F DUP5 ADD SLT ISZERO PUSH2 0xA4E JUMPI DUP3 CALLDATALOAD SWAP2 PUSH8 0xFFFFFFFFFFFFFFFF DUP4 GT PUSH2 0xA4E JUMPI PUSH1 0x20 DUP1 DUP6 ADD SWAP5 DUP5 PUSH1 0x5 SHL ADD ADD GT PUSH2 0xA4E JUMPI JUMP JUMPDEST SWAP2 SWAP1 DUP3 MLOAD SWAP3 DUP4 DUP3 MSTORE PUSH1 0x0 JUMPDEST DUP5 DUP2 LT PUSH2 0xB40 JUMPI POP POP PUSH32 0xFFFFFFFFFFFFFFFFFFFFFFFFFFFFFFFFFFFFFFFFFFFFFFFFFFFFFFFFFFFFFFE0 PUSH1 0x1F DUP5 PUSH1 0x0 PUSH1 0x20 DUP1 SWAP7 SWAP8 DUP7 ADD ADD MSTORE ADD AND ADD ADD SWAP1 JUMP JUMPDEST PUSH1 0x20 DUP2 DUP4 ADD DUP2 ADD MLOAD DUP5 DUP4 ADD DUP3 ADD MSTORE ADD PUSH2 0xB01 JUMP JUMPDEST SWAP2 SWAP3 SWAP1 SWAP3 PUSH1 0x80 MSTORE DUP3 DUP2 SUB PUSH2 0x350D JUMPI SWAP2 SWAP1 PUSH1 0x0 SWAP1 JUMPDEST DUP3 DUP3 LT PUSH2 0xB75 JUMPI POP POP POP POP JUMP JUMPDEST DUP4 DUP3 SWAP6 SWAP4 SWAP5 SWAP6 LT ISZERO PUSH2 0x1B4C JUMPI PUSH1 0x5 SWAP3 DUP3 DUP5 SHL PUSH1 0x80 MLOAD ADD CALLDATALOAD PUSH32 0xFFFFFFFFFFFFFFFFFFFFFFFFFFFFFFFFFFFFFFFFFFFFFFFFFFFFFFFFFFFFFFE1 SWAP2 DUP3 PUSH1 0x80 MLOAD CALLDATASIZE SUB ADD DUP3 SLT ISZERO PUSH2 0xA4E JUMPI DUP2 PUSH1 0x80 MLOAD ADD CALLDATALOAD SWAP8 PUSH8 0xFFFFFFFFFFFFFFFF DUP10 GT PUSH2 0xA4E JUMPI PUSH1 0x20 DUP4 PUSH1 0x80 MLOAD ADD ADD SWAP9 DUP1 CALLDATASIZE SUB DUP11 SGT PUSH2 0xA4E JUMPI PUSH1 0x60 SWAP8 PUSH1 0x3F SWAP1 DUP2 DUP10 DUP10 ADD CALLDATALOAD PUSH1 0xF8 SHR AND PUSH1 0x1 SWAP8 PUSH1 0x20 DUP3 LT PUSH1 0x0 EQ PUSH2 0x3171 JUMPI POP PUSH1 0x10 DUP1 DUP3 LT ISZERO PUSH2 0x27B4 JUMPI POP PUSH1 0x8 DUP1 DUP3 LT ISZERO PUSH2 0x187E JUMPI POP DUP1 PUSH2 0x1091 JUMPI POP POP POP PUSH2 0xC2A SWAP1 DUP11 PUSH2 0x42B7 JUMP JUMPDEST SWAP3 SWAP1 SWAP9 PUSH1 0xA0 DUP6 PUSH1 0x80 MLOAD ADD ADD CALLDATALOAD PUSH1 0x0 EQ PUSH2 0x1087 JUMPI PUSH2 0xC61 PUSH20 0xFFFFFFFFFFFFFFFFFFFFFFFFFFFFFFFFFFFFFFFF PUSH1 0x1 SLOAD AND SWAP12 JUMPDEST CALLDATALOAD PUSH2 0x3854 JUMP JUMPDEST SWAP10 PUSH1 0x40 DUP7 PUSH1 0x80 MLOAD ADD ADD CALLDATALOAD DUP6 DUP3 SWAP14 SWAP3 PUSH32 0x8000000000000000000000000000000000000000000000000000000000000000 DUP4 EQ PUSH2 0xFCF JUMPI JUMPDEST POP SWAP6 SWAP13 SWAP6 POP JUMPDEST PUSH32 0x8000000000000000000000000000000000000000000000000000000000000000 DUP2 LT ISZERO PUSH2 0xA4E JUMPI PUSH1 0x42 DUP7 LT PUSH2 0xFC8 JUMPI ADDRESS SWAP2 JUMPDEST DUP7 PUSH1 0x2B GT PUSH2 0xA4E JUMPI DUP14 SWAP2 PUSH1 0x17 DUP4 ADD CALLDATALOAD PUSH1 0x60 SHR SWAP1 DUP4 CALLDATALOAD SWAP5 PUSH3 0xFFFFFF DUP7 PUSH1 0x60 SHR SWAP7 PUSH2 0xD15 PUSH20 0xFFFFFFFFFFFFFFFFFFFFFFFFFFFFFFFFFFFFFFFF SWAP3 DUP4 SWAP3 PUSH1 0x48 SHR AND DUP7 DUP11 PUSH2 0x4484 JUMP JUMPDEST AND SWAP1 DUP5 DUP9 LT ISZERO PUSH2 0xFAC JUMPI DUP1 PUSH5 0x1000276A4 SWAP7 JUMPDEST PUSH1 0x2B PUSH1 0x40 MLOAD SWAP10 PUSH1 0x40 PUSH1 0x20 DUP13 ADD MSTORE DUP2 PUSH1 0x60 DUP13 ADD MSTORE PUSH1 0x80 DUP12 ADD CALLDATACOPY PUSH1 0x0 PUSH1 0xAB DUP11 ADD MSTORE AND PUSH1 0x40 DUP9 ADD MSTORE PUSH1 0xA0 DUP8 MSTORE PUSH1 0xC0 DUP8 ADD SWAP6 DUP8 DUP8 LT PUSH8 0xFFFFFFFFFFFFFFFF DUP9 GT OR PUSH2 0xF7D JUMPI PUSH1 0x40 SWAP5 DUP3 DUP9 SWAP6 DUP7 DUP9 MSTORE PUSH32 0x128ACB0800000000000000000000000000000000000000000000000000000000 DUP8 MSTORE AND PUSH1 0xC4 DUP11 ADD MSTORE DUP7 DUP11 LT PUSH1 0xE4 DUP11 ADD MSTORE PUSH2 0x104 DUP10 ADD MSTORE AND PUSH2 0x124 DUP8 ADD MSTORE PUSH1 0xA0 PUSH2 0x144 DUP8 ADD MSTORE DUP2 PUSH1 0x0 PUSH32 0xFFFFFFFFFFFFFFFFFFFFFFFFFFFFFFFFFFFFFFFFFFFFFFFFFFFFFFFFFFFFFF40 DUP9 PUSH2 0xDEB PUSH2 0x164 DUP3 ADD DUP3 PUSH2 0xAF6 JUMP JUMPDEST SUB ADD SWAP3 GAS CALL SWAP3 DUP4 ISZERO PUSH2 0xF71 JUMPI PUSH1 0x0 SWAP3 DUP4 SWAP5 PUSH2 0xF2F JUMPI JUMPDEST POP POP PUSH2 0xE15 SWAP4 LT PUSH1 0x0 EQ PUSH2 0xF28 JUMPI POP PUSH2 0x42D4 JUMP JUMPDEST SWAP11 PUSH1 0x42 DUP6 LT PUSH2 0xE56 JUMPI ADDRESS SWAP1 DUP6 PUSH1 0x17 GT PUSH2 0xA4E JUMPI PUSH1 0x17 PUSH32 0xFFFFFFFFFFFFFFFFFFFFFFFFFFFFFFFFFFFFFFFFFFFFFFFFFFFFFFFFFFFFFFE9 SWAP2 ADD SWAP6 ADD SWAP5 SWAP12 PUSH2 0xC9D JUMP JUMPDEST POP SWAP9 POP SWAP9 PUSH1 0x60 SWAP2 SWAP7 SWAP6 SWAP8 SWAP5 SWAP4 SWAP3 POP SWAP2 PUSH1 0x80 MLOAD ADD ADD CALLDATALOAD GT PUSH2 0xEFE JUMPI JUMPDEST ISZERO DUP1 PUSH2 0xED1 JUMPI JUMPDEST PUSH2 0xE8A JUMPI POP PUSH1 0x1 ADD SWAP3 SWAP2 SWAP3 SWAP1 SWAP3 PUSH2 0xB68 JUMP JUMPDEST SWAP1 PUSH2 0xECD PUSH1 0x40 SWAP3 DUP4 MLOAD SWAP4 DUP5 SWAP4 PUSH32 0x2C4029E900000000000000000000000000000000000000000000000000000000 DUP6 MSTORE PUSH1 0x4 DUP6 ADD MSTORE PUSH1 0x24 DUP5 ADD MSTORE PUSH1 0x44 DUP4 ADD SWAP1 PUSH2 0xAF6 JUMP JUMPDEST SUB SWAP1 REVERT JUMPDEST POP PUSH32 0x8000000000000000000000000000000000000000000000000000000000000000 DUP3 DUP6 ADD CALLDATALOAD AND ISZERO PUSH2 0xE78 JUMP JUMPDEST PUSH1 0x4 PUSH1 0x40 MLOAD PUSH32 0x39D3549600000000000000000000000000000000000000000000000000000000 DUP2 MSTORE REVERT JUMPDEST SWAP1 POP PUSH2 0x42D4 JUMP JUMPDEST SWAP2 SWAP3 SWAP1 SWAP4 POP PUSH1 0x40 DUP5 RETURNDATASIZE PUSH1 0x40 GT PUSH2 0xF69 JUMPI JUMPDEST DUP2 PUSH2 0xF4D PUSH1 0x40 SWAP4 DUP7 PUSH2 0x35FA JUMP JUMPDEST DUP2 ADD SUB SLT PUSH2 0x387 JUMPI POP MLOAD PUSH1 0xE0 SWAP3 SWAP1 SWAP3 ADD MLOAD SWAP2 SWAP1 PUSH2 0xE15 CODESIZE PUSH2 0xE01 JUMP JUMPDEST RETURNDATASIZE SWAP2 POP PUSH2 0xF40 JUMP JUMPDEST PUSH1 0x40 MLOAD RETURNDATASIZE PUSH1 0x0 DUP3 RETURNDATACOPY RETURNDATASIZE SWAP1 REVERT JUMPDEST PUSH32 0x4E487B7100000000000000000000000000000000000000000000000000000000 PUSH1 0x0 MSTORE PUSH1 0x41 PUSH1 0x4 MSTORE PUSH1 0x24 PUSH1 0x0 REVERT JUMPDEST DUP1 PUSH20 0xFFFD8963EFD1FC6A506488495D951D5263988D25 SWAP7 PUSH2 0xD28 JUMP JUMPDEST DUP12 SWAP2 PUSH2 0xCD0 JUMP JUMPDEST PUSH1 0x14 SWAP2 SWAP3 POP LT PUSH2 0x105D JUMPI PUSH1 0x20 PUSH1 0x24 SWAP2 PUSH1 0x40 MLOAD SWAP3 DUP4 DUP1 SWAP3 PUSH32 0x70A0823100000000000000000000000000000000000000000000000000000000 DUP3 MSTORE ADDRESS PUSH1 0x4 DUP4 ADD MSTORE CALLDATALOAD PUSH1 0x60 SHR GAS STATICCALL SWAP1 DUP2 ISZERO PUSH2 0xF71 JUMPI PUSH1 0x0 SWAP2 PUSH2 0x102B JUMPI JUMPDEST POP CODESIZE DUP1 PUSH2 0xC97 JUMP JUMPDEST SWAP1 PUSH1 0x20 DUP3 RETURNDATASIZE PUSH1 0x20 GT PUSH2 0x1055 JUMPI JUMPDEST DUP2 PUSH2 0x1045 PUSH1 0x20 SWAP4 DUP4 PUSH2 0x35FA JUMP JUMPDEST DUP2 ADD SUB SLT PUSH2 0x387 JUMPI POP MLOAD CODESIZE PUSH2 0x1023 JUMP JUMPDEST RETURNDATASIZE SWAP2 POP PUSH2 0x1038 JUMP JUMPDEST PUSH1 0x4 PUSH1 0x40 MLOAD PUSH32 0x3B99B53D00000000000000000000000000000000000000000000000000000000 DUP2 MSTORE REVERT JUMPDEST PUSH2 0xC61 ADDRESS SWAP12 PUSH2 0xC5B JUMP JUMPDEST PUSH1 0x1 DUP2 SWAP14 SWAP7 SWAP14 SWAP12 SWAP9 SWAP8 SWAP5 SWAP6 SWAP11 SWAP10 SWAP12 EQ PUSH1 0x0 EQ PUSH2 0x11B7 JUMPI POP POP POP PUSH1 0x40 SWAP3 PUSH2 0x10BF DUP5 DUP4 PUSH1 0x80 MLOAD ADD ADD CALLDATALOAD SWAP4 DUP3 PUSH2 0x42B7 JUMP JUMPDEST PUSH1 0x80 MLOAD DUP5 ADD PUSH1 0xA0 ADD CALLDATALOAD ISZERO PUSH2 0x11AB JUMPI PUSH1 0x60 PUSH2 0x10F2 PUSH20 0xFFFFFFFFFFFFFFFFFFFFFFFFFFFFFFFFFFFFFFFF PUSH1 0x1 SLOAD AND SWAP5 CALLDATALOAD PUSH2 0x3854 JUMP JUMPDEST SWAP5 PUSH1 0x80 MLOAD ADD ADD CALLDATALOAD PUSH1 0x0 SSTORE PUSH32 0x8000000000000000000000000000000000000000000000000000000000000000 DUP6 LT ISZERO PUSH2 0xA4E JUMPI PUSH2 0x1131 SWAP4 PUSH2 0x20C DUP7 PUSH2 0x42D4 JUMP JUMPDEST SWAP1 SWAP2 SWAP1 ISZERO PUSH2 0x119C JUMPI POP PUSH2 0x1143 SWAP1 PUSH2 0x42D4 JUMP JUMPDEST SUB PUSH2 0x1173 JUMPI POP PUSH32 0xFFFFFFFFFFFFFFFFFFFFFFFFFFFFFFFFFFFFFFFFFFFFFFFFFFFFFFFFFFFFFFFF PUSH1 0x0 SSTORE JUMPDEST PUSH2 0xE71 JUMP JUMPDEST PUSH1 0x4 SWAP1 MLOAD PUSH32 0xD4E0248E00000000000000000000000000000000000000000000000000000000 DUP2 MSTORE REVERT JUMPDEST PUSH2 0x11A6 SWAP2 POP PUSH2 0x42D4 JUMP JUMPDEST PUSH2 0x1143 JUMP JUMPDEST PUSH1 0x60 PUSH2 0x10F2 ADDRESS SWAP5 PUSH2 0xC5B JUMP JUMPDEST SWAP2 SWAP5 SWAP3 SWAP4 SWAP2 PUSH1 0x2 DUP2 SUB PUSH2 0x1206 JUMPI POP POP POP PUSH2 0x116E SWAP3 POP PUSH20 0xFFFFFFFFFFFFFFFFFFFFFFFFFFFFFFFFFFFFFFFF PUSH1 0x1 SLOAD AND PUSH2 0x11FF PUSH1 0x40 PUSH1 0x60 DUP6 PUSH1 0x80 MLOAD ADD ADD CALLDATALOAD SWAP5 PUSH1 0x80 MLOAD ADD ADD CALLDATALOAD PUSH2 0x3854 JUMP JUMPDEST SWAP2 CALLDATALOAD PUSH2 0x3AEF JUMP JUMPDEST SWAP2 SWAP4 SWAP2 PUSH1 0x3 DUP2 SUB PUSH2 0x1578 JUMPI POP POP PUSH1 0x80 MLOAD DUP2 ADD DUP1 DUP5 ADD SWAP4 SWAP1 PUSH1 0x40 SWAP1 DUP6 SUB SLT PUSH2 0xA4E JUMPI DUP3 CALLDATALOAD PUSH8 0xFFFFFFFFFFFFFFFF DUP2 GT PUSH2 0xA4E JUMPI DUP3 PUSH1 0x80 MLOAD ADD ADD SWAP3 PUSH1 0x60 DUP5 DUP7 SUB SLT PUSH2 0xA4E JUMPI PUSH1 0x40 MLOAD SWAP5 PUSH1 0x60 DUP7 ADD DUP7 DUP2 LT PUSH8 0xFFFFFFFFFFFFFFFF DUP3 GT OR PUSH2 0xF7D JUMPI PUSH1 0x40 MSTORE PUSH1 0x20 DUP6 ADD CALLDATALOAD PUSH8 0xFFFFFFFFFFFFFFFF DUP2 GT PUSH2 0xA4E JUMPI DUP6 ADD PUSH1 0x20 DUP3 ADD DUP1 SWAP9 DUP3 ADD SLT ISZERO PUSH2 0xA4E JUMPI PUSH1 0x20 DUP2 ADD CALLDATALOAD SWAP1 PUSH2 0x129A DUP3 PUSH2 0x36A5 JUMP JUMPDEST SWAP3 PUSH2 0x12A8 PUSH1 0x40 MLOAD SWAP5 DUP6 PUSH2 0x35FA JUMP JUMPDEST DUP3 DUP5 MSTORE PUSH1 0x40 PUSH1 0x20 DUP6 ADD SWAP4 PUSH1 0x7 SHL DUP4 ADD ADD SWAP2 DUP11 DUP4 GT PUSH2 0xA4E JUMPI PUSH1 0x40 ADD SWAP3 JUMPDEST DUP3 DUP5 LT PUSH2 0x1513 JUMPI POP POP POP POP DUP6 MSTORE PUSH2 0x12DE PUSH1 0x40 DUP6 ADD PUSH2 0xA76 JUMP JUMPDEST SWAP6 PUSH1 0x20 DUP7 ADD SWAP7 DUP8 MSTORE PUSH1 0x60 PUSH1 0x40 DUP8 ADD SWAP6 ADD CALLDATALOAD DUP6 MSTORE PUSH1 0x40 DUP5 PUSH1 0x80 MLOAD ADD ADD CALLDATALOAD SWAP1 PUSH8 0xFFFFFFFFFFFFFFFF DUP3 GT PUSH2 0xA4E JUMPI PUSH1 0x20 PUSH2 0x131F SWAP3 PUSH2 0x1325 SWAP7 PUSH1 0x80 MLOAD ADD ADD ADD PUSH2 0x36D0 JUMP JUMPDEST POP PUSH2 0x429A JUMP JUMPDEST SWAP1 SWAP2 PUSH20 0xFFFFFFFFFFFFFFFFFFFFFFFFFFFFFFFFFFFFFFFF PUSH1 0x1 SLOAD AND SWAP5 PUSH20 0xFFFFFFFFFFFFFFFFFFFFFFFFFFFFFFFFFFFFFFFF PUSH32 0x0 AND EXTCODESIZE ISZERO PUSH2 0xA4E JUMPI SWAP5 SWAP3 SWAP4 SWAP2 SWAP1 PUSH1 0x40 MLOAD SWAP6 DUP7 SWAP5 PUSH32 0x2A2D80D100000000000000000000000000000000000000000000000000000000 DUP7 MSTORE PUSH1 0x4 DUP7 ADD MSTORE PUSH1 0x60 PUSH1 0x24 DUP7 ADD MSTORE PUSH1 0xC4 DUP6 ADD SWAP4 MLOAD SWAP4 PUSH1 0x60 PUSH1 0x64 DUP8 ADD MSTORE DUP5 MLOAD DUP1 SWAP2 MSTORE PUSH1 0x20 PUSH1 0xE4 DUP8 ADD SWAP6 ADD SWAP1 PUSH1 0x0 SWAP1 JUMPDEST DUP1 DUP3 LT PUSH2 0x149A JUMPI POP POP POP SWAP5 PUSH2 0x143E SWAP3 DUP6 SWAP5 SWAP3 PUSH20 0xFFFFFFFFFFFFFFFFFFFFFFFFFFFFFFFFFFFFFFFF PUSH1 0x0 SWAP9 MLOAD AND PUSH1 0x84 DUP8 ADD MSTORE MLOAD PUSH1 0xA4 DUP7 ADD MSTORE PUSH32 0xFFFFFFFFFFFFFFFFFFFFFFFFFFFFFFFFFFFFFFFFFFFFFFFFFFFFFFFFFFFFFFFC DUP6 DUP5 SUB ADD PUSH1 0x44 DUP7 ADD MSTORE PUSH2 0x3537 JUMP JUMPDEST SUB DUP2 DUP4 PUSH20 0xFFFFFFFFFFFFFFFFFFFFFFFFFFFFFFFFFFFFFFFF PUSH32 0x0 AND GAS CALL DUP1 ISZERO PUSH2 0xF71 JUMPI PUSH2 0x148B JUMPI JUMPDEST POP PUSH2 0xE71 JUMP JUMPDEST PUSH2 0x1494 SWAP1 PUSH2 0x3576 JUMP JUMPDEST CODESIZE PUSH2 0x1485 JUMP JUMPDEST SWAP2 SWAP8 SWAP7 POP SWAP2 SWAP3 SWAP4 SWAP5 PUSH1 0x20 PUSH1 0x80 PUSH1 0x1 SWAP3 DUP11 MLOAD PUSH20 0xFFFFFFFFFFFFFFFFFFFFFFFFFFFFFFFFFFFFFFFF DUP2 MLOAD AND DUP3 MSTORE PUSH20 0xFFFFFFFFFFFFFFFFFFFFFFFFFFFFFFFFFFFFFFFF DUP5 DUP3 ADD MLOAD AND DUP5 DUP4 ADD MSTORE PUSH1 0x60 PUSH6 0xFFFFFFFFFFFF SWAP2 DUP3 PUSH1 0x40 DUP3 ADD MLOAD AND PUSH1 0x40 DUP6 ADD MSTORE ADD MLOAD AND PUSH1 0x60 DUP3 ADD MSTORE ADD SWAP9 ADD SWAP3 ADD DUP9 SWAP7 SWAP8 SWAP6 SWAP5 SWAP4 SWAP3 SWAP2 PUSH2 0x13D8 JUMP JUMPDEST PUSH1 0x80 PUSH1 0x20 DUP6 DUP5 SUB ADD SLT PUSH2 0xA4E JUMPI PUSH1 0x20 PUSH1 0x80 SWAP2 PUSH1 0x40 MLOAD PUSH2 0x1531 DUP2 PUSH2 0x358A JUMP JUMPDEST PUSH2 0x153A DUP8 PUSH2 0xA76 JUMP JUMPDEST DUP2 MSTORE PUSH2 0x1547 DUP4 DUP9 ADD PUSH2 0xA76 JUMP JUMPDEST DUP4 DUP3 ADD MSTORE PUSH2 0x1557 PUSH1 0x40 DUP9 ADD PUSH2 0x36BD JUMP JUMPDEST PUSH1 0x40 DUP3 ADD MSTORE PUSH2 0x1568 PUSH1 0x60 DUP9 ADD PUSH2 0x36BD JUMP JUMPDEST PUSH1 0x60 DUP3 ADD MSTORE DUP2 MSTORE ADD SWAP4 ADD SWAP3 PUSH2 0x12C5 JUMP JUMPDEST PUSH1 0x4 SWAP6 POP SWAP2 SWAP4 POP DUP5 DUP3 SUB PUSH2 0x16E7 JUMPI POP POP SWAP1 SWAP2 PUSH1 0x40 PUSH1 0x60 PUSH2 0x159E DUP3 DUP7 PUSH1 0x80 MLOAD ADD ADD CALLDATALOAD PUSH2 0x3854 JUMP JUMPDEST PUSH1 0x80 MLOAD SWAP1 SWAP6 ADD ADD CALLDATALOAD PUSH20 0xFFFFFFFFFFFFFFFFFFFFFFFFFFFFFFFFFFFFFFFF SWAP1 DUP2 AND SWAP4 CALLDATALOAD AND DUP1 PUSH2 0x1614 JUMPI POP SELFBALANCE SWAP3 DUP4 LT PUSH2 0x15EE JUMPI POP POP DUP1 PUSH2 0x15DE JUMPI JUMPDEST POP POP PUSH2 0xE71 JUMP JUMPDEST PUSH2 0x15E7 SWAP2 PUSH2 0x3984 JUMP JUMPDEST CODESIZE DUP1 PUSH2 0x15D7 JUMP JUMPDEST MLOAD PUSH32 0x6A12F10400000000000000000000000000000000000000000000000000000000 DUP2 MSTORE REVERT JUMPDEST SWAP4 SWAP2 SWAP1 DUP1 MLOAD SWAP4 PUSH32 0x70A0823100000000000000000000000000000000000000000000000000000000 DUP6 MSTORE ADDRESS DUP4 DUP7 ADD MSTORE PUSH1 0x20 DUP6 PUSH1 0x24 DUP2 DUP10 GAS STATICCALL SWAP5 DUP6 ISZERO PUSH2 0x16DC JUMPI PUSH1 0x0 SWAP6 PUSH2 0x16A8 JUMPI JUMPDEST POP DUP5 LT PUSH2 0x1682 JUMPI POP POP DUP2 PUSH2 0x1671 JUMPI JUMPDEST POP POP POP PUSH2 0xE71 JUMP JUMPDEST PUSH2 0x167A SWAP3 PUSH2 0x39F2 JUMP JUMPDEST CODESIZE DUP1 DUP1 PUSH2 0x1669 JUMP JUMPDEST MLOAD PUSH32 0x675CAE3800000000000000000000000000000000000000000000000000000000 DUP2 MSTORE REVERT JUMPDEST SWAP1 SWAP5 PUSH1 0x20 DUP3 RETURNDATASIZE PUSH1 0x20 GT PUSH2 0x16D4 JUMPI JUMPDEST DUP2 PUSH2 0x16C3 PUSH1 0x20 SWAP4 DUP4 PUSH2 0x35FA JUMP JUMPDEST DUP2 ADD SUB SLT PUSH2 0x387 JUMPI POP MLOAD SWAP4 CODESIZE PUSH2 0x165A JUMP JUMPDEST RETURNDATASIZE SWAP2 POP PUSH2 0x16B6 JUMP JUMPDEST DUP3 MLOAD RETURNDATASIZE PUSH1 0x0 DUP3 RETURNDATACOPY RETURNDATASIZE SWAP1 REVERT JUMPDEST DUP2 SUB PUSH2 0x1714 JUMPI POP PUSH2 0x116E SWAP3 POP PUSH2 0x170D PUSH1 0x40 PUSH1 0x60 DUP5 PUSH1 0x80 MLOAD ADD ADD CALLDATALOAD SWAP4 PUSH1 0x80 MLOAD ADD ADD CALLDATALOAD PUSH2 0x3854 JUMP JUMPDEST SWAP1 CALLDATALOAD PUSH2 0x38A5 JUMP JUMPDEST SWAP1 SWAP2 SWAP1 PUSH1 0x6 DUP2 SUB PUSH2 0x184E JUMPI POP PUSH1 0x80 MLOAD ADD PUSH1 0x60 DUP2 ADD CALLDATALOAD SWAP1 PUSH1 0x40 SWAP1 PUSH2 0x1739 SWAP1 DUP3 ADD CALLDATALOAD PUSH2 0x3854 JUMP JUMPDEST SWAP3 DUP3 ISZERO DUP1 ISZERO PUSH2 0x1843 JUMPI JUMPDEST PUSH2 0x181B JUMPI CALLDATALOAD PUSH20 0xFFFFFFFFFFFFFFFFFFFFFFFFFFFFFFFFFFFFFFFF AND SWAP4 DUP5 PUSH2 0x177F JUMPI POP POP PUSH2 0x116E SWAP3 POP PUSH2 0x1778 PUSH2 0x2710 SWAP2 SELFBALANCE PUSH2 0x3AA3 JUMP JUMPDEST DIV SWAP1 PUSH2 0x3984 JUMP JUMPDEST DUP2 MLOAD SWAP1 PUSH32 0x70A0823100000000000000000000000000000000000000000000000000000000 DUP3 MSTORE ADDRESS SWAP1 DUP3 ADD MSTORE PUSH1 0x20 DUP2 PUSH1 0x24 DUP2 DUP9 GAS STATICCALL SWAP2 DUP3 ISZERO PUSH2 0x1811 JUMPI POP PUSH1 0x0 SWAP2 PUSH2 0x17DD JUMPI JUMPDEST POP PUSH2 0x17D6 PUSH2 0x116E SWAP5 SWAP4 SWAP3 PUSH2 0x2710 SWAP3 PUSH2 0x3AA3 JUMP JUMPDEST DIV SWAP2 PUSH2 0x39F2 JUMP JUMPDEST SWAP1 PUSH1 0x20 DUP3 RETURNDATASIZE PUSH1 0x20 GT PUSH2 0x1809 JUMPI JUMPDEST DUP2 PUSH2 0x17F7 PUSH1 0x20 SWAP4 DUP4 PUSH2 0x35FA JUMP JUMPDEST DUP2 ADD SUB SLT PUSH2 0x387 JUMPI POP MLOAD PUSH2 0x17D6 PUSH2 0x17C3 JUMP JUMPDEST RETURNDATASIZE SWAP2 POP PUSH2 0x17EA JUMP JUMPDEST MLOAD RETURNDATASIZE PUSH1 0x0 DUP3 RETURNDATACOPY RETURNDATASIZE SWAP1 REVERT JUMPDEST DUP5 DUP3 MLOAD PUSH32 0xDEAA01E600000000000000000000000000000000000000000000000000000000 DUP2 MSTORE REVERT JUMPDEST POP PUSH2 0x2710 DUP4 GT PUSH2 0x1743 JUMP JUMPDEST DUP4 PUSH1 0x24 SWAP2 PUSH1 0x40 MLOAD SWAP2 PUSH32 0xD76A1E9E00000000000000000000000000000000000000000000000000000000 DUP4 MSTORE DUP3 ADD MSTORE REVERT JUMPDEST DUP2 SWAP14 SWAP7 SWAP14 SWAP12 SWAP9 SWAP8 SWAP5 SWAP6 SWAP11 SWAP10 SWAP12 SWAP4 SWAP3 SWAP4 EQ PUSH1 0x0 EQ PUSH2 0x1B85 JUMPI POP POP POP PUSH1 0x40 SWAP2 PUSH2 0x18AD DUP4 DUP4 PUSH1 0x80 MLOAD ADD ADD CALLDATALOAD SWAP2 DUP6 PUSH2 0x42B7 JUMP JUMPDEST SWAP3 SWAP1 SWAP5 PUSH1 0xA0 DUP3 PUSH1 0x80 MLOAD ADD ADD CALLDATALOAD PUSH1 0x0 EQ PUSH2 0x1B7B JUMPI PUSH2 0x18E3 PUSH20 0xFFFFFFFFFFFFFFFFFFFFFFFFFFFFFFFFFFFFFFFF PUSH1 0x1 SLOAD AND SWAP2 CALLDATALOAD PUSH2 0x3854 JUMP JUMPDEST SWAP1 DUP7 ISZERO PUSH2 0x1B4C JUMPI PUSH2 0x18F3 DUP6 PUSH2 0x3BB3 JUMP JUMPDEST DUP8 PUSH1 0x1 LT ISZERO PUSH2 0x1B4C JUMPI PUSH2 0x1915 PUSH2 0x195D SWAP2 PUSH2 0x190F PUSH1 0x20 DUP10 ADD PUSH2 0x3BB3 JUMP JUMPDEST SWAP1 PUSH2 0x3D53 JUMP JUMPDEST SWAP1 PUSH32 0x0 PUSH32 0x0 PUSH2 0x3C4B JUMP JUMPDEST SWAP4 DUP5 DUP2 PUSH2 0x1B32 JUMPI JUMPDEST POP POP POP PUSH32 0xFFFFFFFFFFFFFFFFFFFFFFFFFFFFFFFFFFFFFFFFFFFFFFFFFFFFFFFFFFFFFFFF DUP7 ADD SWAP4 DUP7 DUP6 GT PUSH2 0x1B03 JUMPI PUSH2 0x19B9 SWAP5 PUSH2 0x19BE PUSH20 0xFFFFFFFFFFFFFFFFFFFFFFFFFFFFFFFFFFFFFFFF SWAP7 DUP8 SWAP3 DUP11 DUP6 PUSH2 0x3BA3 JUMP JUMPDEST PUSH2 0x3BB3 JUMP JUMPDEST AND SWAP5 DUP7 MLOAD SWAP5 PUSH32 0x70A0823100000000000000000000000000000000000000000000000000000000 SWAP2 DUP3 DUP8 MSTORE DUP5 AND SWAP4 PUSH1 0x4 SWAP10 DUP6 DUP12 DUP10 ADD MSTORE PUSH1 0x24 SWAP5 PUSH1 0x20 DUP10 DUP8 DUP2 DUP14 GAS STATICCALL SWAP9 DUP10 ISZERO PUSH2 0x1AF8 JUMPI PUSH1 0x0 SWAP10 PUSH2 0x1AC3 JUMPI JUMPDEST POP SWAP2 PUSH1 0x20 SWAP7 SWAP6 SWAP5 SWAP4 SWAP2 PUSH2 0x1A1F SWAP4 PUSH2 0x3DCC JUMP JUMPDEST DUP8 MLOAD SWAP7 DUP8 SWAP4 DUP5 SWAP3 DUP4 MSTORE DUP11 DUP4 ADD MSTORE GAS STATICCALL SWAP3 DUP4 ISZERO PUSH2 0x1AB8 JUMPI PUSH1 0x0 SWAP4 PUSH2 0x1A83 JUMPI JUMPDEST POP SWAP1 PUSH1 0x60 PUSH2 0x1A51 SWAP3 PUSH1 0x80 MLOAD ADD ADD CALLDATALOAD SWAP3 PUSH2 0x3BD4 JUMP JUMPDEST LT PUSH2 0x1A5D JUMPI POP POP PUSH2 0xE71 JUMP JUMPDEST MLOAD PUSH32 0x849EAF9800000000000000000000000000000000000000000000000000000000 DUP2 MSTORE REVERT JUMPDEST SWAP1 SWAP3 PUSH1 0x20 DUP3 RETURNDATASIZE PUSH1 0x20 GT PUSH2 0x1AB0 JUMPI JUMPDEST DUP2 PUSH2 0x1A9E PUSH1 0x20 SWAP4 DUP4 PUSH2 0x35FA JUMP JUMPDEST DUP2 ADD SUB SLT PUSH2 0x387 JUMPI POP MLOAD SWAP2 PUSH1 0x60 PUSH2 0x1A3D JUMP JUMPDEST RETURNDATASIZE SWAP2 POP PUSH2 0x1A91 JUMP JUMPDEST DUP5 MLOAD RETURNDATASIZE PUSH1 0x0 DUP3 RETURNDATACOPY RETURNDATASIZE SWAP1 REVERT JUMPDEST SWAP1 SWAP9 PUSH1 0x20 DUP3 RETURNDATASIZE PUSH1 0x20 GT PUSH2 0x1AF0 JUMPI JUMPDEST DUP2 PUSH2 0x1ADE PUSH1 0x20 SWAP4 DUP4 PUSH2 0x35FA JUMP JUMPDEST DUP2 ADD SUB SLT PUSH2 0x387 JUMPI POP MLOAD SWAP8 PUSH1 0x20 PUSH2 0x1A0D JUMP JUMPDEST RETURNDATASIZE SWAP2 POP PUSH2 0x1AD1 JUMP JUMPDEST DUP12 MLOAD RETURNDATASIZE PUSH1 0x0 DUP3 RETURNDATACOPY RETURNDATASIZE SWAP1 REVERT JUMPDEST PUSH32 0x4E487B7100000000000000000000000000000000000000000000000000000000 PUSH1 0x0 MSTORE PUSH1 0x11 PUSH1 0x4 MSTORE PUSH1 0x24 PUSH1 0x0 REVERT JUMPDEST PUSH2 0x1B44 SWAP3 PUSH2 0x1B3F DUP9 PUSH2 0x3BB3 JUMP JUMPDEST PUSH2 0x3BE1 JUMP JUMPDEST CODESIZE DUP1 DUP5 PUSH2 0x1965 JUMP JUMPDEST PUSH32 0x4E487B7100000000000000000000000000000000000000000000000000000000 PUSH1 0x0 MSTORE PUSH1 0x32 PUSH1 0x4 MSTORE PUSH1 0x24 PUSH1 0x0 REVERT JUMPDEST PUSH2 0x18E3 ADDRESS SWAP2 PUSH2 0xC5B JUMP JUMPDEST SWAP2 SWAP5 SWAP3 SWAP4 SWAP2 PUSH1 0x9 DUP2 SUB PUSH2 0x1F66 JUMPI POP POP PUSH2 0x1B9E SWAP1 DUP3 PUSH2 0x42B7 JUMP JUMPDEST PUSH1 0x80 MLOAD DUP5 ADD PUSH1 0xA0 ADD CALLDATALOAD ISZERO PUSH2 0x1F5C JUMPI PUSH2 0x1BCF PUSH20 0xFFFFFFFFFFFFFFFFFFFFFFFFFFFFFFFFFFFFFFFF PUSH1 0x1 SLOAD AND SWAP4 CALLDATALOAD PUSH2 0x3854 JUMP JUMPDEST SWAP3 PUSH2 0x1BD9 DUP4 PUSH2 0x36A5 JUMP JUMPDEST SWAP6 PUSH2 0x1BE7 PUSH1 0x40 MLOAD SWAP8 DUP9 PUSH2 0x35FA JUMP JUMPDEST DUP4 DUP8 MSTORE DUP4 SWAP1 SHL DUP3 ADD PUSH1 0x20 DUP8 ADD CALLDATASIZE DUP3 GT PUSH2 0xA4E JUMPI DUP4 SWAP1 JUMPDEST DUP3 DUP3 LT PUSH2 0x1F44 JUMPI POP POP POP PUSH1 0x0 SWAP5 PUSH1 0x2 DUP8 MLOAD LT PUSH2 0x1F1A JUMPI PUSH1 0x40 DUP2 PUSH1 0x80 MLOAD ADD ADD CALLDATALOAD SWAP7 DUP1 MLOAD PUSH32 0xFFFFFFFFFFFFFFFFFFFFFFFFFFFFFFFFFFFFFFFFFFFFFFFFFFFFFFFFFFFFFFFF DUP2 ADD SWAP1 DUP2 GT PUSH2 0x1B03 JUMPI SWAP1 DUP2 JUMPDEST PUSH2 0x1CA7 JUMPI POP POP PUSH1 0x80 MLOAD ADD PUSH1 0x60 ADD CALLDATALOAD DUP7 GT PUSH2 0x1C7D JUMPI DUP3 ISZERO PUSH2 0x1B4C JUMPI PUSH2 0x116E SWAP6 DUP6 PUSH2 0x1C78 SWAP3 PUSH2 0x1B3F DUP6 PUSH2 0x3BB3 JUMP JUMPDEST PUSH2 0x3DCC JUMP JUMPDEST PUSH1 0x4 PUSH1 0x40 MLOAD PUSH32 0x8AB0BC1600000000000000000000000000000000000000000000000000000000 DUP2 MSTORE REVERT JUMPDEST SWAP1 SWAP8 PUSH32 0xFFFFFFFFFFFFFFFFFFFFFFFFFFFFFFFFFFFFFFFFFFFFFFFFFFFFFFFFFFFFFFFF DUP10 ADD SWAP8 POP DUP9 DUP9 GT PUSH2 0x1B03 JUMPI PUSH20 0xFFFFFFFFFFFFFFFFFFFFFFFFFFFFFFFFFFFFFFFF PUSH2 0x1CF7 PUSH2 0x1D6D SWAP10 DUP5 PUSH2 0x3B8F JUMP JUMPDEST MLOAD AND PUSH2 0x1D23 PUSH20 0xFFFFFFFFFFFFFFFFFFFFFFFFFFFFFFFFFFFFFFFF PUSH2 0x1D1B DUP13 DUP7 PUSH2 0x3B8F JUMP JUMPDEST MLOAD AND DUP3 PUSH2 0x3D53 JUMP JUMPDEST DUP2 SWAP11 SWAP2 PUSH32 0x0 PUSH32 0x0 PUSH2 0x3C4B JUMP JUMPDEST SWAP1 PUSH1 0x40 MLOAD SWAP1 PUSH32 0x902F1AC00000000000000000000000000000000000000000000000000000000 DUP3 MSTORE PUSH1 0x60 DUP3 PUSH1 0x4 DUP2 PUSH20 0xFFFFFFFFFFFFFFFFFFFFFFFFFFFFFFFFFFFFFFFF DUP8 AND GAS STATICCALL SWAP11 DUP12 ISZERO PUSH2 0xF71 JUMPI PUSH1 0x0 SWAP3 DUP4 SWAP13 PUSH2 0x1ED1 JUMPI JUMPDEST POP PUSH20 0xFFFFFFFFFFFFFFFFFFFFFFFFFFFFFFFFFFFFFFFF AND SUB PUSH2 0x1EB7 JUMPI PUSH14 0xFFFFFFFFFFFFFFFFFFFFFFFFFFFF DUP1 SWAP2 AND SWAP10 AND SWAP1 JUMPDEST SWAP9 DUP1 ISZERO DUP1 ISZERO PUSH2 0x1EAF JUMPI JUMPDEST PUSH2 0x1E85 JUMPI DUP3 PUSH2 0x1E0F SWAP2 PUSH2 0x3AA3 JUMP JUMPDEST SWAP2 PUSH2 0x3E8 SWAP3 DUP4 DUP2 MUL SWAP4 DUP2 DUP6 DIV EQ SWAP1 ISZERO OR ISZERO PUSH2 0x1B03 JUMPI PUSH2 0x1E2D SWAP2 PUSH2 0x3BD4 JUMP JUMPDEST PUSH2 0x3E5 SWAP1 DUP2 DUP2 MUL SWAP2 DUP2 DUP4 DIV EQ SWAP1 ISZERO OR ISZERO PUSH2 0x1B03 JUMPI PUSH2 0x1E4A SWAP2 PUSH2 0x3AB6 JUMP JUMPDEST PUSH1 0x1 DUP2 ADD DUP1 SWAP2 GT PUSH2 0x1B03 JUMPI SWAP8 DUP1 ISZERO PUSH2 0x1B03 JUMPI PUSH32 0xFFFFFFFFFFFFFFFFFFFFFFFFFFFFFFFFFFFFFFFFFFFFFFFFFFFFFFFFFFFFFFFF ADD SWAP1 DUP2 PUSH2 0x1C4C JUMP JUMPDEST PUSH1 0x4 PUSH1 0x40 MLOAD PUSH32 0x7B9C891600000000000000000000000000000000000000000000000000000000 DUP2 MSTORE REVERT JUMPDEST POP DUP2 ISZERO PUSH2 0x1E01 JUMP JUMPDEST PUSH14 0xFFFFFFFFFFFFFFFFFFFFFFFFFFFF SWAP10 DUP11 AND SWAP10 AND SWAP1 PUSH2 0x1DF7 JUMP JUMPDEST PUSH2 0x1F0A SWAP2 SWAP13 POP PUSH20 0xFFFFFFFFFFFFFFFFFFFFFFFFFFFFFFFFFFFFFFFF SWAP4 POP PUSH1 0x60 RETURNDATASIZE DUP2 GT PUSH2 0x1F13 JUMPI JUMPDEST PUSH2 0x1F02 DUP2 DUP4 PUSH2 0x35FA JUMP JUMPDEST DUP2 ADD SWAP1 PUSH2 0x3D96 JUMP JUMPDEST POP SWAP12 SWAP1 SWAP3 PUSH2 0x1DC5 JUMP JUMPDEST POP RETURNDATASIZE PUSH2 0x1EF8 JUMP JUMPDEST PUSH1 0x4 PUSH1 0x40 MLOAD PUSH32 0x20DB826700000000000000000000000000000000000000000000000000000000 DUP2 MSTORE REVERT JUMPDEST PUSH1 0x20 DUP1 SWAP2 PUSH2 0x1F51 DUP5 PUSH2 0xA76 JUMP JUMPDEST DUP2 MSTORE ADD SWAP2 ADD SWAP1 PUSH2 0x1BFD JUMP JUMPDEST PUSH2 0x1BCF ADDRESS SWAP4 PUSH2 0xC5B JUMP JUMPDEST SWAP3 SWAP5 POP SWAP2 PUSH1 0xA DUP2 SUB PUSH2 0x20CC JUMPI POP PUSH1 0x80 MLOAD DUP4 ADD PUSH1 0xE0 DUP2 ADD CALLDATALOAD DUP2 ADD SWAP5 PUSH1 0x20 DUP1 DUP8 ADD CALLDATALOAD SWAP5 POP SWAP1 SWAP3 SWAP2 PUSH2 0x1F99 SWAP2 SWAP1 DUP8 SUB ADD DUP5 PUSH2 0x426C JUMP JUMPDEST GT PUSH2 0x105D JUMPI PUSH20 0xFFFFFFFFFFFFFFFFFFFFFFFFFFFFFFFFFFFFFFFF SWAP4 DUP5 PUSH32 0x0 AND SWAP3 DUP6 PUSH1 0x1 SLOAD AND SWAP2 DUP5 EXTCODESIZE ISZERO PUSH2 0xA4E JUMPI PUSH1 0x40 SWAP6 DUP8 DUP8 MLOAD SWAP9 DUP10 SWAP7 DUP8 SWAP7 PUSH32 0x2B67B57000000000000000000000000000000000000000000000000000000000 DUP9 MSTORE PUSH1 0x4 DUP9 ADD MSTORE PUSH2 0x2021 SWAP1 PUSH2 0xA76 JUMP JUMPDEST AND PUSH1 0x24 DUP7 ADD MSTORE DUP1 DUP9 DUP4 PUSH1 0x80 MLOAD ADD ADD PUSH2 0x2038 SWAP1 PUSH2 0xA76 JUMP JUMPDEST AND PUSH1 0x44 DUP7 ADD MSTORE PUSH6 0xFFFFFFFFFFFF DUP1 DUP4 PUSH1 0x80 MLOAD ADD PUSH1 0x60 ADD PUSH2 0x2057 SWAP1 PUSH2 0x36BD JUMP JUMPDEST AND PUSH1 0x64 DUP8 ADD MSTORE DUP3 PUSH1 0x80 MLOAD ADD PUSH1 0x80 ADD PUSH2 0x206E SWAP1 PUSH2 0x36BD JUMP JUMPDEST AND PUSH1 0x84 DUP7 ADD MSTORE DUP2 PUSH1 0x80 MLOAD ADD PUSH1 0xA0 ADD PUSH2 0x2085 SWAP1 PUSH2 0xA76 JUMP JUMPDEST AND PUSH1 0xA4 DUP6 ADD MSTORE PUSH1 0x80 MLOAD ADD PUSH1 0xC0 ADD CALLDATALOAD PUSH1 0xC4 DUP5 ADD MSTORE PUSH2 0x100 PUSH1 0xE4 DUP5 ADD MSTORE PUSH2 0x20B1 SWAP2 PUSH2 0x104 DUP5 ADD SWAP2 DUP8 ADD PUSH2 0x3537 JUMP JUMPDEST SUB DUP2 GAS PUSH1 0x0 SWAP5 DUP6 SWAP2 CALL SWAP1 DUP2 ISZERO PUSH2 0x1811 JUMPI POP PUSH2 0x148B JUMPI POP PUSH2 0xE71 JUMP JUMPDEST PUSH1 0xB DUP2 SUB PUSH2 0x2296 JUMPI POP POP POP PUSH2 0x20EB PUSH1 0x40 DUP1 SWAP3 PUSH1 0x80 MLOAD ADD ADD CALLDATALOAD SWAP3 CALLDATALOAD PUSH2 0x3854 JUMP JUMPDEST SWAP2 DUP1 PUSH32 0x8000000000000000000000000000000000000000000000000000000000000000 DUP2 SUB PUSH2 0x2266 JUMPI POP POP SELFBALANCE JUMPDEST DUP1 PUSH2 0x2125 JUMPI POP POP POP PUSH2 0xE71 JUMP JUMPDEST PUSH20 0xFFFFFFFFFFFFFFFFFFFFFFFFFFFFFFFFFFFFFFFF SWAP1 DUP2 PUSH32 0x0 AND DUP1 EXTCODESIZE ISZERO PUSH2 0xA4E JUMPI DUP4 MLOAD SWAP3 PUSH32 0xD0E30DB000000000000000000000000000000000000000000000000000000000 DUP5 MSTORE PUSH1 0x4 SWAP4 PUSH1 0x0 DUP2 DUP7 DUP2 DUP8 DUP8 GAS CALL DUP1 ISZERO PUSH2 0x225B JUMPI PUSH2 0x224C JUMPI JUMPDEST POP ADDRESS SWAP1 DUP7 AND SUB PUSH2 0x21B4 JUMPI JUMPDEST POP POP PUSH2 0x1669 JUMP JUMPDEST PUSH2 0x2213 SWAP5 PUSH1 0x0 PUSH1 0x20 SWAP5 DUP7 MLOAD SWAP8 DUP9 SWAP6 DUP7 SWAP5 DUP6 SWAP4 PUSH32 0xA9059CBB00000000000000000000000000000000000000000000000000000000 DUP6 MSTORE DUP5 ADD PUSH1 0x20 SWAP1 SWAP4 SWAP3 SWAP2 SWAP4 PUSH20 0xFFFFFFFFFFFFFFFFFFFFFFFFFFFFFFFFFFFFFFFF PUSH1 0x40 DUP3 ADD SWAP6 AND DUP2 MSTORE ADD MSTORE JUMP JUMPDEST SUB SWAP3 GAS CALL SWAP1 DUP2 ISZERO PUSH2 0x1811 JUMPI POP PUSH2 0x222D JUMPI JUMPDEST DUP1 DUP1 DUP1 DUP1 PUSH2 0x21AD JUMP JUMPDEST PUSH2 0x2245 SWAP1 PUSH1 0x20 RETURNDATASIZE PUSH1 0x20 GT PUSH2 0x635 JUMPI PUSH2 0x626 DUP2 DUP4 PUSH2 0x35FA JUMP JUMPDEST POP CODESIZE PUSH2 0x2224 JUMP JUMPDEST PUSH2 0x2255 SWAP1 PUSH2 0x3576 JUMP JUMPDEST CODESIZE PUSH2 0x21A2 JUMP JUMPDEST DUP7 MLOAD RETURNDATASIZE PUSH1 0x0 DUP3 RETURNDATACOPY RETURNDATASIZE SWAP1 REVERT JUMPDEST SELFBALANCE LT ISZERO PUSH2 0x2118 JUMPI PUSH1 0x4 DUP3 MLOAD PUSH32 0x6A12F10400000000000000000000000000000000000000000000000000000000 DUP2 MSTORE REVERT JUMPDEST PUSH1 0xC DUP2 SUB PUSH2 0x2426 JUMPI POP POP POP SWAP1 PUSH2 0x22AC SWAP1 CALLDATALOAD PUSH2 0x3854 JUMP JUMPDEST SWAP1 PUSH20 0xFFFFFFFFFFFFFFFFFFFFFFFFFFFFFFFFFFFFFFFF DUP1 PUSH32 0x0 AND PUSH1 0x40 DUP1 MLOAD SWAP4 PUSH32 0x70A0823100000000000000000000000000000000000000000000000000000000 DUP6 MSTORE PUSH1 0x4 ADDRESS DUP2 DUP8 ADD MSTORE PUSH1 0x24 SWAP2 PUSH1 0x20 DUP8 DUP5 DUP2 DUP9 GAS STATICCALL SWAP7 DUP8 ISZERO PUSH2 0x1AB8 JUMPI PUSH1 0x0 SWAP8 PUSH2 0x23F2 JUMPI JUMPDEST POP PUSH1 0x80 MLOAD ADD DUP4 ADD CALLDATALOAD DUP7 LT PUSH2 0x23CB JUMPI DUP6 PUSH2 0x234E JUMPI JUMPDEST POP POP POP POP POP POP POP PUSH2 0xE71 JUMP JUMPDEST DUP4 EXTCODESIZE ISZERO PUSH2 0xA4E JUMPI PUSH1 0x0 SWAP2 DUP7 SWAP2 DUP4 DUP6 MLOAD SWAP7 DUP8 SWAP5 DUP6 SWAP4 PUSH32 0x2E1A7D4D00000000000000000000000000000000000000000000000000000000 DUP6 MSTORE DUP5 ADD MSTORE GAS CALL SWAP1 DUP2 ISZERO PUSH2 0x1811 JUMPI POP PUSH2 0x23BC JUMPI JUMPDEST POP ADDRESS SWAP1 DUP4 AND SUB PUSH2 0x23AC JUMPI JUMPDEST DUP1 DUP1 DUP1 DUP1 DUP1 PUSH2 0x2342 JUMP JUMPDEST PUSH2 0x23B5 SWAP2 PUSH2 0x3984 JUMP JUMPDEST CODESIZE DUP1 PUSH2 0x23A2 JUMP JUMPDEST PUSH2 0x23C5 SWAP1 PUSH2 0x3576 JUMP JUMPDEST CODESIZE PUSH2 0x2397 JUMP JUMPDEST DUP3 MLOAD PUSH32 0x6A12F10400000000000000000000000000000000000000000000000000000000 DUP2 MSTORE REVERT JUMPDEST SWAP1 SWAP7 PUSH1 0x20 DUP3 RETURNDATASIZE PUSH1 0x20 GT PUSH2 0x241E JUMPI JUMPDEST DUP2 PUSH2 0x240D PUSH1 0x20 SWAP4 DUP4 PUSH2 0x35FA JUMP JUMPDEST DUP2 ADD SUB SLT PUSH2 0x387 JUMPI POP MLOAD SWAP6 DUP4 PUSH2 0x232E JUMP JUMPDEST RETURNDATASIZE SWAP2 POP PUSH2 0x2400 JUMP JUMPDEST PUSH1 0xD DUP2 SUB PUSH2 0x2681 JUMPI POP DUP3 PUSH1 0x80 MLOAD ADD ADD SWAP2 PUSH1 0x20 DUP4 ADD SWAP4 PUSH1 0x20 DUP3 PUSH1 0x80 MLOAD ADD DUP6 SUB SLT PUSH2 0xA4E JUMPI CALLDATALOAD PUSH8 0xFFFFFFFFFFFFFFFF DUP2 GT PUSH2 0xA4E JUMPI DUP5 SWAP2 PUSH1 0x80 MLOAD ADD ADD SWAP2 DUP3 ADD SLT ISZERO PUSH2 0xA4E JUMPI PUSH1 0x20 DUP2 ADD CALLDATALOAD SWAP1 PUSH2 0x2478 DUP3 PUSH2 0x36A5 JUMP JUMPDEST SWAP4 PUSH1 0x40 SWAP4 PUSH2 0x2488 DUP6 MLOAD SWAP7 DUP8 PUSH2 0x35FA JUMP JUMPDEST DUP4 DUP7 MSTORE PUSH1 0x20 DUP7 ADD SWAP3 DUP6 DUP5 SWAP6 PUSH1 0x7 SHL DUP3 ADD ADD SWAP3 DUP4 GT PUSH2 0xA4E JUMPI DUP6 ADD SWAP3 JUMPDEST DUP3 DUP5 LT PUSH2 0x261F JUMPI POP POP POP POP PUSH20 0xFFFFFFFFFFFFFFFFFFFFFFFFFFFFFFFFFFFFFFFF SWAP1 DUP2 PUSH1 0x1 SLOAD AND DUP5 MLOAD SWAP1 PUSH1 0x0 JUMPDEST DUP3 DUP2 LT PUSH2 0x25B3 JUMPI POP POP POP DUP2 PUSH32 0x0 AND SWAP2 DUP3 EXTCODESIZE ISZERO PUSH2 0xA4E JUMPI DUP4 MLOAD PUSH32 0xD58B1DB00000000000000000000000000000000000000000000000000000000 DUP2 MSTORE PUSH1 0x20 PUSH1 0x4 DUP3 ADD MSTORE SWAP5 MLOAD PUSH1 0x24 DUP7 ADD DUP2 SWAP1 MSTORE DUP6 SWAP3 PUSH1 0x44 DUP5 ADD SWAP3 SWAP1 SWAP2 PUSH1 0x0 SWAP2 JUMPDEST DUP2 DUP4 LT PUSH2 0x256F JUMPI POP POP POP POP SWAP2 DUP2 PUSH1 0x0 DUP2 DUP2 SWAP6 SUB SWAP3 GAS CALL SWAP1 DUP2 ISZERO PUSH2 0x1811 JUMPI POP PUSH2 0x148B JUMPI POP PUSH2 0xE71 JUMP JUMPDEST SWAP2 SWAP4 DUP4 SWAP6 POP PUSH1 0x80 PUSH1 0x20 SWAP2 DUP5 PUSH1 0x60 PUSH1 0x1 SWAP6 SWAP8 MLOAD DUP3 DUP2 MLOAD AND DUP5 MSTORE DUP3 DUP7 DUP3 ADD MLOAD AND DUP7 DUP6 ADD MSTORE DUP3 DUP14 DUP3 ADD MLOAD AND DUP14 DUP6 ADD MSTORE ADD MLOAD AND PUSH1 0x60 DUP3 ADD MSTORE ADD SWAP6 ADD SWAP4 ADD SWAP1 SWAP2 DUP8 SWAP5 SWAP4 SWAP3 PUSH2 0x2547 JUMP JUMPDEST DUP2 DUP6 PUSH2 0x25BF DUP4 DUP11 PUSH2 0x3B8F JUMP JUMPDEST MLOAD MLOAD AND SUB PUSH2 0x25F6 JUMPI PUSH32 0xFFFFFFFFFFFFFFFFFFFFFFFFFFFFFFFFFFFFFFFFFFFFFFFFFFFFFFFFFFFFFFFF DUP2 EQ PUSH2 0x1B03 JUMPI PUSH1 0x1 ADD PUSH2 0x24D0 JUMP JUMPDEST PUSH1 0x4 DUP7 MLOAD PUSH32 0xE700287700000000000000000000000000000000000000000000000000000000 DUP2 MSTORE REVERT JUMPDEST PUSH1 0x80 PUSH1 0x20 DUP6 DUP5 SUB ADD SLT PUSH2 0xA4E JUMPI PUSH1 0x20 PUSH1 0x80 SWAP2 DUP8 MLOAD PUSH2 0x263C DUP2 PUSH2 0x358A JUMP JUMPDEST PUSH2 0x2645 DUP8 PUSH2 0xA76 JUMP JUMPDEST DUP2 MSTORE PUSH2 0x2652 DUP4 DUP9 ADD PUSH2 0xA76 JUMP JUMPDEST DUP4 DUP3 ADD MSTORE PUSH2 0x2661 DUP10 DUP9 ADD PUSH2 0xA76 JUMP JUMPDEST DUP10 DUP3 ADD MSTORE PUSH2 0x2671 PUSH1 0x60 DUP9 ADD PUSH2 0xA76 JUMP JUMPDEST PUSH1 0x60 DUP3 ADD MSTORE DUP2 MSTORE ADD SWAP4 ADD SWAP3 PUSH2 0x24A4 JUMP JUMPDEST SWAP3 SWAP5 POP POP POP PUSH1 0xE DUP2 SUB PUSH2 0x2783 JUMPI POP PUSH1 0x40 SWAP2 DUP3 MLOAD SWAP1 PUSH32 0x70A0823100000000000000000000000000000000000000000000000000000000 DUP3 MSTORE PUSH1 0x20 DUP3 PUSH1 0x24 DUP2 PUSH20 0xFFFFFFFFFFFFFFFFFFFFFFFFFFFFFFFFFFFFFFFF DUP1 PUSH1 0x4 SWAP9 CALLDATALOAD AND DUP9 DUP4 ADD MSTORE DUP9 DUP7 PUSH1 0x80 MLOAD ADD ADD CALLDATALOAD AND GAS STATICCALL SWAP2 DUP3 ISZERO PUSH2 0x1AB8 JUMPI PUSH1 0x0 SWAP3 PUSH2 0x274E JUMPI JUMPDEST POP PUSH1 0x80 MLOAD ADD PUSH1 0x60 ADD CALLDATALOAD GT DUP1 ISZERO SWAP3 SWAP1 PUSH2 0x2710 JUMPI POP POP PUSH2 0xE71 JUMP JUMPDEST MLOAD PUSH32 0xA328167200000000000000000000000000000000000000000000000000000000 PUSH1 0x20 DUP3 ADD MSTORE SWAP1 DUP2 MSTORE SWAP1 SWAP2 POP PUSH2 0x2746 DUP2 PUSH2 0x35C2 JUMP JUMPDEST SWAP1 CODESIZE DUP1 PUSH2 0x15D7 JUMP JUMPDEST SWAP1 SWAP2 PUSH1 0x20 DUP3 RETURNDATASIZE PUSH1 0x20 GT PUSH2 0x277B JUMPI JUMPDEST DUP2 PUSH2 0x2769 PUSH1 0x20 SWAP4 DUP4 PUSH2 0x35FA JUMP JUMPDEST DUP2 ADD SUB SLT PUSH2 0x387 JUMPI POP MLOAD SWAP1 PUSH1 0x60 PUSH2 0x26F7 JUMP JUMPDEST RETURNDATASIZE SWAP2 POP PUSH2 0x275C JUMP JUMPDEST PUSH1 0x24 SWAP1 PUSH1 0x40 MLOAD SWAP1 PUSH32 0xD76A1E9E00000000000000000000000000000000000000000000000000000000 DUP3 MSTORE PUSH1 0x4 DUP3 ADD MSTORE REVERT JUMPDEST SWAP2 POP SWAP2 POP PUSH1 0x18 SWAP12 SWAP6 SWAP4 SWAP9 SWAP8 SWAP10 SWAP7 SWAP3 SWAP5 SWAP12 DUP1 DUP4 LT PUSH1 0x0 EQ PUSH2 0x2D43 JUMPI POP DUP2 SUB PUSH2 0x282A JUMPI POP POP POP PUSH1 0x0 SWAP3 POP SWAP1 PUSH2 0x27E8 DUP4 SWAP3 DUP3 PUSH2 0x429A JUMP JUMPDEST DUP2 PUSH1 0x40 MLOAD SWAP3 DUP4 SWAP3 DUP4 CALLDATACOPY DUP2 ADD DUP5 DUP2 MSTORE SUB SWAP2 CALLDATALOAD PUSH32 0x0 GAS CALL PUSH2 0x2824 PUSH2 0x3675 JUMP JUMPDEST SWAP1 PUSH2 0xE71 JUMP JUMPDEST PUSH1 0x11 DUP2 SUB PUSH2 0x2881 JUMPI POP POP POP PUSH1 0x0 SWAP3 POP SWAP1 PUSH2 0x2845 DUP4 SWAP3 DUP3 PUSH2 0x429A JUMP JUMPDEST DUP2 PUSH1 0x40 MLOAD SWAP3 DUP4 SWAP3 DUP4 CALLDATACOPY DUP2 ADD DUP5 DUP2 MSTORE SUB SWAP2 CALLDATALOAD PUSH32 0x0 GAS CALL PUSH2 0x2824 PUSH2 0x3675 JUMP JUMPDEST PUSH1 0x12 DUP2 SUB PUSH2 0x28D8 JUMPI POP POP POP PUSH1 0x0 SWAP3 POP SWAP1 PUSH2 0x289C DUP4 SWAP3 DUP3 PUSH2 0x429A JUMP JUMPDEST DUP2 PUSH1 0x40 MLOAD SWAP3 DUP4 SWAP3 DUP4 CALLDATACOPY DUP2 ADD DUP5 DUP2 MSTORE SUB SWAP2 CALLDATALOAD PUSH32 0x0 GAS CALL PUSH2 0x2824 PUSH2 0x3675 JUMP JUMPDEST SWAP2 SWAP4 SWAP3 POP SWAP1 PUSH1 0x13 DUP2 SUB PUSH2 0x2A3E JUMPI POP POP SWAP1 SWAP2 POP CALLDATALOAD PUSH32 0x0 SWAP2 PUSH1 0x40 PUSH1 0x0 DUP1 DUP3 MLOAD PUSH1 0x20 DUP2 ADD SWAP1 PUSH32 0x8264FE9800000000000000000000000000000000000000000000000000000000 DUP3 MSTORE PUSH1 0x24 DUP8 DUP2 DUP4 ADD MSTORE DUP2 MSTORE PUSH2 0x294E DUP2 PUSH2 0x35DE JUMP JUMPDEST MLOAD SWAP1 PUSH1 0x60 DUP7 PUSH1 0x80 MLOAD ADD ADD CALLDATALOAD DUP9 GAS CALL SWAP3 PUSH2 0x2965 PUSH2 0x3675 JUMP JUMPDEST SWAP5 DUP5 ISZERO PUSH2 0x2A04 JUMPI DUP3 PUSH20 0xFFFFFFFFFFFFFFFFFFFFFFFFFFFFFFFFFFFFFFFF PUSH2 0x2993 SWAP3 AND SWAP5 PUSH1 0x80 MLOAD ADD ADD CALLDATALOAD PUSH2 0x3854 JUMP JUMPDEST SWAP1 DUP4 EXTCODESIZE ISZERO PUSH2 0xA4E JUMPI DUP3 MLOAD PUSH32 0x8B72A2EC00000000000000000000000000000000000000000000000000000000 DUP2 MSTORE PUSH20 0xFFFFFFFFFFFFFFFFFFFFFFFFFFFFFFFFFFFFFFFF SWAP3 SWAP1 SWAP3 AND PUSH1 0x4 DUP4 ADD MSTORE PUSH1 0x24 DUP3 ADD MSTORE SWAP2 PUSH1 0x0 SWAP1 DUP4 SWAP1 PUSH1 0x44 SWAP1 DUP3 SWAP1 DUP5 SWAP1 GAS CALL SWAP1 DUP2 ISZERO PUSH2 0x1811 JUMPI POP PUSH2 0x148B JUMPI POP PUSH2 0xE71 JUMP JUMPDEST POP POP SWAP2 SWAP3 POP POP MLOAD PUSH32 0xAE9BDF0000000000000000000000000000000000000000000000000000000000 PUSH1 0x20 DUP3 ADD MSTORE PUSH1 0x4 DUP2 MSTORE PUSH2 0x2824 DUP2 PUSH2 0x35C2 JUMP JUMPDEST PUSH1 0x15 DUP2 SUB PUSH2 0x2B4F JUMPI POP POP SWAP1 PUSH1 0x40 SWAP2 DUP3 DUP1 MLOAD SWAP2 PUSH32 0x6352211E00000000000000000000000000000000000000000000000000000000 DUP4 MSTORE PUSH1 0x20 DUP4 PUSH1 0x24 DUP2 PUSH1 0x4 SWAP8 PUSH1 0x60 DUP2 PUSH1 0x80 MLOAD ADD ADD CALLDATALOAD DUP10 DUP4 ADD MSTORE PUSH20 0xFFFFFFFFFFFFFFFFFFFFFFFFFFFFFFFFFFFFFFFF SWAP7 DUP8 SWAP2 PUSH1 0x80 MLOAD ADD ADD CALLDATALOAD AND GAS STATICCALL SWAP3 DUP4 ISZERO PUSH2 0x2B44 JUMPI PUSH1 0x0 SWAP4 PUSH2 0x2B05 JUMPI JUMPDEST POP DUP2 SWAP1 CALLDATALOAD AND SWAP2 AND EQ SWAP2 DUP3 ISZERO PUSH2 0x2ACF JUMPI POP POP PUSH2 0xE71 JUMP JUMPDEST MLOAD PUSH32 0x7DBE7E8900000000000000000000000000000000000000000000000000000000 PUSH1 0x20 DUP3 ADD MSTORE SWAP1 DUP2 MSTORE SWAP1 SWAP2 POP PUSH2 0x2746 DUP2 PUSH2 0x35C2 JUMP JUMPDEST PUSH1 0x20 SWAP4 SWAP2 SWAP4 DUP2 RETURNDATASIZE PUSH1 0x20 GT PUSH2 0x2B3C JUMPI JUMPDEST DUP2 PUSH2 0x2B21 PUSH1 0x20 SWAP4 DUP4 PUSH2 0x35FA JUMP JUMPDEST DUP2 ADD SUB SLT PUSH2 0x44B JUMPI MLOAD SWAP1 DUP3 DUP3 AND DUP3 SUB PUSH2 0x387 JUMPI POP SWAP2 DUP2 PUSH2 0x2AB9 JUMP JUMPDEST RETURNDATASIZE SWAP2 POP PUSH2 0x2B14 JUMP JUMPDEST DUP6 MLOAD RETURNDATASIZE PUSH1 0x0 DUP3 RETURNDATACOPY RETURNDATASIZE SWAP1 REVERT JUMPDEST PUSH1 0x16 DUP2 SUB PUSH2 0x2C76 JUMPI POP POP PUSH1 0x40 SWAP2 DUP3 MLOAD SWAP1 PUSH31 0xFDD58E00000000000000000000000000000000000000000000000000000000 DUP3 MSTORE PUSH1 0x20 DUP3 DUP1 PUSH2 0x2BC1 PUSH1 0x4 SWAP7 PUSH1 0x60 DUP7 PUSH1 0x80 MLOAD ADD ADD CALLDATALOAD SWAP1 CALLDATALOAD DUP9 DUP5 ADD PUSH1 0x20 SWAP1 SWAP4 SWAP3 SWAP2 SWAP4 PUSH20 0xFFFFFFFFFFFFFFFFFFFFFFFFFFFFFFFFFFFFFFFF PUSH1 0x40 DUP3 ADD SWAP6 AND DUP2 MSTORE ADD MSTORE JUMP JUMPDEST SUB DUP2 PUSH20 0xFFFFFFFFFFFFFFFFFFFFFFFFFFFFFFFFFFFFFFFF DUP9 DUP7 PUSH1 0x80 MLOAD ADD ADD CALLDATALOAD AND GAS STATICCALL SWAP2 DUP3 ISZERO PUSH2 0x1AB8 JUMPI PUSH1 0x0 SWAP3 PUSH2 0x2C41 JUMPI JUMPDEST POP PUSH1 0x80 SWAP1 DUP2 MLOAD ADD ADD CALLDATALOAD GT SWAP2 DUP3 ISZERO SWAP3 PUSH2 0x2C0B JUMPI POP POP PUSH2 0xE71 JUMP JUMPDEST MLOAD PUSH32 0x483A692900000000000000000000000000000000000000000000000000000000 PUSH1 0x20 DUP3 ADD MSTORE SWAP1 DUP2 MSTORE SWAP1 SWAP2 POP PUSH2 0x2746 DUP2 PUSH2 0x35C2 JUMP JUMPDEST SWAP1 SWAP2 PUSH1 0x20 DUP3 RETURNDATASIZE PUSH1 0x20 GT PUSH2 0x2C6E JUMPI JUMPDEST DUP2 PUSH2 0x2C5C PUSH1 0x20 SWAP4 DUP4 PUSH2 0x35FA JUMP JUMPDEST DUP2 ADD SUB SLT PUSH2 0x387 JUMPI POP MLOAD SWAP1 PUSH1 0x80 PUSH2 0x2BF2 JUMP JUMPDEST RETURNDATASIZE SWAP2 POP PUSH2 0x2C4F JUMP JUMPDEST SWAP1 SWAP3 SWAP1 PUSH1 0x17 EQ PUSH2 0x2C87 JUMPI POP POP PUSH2 0xE71 JUMP JUMPDEST PUSH1 0x40 SWAP1 PUSH20 0xFFFFFFFFFFFFFFFFFFFFFFFFFFFFFFFFFFFFFFFF PUSH2 0x2CAF DUP4 DUP4 PUSH1 0x80 MLOAD ADD ADD CALLDATALOAD PUSH2 0x3854 JUMP JUMPDEST SWAP4 CALLDATALOAD AND SWAP3 DUP4 EXTCODESIZE ISZERO PUSH2 0xA4E JUMPI DUP3 MLOAD PUSH32 0x42842E0E00000000000000000000000000000000000000000000000000000000 DUP2 MSTORE PUSH1 0x80 MLOAD ADDRESS PUSH1 0x4 DUP4 ADD MSTORE PUSH20 0xFFFFFFFFFFFFFFFFFFFFFFFFFFFFFFFFFFFFFFFF SWAP1 SWAP3 AND PUSH1 0x24 DUP3 ADD MSTORE SWAP2 ADD PUSH1 0x60 ADD CALLDATALOAD PUSH1 0x44 DUP3 ADD MSTORE SWAP2 PUSH1 0x0 SWAP1 DUP4 SWAP1 DUP2 DUP4 DUP2 PUSH1 0x64 DUP2 ADD SUB SWAP3 GAS CALL SWAP1 DUP2 ISZERO PUSH2 0x1811 JUMPI POP PUSH2 0x2D34 JUMPI JUMPDEST DUP1 PUSH2 0x15D7 JUMP JUMPDEST PUSH2 0x2D3D SWAP1 PUSH2 0x3576 JUMP JUMPDEST CODESIZE PUSH2 0x2D2E JUMP JUMPDEST SWAP4 SWAP7 SWAP4 DUP3 EQ ISZERO SWAP1 POP PUSH2 0x2D7E JUMPI POP POP POP PUSH2 0x2824 SWAP3 POP PUSH32 0x0 SWAP2 PUSH2 0x3717 JUMP JUMPDEST PUSH1 0x19 DUP2 SUB PUSH2 0x2DD5 JUMPI POP POP POP PUSH1 0x0 SWAP3 POP SWAP1 PUSH2 0x2D99 DUP4 SWAP3 DUP3 PUSH2 0x429A JUMP JUMPDEST DUP2 PUSH1 0x40 MLOAD SWAP3 DUP4 SWAP3 DUP4 CALLDATACOPY DUP2 ADD DUP5 DUP2 MSTORE SUB SWAP2 CALLDATALOAD PUSH32 0x0 GAS CALL PUSH2 0x2824 PUSH2 0x3675 JUMP JUMPDEST PUSH1 0x1A DUP2 SUB PUSH2 0x2E2C JUMPI POP POP POP PUSH1 0x0 SWAP3 POP SWAP1 PUSH2 0x2DF0 DUP4 SWAP3 DUP3 PUSH2 0x429A JUMP JUMPDEST DUP2 PUSH1 0x40 MLOAD SWAP3 DUP4 SWAP3 DUP4 CALLDATACOPY DUP2 ADD DUP5 DUP2 MSTORE SUB SWAP2 CALLDATALOAD PUSH32 0x0 GAS CALL PUSH2 0x2824 PUSH2 0x3675 JUMP JUMPDEST PUSH1 0x1B DUP2 SUB PUSH2 0x2F53 JUMPI POP POP POP PUSH1 0x0 PUSH2 0x2E44 DUP2 SWAP3 DUP5 PUSH2 0x429A JUMP JUMPDEST SWAP4 SWAP1 PUSH1 0x40 SWAP5 DUP2 DUP7 MLOAD SWAP3 DUP4 SWAP3 DUP4 CALLDATACOPY DUP2 ADD DUP5 DUP2 MSTORE SUB SWAP2 CALLDATALOAD PUSH32 0x0 GAS CALL SWAP2 DUP3 SWAP2 PUSH2 0x2E87 PUSH2 0x3675 JUMP JUMPDEST SWAP3 PUSH2 0x2E95 JUMPI JUMPDEST POP POP SWAP1 PUSH2 0xE71 JUMP JUMPDEST PUSH20 0xFFFFFFFFFFFFFFFFFFFFFFFFFFFFFFFFFFFFFFFF PUSH1 0x80 DUP4 DUP2 MLOAD ADD ADD CALLDATALOAD AND PUSH2 0x2EC4 PUSH1 0x60 DUP5 PUSH1 0x80 MLOAD ADD ADD CALLDATALOAD PUSH2 0x3854 JUMP JUMPDEST SWAP1 DUP3 MLOAD SWAP1 PUSH2 0x2ED1 DUP3 PUSH2 0x35A6 JUMP JUMPDEST PUSH1 0x0 DUP3 MSTORE DUP1 EXTCODESIZE ISZERO PUSH2 0xA4E JUMPI PUSH2 0x2F2D SWAP5 PUSH1 0x0 DUP1 SWAP5 DUP7 MLOAD SWAP8 DUP9 SWAP6 DUP7 SWAP5 DUP6 SWAP4 PUSH32 0xF242432A00000000000000000000000000000000000000000000000000000000 DUP6 MSTORE PUSH1 0xA0 PUSH1 0xC0 DUP4 PUSH1 0x80 MLOAD ADD ADD CALLDATALOAD SWAP3 PUSH1 0x80 MLOAD ADD ADD CALLDATALOAD SWAP1 ADDRESS PUSH1 0x4 DUP8 ADD PUSH2 0x380F JUMP JUMPDEST SUB SWAP3 GAS CALL SWAP1 DUP2 ISZERO PUSH2 0x1811 JUMPI POP PUSH2 0x2F44 JUMPI JUMPDEST DUP1 PUSH2 0x2E8D JUMP JUMPDEST PUSH2 0x2F4D SWAP1 PUSH2 0x3576 JUMP JUMPDEST CODESIZE PUSH2 0x2F3E JUMP JUMPDEST SWAP2 SWAP5 SWAP1 SWAP2 PUSH1 0x1C DUP2 SUB PUSH2 0x2F8E JUMPI POP POP POP PUSH2 0x2824 SWAP3 POP PUSH32 0x0 SWAP2 PUSH2 0x3717 JUMP JUMPDEST SWAP2 SWAP4 SWAP3 SWAP1 SWAP2 PUSH1 0x1D DUP2 SUB PUSH2 0x3117 JUMPI POP POP PUSH1 0x60 DUP2 PUSH1 0x80 MLOAD ADD ADD CALLDATALOAD SWAP1 PUSH1 0x40 SWAP2 PUSH20 0xFFFFFFFFFFFFFFFFFFFFFFFFFFFFFFFFFFFFFFFF PUSH2 0x2FCF DUP5 DUP5 PUSH1 0x80 MLOAD ADD ADD CALLDATALOAD PUSH2 0x3854 JUMP JUMPDEST SWAP5 CALLDATALOAD AND DUP4 MLOAD SWAP5 PUSH31 0xFDD58E00000000000000000000000000000000000000000000000000000000 DUP7 MSTORE PUSH1 0x4 SWAP4 PUSH1 0x20 DUP8 DUP1 PUSH2 0x302E DUP8 ADDRESS DUP11 DUP5 ADD PUSH1 0x20 SWAP1 SWAP4 SWAP3 SWAP2 SWAP4 PUSH20 0xFFFFFFFFFFFFFFFFFFFFFFFFFFFFFFFFFFFFFFFF PUSH1 0x40 DUP3 ADD SWAP6 AND DUP2 MSTORE ADD MSTORE JUMP JUMPDEST SUB DUP2 DUP7 GAS STATICCALL SWAP7 DUP8 ISZERO PUSH2 0x225B JUMPI PUSH1 0x0 SWAP8 PUSH2 0x30E2 JUMPI JUMPDEST POP PUSH1 0x80 SWAP1 DUP2 MLOAD ADD ADD CALLDATALOAD DUP7 LT PUSH2 0x30BA JUMPI DUP5 MLOAD PUSH2 0x305C DUP2 PUSH2 0x35A6 JUMP JUMPDEST PUSH1 0x0 DUP2 MSTORE DUP3 EXTCODESIZE ISZERO PUSH2 0xA4E JUMPI PUSH1 0x0 SWAP5 PUSH2 0x30A4 DUP7 SWAP3 DUP9 MLOAD SWAP10 DUP11 SWAP8 DUP9 SWAP7 DUP8 SWAP6 PUSH32 0xF242432A00000000000000000000000000000000000000000000000000000000 DUP8 MSTORE ADDRESS SWAP1 DUP8 ADD PUSH2 0x380F JUMP JUMPDEST SUB SWAP3 GAS CALL SWAP1 DUP2 ISZERO PUSH2 0x1811 JUMPI POP PUSH2 0x148B JUMPI POP PUSH2 0xE71 JUMP JUMPDEST DUP4 DUP6 MLOAD PUSH32 0x675CAE3800000000000000000000000000000000000000000000000000000000 DUP2 MSTORE REVERT JUMPDEST SWAP1 SWAP7 PUSH1 0x20 DUP3 RETURNDATASIZE PUSH1 0x20 GT PUSH2 0x310F JUMPI JUMPDEST DUP2 PUSH2 0x30FD PUSH1 0x20 SWAP4 DUP4 PUSH2 0x35FA JUMP JUMPDEST DUP2 ADD SUB SLT PUSH2 0x387 JUMPI POP MLOAD SWAP6 PUSH1 0x80 PUSH2 0x3042 JUMP JUMPDEST RETURNDATASIZE SWAP2 POP PUSH2 0x30F0 JUMP JUMPDEST SWAP3 SWAP5 POP SWAP3 POP POP PUSH1 0x1E DUP2 SUB PUSH2 0x2783 JUMPI POP DUP2 PUSH2 0x3135 PUSH1 0x0 SWAP4 SWAP3 DUP5 SWAP4 PUSH2 0x429A JUMP JUMPDEST DUP2 PUSH1 0x40 MLOAD SWAP3 DUP4 SWAP3 DUP4 CALLDATACOPY DUP2 ADD DUP5 DUP2 MSTORE SUB SWAP2 CALLDATALOAD PUSH32 0x0 GAS CALL PUSH2 0x2824 PUSH2 0x3675 JUMP JUMPDEST SWAP5 SWAP10 SWAP9 SWAP11 SWAP3 POP PUSH1 0x20 DUP2 SWAP14 SWAP8 SWAP3 SWAP7 SWAP14 SWAP9 SWAP5 SWAP9 EQ PUSH1 0x0 EQ PUSH2 0x31DA JUMPI POP POP POP POP POP POP DUP1 PUSH2 0x319E PUSH1 0x0 SWAP4 DUP5 SWAP4 PUSH2 0x429A JUMP JUMPDEST DUP2 PUSH1 0x40 MLOAD SWAP3 DUP4 SWAP3 DUP4 CALLDATACOPY DUP2 ADD DUP5 DUP2 MSTORE SUB SWAP2 CALLDATALOAD PUSH32 0x0 GAS CALL PUSH2 0x2824 PUSH2 0x3675 JUMP JUMPDEST PUSH1 0x21 SWAP1 DUP1 DUP3 SUB PUSH2 0x3351 JUMPI POP POP POP POP SWAP1 SWAP2 PUSH2 0x31FF PUSH2 0x31F7 DUP7 DUP7 PUSH2 0x4279 JUMP JUMPDEST SWAP7 SWAP1 SWAP6 PUSH2 0x429A JUMP JUMPDEST SWAP3 SWAP1 PUSH2 0x3241 PUSH1 0x40 SWAP8 DUP9 MLOAD SWAP8 PUSH1 0x20 DUP10 ADD SWAP10 PUSH32 0x24856BC300000000000000000000000000000000000000000000000000000000 DUP12 MSTORE PUSH1 0x24 DUP11 ADD MSTORE PUSH1 0x64 DUP10 ADD SWAP2 PUSH2 0x3537 JUMP JUMPDEST PUSH32 0xFFFFFFFFFFFFFFFFFFFFFFFFFFFFFFFFFFFFFFFFFFFFFFFFFFFFFFFFFFFFFFDC DUP8 DUP3 SUB ADD PUSH1 0x44 DUP9 ADD MSTORE DUP2 DUP2 MSTORE PUSH1 0x20 DUP3 DUP2 DUP4 ADD SWAP6 SHL DUP3 ADD ADD SWAP6 DUP6 PUSH1 0x0 SWAP2 JUMPDEST DUP5 DUP4 LT PUSH2 0x32D3 JUMPI POP POP POP POP POP POP POP POP SWAP2 DUP2 PUSH2 0x32C5 PUSH1 0x0 SWAP5 SWAP4 DUP6 SWAP5 SUB PUSH32 0xFFFFFFFFFFFFFFFFFFFFFFFFFFFFFFFFFFFFFFFFFFFFFFFFFFFFFFFFFFFFFFE0 DUP2 ADD DUP4 MSTORE DUP3 PUSH2 0x35FA JUMP JUMPDEST MLOAD SWAP1 DUP3 ADDRESS GAS CALL PUSH2 0x2824 PUSH2 0x3675 JUMP JUMPDEST SWAP1 SWAP2 SWAP3 SWAP4 SWAP5 SWAP6 SWAP7 SWAP8 PUSH32 0xFFFFFFFFFFFFFFFFFFFFFFFFFFFFFFFFFFFFFFFFFFFFFFFFFFFFFFFFFFFFFFE0 DUP6 DUP3 SUB ADD DUP9 MSTORE DUP9 CALLDATALOAD DUP3 DUP5 CALLDATASIZE SUB ADD DUP2 SLT ISZERO PUSH2 0xA4E JUMPI DUP4 ADD SWAP1 PUSH1 0x20 DUP3 CALLDATALOAD SWAP3 ADD SWAP2 PUSH8 0xFFFFFFFFFFFFFFFF DUP2 GT PUSH2 0xA4E JUMPI DUP1 CALLDATASIZE SUB DUP4 SGT PUSH2 0xA4E JUMPI PUSH2 0x3341 PUSH1 0x20 SWAP3 DUP4 SWAP3 DUP12 SWAP6 PUSH2 0x3537 JUMP JUMPDEST SWAP11 ADD SWAP9 ADD SWAP7 SWAP6 SWAP5 SWAP4 ADD SWAP2 SWAP1 PUSH2 0x327F JUMP JUMPDEST SWAP3 SWAP8 POP SWAP3 SWAP6 SWAP4 POP SWAP4 POP PUSH1 0x22 DUP2 EQ PUSH1 0x0 EQ PUSH2 0x2783 JUMPI POP PUSH1 0x40 DUP1 SWAP4 PUSH1 0x80 MLOAD ADD ADD CALLDATALOAD SWAP1 PUSH1 0x0 SWAP1 PUSH1 0x2 DUP4 LT ISZERO PUSH2 0x34E1 JUMPI POP POP DUP1 DUP5 SWAP2 ISZERO PUSH1 0x0 EQ PUSH2 0x3489 JUMPI POP POP PUSH1 0x0 SWAP1 PUSH32 0x0 SWAP3 JUMPDEST PUSH1 0x20 DUP4 DUP3 MLOAD SWAP4 PUSH32 0x95EA7B300000000000000000000000000000000000000000000000000000000 DUP6 MSTORE PUSH1 0x4 SWAP7 DUP8 DUP7 ADD MSTORE PUSH1 0x24 SWAP5 PUSH32 0xFFFFFFFFFFFFFFFFFFFFFFFFFFFFFFFFFFFFFFFFFFFFFFFFFFFFFFFFFFFFFFFF DUP7 DUP3 ADD MSTORE PUSH1 0x44 SWAP7 DUP8 SWAP3 CALLDATALOAD GAS CALL RETURNDATASIZE ISZERO PUSH1 0x1F RETURNDATASIZE GT DUP8 PUSH1 0x0 MLOAD EQ AND OR AND ISZERO PUSH2 0x342E JUMPI POP POP POP POP PUSH2 0xE71 JUMP JUMPDEST SWAP2 PUSH1 0xE PUSH32 0x415050524F56455F4641494C4544000000000000000000000000000000000000 SWAP3 PUSH1 0x20 PUSH1 0x64 SWAP7 SWAP6 MLOAD SWAP6 PUSH32 0x8C379A000000000000000000000000000000000000000000000000000000000 DUP8 MSTORE DUP7 ADD MSTORE DUP5 ADD MSTORE DUP3 ADD MSTORE REVERT JUMPDEST SUB PUSH2 0x34B8 JUMPI PUSH1 0x0 SWAP1 PUSH32 0x0 SWAP3 PUSH2 0x33B2 JUMP JUMPDEST PUSH1 0x4 DUP3 MLOAD PUSH32 0x5461585F00000000000000000000000000000000000000000000000000000000 DUP2 MSTORE REVERT JUMPDEST PUSH1 0x24 SWAP3 POP PUSH32 0x4E487B7100000000000000000000000000000000000000000000000000000000 DUP3 MSTORE PUSH1 0x4 MSTORE REVERT JUMPDEST PUSH1 0x4 PUSH1 0x40 MLOAD PUSH32 0xFF633A3800000000000000000000000000000000000000000000000000000000 DUP2 MSTORE REVERT JUMPDEST PUSH1 0x1F DUP3 PUSH1 0x20 SWAP5 SWAP4 PUSH32 0xFFFFFFFFFFFFFFFFFFFFFFFFFFFFFFFFFFFFFFFFFFFFFFFFFFFFFFFFFFFFFFE0 SWAP4 DUP2 DUP7 MSTORE DUP7 DUP7 ADD CALLDATACOPY PUSH1 0x0 DUP6 DUP3 DUP7 ADD ADD MSTORE ADD AND ADD ADD SWAP1 JUMP JUMPDEST PUSH8 0xFFFFFFFFFFFFFFFF DUP2 GT PUSH2 0xF7D JUMPI PUSH1 0x40 MSTORE JUMP JUMPDEST PUSH1 0x80 DUP2 ADD SWAP1 DUP2 LT PUSH8 0xFFFFFFFFFFFFFFFF DUP3 GT OR PUSH2 0xF7D JUMPI PUSH1 0x40 MSTORE JUMP JUMPDEST PUSH1 0x20 DUP2 ADD SWAP1 DUP2 LT PUSH8 0xFFFFFFFFFFFFFFFF DUP3 GT OR PUSH2 0xF7D JUMPI PUSH1 0x40 MSTORE JUMP JUMPDEST PUSH1 0x40 DUP2 ADD SWAP1 DUP2 LT PUSH8 0xFFFFFFFFFFFFFFFF DUP3 GT OR PUSH2 0xF7D JUMPI PUSH1 0x40 MSTORE JUMP JUMPDEST PUSH1 0x60 DUP2 ADD SWAP1 DUP2 LT PUSH8 0xFFFFFFFFFFFFFFFF DUP3 GT OR PUSH2 0xF7D JUMPI PUSH1 0x40 MSTORE JUMP JUMPDEST SWAP1 PUSH1 0x1F PUSH32 0xFFFFFFFFFFFFFFFFFFFFFFFFFFFFFFFFFFFFFFFFFFFFFFFFFFFFFFFFFFFFFFE0 SWAP2 ADD AND DUP2 ADD SWAP1 DUP2 LT PUSH8 0xFFFFFFFFFFFFFFFF DUP3 GT OR PUSH2 0xF7D JUMPI PUSH1 0x40 MSTORE JUMP JUMPDEST PUSH8 0xFFFFFFFFFFFFFFFF DUP2 GT PUSH2 0xF7D JUMPI PUSH1 0x1F ADD PUSH32 0xFFFFFFFFFFFFFFFFFFFFFFFFFFFFFFFFFFFFFFFFFFFFFFFFFFFFFFFFFFFFFFE0 AND PUSH1 0x20 ADD SWAP1 JUMP JUMPDEST RETURNDATASIZE ISZERO PUSH2 0x36A0 JUMPI RETURNDATASIZE SWAP1 PUSH2 0x3686 DUP3 PUSH2 0x363B JUMP JUMPDEST SWAP2 PUSH2 0x3694 PUSH1 0x40 MLOAD SWAP4 DUP5 PUSH2 0x35FA JUMP JUMPDEST DUP3 MSTORE RETURNDATASIZE PUSH1 0x0 PUSH1 0x20 DUP5 ADD RETURNDATACOPY JUMP JUMPDEST PUSH1 0x60 SWAP1 JUMP JUMPDEST PUSH8 0xFFFFFFFFFFFFFFFF DUP2 GT PUSH2 0xF7D JUMPI PUSH1 0x5 SHL PUSH1 0x20 ADD SWAP1 JUMP JUMPDEST CALLDATALOAD SWAP1 PUSH6 0xFFFFFFFFFFFF DUP3 AND DUP3 SUB PUSH2 0xA4E JUMPI JUMP JUMPDEST DUP2 PUSH1 0x1F DUP3 ADD SLT ISZERO PUSH2 0xA4E JUMPI DUP1 CALLDATALOAD SWAP1 PUSH2 0x36E7 DUP3 PUSH2 0x363B JUMP JUMPDEST SWAP3 PUSH2 0x36F5 PUSH1 0x40 MLOAD SWAP5 DUP6 PUSH2 0x35FA JUMP JUMPDEST DUP3 DUP5 MSTORE PUSH1 0x20 DUP4 DUP4 ADD ADD GT PUSH2 0xA4E JUMPI DUP2 PUSH1 0x0 SWAP3 PUSH1 0x20 DUP1 SWAP4 ADD DUP4 DUP7 ADD CALLDATACOPY DUP4 ADD ADD MSTORE SWAP1 JUMP JUMPDEST SWAP2 SWAP3 SWAP1 PUSH2 0x3724 SWAP1 DUP4 PUSH2 0x429A JUMP JUMPDEST SWAP1 SWAP4 DUP5 PUSH1 0x40 MLOAD SWAP6 DUP7 SWAP4 DUP5 CALLDATACOPY DUP3 ADD SWAP1 PUSH1 0x0 SWAP6 DUP7 SWAP4 DUP4 DUP6 DUP1 SWAP6 MSTORE SUB SWAP2 DUP7 CALLDATALOAD SWAP1 GAS CALL SWAP3 PUSH2 0x374C PUSH2 0x3675 JUMP JUMPDEST SWAP3 DUP5 PUSH2 0x3756 JUMPI POP POP JUMP JUMPDEST PUSH20 0xFFFFFFFFFFFFFFFFFFFFFFFFFFFFFFFFFFFFFFFF PUSH1 0x60 DUP3 ADD CALLDATALOAD AND PUSH2 0x377E PUSH1 0x40 DUP4 ADD CALLDATALOAD PUSH2 0x3854 JUMP JUMPDEST SWAP2 DUP2 EXTCODESIZE ISZERO PUSH2 0x6AD JUMPI PUSH1 0x40 MLOAD PUSH32 0x42842E0E00000000000000000000000000000000000000000000000000000000 DUP2 MSTORE ADDRESS PUSH1 0x4 DUP3 ADD MSTORE PUSH20 0xFFFFFFFFFFFFFFFFFFFFFFFFFFFFFFFFFFFFFFFF SWAP4 SWAP1 SWAP4 AND PUSH1 0x24 DUP5 ADD MSTORE PUSH1 0x80 ADD CALLDATALOAD PUSH1 0x44 DUP4 ADD MSTORE SWAP1 SWAP2 SWAP1 DUP2 SWAP1 DUP4 SWAP1 PUSH1 0x64 SWAP1 DUP3 SWAP1 DUP5 SWAP1 GAS CALL SWAP1 DUP2 ISZERO PUSH2 0x3803 JUMPI POP PUSH2 0x37F8 JUMPI POP JUMP JUMPDEST PUSH2 0x3801 SWAP1 PUSH2 0x3576 JUMP JUMPDEST JUMP JUMPDEST PUSH1 0x40 MLOAD SWAP1 RETURNDATASIZE SWAP1 DUP3 RETURNDATACOPY RETURNDATASIZE SWAP1 REVERT JUMPDEST SWAP2 SWAP3 PUSH2 0x3851 SWAP6 SWAP5 SWAP2 PUSH1 0xA0 SWAP5 PUSH20 0xFFFFFFFFFFFFFFFFFFFFFFFFFFFFFFFFFFFFFFFF DUP1 SWAP3 AND DUP6 MSTORE AND PUSH1 0x20 DUP5 ADD MSTORE PUSH1 0x40 DUP4 ADD MSTORE PUSH1 0x60 DUP3 ADD MSTORE DUP2 PUSH1 0x80 DUP3 ADD MSTORE ADD SWAP1 PUSH2 0xAF6 JUMP JUMPDEST SWAP1 JUMP JUMPDEST PUSH20 0xFFFFFFFFFFFFFFFFFFFFFFFFFFFFFFFFFFFFFFFF SWAP1 DUP1 DUP3 AND PUSH1 0x1 DUP2 SUB PUSH2 0x387E JUMPI POP POP PUSH1 0x1 SLOAD AND SWAP1 JUMP JUMPDEST SWAP1 SWAP2 POP PUSH1 0x2 SUB PUSH2 0x3851 JUMPI POP ADDRESS SWAP1 JUMP JUMPDEST SWAP1 DUP2 PUSH1 0x20 SWAP2 SUB SLT PUSH2 0xA4E JUMPI MLOAD DUP1 ISZERO ISZERO DUP2 SUB PUSH2 0xA4E JUMPI SWAP1 JUMP JUMPDEST SWAP1 SWAP3 SWAP2 SWAP1 PUSH20 0xFFFFFFFFFFFFFFFFFFFFFFFFFFFFFFFFFFFFFFFF AND DUP1 PUSH2 0x38CF JUMPI POP PUSH2 0x3801 SWAP2 SWAP3 PUSH2 0x3984 JUMP JUMPDEST PUSH32 0x8000000000000000000000000000000000000000000000000000000000000000 DUP3 EQ PUSH2 0x3902 JUMPI JUMPDEST SWAP3 PUSH2 0x3801 SWAP3 SWAP4 PUSH2 0x39F2 JUMP JUMPDEST SWAP1 POP PUSH1 0x40 MLOAD SWAP3 PUSH32 0x70A0823100000000000000000000000000000000000000000000000000000000 DUP5 MSTORE ADDRESS PUSH1 0x4 DUP6 ADD MSTORE PUSH1 0x20 DUP5 PUSH1 0x24 DUP2 DUP6 GAS STATICCALL SWAP4 DUP5 ISZERO PUSH2 0xF71 JUMPI PUSH1 0x0 SWAP5 PUSH2 0x3951 JUMPI JUMPDEST POP SWAP3 SWAP1 PUSH2 0x38F7 JUMP JUMPDEST PUSH1 0x20 DUP2 RETURNDATASIZE DUP3 GT PUSH2 0x397C JUMPI JUMPDEST DUP2 PUSH2 0x3969 PUSH1 0x20 SWAP4 DUP4 PUSH2 0x35FA JUMP JUMPDEST DUP2 ADD SUB SLT PUSH2 0x217 JUMPI MLOAD SWAP4 POP PUSH2 0x3801 PUSH2 0x3949 JUMP JUMPDEST RETURNDATASIZE SWAP2 POP PUSH2 0x395C JUMP JUMPDEST PUSH1 0x0 DUP1 DUP1 SWAP4 DUP2 SWAP4 GAS CALL ISZERO PUSH2 0x3994 JUMPI JUMP JUMPDEST PUSH1 0x64 PUSH1 0x40 MLOAD PUSH32 0x8C379A000000000000000000000000000000000000000000000000000000000 DUP2 MSTORE PUSH1 0x20 PUSH1 0x4 DUP3 ADD MSTORE PUSH1 0x13 PUSH1 0x24 DUP3 ADD MSTORE PUSH32 0x4554485F5452414E534645525F4641494C454400000000000000000000000000 PUSH1 0x44 DUP3 ADD MSTORE REVERT JUMPDEST PUSH1 0x0 SWAP2 DUP3 PUSH1 0x44 SWAP3 PUSH1 0x20 SWAP6 PUSH1 0x40 MLOAD SWAP4 PUSH32 0xA9059CBB00000000000000000000000000000000000000000000000000000000 DUP6 MSTORE PUSH1 0x4 DUP6 ADD MSTORE PUSH1 0x24 DUP5 ADD MSTORE GAS CALL RETURNDATASIZE ISZERO PUSH1 0x1F RETURNDATASIZE GT PUSH1 0x1 PUSH1 0x0 MLOAD EQ AND OR AND ISZERO PUSH2 0x3A45 JUMPI JUMP JUMPDEST PUSH1 0x64 PUSH1 0x40 MLOAD PUSH32 0x8C379A000000000000000000000000000000000000000000000000000000000 DUP2 MSTORE PUSH1 0x20 PUSH1 0x4 DUP3 ADD MSTORE PUSH1 0xF PUSH1 0x24 DUP3 ADD MSTORE PUSH32 0x5452414E534645525F4641494C45440000000000000000000000000000000000 PUSH1 0x44 DUP3 ADD MSTORE REVERT JUMPDEST DUP2 DUP2 MUL SWAP3 SWAP2 DUP2 ISZERO SWAP2 DUP5 DIV EQ OR ISZERO PUSH2 0x1B03 JUMPI JUMP JUMPDEST DUP2 ISZERO PUSH2 0x3AC0 JUMPI DIV SWAP1 JUMP JUMPDEST PUSH32 0x4E487B7100000000000000000000000000000000000000000000000000000000 PUSH1 0x0 MSTORE PUSH1 0x12 PUSH1 0x4 MSTORE PUSH1 0x24 PUSH1 0x0 REVERT JUMPDEST SWAP2 SWAP3 PUSH20 0xFFFFFFFFFFFFFFFFFFFFFFFFFFFFFFFFFFFFFFFF SWAP2 DUP3 PUSH32 0x0 AND SWAP4 DUP5 EXTCODESIZE ISZERO PUSH2 0xA4E JUMPI PUSH1 0x0 SWAP5 DUP5 DUP7 SWAP3 DUP2 PUSH1 0x84 SWAP7 DUP2 PUSH1 0x40 MLOAD SWAP12 DUP13 SWAP11 DUP12 SWAP10 PUSH32 0x36C7851600000000000000000000000000000000000000000000000000000000 DUP12 MSTORE AND PUSH1 0x4 DUP11 ADD MSTORE AND PUSH1 0x24 DUP9 ADD MSTORE AND PUSH1 0x44 DUP7 ADD MSTORE AND PUSH1 0x64 DUP5 ADD MSTORE GAS CALL DUP1 ISZERO PUSH2 0xF71 JUMPI PUSH2 0x37F8 JUMPI POP JUMP JUMPDEST DUP1 MLOAD DUP3 LT ISZERO PUSH2 0x1B4C JUMPI PUSH1 0x20 SWAP2 PUSH1 0x5 SHL ADD ADD SWAP1 JUMP JUMPDEST SWAP2 SWAP1 DUP2 LT ISZERO PUSH2 0x1B4C JUMPI PUSH1 0x5 SHL ADD SWAP1 JUMP JUMPDEST CALLDATALOAD PUSH20 0xFFFFFFFFFFFFFFFFFFFFFFFFFFFFFFFFFFFFFFFF DUP2 AND DUP2 SUB PUSH2 0xA4E JUMPI SWAP1 JUMP JUMPDEST SWAP2 SWAP1 DUP3 SUB SWAP2 DUP3 GT PUSH2 0x1B03 JUMPI JUMP JUMPDEST SWAP3 SWAP2 SWAP1 PUSH20 0xFFFFFFFFFFFFFFFFFFFFFFFFFFFFFFFFFFFFFFFF DUP1 DUP3 AND ADDRESS SUB PUSH2 0x3C0D JUMPI POP POP PUSH2 0x3801 SWAP3 PUSH2 0x38A5 JUMP JUMPDEST DUP1 DUP5 SWAP6 SWAP5 GT PUSH2 0x3C21 JUMPI PUSH2 0x3801 SWAP5 AND SWAP3 PUSH2 0x3AEF JUMP JUMPDEST PUSH1 0x4 PUSH1 0x40 MLOAD PUSH32 0xC4BD89A900000000000000000000000000000000000000000000000000000000 DUP2 MSTORE REVERT JUMPDEST SWAP2 PUSH20 0xFFFFFFFFFFFFFFFFFFFFFFFFFFFFFFFFFFFFFFFF SWAP4 PUSH2 0x3D4C SWAP2 PUSH1 0x40 MLOAD SWAP1 PUSH1 0x20 DUP3 ADD SWAP3 PUSH32 0xFFFFFFFFFFFFFFFFFFFFFFFFFFFFFFFFFFFFFFFF000000000000000000000000 DUP1 SWAP3 PUSH1 0x60 SHL AND DUP5 MSTORE PUSH1 0x60 SHL AND PUSH1 0x34 DUP3 ADD MSTORE PUSH1 0x28 DUP2 MSTORE PUSH2 0x3CAE DUP2 PUSH2 0x35DE JUMP JUMPDEST MLOAD SWAP1 KECCAK256 PUSH2 0x3D20 PUSH1 0x40 MLOAD SWAP4 DUP5 SWAP3 PUSH1 0x20 DUP5 ADD SWAP7 DUP8 SWAP2 PUSH32 0xFFFFFFFFFFFFFFFFFFFFFFFFFFFFFFFFFFFFFFFF000000000000000000000000 PUSH1 0x55 SWAP5 SWAP3 PUSH32 0xFF00000000000000000000000000000000000000000000000000000000000000 DUP6 MSTORE PUSH1 0x60 SHL AND PUSH1 0x1 DUP5 ADD MSTORE PUSH1 0x15 DUP4 ADD MSTORE PUSH1 0x35 DUP3 ADD MSTORE ADD SWAP1 JUMP JUMPDEST SUB PUSH32 0xFFFFFFFFFFFFFFFFFFFFFFFFFFFFFFFFFFFFFFFFFFFFFFFFFFFFFFFFFFFFFFE0 DUP2 ADD DUP4 MSTORE DUP3 PUSH2 0x35FA JUMP JUMPDEST MLOAD SWAP1 KECCAK256 AND SWAP1 JUMP JUMPDEST PUSH20 0xFFFFFFFFFFFFFFFFFFFFFFFFFFFFFFFFFFFFFFFF DUP3 DUP2 AND SWAP1 DUP3 AND LT ISZERO PUSH2 0x3D77 JUMPI SWAP2 JUMP JUMPDEST SWAP1 SWAP2 JUMP JUMPDEST MLOAD SWAP1 PUSH14 0xFFFFFFFFFFFFFFFFFFFFFFFFFFFF DUP3 AND DUP3 SUB PUSH2 0xA4E JUMPI JUMP JUMPDEST SWAP1 DUP2 PUSH1 0x60 SWAP2 SUB SLT PUSH2 0xA4E JUMPI PUSH2 0x3DAA DUP2 PUSH2 0x3D7B JUMP JUMPDEST SWAP2 PUSH1 0x40 PUSH2 0x3DB9 PUSH1 0x20 DUP5 ADD PUSH2 0x3D7B JUMP JUMPDEST SWAP3 ADD MLOAD PUSH4 0xFFFFFFFF DUP2 AND DUP2 SUB PUSH2 0xA4E JUMPI SWAP1 JUMP JUMPDEST SWAP3 PUSH1 0x2 DUP3 LT PUSH2 0x4242 JUMPI DUP2 ISZERO PUSH2 0x1B4C JUMPI PUSH2 0x3DE4 DUP5 PUSH2 0x3BB3 JUMP JUMPDEST SWAP2 PUSH1 0x1 SWAP5 DUP2 DUP7 LT ISZERO PUSH2 0x1B4C JUMPI SWAP2 PUSH2 0x3E02 PUSH1 0x20 SWAP5 PUSH2 0x190F DUP7 DUP7 ADD PUSH2 0x3BB3 JUMP JUMPDEST POP SWAP3 PUSH1 0x0 SWAP4 JUMPDEST PUSH32 0xFFFFFFFFFFFFFFFFFFFFFFFFFFFFFFFFFFFFFFFFFFFFFFFFFFFFFFFFFFFFFFFF DUP5 ADD DUP6 LT PUSH2 0x3E3B JUMPI POP POP POP POP POP POP POP POP JUMP JUMPDEST PUSH2 0x3E49 PUSH2 0x19B9 DUP7 DUP7 DUP6 PUSH2 0x3BA3 JUMP JUMPDEST SWAP3 PUSH2 0x3E5A PUSH2 0x19B9 DUP11 DUP9 ADD DUP8 DUP7 PUSH2 0x3BA3 JUMP JUMPDEST SWAP4 PUSH1 0x40 SWAP1 DUP2 MLOAD SWAP6 PUSH32 0x902F1AC00000000000000000000000000000000000000000000000000000000 DUP8 MSTORE PUSH20 0xFFFFFFFFFFFFFFFFFFFFFFFFFFFFFFFFFFFFFFFF DUP1 SWAP5 AND SWAP5 PUSH1 0x60 SWAP3 PUSH1 0x4 SWAP4 DUP1 DUP11 DUP7 DUP2 DUP12 GAS STATICCALL SWAP10 DUP11 ISZERO PUSH2 0x225B JUMPI SWAP1 DUP14 SWAP6 SWAP5 SWAP4 SWAP3 SWAP2 PUSH1 0x0 SWAP2 DUP3 SWAP13 PUSH2 0x421C JUMPI JUMPDEST POP POP DUP8 DUP1 SWAP2 PUSH14 0xFFFFFFFFFFFFFFFFFFFFFFFFFFFF DUP1 SWAP2 AND SWAP13 AND SWAP3 AND SWAP3 AND DUP3 EQ SWAP10 DUP11 PUSH1 0x0 EQ PUSH2 0x4216 JUMPI JUMPDEST DUP7 MLOAD SWAP6 DUP7 DUP1 SWAP5 PUSH32 0x70A0823100000000000000000000000000000000000000000000000000000000 DUP3 MSTORE DUP12 DUP9 DUP4 ADD MSTORE PUSH1 0x24 SWAP9 DUP10 SWAP2 GAS STATICCALL SWAP3 DUP4 ISZERO PUSH2 0x420B JUMPI DUP15 PUSH1 0x0 SWAP5 PUSH2 0x41DA JUMPI JUMPDEST POP POP DUP1 DUP4 SUB SWAP2 DUP2 ISZERO SWAP4 DUP5 DUP1 ISZERO PUSH2 0x41D2 JUMPI JUMPDEST PUSH2 0x41AA JUMPI DUP3 PUSH2 0x3E5 DUP1 DUP7 MUL SWAP6 DUP7 DIV EQ SWAP2 EQ OR ISZERO PUSH2 0x417D JUMPI PUSH2 0x3F62 SWAP1 DUP4 PUSH2 0x3AA3 JUMP JUMPDEST SWAP3 PUSH2 0x3E8 DUP1 DUP4 MUL SWAP3 DUP4 DIV EQ OR ISZERO PUSH2 0x4150 JUMPI PUSH2 0x3F87 SWAP3 SWAP2 PUSH2 0x3F81 SWAP2 PUSH2 0x426C JUMP JUMPDEST SWAP1 PUSH2 0x3AB6 JUMP JUMPDEST SWAP8 ISZERO PUSH2 0x4148 JUMPI PUSH1 0x0 SWAP8 SWAP1 JUMPDEST DUP10 DUP12 PUSH32 0xFFFFFFFFFFFFFFFFFFFFFFFFFFFFFFFFFFFFFFFFFFFFFFFFFFFFFFFFFFFFFFFE DUP3 ADD DUP2 LT ISZERO PUSH2 0x413C JUMPI SWAP2 PUSH2 0x190F PUSH2 0x19B9 PUSH2 0x3FD8 SWAP4 PUSH1 0x2 PUSH2 0x4022 SWAP13 SWAP7 ADD SWAP1 DUP14 PUSH2 0x3BA3 JUMP JUMPDEST DUP2 SWAP9 SWAP2 PUSH32 0x0 PUSH32 0x0 PUSH2 0x3C4B JUMP JUMPDEST SWAP7 JUMPDEST SWAP9 DUP6 MLOAD SWAP2 DUP14 DUP4 ADD SWAP4 PUSH8 0xFFFFFFFFFFFFFFFF SWAP5 DUP5 DUP2 LT DUP7 DUP3 GT OR PUSH2 0x410F JUMPI DUP9 MSTORE PUSH1 0x0 DUP5 MSTORE DUP2 EXTCODESIZE ISZERO PUSH2 0xA4E JUMPI PUSH1 0x0 DUP11 SWAP4 PUSH2 0x40A2 DUP3 SWAP7 DUP12 MLOAD SWAP13 DUP14 SWAP8 DUP9 SWAP7 DUP8 SWAP6 PUSH32 0x22C0D9F00000000000000000000000000000000000000000000000000000000 DUP8 MSTORE DUP14 DUP8 ADD MSTORE DUP14 DUP7 ADD MSTORE AND PUSH1 0x44 DUP5 ADD MSTORE PUSH1 0x80 PUSH1 0x64 DUP5 ADD MSTORE PUSH1 0x84 DUP4 ADD SWAP1 PUSH2 0xAF6 JUMP JUMPDEST SUB SWAP3 GAS CALL DUP1 ISZERO PUSH2 0x1AB8 JUMPI SWAP1 DUP14 SWAP7 SWAP6 SWAP5 SWAP4 SWAP3 SWAP2 PUSH2 0x40C7 JUMPI JUMPDEST POP POP POP POP POP SWAP5 ADD SWAP4 SWAP2 PUSH2 0x3E08 JUMP JUMPDEST SWAP1 SWAP2 SWAP3 SWAP4 DUP1 SWAP6 SWAP7 POP GT PUSH2 0x40E3 JUMPI POP POP MSTORE DUP8 SWAP1 CODESIZE DUP1 DUP1 DUP1 DUP1 PUSH2 0x40B9 JUMP JUMPDEST PUSH1 0x41 SWAP1 PUSH32 0x4E487B7100000000000000000000000000000000000000000000000000000000 PUSH1 0x0 MSTORE MSTORE PUSH1 0x0 REVERT JUMPDEST DUP8 PUSH1 0x41 DUP9 PUSH32 0x4E487B7100000000000000000000000000000000000000000000000000000000 PUSH1 0x0 MSTORE MSTORE PUSH1 0x0 REVERT JUMPDEST POP POP POP DUP12 SWAP6 PUSH1 0x0 PUSH2 0x4024 JUMP JUMPDEST PUSH1 0x0 SWAP1 PUSH2 0x3F92 JUMP JUMPDEST DUP6 PUSH1 0x11 DUP7 PUSH32 0x4E487B7100000000000000000000000000000000000000000000000000000000 PUSH1 0x0 MSTORE MSTORE PUSH1 0x0 REVERT JUMPDEST DUP7 PUSH1 0x11 DUP8 PUSH32 0x4E487B7100000000000000000000000000000000000000000000000000000000 PUSH1 0x0 MSTORE MSTORE PUSH1 0x0 REVERT JUMPDEST DUP7 DUP10 MLOAD PUSH32 0x7B9C891600000000000000000000000000000000000000000000000000000000 DUP2 MSTORE REVERT JUMPDEST POP DUP2 ISZERO PUSH2 0x3F41 JUMP JUMPDEST DUP2 DUP2 SWAP6 SWAP3 SWAP4 SWAP6 RETURNDATASIZE DUP4 GT PUSH2 0x4204 JUMPI JUMPDEST PUSH2 0x41F2 DUP2 DUP4 PUSH2 0x35FA JUMP JUMPDEST DUP2 ADD SUB SLT PUSH2 0x387 JUMPI POP MLOAD SWAP2 CODESIZE DUP15 PUSH2 0x3F30 JUMP JUMPDEST POP RETURNDATASIZE PUSH2 0x41E8 JUMP JUMPDEST DUP8 MLOAD RETURNDATASIZE PUSH1 0x0 DUP3 RETURNDATACOPY RETURNDATASIZE SWAP1 REVERT JUMPDEST SWAP1 PUSH2 0x3EEB JUMP JUMPDEST DUP10 SWAP13 POP DUP10 SWAP3 POP SWAP1 DUP2 PUSH2 0x4239 SWAP3 SWAP1 RETURNDATASIZE LT PUSH2 0x1F13 JUMPI PUSH2 0x1F02 DUP2 DUP4 PUSH2 0x35FA JUMP JUMPDEST POP SWAP12 SWAP1 SWAP2 PUSH2 0x3EC2 JUMP JUMPDEST PUSH1 0x4 PUSH1 0x40 MLOAD PUSH32 0xAE52AD0C00000000000000000000000000000000000000000000000000000000 DUP2 MSTORE REVERT JUMPDEST SWAP2 SWAP1 DUP3 ADD DUP1 SWAP3 GT PUSH2 0x1B03 JUMPI JUMP JUMPDEST SWAP2 DUP3 CALLDATALOAD DUP4 ADD SWAP2 PUSH2 0x4293 PUSH1 0x20 DUP5 CALLDATALOAD SWAP6 DUP2 DUP7 ADD SWAP6 SUB ADD DUP6 PUSH2 0x426C JUMP JUMPDEST GT PUSH2 0x105D JUMPI JUMP JUMPDEST SWAP2 PUSH1 0x20 DUP4 ADD CALLDATALOAD DUP4 ADD SWAP2 PUSH2 0x4293 PUSH1 0x20 DUP5 CALLDATALOAD SWAP6 DUP2 DUP7 ADD SWAP6 SUB ADD DUP6 PUSH2 0x426C JUMP JUMPDEST SWAP2 PUSH1 0x60 DUP4 ADD CALLDATALOAD DUP4 ADD SWAP2 PUSH2 0x4293 PUSH1 0x20 DUP5 CALLDATALOAD SWAP6 DUP2 DUP7 ADD SWAP6 SUB ADD DUP6 PUSH2 0x426C JUMP JUMPDEST PUSH32 0x8000000000000000000000000000000000000000000000000000000000000000 DUP2 EQ PUSH2 0x1B03 JUMPI PUSH1 0x0 SUB SWAP1 JUMP JUMPDEST SWAP4 SWAP2 SWAP4 PUSH1 0x2B DUP5 LT PUSH2 0x105D JUMPI DUP5 PUSH3 0xFFFFFF PUSH1 0x0 PUSH2 0x4386 SWAP5 PUSH2 0x440D PUSH2 0x43B8 SWAP10 CALLDATALOAD SWAP9 DUP10 PUSH1 0x60 SHR SWAP11 DUP12 SWAP11 PUSH2 0x435A PUSH1 0x17 DUP10 ADD CALLDATALOAD PUSH1 0x60 SHR SWAP14 DUP15 LT SWAP13 PUSH20 0xFFFFFFFFFFFFFFFFFFFFFFFFFFFFFFFFFFFFFFFF SWAP15 DUP16 SWAP10 DUP11 SWAP5 PUSH1 0x48 SHR AND SWAP2 PUSH2 0x4484 JUMP JUMPDEST AND SWAP7 DUP12 DUP7 EQ PUSH2 0x4469 JUMPI PUSH5 0x1000276A4 SWAP11 JUMPDEST PUSH1 0x40 SWAP14 DUP15 SWAP12 DUP13 SWAP4 DUP5 MLOAD SWAP7 DUP8 SWAP6 PUSH1 0x20 DUP8 ADD MSTORE PUSH1 0x60 DUP7 ADD SWAP2 PUSH2 0x3537 JUMP JUMPDEST SWAP2 AND DUP12 DUP4 ADD MSTORE SUB PUSH32 0xFFFFFFFFFFFFFFFFFFFFFFFFFFFFFFFFFFFFFFFFFFFFFFFFFFFFFFFFFFFFFFE0 DUP2 ADD DUP4 MSTORE DUP3 PUSH2 0x35FA JUMP JUMPDEST DUP5 DUP9 MLOAD SWAP10 DUP11 SWAP9 DUP10 SWAP8 DUP9 SWAP7 PUSH32 0x128ACB0800000000000000000000000000000000000000000000000000000000 DUP9 MSTORE AND PUSH1 0x4 DUP8 ADD MSTORE DUP13 PUSH1 0x24 DUP8 ADD MSTORE PUSH1 0x44 DUP7 ADD MSTORE AND PUSH1 0x64 DUP5 ADD MSTORE PUSH1 0xA0 PUSH1 0x84 DUP5 ADD MSTORE PUSH1 0xA4 DUP4 ADD SWAP1 PUSH2 0xAF6 JUMP JUMPDEST SUB SWAP3 GAS CALL SWAP1 DUP2 ISZERO PUSH2 0x445E JUMPI PUSH1 0x0 SWAP4 DUP5 SWAP3 PUSH2 0x4428 JUMPI JUMPDEST POP POP SWAP2 SWAP3 JUMP JUMPDEST SWAP1 DUP1 SWAP5 SWAP3 POP DUP2 RETURNDATASIZE DUP4 GT PUSH2 0x4457 JUMPI JUMPDEST PUSH2 0x4440 DUP2 DUP4 PUSH2 0x35FA JUMP JUMPDEST DUP2 ADD SUB SLT PUSH2 0x387 JUMPI POP PUSH1 0x20 DUP3 MLOAD SWAP3 ADD MLOAD CODESIZE DUP1 PUSH2 0x4422 JUMP JUMPDEST POP RETURNDATASIZE PUSH2 0x4436 JUMP JUMPDEST DUP4 MLOAD RETURNDATASIZE PUSH1 0x0 DUP3 RETURNDATACOPY RETURNDATASIZE SWAP1 REVERT JUMPDEST PUSH20 0xFFFD8963EFD1FC6A506488495D951D5263988D25 SWAP11 PUSH2 0x436B JUMP JUMPDEST PUSH20 0xFFFFFFFFFFFFFFFFFFFFFFFFFFFFFFFFFFFFFFFF SWAP3 DUP4 DUP4 AND DUP5 DUP4 AND GT PUSH2 0x45E8 JUMPI JUMPDEST PUSH3 0xFFFFFF SWAP1 DUP5 PUSH1 0x40 MLOAD SWAP5 DUP2 PUSH1 0x20 DUP8 ADD SWAP6 AND DUP6 MSTORE AND PUSH1 0x40 DUP6 ADD MSTORE AND PUSH1 0x60 DUP4 ADD MSTORE PUSH1 0x60 DUP3 MSTORE PUSH1 0x80 DUP3 ADD SWAP1 DUP3 DUP3 LT PUSH8 0xFFFFFFFFFFFFFFFF DUP4 GT OR PUSH2 0xF7D JUMPI PUSH32 0xFFFFFFFFFFFFFFFFFFFFFFFFFFFFFFFFFFFFFFFFFFFFFFFFFFFFFFFFFFFFFF80 PUSH2 0x3D4C SWAP2 DUP4 PUSH1 0x40 MSTORE DUP5 MLOAD SWAP1 KECCAK256 SWAP4 PUSH2 0x45BB PUSH1 0xA0 DUP3 ADD SWAP6 PUSH32 0x0 SWAP1 PUSH32 0x0 DUP9 SWAP2 PUSH32 0xFFFFFFFFFFFFFFFFFFFFFFFFFFFFFFFFFFFFFFFF000000000000000000000000 PUSH1 0x55 SWAP5 SWAP3 PUSH32 0xFF00000000000000000000000000000000000000000000000000000000000000 DUP6 MSTORE PUSH1 0x60 SHL AND PUSH1 0x1 DUP5 ADD MSTORE PUSH1 0x15 DUP4 ADD MSTORE PUSH1 0x35 DUP3 ADD MSTORE ADD SWAP1 JUMP JUMPDEST SUB PUSH32 0xFFFFFFFFFFFFFFFFFFFFFFFFFFFFFFFFFFFFFFFFFFFFFFFFFFFFFFFFFFFFFF60 DUP2 ADD DUP5 MSTORE ADD DUP3 PUSH2 0x35FA JUMP JUMPDEST SWAP1 SWAP2 SWAP1 PUSH2 0x44A6 JUMP INVALID LOG1 PUSH5 0x736F6C6343 STOP ADDMOD GT STOP EXP "},"deployedBytecode":{"immutableReferences":{"6093":[{"length":32,"start":10235}],"6096":[{"length":32,"start":12721}],"6099":[{"length":32,"start":10415}],"6102":[{"length":32,"start":11609},{"length":32,"start":11867}],"6104":[{"length":32,"start":12137}],"6106":[{"length":32,"start":12616}],"6108":[{"length":32,"start":11779}],"6110":[{"length":32,"start":10477}],"6113":[{"length":32,"start":10328}],"6117":[{"length":32,"start":1296}],"6120":[{"length":32,"start":1204}],"6123":[{"length":32,"start":1432}],"6689":[{"length":32,"start":8510},{"length":32,"start":8901}],"6693":[{"length":32,"start":4952},{"length":32,"start":5208},{"length":32,"start":8119},{"length":32,"start":9437},{"length":32,"start":15114}],"6696":[{"length":32,"start":13201}],"6698":[{"length":32,"start":11692},{"length":32,"start":13459}],"6867":[{"length":32,"start":6457},{"length":32,"start":7497},{"length":32,"start":16382}],"6870":[{"length":32,"start":6424},{"length":32,"start":7464},{"length":32,"start":16349}],"6873":[{"length":32,"start":17723}],"6876":[{"length":32,"start":17689}]},"linkReferences":{},"object":"60a0604081815260049081361015610022575b505050361561002057600080fd5b005b600092833560e01c90816301ffc9a71461093d57508063150b7a02146108af57806324856bc3146107e85780633593564c146106b1578063709a1cc21461044f578063bc197c811461038a578063f23a6e61146102f95763fa461e330361001257346102f55760607ffffffffffffffffffffffffffffffffffffffffffffffffffffffffffffffffc3601126102f557813590602435926044359067ffffffffffffffff918281116102f1576100db9036908301610a97565b919092878613908115806102e7575b6102bf5783850186868203126102bb5785359182116102bb5761010e9186016136d0565b5060208401359373ffffffffffffffffffffffffffffffffffffffff938486168096036102bb5761013e91614279565b959097602b89106102935786359260178460601c98019561016d62ffffff883560601c9660481c16868b614484565b3391160361026b571561026157508186105b15610197575050505061019493503391613be1565b80f35b9395945091929091906042871061021b5750505083601711610217577f8000000000000000000000000000000000000000000000000000000000000000821015610217577fffffffffffffffffffffffffffffffffffffffffffffffffffffffffffffffe961021194019161020c33916142d4565b614301565b50505080f35b8480fd5b91969550929391508454841161023957506101949394503391613be1565b8590517f739dbe52000000000000000000000000000000000000000000000000000000008152fd5b965085821061017f565b8483517f32b13d91000000000000000000000000000000000000000000000000000000008152fd5b8382517f3b99b53d000000000000000000000000000000000000000000000000000000008152fd5b8980fd5b8286517f316cf0eb000000000000000000000000000000000000000000000000000000008152fd5b50888813156100ea565b8680fd5b8280fd5b5082346103875760a07ffffffffffffffffffffffffffffffffffffffffffffffffffffffffffffffffc36011261038757610332610a2b565b5061033b610a53565b506084359067ffffffffffffffff8211610387575060209261035f91369101610a97565b5050517ff23a6e61000000000000000000000000000000000000000000000000000000008152f35b80fd5b5082346103875760a07ffffffffffffffffffffffffffffffffffffffffffffffffffffffffffffffffc360112610387576103c3610a2b565b506103cc610a53565b5067ffffffffffffffff9060443582811161044b576103ee9036908601610ac5565b505060643582811161044b576104079036908601610ac5565b5050608435918211610387575060209261042391369101610a97565b5050517fbc197c81000000000000000000000000000000000000000000000000000000008152f35b5080fd5b50346102f557602090817ffffffffffffffffffffffffffffffffffffffffffffffffffffffffffffffffc3601126106ad5783833567ffffffffffffffff811161044b576104a1829136908701610a97565b90818551928392833781018381520390827f00000000000000000000000000000000000000000000000000000000000000005af16104dd613675565b50156106855780517f70a082310000000000000000000000000000000000000000000000000000000081523084820152907f000000000000000000000000000000000000000000000000000000000000000073ffffffffffffffffffffffffffffffffffffffff168383602481845afa92831561067b578693610646575b5081517fa9059cbb00000000000000000000000000000000000000000000000000000000815273ffffffffffffffffffffffffffffffffffffffff7f0000000000000000000000000000000000000000000000000000000000000000169581019586526020860184905294849186918290899082906040015b03925af193841561063c577f1e8f03f716bc104bf7d728131967a0c771e85ab54d09c1e2d6ed9e0bc4e2a16c9461060f575b5051908152a180f35b61062e90843d8611610635575b61062681836135fa565b81019061388d565b5038610606565b503d61061c565b81513d87823e3d90fd5b9092508381813d8311610674575b61065e81836135fa565b810103126106705751916105d461055b565b8580fd5b503d610654565b82513d88823e3d90fd5b9050517f7d529919000000000000000000000000000000000000000000000000000000008152fd5b8380fd5b5060607ffffffffffffffffffffffffffffffffffffffffffffffffffffffffffffffffc3601126102f55767ffffffffffffffff8235818111610217576106fb9036908501610a97565b91602435908111610670576107139036908601610ac5565b92909160443542116107c0573330146107b1576001958654958773ffffffffffffffffffffffffffffffffffffffff88160361078b5750509185949391610782937fffffffffffffffffffffffff00000000000000000000000000000000000000009586339116178755610b54565b81541617905580f35b517f6f5ffb7e000000000000000000000000000000000000000000000000000000008152fd5b90919293506101949450610b54565b8585517f5bf6f916000000000000000000000000000000000000000000000000000000008152fd5b50807ffffffffffffffffffffffffffffffffffffffffffffffffffffffffffffffffc3601126102f55767ffffffffffffffff8235818111610217576108319036908501610a97565b91602435908111610670576108499036908601610ac5565b9290913330146107b1576001958654958773ffffffffffffffffffffffffffffffffffffffff88160361078b5750509185949391610782937fffffffffffffffffffffffff00000000000000000000000000000000000000009586339116178755610b54565b5082346103875760807ffffffffffffffffffffffffffffffffffffffffffffffffffffffffffffffffc360112610387576108e8610a2b565b506108f1610a53565b506064359067ffffffffffffffff8211610387575060209261091591369101610a97565b5050517f150b7a02000000000000000000000000000000000000000000000000000000008152f35b849084346102f55760207ffffffffffffffffffffffffffffffffffffffffffffffffffffffffffffffffc3601126102f557357fffffffff0000000000000000000000000000000000000000000000000000000081168091036102f557602092507f4e2312e0000000000000000000000000000000000000000000000000000000008114908115610a01575b81156109d7575b5015158152f35b7f01ffc9a700000000000000000000000000000000000000000000000000000000915014836109d0565b7f150b7a0200000000000000000000000000000000000000000000000000000000811491506109c9565b6004359073ffffffffffffffffffffffffffffffffffffffff82168203610a4e57565b600080fd5b6024359073ffffffffffffffffffffffffffffffffffffffff82168203610a4e57565b359073ffffffffffffffffffffffffffffffffffffffff82168203610a4e57565b9181601f84011215610a4e5782359167ffffffffffffffff8311610a4e5760208381860195010111610a4e57565b9181601f84011215610a4e5782359167ffffffffffffffff8311610a4e576020808501948460051b010111610a4e57565b919082519283825260005b848110610b405750507fffffffffffffffffffffffffffffffffffffffffffffffffffffffffffffffe0601f8460006020809697860101520116010190565b602081830181015184830182015201610b01565b9192909260805282810361350d5791906000905b828210610b755750505050565b8382959394951015611b4c5760059282841b60805101357fffffffffffffffffffffffffffffffffffffffffffffffffffffffffffffffe19182608051360301821215610a4e578160805101359767ffffffffffffffff8911610a4e576020836080510101988036038a13610a4e57606097603f90818989013560f81c166001976020821060001461317157506010808210156127b4575060088082101561187e57508061109157505050610c2a908a6142b7565b92909860a08560805101013560001461108757610c6173ffffffffffffffffffffffffffffffffffffffff600154169b5b35613854565b9960408660805101013585829d927f80000000000000000000000000000000000000000000000000000000000000008314610fcf575b50959c95505b7f8000000000000000000000000000000000000000000000000000000000000000811015610a4e5760428610610fc85730915b86602b11610a4e578d91601783013560601c9083359462ffffff8660601c96610d1573ffffffffffffffffffffffffffffffffffffffff92839260481c16868a614484565b169084881015610fac57806401000276a4965b602b60405199604060208c01528160608c015260808b0137600060ab8a015216604088015260a0875260c087019587871067ffffffffffffffff881117610f7d576040948288958688527f128acb080000000000000000000000000000000000000000000000000000000087521660c48a0152868a1060e48a01526101048901521661012487015260a06101448701528160007fffffffffffffffffffffffffffffffffffffffffffffffffffffffffffffff4088610deb610164820182610af6565b0301925af1928315610f71576000928394610f2f575b5050610e159310600014610f2857506142d4565b9a60428510610e5657309085601711610a4e5760177fffffffffffffffffffffffffffffffffffffffffffffffffffffffffffffffe991019501949b610c9d565b50985098606091969597949392509160805101013511610efe575b1580610ed1575b610e8a57506001019291929092610b68565b90610ecd60409283519384937f2c4029e9000000000000000000000000000000000000000000000000000000008552600485015260248401526044830190610af6565b0390fd5b507f8000000000000000000000000000000000000000000000000000000000000000828501351615610e78565b60046040517f39d35496000000000000000000000000000000000000000000000000000000008152fd5b90506142d4565b91929093506040843d604011610f69575b81610f4d604093866135fa565b8101031261038757505160e092909201519190610e1538610e01565b3d9150610f40565b6040513d6000823e3d90fd5b7f4e487b7100000000000000000000000000000000000000000000000000000000600052604160045260246000fd5b8073fffd8963efd1fc6a506488495d951d5263988d2596610d28565b8b91610cd0565b60149192501061105d576020602491604051928380927f70a082310000000000000000000000000000000000000000000000000000000082523060048301523560601c5afa908115610f715760009161102b575b503880610c97565b906020823d602011611055575b81611045602093836135fa565b8101031261038757505138611023565b3d9150611038565b60046040517f3b99b53d000000000000000000000000000000000000000000000000000000008152fd5b610c61309b610c5b565b6001819d969d9b989794959a999b146000146111b7575050506040926110bf848360805101013593826142b7565b608051840160a00135156111ab5760606110f273ffffffffffffffffffffffffffffffffffffffff600154169435613854565b946080510101356000557f8000000000000000000000000000000000000000000000000000000000000000851015610a4e576111319361020c866142d4565b9091901561119c5750611143906142d4565b0361117357507fffffffffffffffffffffffffffffffffffffffffffffffffffffffffffffffff6000555b610e71565b600490517fd4e0248e000000000000000000000000000000000000000000000000000000008152fd5b6111a691506142d4565b611143565b60606110f23094610c5b565b9194929391600281036112065750505061116e925073ffffffffffffffffffffffffffffffffffffffff600154166111ff604060608560805101013594608051010135613854565b9135613aef565b9193916003810361157857505060805181018084019390604090850312610a4e57823567ffffffffffffffff8111610a4e5782608051010192606084860312610a4e57604051946060860186811067ffffffffffffffff821117610f7d57604052602085013567ffffffffffffffff8111610a4e57850160208201809882011215610a4e5760208101359061129a826136a5565b926112a860405194856135fa565b8284526040602085019360071b830101918a8311610a4e57604001925b828410611513575050505085526112de60408501610a76565b956020860196875260606040870195013585526040846080510101359067ffffffffffffffff8211610a4e57602061131f92611325966080510101016136d0565b5061429a565b909173ffffffffffffffffffffffffffffffffffffffff600154169473ffffffffffffffffffffffffffffffffffffffff7f0000000000000000000000000000000000000000000000000000000000000000163b15610a4e5794929391906040519586947f2a2d80d100000000000000000000000000000000000000000000000000000000865260048601526060602486015260c48501935193606060648701528451809152602060e487019501906000905b80821061149a575050509461143e9285949273ffffffffffffffffffffffffffffffffffffffff600098511660848701525160a48601527ffffffffffffffffffffffffffffffffffffffffffffffffffffffffffffffffc858403016044860152613537565b03818373ffffffffffffffffffffffffffffffffffffffff7f0000000000000000000000000000000000000000000000000000000000000000165af18015610f715761148b575b50610e71565b61149490613576565b38611485565b9197965091929394602060806001928a5173ffffffffffffffffffffffffffffffffffffffff815116825273ffffffffffffffffffffffffffffffffffffffff848201511684830152606065ffffffffffff918260408201511660408501520151166060820152019801920188969795949392916113d8565b608060208584030112610a4e5760206080916040516115318161358a565b61153a87610a76565b8152611547838801610a76565b83820152611557604088016136bd565b6040820152611568606088016136bd565b60608201528152019301926112c5565b600495509193508482036116e757505090916040606061159e8286608051010135613854565b608051909501013573ffffffffffffffffffffffffffffffffffffffff908116933516806116145750479283106115ee575050806115de575b5050610e71565b6115e791613984565b38806115d7565b517f6a12f104000000000000000000000000000000000000000000000000000000008152fd5b9391908051937f70a082310000000000000000000000000000000000000000000000000000000085523083860152602085602481895afa9485156116dc576000956116a8575b50841061168257505081611671575b505050610e71565b61167a926139f2565b388080611669565b517f675cae38000000000000000000000000000000000000000000000000000000008152fd5b90946020823d6020116116d4575b816116c3602093836135fa565b81010312610387575051933861165a565b3d91506116b6565b82513d6000823e3d90fd5b8103611714575061116e925061170d604060608460805101013593608051010135613854565b90356138a5565b9091906006810361184e57506080510160608101359060409061173990820135613854565b9282158015611843575b61181b573573ffffffffffffffffffffffffffffffffffffffff16938461177f57505061116e92506117786127109147613aa3565b0490613984565b8151907f70a082310000000000000000000000000000000000000000000000000000000082523090820152602081602481885afa91821561181157506000916117dd575b506117d661116e94939261271092613aa3565b04916139f2565b906020823d602011611809575b816117f7602093836135fa565b810103126103875750516117d66117c3565b3d91506117ea565b513d6000823e3d90fd5b8482517fdeaa01e6000000000000000000000000000000000000000000000000000000008152fd5b506127108311611743565b83602491604051917fd76a1e9e000000000000000000000000000000000000000000000000000000008352820152fd5b819d969d9b989794959a999b93929314600014611b85575050506040916118ad838360805101013591856142b7565b92909460a082608051010135600014611b7b576118e373ffffffffffffffffffffffffffffffffffffffff600154169135613854565b908615611b4c576118f385613bb3565b8760011015611b4c5761191561195d9161190f60208901613bb3565b90613d53565b907f00000000000000000000000000000000000000000000000000000000000000007f0000000000000000000000000000000000000000000000000000000000000000613c4b565b938481611b32575b5050507fffffffffffffffffffffffffffffffffffffffffffffffffffffffffffffffff860193868511611b03576119b9946119be73ffffffffffffffffffffffffffffffffffffffff9687928a85613ba3565b613bb3565b16948651947f70a082310000000000000000000000000000000000000000000000000000000091828752841693600499858b89015260249460208987818d5afa988915611af857600099611ac3575b509160209695949391611a1f93613dcc565b8751968793849283528a8301525afa928315611ab857600093611a83575b50906060611a519260805101013592613bd4565b10611a5d575050610e71565b517f849eaf98000000000000000000000000000000000000000000000000000000008152fd5b90926020823d602011611ab0575b81611a9e602093836135fa565b81010312610387575051916060611a3d565b3d9150611a91565b84513d6000823e3d90fd5b90986020823d602011611af0575b81611ade602093836135fa565b81010312610387575051976020611a0d565b3d9150611ad1565b8b513d6000823e3d90fd5b7f4e487b7100000000000000000000000000000000000000000000000000000000600052601160045260246000fd5b611b4492611b3f88613bb3565b613be1565b388084611965565b7f4e487b7100000000000000000000000000000000000000000000000000000000600052603260045260246000fd5b6118e33091610c5b565b919492939160098103611f66575050611b9e90826142b7565b608051840160a0013515611f5c57611bcf73ffffffffffffffffffffffffffffffffffffffff600154169335613854565b92611bd9836136a5565b95611be760405197886135fa565b83875283901b820160208701368211610a4e5783905b828210611f44575050506000946002875110611f1a576040816080510101359680517fffffffffffffffffffffffffffffffffffffffffffffffffffffffffffffffff8101908111611b035790815b611ca757505060805101606001358611611c7d578215611b4c5761116e9585611c7892611b3f85613bb3565b613dcc565b60046040517f8ab0bc16000000000000000000000000000000000000000000000000000000008152fd5b90977fffffffffffffffffffffffffffffffffffffffffffffffffffffffffffffffff89019750888811611b035773ffffffffffffffffffffffffffffffffffffffff611cf7611d6d9984613b8f565b5116611d2373ffffffffffffffffffffffffffffffffffffffff611d1b8c86613b8f565b511682613d53565b819a917f00000000000000000000000000000000000000000000000000000000000000007f0000000000000000000000000000000000000000000000000000000000000000613c4b565b90604051907f0902f1ac00000000000000000000000000000000000000000000000000000000825260608260048173ffffffffffffffffffffffffffffffffffffffff87165afa9a8b15610f7157600092839c611ed1575b5073ffffffffffffffffffffffffffffffffffffffff1603611eb7576dffffffffffffffffffffffffffff8091169916905b9880158015611eaf575b611e855782611e0f91613aa3565b916103e892838102938185041490151715611b0357611e2d91613bd4565b6103e590818102918183041490151715611b0357611e4a91613ab6565b60018101809111611b0357978015611b03577fffffffffffffffffffffffffffffffffffffffffffffffffffffffffffffffff019081611c4c565b60046040517f7b9c8916000000000000000000000000000000000000000000000000000000008152fd5b508115611e01565b6dffffffffffffffffffffffffffff998a16991690611df7565b611f0a919c5073ffffffffffffffffffffffffffffffffffffffff935060603d8111611f13575b611f0281836135fa565b810190613d96565b509b9092611dc5565b503d611ef8565b60046040517f20db8267000000000000000000000000000000000000000000000000000000008152fd5b60208091611f5184610a76565b815201910190611bfd565b611bcf3093610c5b565b92945091600a81036120cc5750608051830160e08101358101946020808701359450909291611f9991908703018461426c565b1161105d5773ffffffffffffffffffffffffffffffffffffffff93847f00000000000000000000000000000000000000000000000000000000000000001692856001541691843b15610a4e5760409587875198899687967f2b67b570000000000000000000000000000000000000000000000000000000008852600488015261202190610a76565b166024860152808883608051010161203890610a76565b16604486015265ffffffffffff808360805101606001612057906136bd565b166064870152826080510160800161206e906136bd565b166084860152816080510160a00161208590610a76565b1660a48501526080510160c0013560c484015261010060e48401526120b1916101048401918701613537565b03815a6000948591f1908115611811575061148b5750610e71565b600b8103612296575050506120eb604080926080510101359235613854565b91807f80000000000000000000000000000000000000000000000000000000000000008103612266575050475b8061212557505050610e71565b73ffffffffffffffffffffffffffffffffffffffff90817f000000000000000000000000000000000000000000000000000000000000000016803b15610a4e578351927fd0e30db0000000000000000000000000000000000000000000000000000000008452600493600081868187875af1801561225b5761224c575b5030908616036121b4575b5050611669565b6122139460006020948651978895869485937fa9059cbb00000000000000000000000000000000000000000000000000000000855284016020909392919373ffffffffffffffffffffffffffffffffffffffff60408201951681520152565b03925af1908115611811575061222d575b808080806121ad565b6122459060203d6020116106355761062681836135fa565b5038612224565b61225590613576565b386121a2565b86513d6000823e3d90fd5b47101561211857600482517f6a12f104000000000000000000000000000000000000000000000000000000008152fd5b600c810361242657505050906122ac9035613854565b9073ffffffffffffffffffffffffffffffffffffffff807f00000000000000000000000000000000000000000000000000000000000000001660408051937f70a08231000000000000000000000000000000000000000000000000000000008552600430818701526024916020878481885afa968715611ab8576000976123f2575b506080510183013586106123cb578561234e575b50505050505050610e71565b833b15610a4e57600091869183855196879485937f2e1a7d4d0000000000000000000000000000000000000000000000000000000085528401525af190811561181157506123bc575b5030908316036123ac575b8080808080612342565b6123b591613984565b38806123a2565b6123c590613576565b38612397565b82517f6a12f104000000000000000000000000000000000000000000000000000000008152fd5b90966020823d60201161241e575b8161240d602093836135fa565b81010312610387575051958361232e565b3d9150612400565b600d8103612681575082608051010191602083019360208260805101850312610a4e573567ffffffffffffffff8111610a4e57849160805101019182011215610a4e57602081013590612478826136a5565b93604093612488855196876135fa565b838652602086019285849560071b820101928311610a4e578501925b82841061261f575050505073ffffffffffffffffffffffffffffffffffffffff90816001541684519060005b8281106125b357505050817f00000000000000000000000000000000000000000000000000000000000000001691823b15610a4e5783517f0d58b1db000000000000000000000000000000000000000000000000000000008152602060048201529451602486018190528592604484019290916000915b81831061256f57505050509181600081819503925af1908115611811575061148b5750610e71565b91938395506080602091846060600195975182815116845282868201511686850152828d820151168d85015201511660608201520195019301909187949392612547565b81856125bf838a613b8f565b515116036125f6577fffffffffffffffffffffffffffffffffffffffffffffffffffffffffffffffff8114611b03576001016124d0565b600486517fe7002877000000000000000000000000000000000000000000000000000000008152fd5b608060208584030112610a4e576020608091875161263c8161358a565b61264587610a76565b8152612652838801610a76565b83820152612661898801610a76565b8982015261267160608801610a76565b60608201528152019301926124a4565b9294505050600e810361278357506040918251907f70a0823100000000000000000000000000000000000000000000000000000000825260208260248173ffffffffffffffffffffffffffffffffffffffff806004983516888301528886608051010135165afa918215611ab85760009261274e575b5060805101606001351180159290612710575050610e71565b517fa3281672000000000000000000000000000000000000000000000000000000006020820152908152909150612746816135c2565b9038806115d7565b90916020823d60201161277b575b81612769602093836135fa565b810103126103875750519060606126f7565b3d915061275c565b602490604051907fd76a1e9e0000000000000000000000000000000000000000000000000000000082526004820152fd5b9150915060189b95939897999692949b808310600014612d435750810361282a5750505060009250906127e883928261429a565b81604051928392833781018481520391357f00000000000000000000000000000000000000000000000000000000000000005af1612824613675565b90610e71565b6011810361288157505050600092509061284583928261429a565b81604051928392833781018481520391357f00000000000000000000000000000000000000000000000000000000000000005af1612824613675565b601281036128d857505050600092509061289c83928261429a565b81604051928392833781018481520391357f00000000000000000000000000000000000000000000000000000000000000005af1612824613675565b919392509060138103612a3e575050909150357f0000000000000000000000000000000000000000000000000000000000000000916040600080825160208101907f8264fe9800000000000000000000000000000000000000000000000000000000825260248781830152815261294e816135de565b5190606086608051010135885af192612965613675565b948415612a04578273ffffffffffffffffffffffffffffffffffffffff612993921694608051010135613854565b90833b15610a4e5782517f8b72a2ec00000000000000000000000000000000000000000000000000000000815273ffffffffffffffffffffffffffffffffffffffff9290921660048301526024820152916000908390604490829084905af1908115611811575061148b5750610e71565b505091925050517fae9bdf0000000000000000000000000000000000000000000000000000000000602082015260048152612824816135c2565b60158103612b4f57505090604091828051917f6352211e0000000000000000000000000000000000000000000000000000000083526020836024816004976060816080510101358983015273ffffffffffffffffffffffffffffffffffffffff968791608051010135165afa928315612b4457600093612b05575b5081903516911614918215612acf575050610e71565b517f7dbe7e89000000000000000000000000000000000000000000000000000000006020820152908152909150612746816135c2565b6020939193813d602011612b3c575b81612b21602093836135fa565b8101031261044b575190828216820361038757509181612ab9565b3d9150612b14565b85513d6000823e3d90fd5b60168103612c765750506040918251907efdd58e00000000000000000000000000000000000000000000000000000000825260208280612bc160049660608660805101013590358884016020909392919373ffffffffffffffffffffffffffffffffffffffff60408201951681520152565b038173ffffffffffffffffffffffffffffffffffffffff8886608051010135165afa918215611ab857600092612c41575b5060809081510101351191821592612c0b575050610e71565b517f483a6929000000000000000000000000000000000000000000000000000000006020820152908152909150612746816135c2565b90916020823d602011612c6e575b81612c5c602093836135fa565b81010312610387575051906080612bf2565b3d9150612c4f565b909290601714612c87575050610e71565b60409073ffffffffffffffffffffffffffffffffffffffff612caf8383608051010135613854565b93351692833b15610a4e5782517f42842e0e00000000000000000000000000000000000000000000000000000000815260805130600483015273ffffffffffffffffffffffffffffffffffffffff909216602482015291016060013560448201529160009083908183816064810103925af19081156118115750612d34575b806115d7565b612d3d90613576565b38612d2e565b9396938214159050612d7e5750505061282492507f000000000000000000000000000000000000000000000000000000000000000091613717565b60198103612dd5575050506000925090612d9983928261429a565b81604051928392833781018481520391357f00000000000000000000000000000000000000000000000000000000000000005af1612824613675565b601a8103612e2c575050506000925090612df083928261429a565b81604051928392833781018481520391357f00000000000000000000000000000000000000000000000000000000000000005af1612824613675565b601b8103612f53575050506000612e4481928461429a565b9390604094818651928392833781018481520391357f00000000000000000000000000000000000000000000000000000000000000005af1918291612e87613675565b92612e95575b505090610e71565b73ffffffffffffffffffffffffffffffffffffffff608083815101013516612ec4606084608051010135613854565b90825190612ed1826135a6565b60008252803b15610a4e57612f2d94600080948651978895869485937ff242432a00000000000000000000000000000000000000000000000000000000855260a060c0836080510101359260805101013590306004870161380f565b03925af19081156118115750612f44575b80612e8d565b612f4d90613576565b38612f3e565b91949091601c8103612f8e5750505061282492507f000000000000000000000000000000000000000000000000000000000000000091613717565b9193929091601d81036131175750506060816080510101359060409173ffffffffffffffffffffffffffffffffffffffff612fcf8484608051010135613854565b9435168351947efdd58e0000000000000000000000000000000000000000000000000000000086526004936020878061302e87308a84016020909392919373ffffffffffffffffffffffffffffffffffffffff60408201951681520152565b0381865afa96871561225b576000976130e2575b50608090815101013586106130ba57845161305c816135a6565b60008152823b15610a4e576000946130a486928851998a97889687957ff242432a0000000000000000000000000000000000000000000000000000000087523090870161380f565b03925af1908115611811575061148b5750610e71565b8385517f675cae38000000000000000000000000000000000000000000000000000000008152fd5b90966020823d60201161310f575b816130fd602093836135fa565b81010312610387575051956080613042565b3d91506130f0565b929450925050601e810361278357508161313560009392849361429a565b81604051928392833781018481520391357f00000000000000000000000000000000000000000000000000000000000000005af1612824613675565b9499989a92506020819d9792969d989498146000146131da575050505050508061319e600093849361429a565b81604051928392833781018481520391357f00000000000000000000000000000000000000000000000000000000000000005af1612824613675565b602190808203613351575050505090916131ff6131f78686614279565b96909561429a565b929061324160409788519760208901997f24856bc3000000000000000000000000000000000000000000000000000000008b5260248a01526064890191613537565b7fffffffffffffffffffffffffffffffffffffffffffffffffffffffffffffffdc878203016044880152818152602082818301951b82010195856000915b8483106132d357505050505050505091816132c5600094938594037fffffffffffffffffffffffffffffffffffffffffffffffffffffffffffffffe081018352826135fa565b519082305af1612824613675565b90919293949596977fffffffffffffffffffffffffffffffffffffffffffffffffffffffffffffffe085820301885288358284360301811215610a4e578301906020823592019167ffffffffffffffff8111610a4e578036038313610a4e5761334160209283928b95613537565b9a0198019695949301919061327f565b929750929593509350602281146000146127835750604080936080510101359060009060028310156134e1575050808491156000146134895750506000907f0000000000000000000000000000000000000000000000000000000000000000925b6020838251937f095ea7b3000000000000000000000000000000000000000000000000000000008552600496878601526024947fffffffffffffffffffffffffffffffffffffffffffffffffffffffffffffffff868201526044968792355af13d15601f3d1187600051141617161561342e5750505050610e71565b91600e7f415050524f56455f4641494c45440000000000000000000000000000000000009260206064969551957f08c379a0000000000000000000000000000000000000000000000000000000008752860152840152820152fd5b036134b8576000907f0000000000000000000000000000000000000000000000000000000000000000926133b2565b600482517f5461585f000000000000000000000000000000000000000000000000000000008152fd5b602492507f4e487b71000000000000000000000000000000000000000000000000000000008252600452fd5b60046040517fff633a38000000000000000000000000000000000000000000000000000000008152fd5b601f82602094937fffffffffffffffffffffffffffffffffffffffffffffffffffffffffffffffe0938186528686013760008582860101520116010190565b67ffffffffffffffff8111610f7d57604052565b6080810190811067ffffffffffffffff821117610f7d57604052565b6020810190811067ffffffffffffffff821117610f7d57604052565b6040810190811067ffffffffffffffff821117610f7d57604052565b6060810190811067ffffffffffffffff821117610f7d57604052565b90601f7fffffffffffffffffffffffffffffffffffffffffffffffffffffffffffffffe0910116810190811067ffffffffffffffff821117610f7d57604052565b67ffffffffffffffff8111610f7d57601f017fffffffffffffffffffffffffffffffffffffffffffffffffffffffffffffffe01660200190565b3d156136a0573d906136868261363b565b9161369460405193846135fa565b82523d6000602084013e565b606090565b67ffffffffffffffff8111610f7d5760051b60200190565b359065ffffffffffff82168203610a4e57565b81601f82011215610a4e578035906136e78261363b565b926136f560405194856135fa565b82845260208383010111610a4e57816000926020809301838601378301015290565b919290613724908361429a565b90938460405195869384378201906000958693838580955203918635905af19261374c613675565b9284613756575050565b73ffffffffffffffffffffffffffffffffffffffff60608201351661377e6040830135613854565b91813b156106ad576040517f42842e0e00000000000000000000000000000000000000000000000000000000815230600482015273ffffffffffffffffffffffffffffffffffffffff93909316602484015260800135604483015290919081908390606490829084905af190811561380357506137f85750565b61380190613576565b565b604051903d90823e3d90fd5b919261385195949160a09473ffffffffffffffffffffffffffffffffffffffff8092168552166020840152604083015260608201528160808201520190610af6565b90565b73ffffffffffffffffffffffffffffffffffffffff908082166001810361387e5750506001541690565b90915060020361385157503090565b90816020910312610a4e57518015158103610a4e5790565b9092919073ffffffffffffffffffffffffffffffffffffffff16806138cf57506138019192613984565b7f80000000000000000000000000000000000000000000000000000000000000008214613902575b9261380192936139f2565b9050604051927f70a08231000000000000000000000000000000000000000000000000000000008452306004850152602084602481855afa938415610f7157600094613951575b5092906138f7565b6020813d821161397c575b81613969602093836135fa565b8101031261021757519350613801613949565b3d915061395c565b600080809381935af11561399457565b60646040517f08c379a000000000000000000000000000000000000000000000000000000000815260206004820152601360248201527f4554485f5452414e534645525f4641494c4544000000000000000000000000006044820152fd5b60009182604492602095604051937fa9059cbb000000000000000000000000000000000000000000000000000000008552600485015260248401525af13d15601f3d1160016000511416171615613a4557565b60646040517f08c379a000000000000000000000000000000000000000000000000000000000815260206004820152600f60248201527f5452414e534645525f4641494c454400000000000000000000000000000000006044820152fd5b81810292918115918404141715611b0357565b8115613ac0570490565b7f4e487b7100000000000000000000000000000000000000000000000000000000600052601260045260246000fd5b919273ffffffffffffffffffffffffffffffffffffffff91827f00000000000000000000000000000000000000000000000000000000000000001693843b15610a4e5760009484869281608496816040519b8c9a8b997f36c78516000000000000000000000000000000000000000000000000000000008b521660048a01521660248801521660448601521660648401525af18015610f71576137f85750565b8051821015611b4c5760209160051b010190565b9190811015611b4c5760051b0190565b3573ffffffffffffffffffffffffffffffffffffffff81168103610a4e5790565b91908203918211611b0357565b92919073ffffffffffffffffffffffffffffffffffffffff8082163003613c0d575050613801926138a5565b8084959411613c2157613801941692613aef565b60046040517fc4bd89a9000000000000000000000000000000000000000000000000000000008152fd5b9173ffffffffffffffffffffffffffffffffffffffff93613d4c916040519060208201927fffffffffffffffffffffffffffffffffffffffff000000000000000000000000809260601b16845260601b16603482015260288152613cae816135de565b519020613d20604051938492602084019687917fffffffffffffffffffffffffffffffffffffffff000000000000000000000000605594927fff00000000000000000000000000000000000000000000000000000000000000855260601b166001840152601583015260358201520190565b037fffffffffffffffffffffffffffffffffffffffffffffffffffffffffffffffe081018352826135fa565b5190201690565b73ffffffffffffffffffffffffffffffffffffffff8281169082161015613d775791565b9091565b51906dffffffffffffffffffffffffffff82168203610a4e57565b90816060910312610a4e57613daa81613d7b565b916040613db960208401613d7b565b92015163ffffffff81168103610a4e5790565b9260028210614242578115611b4c57613de484613bb3565b9160019481861015611b4c5791613e0260209461190f868601613bb3565b50926000935b7fffffffffffffffffffffffffffffffffffffffffffffffffffffffffffffffff84018510613e3b575050505050505050565b613e496119b9868685613ba3565b92613e5a6119b98a88018786613ba3565b936040908151957f0902f1ac00000000000000000000000000000000000000000000000000000000875273ffffffffffffffffffffffffffffffffffffffff80941694606092600493808a86818b5afa998a1561225b57908d9594939291600091829c61421c575b50508780916dffffffffffffffffffffffffffff8091169c16921692168214998a600014614216575b8651958680947f70a082310000000000000000000000000000000000000000000000000000000082528b8883015260249889915afa92831561420b578e6000946141da575b5050808303918115938480156141d2575b6141aa57826103e5808602958604149114171561417d57613f629083613aa3565b926103e880830292830414171561415057613f879291613f819161426c565b90613ab6565b971561414857600097905b898b7ffffffffffffffffffffffffffffffffffffffffffffffffffffffffffffffffe820181101561413c579161190f6119b9613fd89360026140229c9601908d613ba3565b8198917f00000000000000000000000000000000000000000000000000000000000000007f0000000000000000000000000000000000000000000000000000000000000000613c4b565b965b988551918d83019367ffffffffffffffff948481108682111761410f57885260008452813b15610a4e5760008a936140a282968b519c8d97889687957f022c0d9f0000000000000000000000000000000000000000000000000000000087528d8701528d860152166044840152608060648401526084830190610af6565b03925af18015611ab857908d9695949392916140c7575b505050505094019391613e08565b9091929380959650116140e357505052879038808080806140b9565b6041907f4e487b7100000000000000000000000000000000000000000000000000000000600052526000fd5b876041887f4e487b7100000000000000000000000000000000000000000000000000000000600052526000fd5b5050508b956000614024565b600090613f92565b856011867f4e487b7100000000000000000000000000000000000000000000000000000000600052526000fd5b866011877f4e487b7100000000000000000000000000000000000000000000000000000000600052526000fd5b8689517f7b9c8916000000000000000000000000000000000000000000000000000000008152fd5b508115613f41565b8181959293953d8311614204575b6141f281836135fa565b8101031261038757505191388e613f30565b503d6141e8565b87513d6000823e3d90fd5b90613eeb565b899c50899250908161423992903d10611f1357611f0281836135fa565b509b9091613ec2565b60046040517fae52ad0c000000000000000000000000000000000000000000000000000000008152fd5b91908201809211611b0357565b91823583019161429360208435958186019503018561426c565b1161105d57565b91602083013583019161429360208435958186019503018561426c565b91606083013583019161429360208435958186019503018561426c565b7f80000000000000000000000000000000000000000000000000000000000000008114611b035760000390565b939193602b841061105d578462ffffff60006143869461440d6143b89935988960601c9a8b9a61435a601789013560601c9d8e109c73ffffffffffffffffffffffffffffffffffffffff9e8f998a9460481c1691614484565b16968b8614614469576401000276a49a5b60409d8e9b8c93845196879560208701526060860191613537565b91168b830152037fffffffffffffffffffffffffffffffffffffffffffffffffffffffffffffffe081018352826135fa565b848851998a98899788967f128acb080000000000000000000000000000000000000000000000000000000088521660048701528c6024870152604486015216606484015260a0608484015260a4830190610af6565b03925af190811561445e576000938492614428575b50509192565b9080949250813d8311614457575b61444081836135fa565b810103126103875750602082519201513880614422565b503d614436565b83513d6000823e3d90fd5b73fffd8963efd1fc6a506488495d951d5263988d259a61436b565b73ffffffffffffffffffffffffffffffffffffffff92838316848316116145e8575b62ffffff90846040519481602087019516855216604085015216606083015260608252608082019082821067ffffffffffffffff831117610f7d577fffffffffffffffffffffffffffffffffffffffffffffffffffffffffffffff80613d4c918360405284519020936145bb60a08201957f0000000000000000000000000000000000000000000000000000000000000000907f000000000000000000000000000000000000000000000000000000000000000088917fffffffffffffffffffffffffffffffffffffffff000000000000000000000000605594927fff00000000000000000000000000000000000000000000000000000000000000855260601b166001840152601583015260358201520190565b037fffffffffffffffffffffffffffffffffffffffffffffffffffffffffffffff608101845201826135fa565b9091906144a656fea164736f6c6343000811000a","opcodes":"PUSH1 0xA0 PUSH1 0x40 DUP2 DUP2 MSTORE PUSH1 0x4 SWAP1 DUP2 CALLDATASIZE LT ISZERO PUSH2 0x22 JUMPI JUMPDEST POP POP POP CALLDATASIZE ISZERO PUSH2 0x20 JUMPI PUSH1 0x0 DUP1 REVERT JUMPDEST STOP JUMPDEST PUSH1 0x0 SWAP3 DUP4 CALLDATALOAD PUSH1 0xE0 SHR SWAP1 DUP2 PUSH4 0x1FFC9A7 EQ PUSH2 0x93D JUMPI POP DUP1 PUSH4 0x150B7A02 EQ PUSH2 0x8AF JUMPI DUP1 PUSH4 0x24856BC3 EQ PUSH2 0x7E8 JUMPI DUP1 PUSH4 0x3593564C EQ PUSH2 0x6B1 JUMPI DUP1 PUSH4 0x709A1CC2 EQ PUSH2 0x44F JUMPI DUP1 PUSH4 0xBC197C81 EQ PUSH2 0x38A JUMPI DUP1 PUSH4 0xF23A6E61 EQ PUSH2 0x2F9 JUMPI PUSH4 0xFA461E33 SUB PUSH2 0x12 JUMPI CALLVALUE PUSH2 0x2F5 JUMPI PUSH1 0x60 PUSH32 0xFFFFFFFFFFFFFFFFFFFFFFFFFFFFFFFFFFFFFFFFFFFFFFFFFFFFFFFFFFFFFFFC CALLDATASIZE ADD SLT PUSH2 0x2F5 JUMPI DUP2 CALLDATALOAD SWAP1 PUSH1 0x24 CALLDATALOAD SWAP3 PUSH1 0x44 CALLDATALOAD SWAP1 PUSH8 0xFFFFFFFFFFFFFFFF SWAP2 DUP3 DUP2 GT PUSH2 0x2F1 JUMPI PUSH2 0xDB SWAP1 CALLDATASIZE SWAP1 DUP4 ADD PUSH2 0xA97 JUMP JUMPDEST SWAP2 SWAP1 SWAP3 DUP8 DUP7 SGT SWAP1 DUP2 ISZERO DUP1 PUSH2 0x2E7 JUMPI JUMPDEST PUSH2 0x2BF JUMPI DUP4 DUP6 ADD DUP7 DUP7 DUP3 SUB SLT PUSH2 0x2BB JUMPI DUP6 CALLDATALOAD SWAP2 DUP3 GT PUSH2 0x2BB JUMPI PUSH2 0x10E SWAP2 DUP7 ADD PUSH2 0x36D0 JUMP JUMPDEST POP PUSH1 0x20 DUP5 ADD CALLDATALOAD SWAP4 PUSH20 0xFFFFFFFFFFFFFFFFFFFFFFFFFFFFFFFFFFFFFFFF SWAP4 DUP5 DUP7 AND DUP1 SWAP7 SUB PUSH2 0x2BB JUMPI PUSH2 0x13E SWAP2 PUSH2 0x4279 JUMP JUMPDEST SWAP6 SWAP1 SWAP8 PUSH1 0x2B DUP10 LT PUSH2 0x293 JUMPI DUP7 CALLDATALOAD SWAP3 PUSH1 0x17 DUP5 PUSH1 0x60 SHR SWAP9 ADD SWAP6 PUSH2 0x16D PUSH3 0xFFFFFF DUP9 CALLDATALOAD PUSH1 0x60 SHR SWAP7 PUSH1 0x48 SHR AND DUP7 DUP12 PUSH2 0x4484 JUMP JUMPDEST CALLER SWAP2 AND SUB PUSH2 0x26B JUMPI ISZERO PUSH2 0x261 JUMPI POP DUP2 DUP7 LT JUMPDEST ISZERO PUSH2 0x197 JUMPI POP POP POP POP PUSH2 0x194 SWAP4 POP CALLER SWAP2 PUSH2 0x3BE1 JUMP JUMPDEST DUP1 RETURN JUMPDEST SWAP4 SWAP6 SWAP5 POP SWAP2 SWAP3 SWAP1 SWAP2 SWAP1 PUSH1 0x42 DUP8 LT PUSH2 0x21B JUMPI POP POP POP DUP4 PUSH1 0x17 GT PUSH2 0x217 JUMPI PUSH32 0x8000000000000000000000000000000000000000000000000000000000000000 DUP3 LT ISZERO PUSH2 0x217 JUMPI PUSH32 0xFFFFFFFFFFFFFFFFFFFFFFFFFFFFFFFFFFFFFFFFFFFFFFFFFFFFFFFFFFFFFFE9 PUSH2 0x211 SWAP5 ADD SWAP2 PUSH2 0x20C CALLER SWAP2 PUSH2 0x42D4 JUMP JUMPDEST PUSH2 0x4301 JUMP JUMPDEST POP POP POP DUP1 RETURN JUMPDEST DUP5 DUP1 REVERT JUMPDEST SWAP2 SWAP7 SWAP6 POP SWAP3 SWAP4 SWAP2 POP DUP5 SLOAD DUP5 GT PUSH2 0x239 JUMPI POP PUSH2 0x194 SWAP4 SWAP5 POP CALLER SWAP2 PUSH2 0x3BE1 JUMP JUMPDEST DUP6 SWAP1 MLOAD PUSH32 0x739DBE5200000000000000000000000000000000000000000000000000000000 DUP2 MSTORE REVERT JUMPDEST SWAP7 POP DUP6 DUP3 LT PUSH2 0x17F JUMP JUMPDEST DUP5 DUP4 MLOAD PUSH32 0x32B13D9100000000000000000000000000000000000000000000000000000000 DUP2 MSTORE REVERT JUMPDEST DUP4 DUP3 MLOAD PUSH32 0x3B99B53D00000000000000000000000000000000000000000000000000000000 DUP2 MSTORE REVERT JUMPDEST DUP10 DUP1 REVERT JUMPDEST DUP3 DUP7 MLOAD PUSH32 0x316CF0EB00000000000000000000000000000000000000000000000000000000 DUP2 MSTORE REVERT JUMPDEST POP DUP9 DUP9 SGT ISZERO PUSH2 0xEA JUMP JUMPDEST DUP7 DUP1 REVERT JUMPDEST DUP3 DUP1 REVERT JUMPDEST POP DUP3 CALLVALUE PUSH2 0x387 JUMPI PUSH1 0xA0 PUSH32 0xFFFFFFFFFFFFFFFFFFFFFFFFFFFFFFFFFFFFFFFFFFFFFFFFFFFFFFFFFFFFFFFC CALLDATASIZE ADD SLT PUSH2 0x387 JUMPI PUSH2 0x332 PUSH2 0xA2B JUMP JUMPDEST POP PUSH2 0x33B PUSH2 0xA53 JUMP JUMPDEST POP PUSH1 0x84 CALLDATALOAD SWAP1 PUSH8 0xFFFFFFFFFFFFFFFF DUP3 GT PUSH2 0x387 JUMPI POP PUSH1 0x20 SWAP3 PUSH2 0x35F SWAP2 CALLDATASIZE SWAP2 ADD PUSH2 0xA97 JUMP JUMPDEST POP POP MLOAD PUSH32 0xF23A6E6100000000000000000000000000000000000000000000000000000000 DUP2 MSTORE RETURN JUMPDEST DUP1 REVERT JUMPDEST POP DUP3 CALLVALUE PUSH2 0x387 JUMPI PUSH1 0xA0 PUSH32 0xFFFFFFFFFFFFFFFFFFFFFFFFFFFFFFFFFFFFFFFFFFFFFFFFFFFFFFFFFFFFFFFC CALLDATASIZE ADD SLT PUSH2 0x387 JUMPI PUSH2 0x3C3 PUSH2 0xA2B JUMP JUMPDEST POP PUSH2 0x3CC PUSH2 0xA53 JUMP JUMPDEST POP PUSH8 0xFFFFFFFFFFFFFFFF SWAP1 PUSH1 0x44 CALLDATALOAD DUP3 DUP2 GT PUSH2 0x44B JUMPI PUSH2 0x3EE SWAP1 CALLDATASIZE SWAP1 DUP7 ADD PUSH2 0xAC5 JUMP JUMPDEST POP POP PUSH1 0x64 CALLDATALOAD DUP3 DUP2 GT PUSH2 0x44B JUMPI PUSH2 0x407 SWAP1 CALLDATASIZE SWAP1 DUP7 ADD PUSH2 0xAC5 JUMP JUMPDEST POP POP PUSH1 0x84 CALLDATALOAD SWAP2 DUP3 GT PUSH2 0x387 JUMPI POP PUSH1 0x20 SWAP3 PUSH2 0x423 SWAP2 CALLDATASIZE SWAP2 ADD PUSH2 0xA97 JUMP JUMPDEST POP POP MLOAD PUSH32 0xBC197C8100000000000000000000000000000000000000000000000000000000 DUP2 MSTORE RETURN JUMPDEST POP DUP1 REVERT JUMPDEST POP CALLVALUE PUSH2 0x2F5 JUMPI PUSH1 0x20 SWAP1 DUP2 PUSH32 0xFFFFFFFFFFFFFFFFFFFFFFFFFFFFFFFFFFFFFFFFFFFFFFFFFFFFFFFFFFFFFFFC CALLDATASIZE ADD SLT PUSH2 0x6AD JUMPI DUP4 DUP4 CALLDATALOAD PUSH8 0xFFFFFFFFFFFFFFFF DUP2 GT PUSH2 0x44B JUMPI PUSH2 0x4A1 DUP3 SWAP2 CALLDATASIZE SWAP1 DUP8 ADD PUSH2 0xA97 JUMP JUMPDEST SWAP1 DUP2 DUP6 MLOAD SWAP3 DUP4 SWAP3 DUP4 CALLDATACOPY DUP2 ADD DUP4 DUP2 MSTORE SUB SWAP1 DUP3 PUSH32 0x0 GAS CALL PUSH2 0x4DD PUSH2 0x3675 JUMP JUMPDEST POP ISZERO PUSH2 0x685 JUMPI DUP1 MLOAD PUSH32 0x70A0823100000000000000000000000000000000000000000000000000000000 DUP2 MSTORE ADDRESS DUP5 DUP3 ADD MSTORE SWAP1 PUSH32 0x0 PUSH20 0xFFFFFFFFFFFFFFFFFFFFFFFFFFFFFFFFFFFFFFFF AND DUP4 DUP4 PUSH1 0x24 DUP2 DUP5 GAS STATICCALL SWAP3 DUP4 ISZERO PUSH2 0x67B JUMPI DUP7 SWAP4 PUSH2 0x646 JUMPI JUMPDEST POP DUP2 MLOAD PUSH32 0xA9059CBB00000000000000000000000000000000000000000000000000000000 DUP2 MSTORE PUSH20 0xFFFFFFFFFFFFFFFFFFFFFFFFFFFFFFFFFFFFFFFF PUSH32 0x0 AND SWAP6 DUP2 ADD SWAP6 DUP7 MSTORE PUSH1 0x20 DUP7 ADD DUP5 SWAP1 MSTORE SWAP5 DUP5 SWAP2 DUP7 SWAP2 DUP3 SWAP1 DUP10 SWAP1 DUP3 SWAP1 PUSH1 0x40 ADD JUMPDEST SUB SWAP3 GAS CALL SWAP4 DUP5 ISZERO PUSH2 0x63C JUMPI PUSH32 0x1E8F03F716BC104BF7D728131967A0C771E85AB54D09C1E2D6ED9E0BC4E2A16C SWAP5 PUSH2 0x60F JUMPI JUMPDEST POP MLOAD SWAP1 DUP2 MSTORE LOG1 DUP1 RETURN JUMPDEST PUSH2 0x62E SWAP1 DUP5 RETURNDATASIZE DUP7 GT PUSH2 0x635 JUMPI JUMPDEST PUSH2 0x626 DUP2 DUP4 PUSH2 0x35FA JUMP JUMPDEST DUP2 ADD SWAP1 PUSH2 0x388D JUMP JUMPDEST POP CODESIZE PUSH2 0x606 JUMP JUMPDEST POP RETURNDATASIZE PUSH2 0x61C JUMP JUMPDEST DUP2 MLOAD RETURNDATASIZE DUP8 DUP3 RETURNDATACOPY RETURNDATASIZE SWAP1 REVERT JUMPDEST SWAP1 SWAP3 POP DUP4 DUP2 DUP2 RETURNDATASIZE DUP4 GT PUSH2 0x674 JUMPI JUMPDEST PUSH2 0x65E DUP2 DUP4 PUSH2 0x35FA JUMP JUMPDEST DUP2 ADD SUB SLT PUSH2 0x670 JUMPI MLOAD SWAP2 PUSH2 0x5D4 PUSH2 0x55B JUMP JUMPDEST DUP6 DUP1 REVERT JUMPDEST POP RETURNDATASIZE PUSH2 0x654 JUMP JUMPDEST DUP3 MLOAD RETURNDATASIZE DUP9 DUP3 RETURNDATACOPY RETURNDATASIZE SWAP1 REVERT JUMPDEST SWAP1 POP MLOAD PUSH32 0x7D52991900000000000000000000000000000000000000000000000000000000 DUP2 MSTORE REVERT JUMPDEST DUP4 DUP1 REVERT JUMPDEST POP PUSH1 0x60 PUSH32 0xFFFFFFFFFFFFFFFFFFFFFFFFFFFFFFFFFFFFFFFFFFFFFFFFFFFFFFFFFFFFFFFC CALLDATASIZE ADD SLT PUSH2 0x2F5 JUMPI PUSH8 0xFFFFFFFFFFFFFFFF DUP3 CALLDATALOAD DUP2 DUP2 GT PUSH2 0x217 JUMPI PUSH2 0x6FB SWAP1 CALLDATASIZE SWAP1 DUP6 ADD PUSH2 0xA97 JUMP JUMPDEST SWAP2 PUSH1 0x24 CALLDATALOAD SWAP1 DUP2 GT PUSH2 0x670 JUMPI PUSH2 0x713 SWAP1 CALLDATASIZE SWAP1 DUP7 ADD PUSH2 0xAC5 JUMP JUMPDEST SWAP3 SWAP1 SWAP2 PUSH1 0x44 CALLDATALOAD TIMESTAMP GT PUSH2 0x7C0 JUMPI CALLER ADDRESS EQ PUSH2 0x7B1 JUMPI PUSH1 0x1 SWAP6 DUP7 SLOAD SWAP6 DUP8 PUSH20 0xFFFFFFFFFFFFFFFFFFFFFFFFFFFFFFFFFFFFFFFF DUP9 AND SUB PUSH2 0x78B JUMPI POP POP SWAP2 DUP6 SWAP5 SWAP4 SWAP2 PUSH2 0x782 SWAP4 PUSH32 0xFFFFFFFFFFFFFFFFFFFFFFFF0000000000000000000000000000000000000000 SWAP6 DUP7 CALLER SWAP2 AND OR DUP8 SSTORE PUSH2 0xB54 JUMP JUMPDEST DUP2 SLOAD AND OR SWAP1 SSTORE DUP1 RETURN JUMPDEST MLOAD PUSH32 0x6F5FFB7E00000000000000000000000000000000000000000000000000000000 DUP2 MSTORE REVERT JUMPDEST SWAP1 SWAP2 SWAP3 SWAP4 POP PUSH2 0x194 SWAP5 POP PUSH2 0xB54 JUMP JUMPDEST DUP6 DUP6 MLOAD PUSH32 0x5BF6F91600000000000000000000000000000000000000000000000000000000 DUP2 MSTORE REVERT JUMPDEST POP DUP1 PUSH32 0xFFFFFFFFFFFFFFFFFFFFFFFFFFFFFFFFFFFFFFFFFFFFFFFFFFFFFFFFFFFFFFFC CALLDATASIZE ADD SLT PUSH2 0x2F5 JUMPI PUSH8 0xFFFFFFFFFFFFFFFF DUP3 CALLDATALOAD DUP2 DUP2 GT PUSH2 0x217 JUMPI PUSH2 0x831 SWAP1 CALLDATASIZE SWAP1 DUP6 ADD PUSH2 0xA97 JUMP JUMPDEST SWAP2 PUSH1 0x24 CALLDATALOAD SWAP1 DUP2 GT PUSH2 0x670 JUMPI PUSH2 0x849 SWAP1 CALLDATASIZE SWAP1 DUP7 ADD PUSH2 0xAC5 JUMP JUMPDEST SWAP3 SWAP1 SWAP2 CALLER ADDRESS EQ PUSH2 0x7B1 JUMPI PUSH1 0x1 SWAP6 DUP7 SLOAD SWAP6 DUP8 PUSH20 0xFFFFFFFFFFFFFFFFFFFFFFFFFFFFFFFFFFFFFFFF DUP9 AND SUB PUSH2 0x78B JUMPI POP POP SWAP2 DUP6 SWAP5 SWAP4 SWAP2 PUSH2 0x782 SWAP4 PUSH32 0xFFFFFFFFFFFFFFFFFFFFFFFF0000000000000000000000000000000000000000 SWAP6 DUP7 CALLER SWAP2 AND OR DUP8 SSTORE PUSH2 0xB54 JUMP JUMPDEST POP DUP3 CALLVALUE PUSH2 0x387 JUMPI PUSH1 0x80 PUSH32 0xFFFFFFFFFFFFFFFFFFFFFFFFFFFFFFFFFFFFFFFFFFFFFFFFFFFFFFFFFFFFFFFC CALLDATASIZE ADD SLT PUSH2 0x387 JUMPI PUSH2 0x8E8 PUSH2 0xA2B JUMP JUMPDEST POP PUSH2 0x8F1 PUSH2 0xA53 JUMP JUMPDEST POP PUSH1 0x64 CALLDATALOAD SWAP1 PUSH8 0xFFFFFFFFFFFFFFFF DUP3 GT PUSH2 0x387 JUMPI POP PUSH1 0x20 SWAP3 PUSH2 0x915 SWAP2 CALLDATASIZE SWAP2 ADD PUSH2 0xA97 JUMP JUMPDEST POP POP MLOAD PUSH32 0x150B7A0200000000000000000000000000000000000000000000000000000000 DUP2 MSTORE RETURN JUMPDEST DUP5 SWAP1 DUP5 CALLVALUE PUSH2 0x2F5 JUMPI PUSH1 0x20 PUSH32 0xFFFFFFFFFFFFFFFFFFFFFFFFFFFFFFFFFFFFFFFFFFFFFFFFFFFFFFFFFFFFFFFC CALLDATASIZE ADD SLT PUSH2 0x2F5 JUMPI CALLDATALOAD PUSH32 0xFFFFFFFF00000000000000000000000000000000000000000000000000000000 DUP2 AND DUP1 SWAP2 SUB PUSH2 0x2F5 JUMPI PUSH1 0x20 SWAP3 POP PUSH32 0x4E2312E000000000000000000000000000000000000000000000000000000000 DUP2 EQ SWAP1 DUP2 ISZERO PUSH2 0xA01 JUMPI JUMPDEST DUP2 ISZERO PUSH2 0x9D7 JUMPI JUMPDEST POP ISZERO ISZERO DUP2 MSTORE RETURN JUMPDEST PUSH32 0x1FFC9A700000000000000000000000000000000000000000000000000000000 SWAP2 POP EQ DUP4 PUSH2 0x9D0 JUMP JUMPDEST PUSH32 0x150B7A0200000000000000000000000000000000000000000000000000000000 DUP2 EQ SWAP2 POP PUSH2 0x9C9 JUMP JUMPDEST PUSH1 0x4 CALLDATALOAD SWAP1 PUSH20 0xFFFFFFFFFFFFFFFFFFFFFFFFFFFFFFFFFFFFFFFF DUP3 AND DUP3 SUB PUSH2 0xA4E JUMPI JUMP JUMPDEST PUSH1 0x0 DUP1 REVERT JUMPDEST PUSH1 0x24 CALLDATALOAD SWAP1 PUSH20 0xFFFFFFFFFFFFFFFFFFFFFFFFFFFFFFFFFFFFFFFF DUP3 AND DUP3 SUB PUSH2 0xA4E JUMPI JUMP JUMPDEST CALLDATALOAD SWAP1 PUSH20 0xFFFFFFFFFFFFFFFFFFFFFFFFFFFFFFFFFFFFFFFF DUP3 AND DUP3 SUB PUSH2 0xA4E JUMPI JUMP JUMPDEST SWAP2 DUP2 PUSH1 0x1F DUP5 ADD SLT ISZERO PUSH2 0xA4E JUMPI DUP3 CALLDATALOAD SWAP2 PUSH8 0xFFFFFFFFFFFFFFFF DUP4 GT PUSH2 0xA4E JUMPI PUSH1 0x20 DUP4 DUP2 DUP7 ADD SWAP6 ADD ADD GT PUSH2 0xA4E JUMPI JUMP JUMPDEST SWAP2 DUP2 PUSH1 0x1F DUP5 ADD SLT ISZERO PUSH2 0xA4E JUMPI DUP3 CALLDATALOAD SWAP2 PUSH8 0xFFFFFFFFFFFFFFFF DUP4 GT PUSH2 0xA4E JUMPI PUSH1 0x20 DUP1 DUP6 ADD SWAP5 DUP5 PUSH1 0x5 SHL ADD ADD GT PUSH2 0xA4E JUMPI JUMP JUMPDEST SWAP2 SWAP1 DUP3 MLOAD SWAP3 DUP4 DUP3 MSTORE PUSH1 0x0 JUMPDEST DUP5 DUP2 LT PUSH2 0xB40 JUMPI POP POP PUSH32 0xFFFFFFFFFFFFFFFFFFFFFFFFFFFFFFFFFFFFFFFFFFFFFFFFFFFFFFFFFFFFFFE0 PUSH1 0x1F DUP5 PUSH1 0x0 PUSH1 0x20 DUP1 SWAP7 SWAP8 DUP7 ADD ADD MSTORE ADD AND ADD ADD SWAP1 JUMP JUMPDEST PUSH1 0x20 DUP2 DUP4 ADD DUP2 ADD MLOAD DUP5 DUP4 ADD DUP3 ADD MSTORE ADD PUSH2 0xB01 JUMP JUMPDEST SWAP2 SWAP3 SWAP1 SWAP3 PUSH1 0x80 MSTORE DUP3 DUP2 SUB PUSH2 0x350D JUMPI SWAP2 SWAP1 PUSH1 0x0 SWAP1 JUMPDEST DUP3 DUP3 LT PUSH2 0xB75 JUMPI POP POP POP POP JUMP JUMPDEST DUP4 DUP3 SWAP6 SWAP4 SWAP5 SWAP6 LT ISZERO PUSH2 0x1B4C JUMPI PUSH1 0x5 SWAP3 DUP3 DUP5 SHL PUSH1 0x80 MLOAD ADD CALLDATALOAD PUSH32 0xFFFFFFFFFFFFFFFFFFFFFFFFFFFFFFFFFFFFFFFFFFFFFFFFFFFFFFFFFFFFFFE1 SWAP2 DUP3 PUSH1 0x80 MLOAD CALLDATASIZE SUB ADD DUP3 SLT ISZERO PUSH2 0xA4E JUMPI DUP2 PUSH1 0x80 MLOAD ADD CALLDATALOAD SWAP8 PUSH8 0xFFFFFFFFFFFFFFFF DUP10 GT PUSH2 0xA4E JUMPI PUSH1 0x20 DUP4 PUSH1 0x80 MLOAD ADD ADD SWAP9 DUP1 CALLDATASIZE SUB DUP11 SGT PUSH2 0xA4E JUMPI PUSH1 0x60 SWAP8 PUSH1 0x3F SWAP1 DUP2 DUP10 DUP10 ADD CALLDATALOAD PUSH1 0xF8 SHR AND PUSH1 0x1 SWAP8 PUSH1 0x20 DUP3 LT PUSH1 0x0 EQ PUSH2 0x3171 JUMPI POP PUSH1 0x10 DUP1 DUP3 LT ISZERO PUSH2 0x27B4 JUMPI POP PUSH1 0x8 DUP1 DUP3 LT ISZERO PUSH2 0x187E JUMPI POP DUP1 PUSH2 0x1091 JUMPI POP POP POP PUSH2 0xC2A SWAP1 DUP11 PUSH2 0x42B7 JUMP JUMPDEST SWAP3 SWAP1 SWAP9 PUSH1 0xA0 DUP6 PUSH1 0x80 MLOAD ADD ADD CALLDATALOAD PUSH1 0x0 EQ PUSH2 0x1087 JUMPI PUSH2 0xC61 PUSH20 0xFFFFFFFFFFFFFFFFFFFFFFFFFFFFFFFFFFFFFFFF PUSH1 0x1 SLOAD AND SWAP12 JUMPDEST CALLDATALOAD PUSH2 0x3854 JUMP JUMPDEST SWAP10 PUSH1 0x40 DUP7 PUSH1 0x80 MLOAD ADD ADD CALLDATALOAD DUP6 DUP3 SWAP14 SWAP3 PUSH32 0x8000000000000000000000000000000000000000000000000000000000000000 DUP4 EQ PUSH2 0xFCF JUMPI JUMPDEST POP SWAP6 SWAP13 SWAP6 POP JUMPDEST PUSH32 0x8000000000000000000000000000000000000000000000000000000000000000 DUP2 LT ISZERO PUSH2 0xA4E JUMPI PUSH1 0x42 DUP7 LT PUSH2 0xFC8 JUMPI ADDRESS SWAP2 JUMPDEST DUP7 PUSH1 0x2B GT PUSH2 0xA4E JUMPI DUP14 SWAP2 PUSH1 0x17 DUP4 ADD CALLDATALOAD PUSH1 0x60 SHR SWAP1 DUP4 CALLDATALOAD SWAP5 PUSH3 0xFFFFFF DUP7 PUSH1 0x60 SHR SWAP7 PUSH2 0xD15 PUSH20 0xFFFFFFFFFFFFFFFFFFFFFFFFFFFFFFFFFFFFFFFF SWAP3 DUP4 SWAP3 PUSH1 0x48 SHR AND DUP7 DUP11 PUSH2 0x4484 JUMP JUMPDEST AND SWAP1 DUP5 DUP9 LT ISZERO PUSH2 0xFAC JUMPI DUP1 PUSH5 0x1000276A4 SWAP7 JUMPDEST PUSH1 0x2B PUSH1 0x40 MLOAD SWAP10 PUSH1 0x40 PUSH1 0x20 DUP13 ADD MSTORE DUP2 PUSH1 0x60 DUP13 ADD MSTORE PUSH1 0x80 DUP12 ADD CALLDATACOPY PUSH1 0x0 PUSH1 0xAB DUP11 ADD MSTORE AND PUSH1 0x40 DUP9 ADD MSTORE PUSH1 0xA0 DUP8 MSTORE PUSH1 0xC0 DUP8 ADD SWAP6 DUP8 DUP8 LT PUSH8 0xFFFFFFFFFFFFFFFF DUP9 GT OR PUSH2 0xF7D JUMPI PUSH1 0x40 SWAP5 DUP3 DUP9 SWAP6 DUP7 DUP9 MSTORE PUSH32 0x128ACB0800000000000000000000000000000000000000000000000000000000 DUP8 MSTORE AND PUSH1 0xC4 DUP11 ADD MSTORE DUP7 DUP11 LT PUSH1 0xE4 DUP11 ADD MSTORE PUSH2 0x104 DUP10 ADD MSTORE AND PUSH2 0x124 DUP8 ADD MSTORE PUSH1 0xA0 PUSH2 0x144 DUP8 ADD MSTORE DUP2 PUSH1 0x0 PUSH32 0xFFFFFFFFFFFFFFFFFFFFFFFFFFFFFFFFFFFFFFFFFFFFFFFFFFFFFFFFFFFFFF40 DUP9 PUSH2 0xDEB PUSH2 0x164 DUP3 ADD DUP3 PUSH2 0xAF6 JUMP JUMPDEST SUB ADD SWAP3 GAS CALL SWAP3 DUP4 ISZERO PUSH2 0xF71 JUMPI PUSH1 0x0 SWAP3 DUP4 SWAP5 PUSH2 0xF2F JUMPI JUMPDEST POP POP PUSH2 0xE15 SWAP4 LT PUSH1 0x0 EQ PUSH2 0xF28 JUMPI POP PUSH2 0x42D4 JUMP JUMPDEST SWAP11 PUSH1 0x42 DUP6 LT PUSH2 0xE56 JUMPI ADDRESS SWAP1 DUP6 PUSH1 0x17 GT PUSH2 0xA4E JUMPI PUSH1 0x17 PUSH32 0xFFFFFFFFFFFFFFFFFFFFFFFFFFFFFFFFFFFFFFFFFFFFFFFFFFFFFFFFFFFFFFE9 SWAP2 ADD SWAP6 ADD SWAP5 SWAP12 PUSH2 0xC9D JUMP JUMPDEST POP SWAP9 POP SWAP9 PUSH1 0x60 SWAP2 SWAP7 SWAP6 SWAP8 SWAP5 SWAP4 SWAP3 POP SWAP2 PUSH1 0x80 MLOAD ADD ADD CALLDATALOAD GT PUSH2 0xEFE JUMPI JUMPDEST ISZERO DUP1 PUSH2 0xED1 JUMPI JUMPDEST PUSH2 0xE8A JUMPI POP PUSH1 0x1 ADD SWAP3 SWAP2 SWAP3 SWAP1 SWAP3 PUSH2 0xB68 JUMP JUMPDEST SWAP1 PUSH2 0xECD PUSH1 0x40 SWAP3 DUP4 MLOAD SWAP4 DUP5 SWAP4 PUSH32 0x2C4029E900000000000000000000000000000000000000000000000000000000 DUP6 MSTORE PUSH1 0x4 DUP6 ADD MSTORE PUSH1 0x24 DUP5 ADD MSTORE PUSH1 0x44 DUP4 ADD SWAP1 PUSH2 0xAF6 JUMP JUMPDEST SUB SWAP1 REVERT JUMPDEST POP PUSH32 0x8000000000000000000000000000000000000000000000000000000000000000 DUP3 DUP6 ADD CALLDATALOAD AND ISZERO PUSH2 0xE78 JUMP JUMPDEST PUSH1 0x4 PUSH1 0x40 MLOAD PUSH32 0x39D3549600000000000000000000000000000000000000000000000000000000 DUP2 MSTORE REVERT JUMPDEST SWAP1 POP PUSH2 0x42D4 JUMP JUMPDEST SWAP2 SWAP3 SWAP1 SWAP4 POP PUSH1 0x40 DUP5 RETURNDATASIZE PUSH1 0x40 GT PUSH2 0xF69 JUMPI JUMPDEST DUP2 PUSH2 0xF4D PUSH1 0x40 SWAP4 DUP7 PUSH2 0x35FA JUMP JUMPDEST DUP2 ADD SUB SLT PUSH2 0x387 JUMPI POP MLOAD PUSH1 0xE0 SWAP3 SWAP1 SWAP3 ADD MLOAD SWAP2 SWAP1 PUSH2 0xE15 CODESIZE PUSH2 0xE01 JUMP JUMPDEST RETURNDATASIZE SWAP2 POP PUSH2 0xF40 JUMP JUMPDEST PUSH1 0x40 MLOAD RETURNDATASIZE PUSH1 0x0 DUP3 RETURNDATACOPY RETURNDATASIZE SWAP1 REVERT JUMPDEST PUSH32 0x4E487B7100000000000000000000000000000000000000000000000000000000 PUSH1 0x0 MSTORE PUSH1 0x41 PUSH1 0x4 MSTORE PUSH1 0x24 PUSH1 0x0 REVERT JUMPDEST DUP1 PUSH20 0xFFFD8963EFD1FC6A506488495D951D5263988D25 SWAP7 PUSH2 0xD28 JUMP JUMPDEST DUP12 SWAP2 PUSH2 0xCD0 JUMP JUMPDEST PUSH1 0x14 SWAP2 SWAP3 POP LT PUSH2 0x105D JUMPI PUSH1 0x20 PUSH1 0x24 SWAP2 PUSH1 0x40 MLOAD SWAP3 DUP4 DUP1 SWAP3 PUSH32 0x70A0823100000000000000000000000000000000000000000000000000000000 DUP3 MSTORE ADDRESS PUSH1 0x4 DUP4 ADD MSTORE CALLDATALOAD PUSH1 0x60 SHR GAS STATICCALL SWAP1 DUP2 ISZERO PUSH2 0xF71 JUMPI PUSH1 0x0 SWAP2 PUSH2 0x102B JUMPI JUMPDEST POP CODESIZE DUP1 PUSH2 0xC97 JUMP JUMPDEST SWAP1 PUSH1 0x20 DUP3 RETURNDATASIZE PUSH1 0x20 GT PUSH2 0x1055 JUMPI JUMPDEST DUP2 PUSH2 0x1045 PUSH1 0x20 SWAP4 DUP4 PUSH2 0x35FA JUMP JUMPDEST DUP2 ADD SUB SLT PUSH2 0x387 JUMPI POP MLOAD CODESIZE PUSH2 0x1023 JUMP JUMPDEST RETURNDATASIZE SWAP2 POP PUSH2 0x1038 JUMP JUMPDEST PUSH1 0x4 PUSH1 0x40 MLOAD PUSH32 0x3B99B53D00000000000000000000000000000000000000000000000000000000 DUP2 MSTORE REVERT JUMPDEST PUSH2 0xC61 ADDRESS SWAP12 PUSH2 0xC5B JUMP JUMPDEST PUSH1 0x1 DUP2 SWAP14 SWAP7 SWAP14 SWAP12 SWAP9 SWAP8 SWAP5 SWAP6 SWAP11 SWAP10 SWAP12 EQ PUSH1 0x0 EQ PUSH2 0x11B7 JUMPI POP POP POP PUSH1 0x40 SWAP3 PUSH2 0x10BF DUP5 DUP4 PUSH1 0x80 MLOAD ADD ADD CALLDATALOAD SWAP4 DUP3 PUSH2 0x42B7 JUMP JUMPDEST PUSH1 0x80 MLOAD DUP5 ADD PUSH1 0xA0 ADD CALLDATALOAD ISZERO PUSH2 0x11AB JUMPI PUSH1 0x60 PUSH2 0x10F2 PUSH20 0xFFFFFFFFFFFFFFFFFFFFFFFFFFFFFFFFFFFFFFFF PUSH1 0x1 SLOAD AND SWAP5 CALLDATALOAD PUSH2 0x3854 JUMP JUMPDEST SWAP5 PUSH1 0x80 MLOAD ADD ADD CALLDATALOAD PUSH1 0x0 SSTORE PUSH32 0x8000000000000000000000000000000000000000000000000000000000000000 DUP6 LT ISZERO PUSH2 0xA4E JUMPI PUSH2 0x1131 SWAP4 PUSH2 0x20C DUP7 PUSH2 0x42D4 JUMP JUMPDEST SWAP1 SWAP2 SWAP1 ISZERO PUSH2 0x119C JUMPI POP PUSH2 0x1143 SWAP1 PUSH2 0x42D4 JUMP JUMPDEST SUB PUSH2 0x1173 JUMPI POP PUSH32 0xFFFFFFFFFFFFFFFFFFFFFFFFFFFFFFFFFFFFFFFFFFFFFFFFFFFFFFFFFFFFFFFF PUSH1 0x0 SSTORE JUMPDEST PUSH2 0xE71 JUMP JUMPDEST PUSH1 0x4 SWAP1 MLOAD PUSH32 0xD4E0248E00000000000000000000000000000000000000000000000000000000 DUP2 MSTORE REVERT JUMPDEST PUSH2 0x11A6 SWAP2 POP PUSH2 0x42D4 JUMP JUMPDEST PUSH2 0x1143 JUMP JUMPDEST PUSH1 0x60 PUSH2 0x10F2 ADDRESS SWAP5 PUSH2 0xC5B JUMP JUMPDEST SWAP2 SWAP5 SWAP3 SWAP4 SWAP2 PUSH1 0x2 DUP2 SUB PUSH2 0x1206 JUMPI POP POP POP PUSH2 0x116E SWAP3 POP PUSH20 0xFFFFFFFFFFFFFFFFFFFFFFFFFFFFFFFFFFFFFFFF PUSH1 0x1 SLOAD AND PUSH2 0x11FF PUSH1 0x40 PUSH1 0x60 DUP6 PUSH1 0x80 MLOAD ADD ADD CALLDATALOAD SWAP5 PUSH1 0x80 MLOAD ADD ADD CALLDATALOAD PUSH2 0x3854 JUMP JUMPDEST SWAP2 CALLDATALOAD PUSH2 0x3AEF JUMP JUMPDEST SWAP2 SWAP4 SWAP2 PUSH1 0x3 DUP2 SUB PUSH2 0x1578 JUMPI POP POP PUSH1 0x80 MLOAD DUP2 ADD DUP1 DUP5 ADD SWAP4 SWAP1 PUSH1 0x40 SWAP1 DUP6 SUB SLT PUSH2 0xA4E JUMPI DUP3 CALLDATALOAD PUSH8 0xFFFFFFFFFFFFFFFF DUP2 GT PUSH2 0xA4E JUMPI DUP3 PUSH1 0x80 MLOAD ADD ADD SWAP3 PUSH1 0x60 DUP5 DUP7 SUB SLT PUSH2 0xA4E JUMPI PUSH1 0x40 MLOAD SWAP5 PUSH1 0x60 DUP7 ADD DUP7 DUP2 LT PUSH8 0xFFFFFFFFFFFFFFFF DUP3 GT OR PUSH2 0xF7D JUMPI PUSH1 0x40 MSTORE PUSH1 0x20 DUP6 ADD CALLDATALOAD PUSH8 0xFFFFFFFFFFFFFFFF DUP2 GT PUSH2 0xA4E JUMPI DUP6 ADD PUSH1 0x20 DUP3 ADD DUP1 SWAP9 DUP3 ADD SLT ISZERO PUSH2 0xA4E JUMPI PUSH1 0x20 DUP2 ADD CALLDATALOAD SWAP1 PUSH2 0x129A DUP3 PUSH2 0x36A5 JUMP JUMPDEST SWAP3 PUSH2 0x12A8 PUSH1 0x40 MLOAD SWAP5 DUP6 PUSH2 0x35FA JUMP JUMPDEST DUP3 DUP5 MSTORE PUSH1 0x40 PUSH1 0x20 DUP6 ADD SWAP4 PUSH1 0x7 SHL DUP4 ADD ADD SWAP2 DUP11 DUP4 GT PUSH2 0xA4E JUMPI PUSH1 0x40 ADD SWAP3 JUMPDEST DUP3 DUP5 LT PUSH2 0x1513 JUMPI POP POP POP POP DUP6 MSTORE PUSH2 0x12DE PUSH1 0x40 DUP6 ADD PUSH2 0xA76 JUMP JUMPDEST SWAP6 PUSH1 0x20 DUP7 ADD SWAP7 DUP8 MSTORE PUSH1 0x60 PUSH1 0x40 DUP8 ADD SWAP6 ADD CALLDATALOAD DUP6 MSTORE PUSH1 0x40 DUP5 PUSH1 0x80 MLOAD ADD ADD CALLDATALOAD SWAP1 PUSH8 0xFFFFFFFFFFFFFFFF DUP3 GT PUSH2 0xA4E JUMPI PUSH1 0x20 PUSH2 0x131F SWAP3 PUSH2 0x1325 SWAP7 PUSH1 0x80 MLOAD ADD ADD ADD PUSH2 0x36D0 JUMP JUMPDEST POP PUSH2 0x429A JUMP JUMPDEST SWAP1 SWAP2 PUSH20 0xFFFFFFFFFFFFFFFFFFFFFFFFFFFFFFFFFFFFFFFF PUSH1 0x1 SLOAD AND SWAP5 PUSH20 0xFFFFFFFFFFFFFFFFFFFFFFFFFFFFFFFFFFFFFFFF PUSH32 0x0 AND EXTCODESIZE ISZERO PUSH2 0xA4E JUMPI SWAP5 SWAP3 SWAP4 SWAP2 SWAP1 PUSH1 0x40 MLOAD SWAP6 DUP7 SWAP5 PUSH32 0x2A2D80D100000000000000000000000000000000000000000000000000000000 DUP7 MSTORE PUSH1 0x4 DUP7 ADD MSTORE PUSH1 0x60 PUSH1 0x24 DUP7 ADD MSTORE PUSH1 0xC4 DUP6 ADD SWAP4 MLOAD SWAP4 PUSH1 0x60 PUSH1 0x64 DUP8 ADD MSTORE DUP5 MLOAD DUP1 SWAP2 MSTORE PUSH1 0x20 PUSH1 0xE4 DUP8 ADD SWAP6 ADD SWAP1 PUSH1 0x0 SWAP1 JUMPDEST DUP1 DUP3 LT PUSH2 0x149A JUMPI POP POP POP SWAP5 PUSH2 0x143E SWAP3 DUP6 SWAP5 SWAP3 PUSH20 0xFFFFFFFFFFFFFFFFFFFFFFFFFFFFFFFFFFFFFFFF PUSH1 0x0 SWAP9 MLOAD AND PUSH1 0x84 DUP8 ADD MSTORE MLOAD PUSH1 0xA4 DUP7 ADD MSTORE PUSH32 0xFFFFFFFFFFFFFFFFFFFFFFFFFFFFFFFFFFFFFFFFFFFFFFFFFFFFFFFFFFFFFFFC DUP6 DUP5 SUB ADD PUSH1 0x44 DUP7 ADD MSTORE PUSH2 0x3537 JUMP JUMPDEST SUB DUP2 DUP4 PUSH20 0xFFFFFFFFFFFFFFFFFFFFFFFFFFFFFFFFFFFFFFFF PUSH32 0x0 AND GAS CALL DUP1 ISZERO PUSH2 0xF71 JUMPI PUSH2 0x148B JUMPI JUMPDEST POP PUSH2 0xE71 JUMP JUMPDEST PUSH2 0x1494 SWAP1 PUSH2 0x3576 JUMP JUMPDEST CODESIZE PUSH2 0x1485 JUMP JUMPDEST SWAP2 SWAP8 SWAP7 POP SWAP2 SWAP3 SWAP4 SWAP5 PUSH1 0x20 PUSH1 0x80 PUSH1 0x1 SWAP3 DUP11 MLOAD PUSH20 0xFFFFFFFFFFFFFFFFFFFFFFFFFFFFFFFFFFFFFFFF DUP2 MLOAD AND DUP3 MSTORE PUSH20 0xFFFFFFFFFFFFFFFFFFFFFFFFFFFFFFFFFFFFFFFF DUP5 DUP3 ADD MLOAD AND DUP5 DUP4 ADD MSTORE PUSH1 0x60 PUSH6 0xFFFFFFFFFFFF SWAP2 DUP3 PUSH1 0x40 DUP3 ADD MLOAD AND PUSH1 0x40 DUP6 ADD MSTORE ADD MLOAD AND PUSH1 0x60 DUP3 ADD MSTORE ADD SWAP9 ADD SWAP3 ADD DUP9 SWAP7 SWAP8 SWAP6 SWAP5 SWAP4 SWAP3 SWAP2 PUSH2 0x13D8 JUMP JUMPDEST PUSH1 0x80 PUSH1 0x20 DUP6 DUP5 SUB ADD SLT PUSH2 0xA4E JUMPI PUSH1 0x20 PUSH1 0x80 SWAP2 PUSH1 0x40 MLOAD PUSH2 0x1531 DUP2 PUSH2 0x358A JUMP JUMPDEST PUSH2 0x153A DUP8 PUSH2 0xA76 JUMP JUMPDEST DUP2 MSTORE PUSH2 0x1547 DUP4 DUP9 ADD PUSH2 0xA76 JUMP JUMPDEST DUP4 DUP3 ADD MSTORE PUSH2 0x1557 PUSH1 0x40 DUP9 ADD PUSH2 0x36BD JUMP JUMPDEST PUSH1 0x40 DUP3 ADD MSTORE PUSH2 0x1568 PUSH1 0x60 DUP9 ADD PUSH2 0x36BD JUMP JUMPDEST PUSH1 0x60 DUP3 ADD MSTORE DUP2 MSTORE ADD SWAP4 ADD SWAP3 PUSH2 0x12C5 JUMP JUMPDEST PUSH1 0x4 SWAP6 POP SWAP2 SWAP4 POP DUP5 DUP3 SUB PUSH2 0x16E7 JUMPI POP POP SWAP1 SWAP2 PUSH1 0x40 PUSH1 0x60 PUSH2 0x159E DUP3 DUP7 PUSH1 0x80 MLOAD ADD ADD CALLDATALOAD PUSH2 0x3854 JUMP JUMPDEST PUSH1 0x80 MLOAD SWAP1 SWAP6 ADD ADD CALLDATALOAD PUSH20 0xFFFFFFFFFFFFFFFFFFFFFFFFFFFFFFFFFFFFFFFF SWAP1 DUP2 AND SWAP4 CALLDATALOAD AND DUP1 PUSH2 0x1614 JUMPI POP SELFBALANCE SWAP3 DUP4 LT PUSH2 0x15EE JUMPI POP POP DUP1 PUSH2 0x15DE JUMPI JUMPDEST POP POP PUSH2 0xE71 JUMP JUMPDEST PUSH2 0x15E7 SWAP2 PUSH2 0x3984 JUMP JUMPDEST CODESIZE DUP1 PUSH2 0x15D7 JUMP JUMPDEST MLOAD PUSH32 0x6A12F10400000000000000000000000000000000000000000000000000000000 DUP2 MSTORE REVERT JUMPDEST SWAP4 SWAP2 SWAP1 DUP1 MLOAD SWAP4 PUSH32 0x70A0823100000000000000000000000000000000000000000000000000000000 DUP6 MSTORE ADDRESS DUP4 DUP7 ADD MSTORE PUSH1 0x20 DUP6 PUSH1 0x24 DUP2 DUP10 GAS STATICCALL SWAP5 DUP6 ISZERO PUSH2 0x16DC JUMPI PUSH1 0x0 SWAP6 PUSH2 0x16A8 JUMPI JUMPDEST POP DUP5 LT PUSH2 0x1682 JUMPI POP POP DUP2 PUSH2 0x1671 JUMPI JUMPDEST POP POP POP PUSH2 0xE71 JUMP JUMPDEST PUSH2 0x167A SWAP3 PUSH2 0x39F2 JUMP JUMPDEST CODESIZE DUP1 DUP1 PUSH2 0x1669 JUMP JUMPDEST MLOAD PUSH32 0x675CAE3800000000000000000000000000000000000000000000000000000000 DUP2 MSTORE REVERT JUMPDEST SWAP1 SWAP5 PUSH1 0x20 DUP3 RETURNDATASIZE PUSH1 0x20 GT PUSH2 0x16D4 JUMPI JUMPDEST DUP2 PUSH2 0x16C3 PUSH1 0x20 SWAP4 DUP4 PUSH2 0x35FA JUMP JUMPDEST DUP2 ADD SUB SLT PUSH2 0x387 JUMPI POP MLOAD SWAP4 CODESIZE PUSH2 0x165A JUMP JUMPDEST RETURNDATASIZE SWAP2 POP PUSH2 0x16B6 JUMP JUMPDEST DUP3 MLOAD RETURNDATASIZE PUSH1 0x0 DUP3 RETURNDATACOPY RETURNDATASIZE SWAP1 REVERT JUMPDEST DUP2 SUB PUSH2 0x1714 JUMPI POP PUSH2 0x116E SWAP3 POP PUSH2 0x170D PUSH1 0x40 PUSH1 0x60 DUP5 PUSH1 0x80 MLOAD ADD ADD CALLDATALOAD SWAP4 PUSH1 0x80 MLOAD ADD ADD CALLDATALOAD PUSH2 0x3854 JUMP JUMPDEST SWAP1 CALLDATALOAD PUSH2 0x38A5 JUMP JUMPDEST SWAP1 SWAP2 SWAP1 PUSH1 0x6 DUP2 SUB PUSH2 0x184E JUMPI POP PUSH1 0x80 MLOAD ADD PUSH1 0x60 DUP2 ADD CALLDATALOAD SWAP1 PUSH1 0x40 SWAP1 PUSH2 0x1739 SWAP1 DUP3 ADD CALLDATALOAD PUSH2 0x3854 JUMP JUMPDEST SWAP3 DUP3 ISZERO DUP1 ISZERO PUSH2 0x1843 JUMPI JUMPDEST PUSH2 0x181B JUMPI CALLDATALOAD PUSH20 0xFFFFFFFFFFFFFFFFFFFFFFFFFFFFFFFFFFFFFFFF AND SWAP4 DUP5 PUSH2 0x177F JUMPI POP POP PUSH2 0x116E SWAP3 POP PUSH2 0x1778 PUSH2 0x2710 SWAP2 SELFBALANCE PUSH2 0x3AA3 JUMP JUMPDEST DIV SWAP1 PUSH2 0x3984 JUMP JUMPDEST DUP2 MLOAD SWAP1 PUSH32 0x70A0823100000000000000000000000000000000000000000000000000000000 DUP3 MSTORE ADDRESS SWAP1 DUP3 ADD MSTORE PUSH1 0x20 DUP2 PUSH1 0x24 DUP2 DUP9 GAS STATICCALL SWAP2 DUP3 ISZERO PUSH2 0x1811 JUMPI POP PUSH1 0x0 SWAP2 PUSH2 0x17DD JUMPI JUMPDEST POP PUSH2 0x17D6 PUSH2 0x116E SWAP5 SWAP4 SWAP3 PUSH2 0x2710 SWAP3 PUSH2 0x3AA3 JUMP JUMPDEST DIV SWAP2 PUSH2 0x39F2 JUMP JUMPDEST SWAP1 PUSH1 0x20 DUP3 RETURNDATASIZE PUSH1 0x20 GT PUSH2 0x1809 JUMPI JUMPDEST DUP2 PUSH2 0x17F7 PUSH1 0x20 SWAP4 DUP4 PUSH2 0x35FA JUMP JUMPDEST DUP2 ADD SUB SLT PUSH2 0x387 JUMPI POP MLOAD PUSH2 0x17D6 PUSH2 0x17C3 JUMP JUMPDEST RETURNDATASIZE SWAP2 POP PUSH2 0x17EA JUMP JUMPDEST MLOAD RETURNDATASIZE PUSH1 0x0 DUP3 RETURNDATACOPY RETURNDATASIZE SWAP1 REVERT JUMPDEST DUP5 DUP3 MLOAD PUSH32 0xDEAA01E600000000000000000000000000000000000000000000000000000000 DUP2 MSTORE REVERT JUMPDEST POP PUSH2 0x2710 DUP4 GT PUSH2 0x1743 JUMP JUMPDEST DUP4 PUSH1 0x24 SWAP2 PUSH1 0x40 MLOAD SWAP2 PUSH32 0xD76A1E9E00000000000000000000000000000000000000000000000000000000 DUP4 MSTORE DUP3 ADD MSTORE REVERT JUMPDEST DUP2 SWAP14 SWAP7 SWAP14 SWAP12 SWAP9 SWAP8 SWAP5 SWAP6 SWAP11 SWAP10 SWAP12 SWAP4 SWAP3 SWAP4 EQ PUSH1 0x0 EQ PUSH2 0x1B85 JUMPI POP POP POP PUSH1 0x40 SWAP2 PUSH2 0x18AD DUP4 DUP4 PUSH1 0x80 MLOAD ADD ADD CALLDATALOAD SWAP2 DUP6 PUSH2 0x42B7 JUMP JUMPDEST SWAP3 SWAP1 SWAP5 PUSH1 0xA0 DUP3 PUSH1 0x80 MLOAD ADD ADD CALLDATALOAD PUSH1 0x0 EQ PUSH2 0x1B7B JUMPI PUSH2 0x18E3 PUSH20 0xFFFFFFFFFFFFFFFFFFFFFFFFFFFFFFFFFFFFFFFF PUSH1 0x1 SLOAD AND SWAP2 CALLDATALOAD PUSH2 0x3854 JUMP JUMPDEST SWAP1 DUP7 ISZERO PUSH2 0x1B4C JUMPI PUSH2 0x18F3 DUP6 PUSH2 0x3BB3 JUMP JUMPDEST DUP8 PUSH1 0x1 LT ISZERO PUSH2 0x1B4C JUMPI PUSH2 0x1915 PUSH2 0x195D SWAP2 PUSH2 0x190F PUSH1 0x20 DUP10 ADD PUSH2 0x3BB3 JUMP JUMPDEST SWAP1 PUSH2 0x3D53 JUMP JUMPDEST SWAP1 PUSH32 0x0 PUSH32 0x0 PUSH2 0x3C4B JUMP JUMPDEST SWAP4 DUP5 DUP2 PUSH2 0x1B32 JUMPI JUMPDEST POP POP POP PUSH32 0xFFFFFFFFFFFFFFFFFFFFFFFFFFFFFFFFFFFFFFFFFFFFFFFFFFFFFFFFFFFFFFFF DUP7 ADD SWAP4 DUP7 DUP6 GT PUSH2 0x1B03 JUMPI PUSH2 0x19B9 SWAP5 PUSH2 0x19BE PUSH20 0xFFFFFFFFFFFFFFFFFFFFFFFFFFFFFFFFFFFFFFFF SWAP7 DUP8 SWAP3 DUP11 DUP6 PUSH2 0x3BA3 JUMP JUMPDEST PUSH2 0x3BB3 JUMP JUMPDEST AND SWAP5 DUP7 MLOAD SWAP5 PUSH32 0x70A0823100000000000000000000000000000000000000000000000000000000 SWAP2 DUP3 DUP8 MSTORE DUP5 AND SWAP4 PUSH1 0x4 SWAP10 DUP6 DUP12 DUP10 ADD MSTORE PUSH1 0x24 SWAP5 PUSH1 0x20 DUP10 DUP8 DUP2 DUP14 GAS STATICCALL SWAP9 DUP10 ISZERO PUSH2 0x1AF8 JUMPI PUSH1 0x0 SWAP10 PUSH2 0x1AC3 JUMPI JUMPDEST POP SWAP2 PUSH1 0x20 SWAP7 SWAP6 SWAP5 SWAP4 SWAP2 PUSH2 0x1A1F SWAP4 PUSH2 0x3DCC JUMP JUMPDEST DUP8 MLOAD SWAP7 DUP8 SWAP4 DUP5 SWAP3 DUP4 MSTORE DUP11 DUP4 ADD MSTORE GAS STATICCALL SWAP3 DUP4 ISZERO PUSH2 0x1AB8 JUMPI PUSH1 0x0 SWAP4 PUSH2 0x1A83 JUMPI JUMPDEST POP SWAP1 PUSH1 0x60 PUSH2 0x1A51 SWAP3 PUSH1 0x80 MLOAD ADD ADD CALLDATALOAD SWAP3 PUSH2 0x3BD4 JUMP JUMPDEST LT PUSH2 0x1A5D JUMPI POP POP PUSH2 0xE71 JUMP JUMPDEST MLOAD PUSH32 0x849EAF9800000000000000000000000000000000000000000000000000000000 DUP2 MSTORE REVERT JUMPDEST SWAP1 SWAP3 PUSH1 0x20 DUP3 RETURNDATASIZE PUSH1 0x20 GT PUSH2 0x1AB0 JUMPI JUMPDEST DUP2 PUSH2 0x1A9E PUSH1 0x20 SWAP4 DUP4 PUSH2 0x35FA JUMP JUMPDEST DUP2 ADD SUB SLT PUSH2 0x387 JUMPI POP MLOAD SWAP2 PUSH1 0x60 PUSH2 0x1A3D JUMP JUMPDEST RETURNDATASIZE SWAP2 POP PUSH2 0x1A91 JUMP JUMPDEST DUP5 MLOAD RETURNDATASIZE PUSH1 0x0 DUP3 RETURNDATACOPY RETURNDATASIZE SWAP1 REVERT JUMPDEST SWAP1 SWAP9 PUSH1 0x20 DUP3 RETURNDATASIZE PUSH1 0x20 GT PUSH2 0x1AF0 JUMPI JUMPDEST DUP2 PUSH2 0x1ADE PUSH1 0x20 SWAP4 DUP4 PUSH2 0x35FA JUMP JUMPDEST DUP2 ADD SUB SLT PUSH2 0x387 JUMPI POP MLOAD SWAP8 PUSH1 0x20 PUSH2 0x1A0D JUMP JUMPDEST RETURNDATASIZE SWAP2 POP PUSH2 0x1AD1 JUMP JUMPDEST DUP12 MLOAD RETURNDATASIZE PUSH1 0x0 DUP3 RETURNDATACOPY RETURNDATASIZE SWAP1 REVERT JUMPDEST PUSH32 0x4E487B7100000000000000000000000000000000000000000000000000000000 PUSH1 0x0 MSTORE PUSH1 0x11 PUSH1 0x4 MSTORE PUSH1 0x24 PUSH1 0x0 REVERT JUMPDEST PUSH2 0x1B44 SWAP3 PUSH2 0x1B3F DUP9 PUSH2 0x3BB3 JUMP JUMPDEST PUSH2 0x3BE1 JUMP JUMPDEST CODESIZE DUP1 DUP5 PUSH2 0x1965 JUMP JUMPDEST PUSH32 0x4E487B7100000000000000000000000000000000000000000000000000000000 PUSH1 0x0 MSTORE PUSH1 0x32 PUSH1 0x4 MSTORE PUSH1 0x24 PUSH1 0x0 REVERT JUMPDEST PUSH2 0x18E3 ADDRESS SWAP2 PUSH2 0xC5B JUMP JUMPDEST SWAP2 SWAP5 SWAP3 SWAP4 SWAP2 PUSH1 0x9 DUP2 SUB PUSH2 0x1F66 JUMPI POP POP PUSH2 0x1B9E SWAP1 DUP3 PUSH2 0x42B7 JUMP JUMPDEST PUSH1 0x80 MLOAD DUP5 ADD PUSH1 0xA0 ADD CALLDATALOAD ISZERO PUSH2 0x1F5C JUMPI PUSH2 0x1BCF PUSH20 0xFFFFFFFFFFFFFFFFFFFFFFFFFFFFFFFFFFFFFFFF PUSH1 0x1 SLOAD AND SWAP4 CALLDATALOAD PUSH2 0x3854 JUMP JUMPDEST SWAP3 PUSH2 0x1BD9 DUP4 PUSH2 0x36A5 JUMP JUMPDEST SWAP6 PUSH2 0x1BE7 PUSH1 0x40 MLOAD SWAP8 DUP9 PUSH2 0x35FA JUMP JUMPDEST DUP4 DUP8 MSTORE DUP4 SWAP1 SHL DUP3 ADD PUSH1 0x20 DUP8 ADD CALLDATASIZE DUP3 GT PUSH2 0xA4E JUMPI DUP4 SWAP1 JUMPDEST DUP3 DUP3 LT PUSH2 0x1F44 JUMPI POP POP POP PUSH1 0x0 SWAP5 PUSH1 0x2 DUP8 MLOAD LT PUSH2 0x1F1A JUMPI PUSH1 0x40 DUP2 PUSH1 0x80 MLOAD ADD ADD CALLDATALOAD SWAP7 DUP1 MLOAD PUSH32 0xFFFFFFFFFFFFFFFFFFFFFFFFFFFFFFFFFFFFFFFFFFFFFFFFFFFFFFFFFFFFFFFF DUP2 ADD SWAP1 DUP2 GT PUSH2 0x1B03 JUMPI SWAP1 DUP2 JUMPDEST PUSH2 0x1CA7 JUMPI POP POP PUSH1 0x80 MLOAD ADD PUSH1 0x60 ADD CALLDATALOAD DUP7 GT PUSH2 0x1C7D JUMPI DUP3 ISZERO PUSH2 0x1B4C JUMPI PUSH2 0x116E SWAP6 DUP6 PUSH2 0x1C78 SWAP3 PUSH2 0x1B3F DUP6 PUSH2 0x3BB3 JUMP JUMPDEST PUSH2 0x3DCC JUMP JUMPDEST PUSH1 0x4 PUSH1 0x40 MLOAD PUSH32 0x8AB0BC1600000000000000000000000000000000000000000000000000000000 DUP2 MSTORE REVERT JUMPDEST SWAP1 SWAP8 PUSH32 0xFFFFFFFFFFFFFFFFFFFFFFFFFFFFFFFFFFFFFFFFFFFFFFFFFFFFFFFFFFFFFFFF DUP10 ADD SWAP8 POP DUP9 DUP9 GT PUSH2 0x1B03 JUMPI PUSH20 0xFFFFFFFFFFFFFFFFFFFFFFFFFFFFFFFFFFFFFFFF PUSH2 0x1CF7 PUSH2 0x1D6D SWAP10 DUP5 PUSH2 0x3B8F JUMP JUMPDEST MLOAD AND PUSH2 0x1D23 PUSH20 0xFFFFFFFFFFFFFFFFFFFFFFFFFFFFFFFFFFFFFFFF PUSH2 0x1D1B DUP13 DUP7 PUSH2 0x3B8F JUMP JUMPDEST MLOAD AND DUP3 PUSH2 0x3D53 JUMP JUMPDEST DUP2 SWAP11 SWAP2 PUSH32 0x0 PUSH32 0x0 PUSH2 0x3C4B JUMP JUMPDEST SWAP1 PUSH1 0x40 MLOAD SWAP1 PUSH32 0x902F1AC00000000000000000000000000000000000000000000000000000000 DUP3 MSTORE PUSH1 0x60 DUP3 PUSH1 0x4 DUP2 PUSH20 0xFFFFFFFFFFFFFFFFFFFFFFFFFFFFFFFFFFFFFFFF DUP8 AND GAS STATICCALL SWAP11 DUP12 ISZERO PUSH2 0xF71 JUMPI PUSH1 0x0 SWAP3 DUP4 SWAP13 PUSH2 0x1ED1 JUMPI JUMPDEST POP PUSH20 0xFFFFFFFFFFFFFFFFFFFFFFFFFFFFFFFFFFFFFFFF AND SUB PUSH2 0x1EB7 JUMPI PUSH14 0xFFFFFFFFFFFFFFFFFFFFFFFFFFFF DUP1 SWAP2 AND SWAP10 AND SWAP1 JUMPDEST SWAP9 DUP1 ISZERO DUP1 ISZERO PUSH2 0x1EAF JUMPI JUMPDEST PUSH2 0x1E85 JUMPI DUP3 PUSH2 0x1E0F SWAP2 PUSH2 0x3AA3 JUMP JUMPDEST SWAP2 PUSH2 0x3E8 SWAP3 DUP4 DUP2 MUL SWAP4 DUP2 DUP6 DIV EQ SWAP1 ISZERO OR ISZERO PUSH2 0x1B03 JUMPI PUSH2 0x1E2D SWAP2 PUSH2 0x3BD4 JUMP JUMPDEST PUSH2 0x3E5 SWAP1 DUP2 DUP2 MUL SWAP2 DUP2 DUP4 DIV EQ SWAP1 ISZERO OR ISZERO PUSH2 0x1B03 JUMPI PUSH2 0x1E4A SWAP2 PUSH2 0x3AB6 JUMP JUMPDEST PUSH1 0x1 DUP2 ADD DUP1 SWAP2 GT PUSH2 0x1B03 JUMPI SWAP8 DUP1 ISZERO PUSH2 0x1B03 JUMPI PUSH32 0xFFFFFFFFFFFFFFFFFFFFFFFFFFFFFFFFFFFFFFFFFFFFFFFFFFFFFFFFFFFFFFFF ADD SWAP1 DUP2 PUSH2 0x1C4C JUMP JUMPDEST PUSH1 0x4 PUSH1 0x40 MLOAD PUSH32 0x7B9C891600000000000000000000000000000000000000000000000000000000 DUP2 MSTORE REVERT JUMPDEST POP DUP2 ISZERO PUSH2 0x1E01 JUMP JUMPDEST PUSH14 0xFFFFFFFFFFFFFFFFFFFFFFFFFFFF SWAP10 DUP11 AND SWAP10 AND SWAP1 PUSH2 0x1DF7 JUMP JUMPDEST PUSH2 0x1F0A SWAP2 SWAP13 POP PUSH20 0xFFFFFFFFFFFFFFFFFFFFFFFFFFFFFFFFFFFFFFFF SWAP4 POP PUSH1 0x60 RETURNDATASIZE DUP2 GT PUSH2 0x1F13 JUMPI JUMPDEST PUSH2 0x1F02 DUP2 DUP4 PUSH2 0x35FA JUMP JUMPDEST DUP2 ADD SWAP1 PUSH2 0x3D96 JUMP JUMPDEST POP SWAP12 SWAP1 SWAP3 PUSH2 0x1DC5 JUMP JUMPDEST POP RETURNDATASIZE PUSH2 0x1EF8 JUMP JUMPDEST PUSH1 0x4 PUSH1 0x40 MLOAD PUSH32 0x20DB826700000000000000000000000000000000000000000000000000000000 DUP2 MSTORE REVERT JUMPDEST PUSH1 0x20 DUP1 SWAP2 PUSH2 0x1F51 DUP5 PUSH2 0xA76 JUMP JUMPDEST DUP2 MSTORE ADD SWAP2 ADD SWAP1 PUSH2 0x1BFD JUMP JUMPDEST PUSH2 0x1BCF ADDRESS SWAP4 PUSH2 0xC5B JUMP JUMPDEST SWAP3 SWAP5 POP SWAP2 PUSH1 0xA DUP2 SUB PUSH2 0x20CC JUMPI POP PUSH1 0x80 MLOAD DUP4 ADD PUSH1 0xE0 DUP2 ADD CALLDATALOAD DUP2 ADD SWAP5 PUSH1 0x20 DUP1 DUP8 ADD CALLDATALOAD SWAP5 POP SWAP1 SWAP3 SWAP2 PUSH2 0x1F99 SWAP2 SWAP1 DUP8 SUB ADD DUP5 PUSH2 0x426C JUMP JUMPDEST GT PUSH2 0x105D JUMPI PUSH20 0xFFFFFFFFFFFFFFFFFFFFFFFFFFFFFFFFFFFFFFFF SWAP4 DUP5 PUSH32 0x0 AND SWAP3 DUP6 PUSH1 0x1 SLOAD AND SWAP2 DUP5 EXTCODESIZE ISZERO PUSH2 0xA4E JUMPI PUSH1 0x40 SWAP6 DUP8 DUP8 MLOAD SWAP9 DUP10 SWAP7 DUP8 SWAP7 PUSH32 0x2B67B57000000000000000000000000000000000000000000000000000000000 DUP9 MSTORE PUSH1 0x4 DUP9 ADD MSTORE PUSH2 0x2021 SWAP1 PUSH2 0xA76 JUMP JUMPDEST AND PUSH1 0x24 DUP7 ADD MSTORE DUP1 DUP9 DUP4 PUSH1 0x80 MLOAD ADD ADD PUSH2 0x2038 SWAP1 PUSH2 0xA76 JUMP JUMPDEST AND PUSH1 0x44 DUP7 ADD MSTORE PUSH6 0xFFFFFFFFFFFF DUP1 DUP4 PUSH1 0x80 MLOAD ADD PUSH1 0x60 ADD PUSH2 0x2057 SWAP1 PUSH2 0x36BD JUMP JUMPDEST AND PUSH1 0x64 DUP8 ADD MSTORE DUP3 PUSH1 0x80 MLOAD ADD PUSH1 0x80 ADD PUSH2 0x206E SWAP1 PUSH2 0x36BD JUMP JUMPDEST AND PUSH1 0x84 DUP7 ADD MSTORE DUP2 PUSH1 0x80 MLOAD ADD PUSH1 0xA0 ADD PUSH2 0x2085 SWAP1 PUSH2 0xA76 JUMP JUMPDEST AND PUSH1 0xA4 DUP6 ADD MSTORE PUSH1 0x80 MLOAD ADD PUSH1 0xC0 ADD CALLDATALOAD PUSH1 0xC4 DUP5 ADD MSTORE PUSH2 0x100 PUSH1 0xE4 DUP5 ADD MSTORE PUSH2 0x20B1 SWAP2 PUSH2 0x104 DUP5 ADD SWAP2 DUP8 ADD PUSH2 0x3537 JUMP JUMPDEST SUB DUP2 GAS PUSH1 0x0 SWAP5 DUP6 SWAP2 CALL SWAP1 DUP2 ISZERO PUSH2 0x1811 JUMPI POP PUSH2 0x148B JUMPI POP PUSH2 0xE71 JUMP JUMPDEST PUSH1 0xB DUP2 SUB PUSH2 0x2296 JUMPI POP POP POP PUSH2 0x20EB PUSH1 0x40 DUP1 SWAP3 PUSH1 0x80 MLOAD ADD ADD CALLDATALOAD SWAP3 CALLDATALOAD PUSH2 0x3854 JUMP JUMPDEST SWAP2 DUP1 PUSH32 0x8000000000000000000000000000000000000000000000000000000000000000 DUP2 SUB PUSH2 0x2266 JUMPI POP POP SELFBALANCE JUMPDEST DUP1 PUSH2 0x2125 JUMPI POP POP POP PUSH2 0xE71 JUMP JUMPDEST PUSH20 0xFFFFFFFFFFFFFFFFFFFFFFFFFFFFFFFFFFFFFFFF SWAP1 DUP2 PUSH32 0x0 AND DUP1 EXTCODESIZE ISZERO PUSH2 0xA4E JUMPI DUP4 MLOAD SWAP3 PUSH32 0xD0E30DB000000000000000000000000000000000000000000000000000000000 DUP5 MSTORE PUSH1 0x4 SWAP4 PUSH1 0x0 DUP2 DUP7 DUP2 DUP8 DUP8 GAS CALL DUP1 ISZERO PUSH2 0x225B JUMPI PUSH2 0x224C JUMPI JUMPDEST POP ADDRESS SWAP1 DUP7 AND SUB PUSH2 0x21B4 JUMPI JUMPDEST POP POP PUSH2 0x1669 JUMP JUMPDEST PUSH2 0x2213 SWAP5 PUSH1 0x0 PUSH1 0x20 SWAP5 DUP7 MLOAD SWAP8 DUP9 SWAP6 DUP7 SWAP5 DUP6 SWAP4 PUSH32 0xA9059CBB00000000000000000000000000000000000000000000000000000000 DUP6 MSTORE DUP5 ADD PUSH1 0x20 SWAP1 SWAP4 SWAP3 SWAP2 SWAP4 PUSH20 0xFFFFFFFFFFFFFFFFFFFFFFFFFFFFFFFFFFFFFFFF PUSH1 0x40 DUP3 ADD SWAP6 AND DUP2 MSTORE ADD MSTORE JUMP JUMPDEST SUB SWAP3 GAS CALL SWAP1 DUP2 ISZERO PUSH2 0x1811 JUMPI POP PUSH2 0x222D JUMPI JUMPDEST DUP1 DUP1 DUP1 DUP1 PUSH2 0x21AD JUMP JUMPDEST PUSH2 0x2245 SWAP1 PUSH1 0x20 RETURNDATASIZE PUSH1 0x20 GT PUSH2 0x635 JUMPI PUSH2 0x626 DUP2 DUP4 PUSH2 0x35FA JUMP JUMPDEST POP CODESIZE PUSH2 0x2224 JUMP JUMPDEST PUSH2 0x2255 SWAP1 PUSH2 0x3576 JUMP JUMPDEST CODESIZE PUSH2 0x21A2 JUMP JUMPDEST DUP7 MLOAD RETURNDATASIZE PUSH1 0x0 DUP3 RETURNDATACOPY RETURNDATASIZE SWAP1 REVERT JUMPDEST SELFBALANCE LT ISZERO PUSH2 0x2118 JUMPI PUSH1 0x4 DUP3 MLOAD PUSH32 0x6A12F10400000000000000000000000000000000000000000000000000000000 DUP2 MSTORE REVERT JUMPDEST PUSH1 0xC DUP2 SUB PUSH2 0x2426 JUMPI POP POP POP SWAP1 PUSH2 0x22AC SWAP1 CALLDATALOAD PUSH2 0x3854 JUMP JUMPDEST SWAP1 PUSH20 0xFFFFFFFFFFFFFFFFFFFFFFFFFFFFFFFFFFFFFFFF DUP1 PUSH32 0x0 AND PUSH1 0x40 DUP1 MLOAD SWAP4 PUSH32 0x70A0823100000000000000000000000000000000000000000000000000000000 DUP6 MSTORE PUSH1 0x4 ADDRESS DUP2 DUP8 ADD MSTORE PUSH1 0x24 SWAP2 PUSH1 0x20 DUP8 DUP5 DUP2 DUP9 GAS STATICCALL SWAP7 DUP8 ISZERO PUSH2 0x1AB8 JUMPI PUSH1 0x0 SWAP8 PUSH2 0x23F2 JUMPI JUMPDEST POP PUSH1 0x80 MLOAD ADD DUP4 ADD CALLDATALOAD DUP7 LT PUSH2 0x23CB JUMPI DUP6 PUSH2 0x234E JUMPI JUMPDEST POP POP POP POP POP POP POP PUSH2 0xE71 JUMP JUMPDEST DUP4 EXTCODESIZE ISZERO PUSH2 0xA4E JUMPI PUSH1 0x0 SWAP2 DUP7 SWAP2 DUP4 DUP6 MLOAD SWAP7 DUP8 SWAP5 DUP6 SWAP4 PUSH32 0x2E1A7D4D00000000000000000000000000000000000000000000000000000000 DUP6 MSTORE DUP5 ADD MSTORE GAS CALL SWAP1 DUP2 ISZERO PUSH2 0x1811 JUMPI POP PUSH2 0x23BC JUMPI JUMPDEST POP ADDRESS SWAP1 DUP4 AND SUB PUSH2 0x23AC JUMPI JUMPDEST DUP1 DUP1 DUP1 DUP1 DUP1 PUSH2 0x2342 JUMP JUMPDEST PUSH2 0x23B5 SWAP2 PUSH2 0x3984 JUMP JUMPDEST CODESIZE DUP1 PUSH2 0x23A2 JUMP JUMPDEST PUSH2 0x23C5 SWAP1 PUSH2 0x3576 JUMP JUMPDEST CODESIZE PUSH2 0x2397 JUMP JUMPDEST DUP3 MLOAD PUSH32 0x6A12F10400000000000000000000000000000000000000000000000000000000 DUP2 MSTORE REVERT JUMPDEST SWAP1 SWAP7 PUSH1 0x20 DUP3 RETURNDATASIZE PUSH1 0x20 GT PUSH2 0x241E JUMPI JUMPDEST DUP2 PUSH2 0x240D PUSH1 0x20 SWAP4 DUP4 PUSH2 0x35FA JUMP JUMPDEST DUP2 ADD SUB SLT PUSH2 0x387 JUMPI POP MLOAD SWAP6 DUP4 PUSH2 0x232E JUMP JUMPDEST RETURNDATASIZE SWAP2 POP PUSH2 0x2400 JUMP JUMPDEST PUSH1 0xD DUP2 SUB PUSH2 0x2681 JUMPI POP DUP3 PUSH1 0x80 MLOAD ADD ADD SWAP2 PUSH1 0x20 DUP4 ADD SWAP4 PUSH1 0x20 DUP3 PUSH1 0x80 MLOAD ADD DUP6 SUB SLT PUSH2 0xA4E JUMPI CALLDATALOAD PUSH8 0xFFFFFFFFFFFFFFFF DUP2 GT PUSH2 0xA4E JUMPI DUP5 SWAP2 PUSH1 0x80 MLOAD ADD ADD SWAP2 DUP3 ADD SLT ISZERO PUSH2 0xA4E JUMPI PUSH1 0x20 DUP2 ADD CALLDATALOAD SWAP1 PUSH2 0x2478 DUP3 PUSH2 0x36A5 JUMP JUMPDEST SWAP4 PUSH1 0x40 SWAP4 PUSH2 0x2488 DUP6 MLOAD SWAP7 DUP8 PUSH2 0x35FA JUMP JUMPDEST DUP4 DUP7 MSTORE PUSH1 0x20 DUP7 ADD SWAP3 DUP6 DUP5 SWAP6 PUSH1 0x7 SHL DUP3 ADD ADD SWAP3 DUP4 GT PUSH2 0xA4E JUMPI DUP6 ADD SWAP3 JUMPDEST DUP3 DUP5 LT PUSH2 0x261F JUMPI POP POP POP POP PUSH20 0xFFFFFFFFFFFFFFFFFFFFFFFFFFFFFFFFFFFFFFFF SWAP1 DUP2 PUSH1 0x1 SLOAD AND DUP5 MLOAD SWAP1 PUSH1 0x0 JUMPDEST DUP3 DUP2 LT PUSH2 0x25B3 JUMPI POP POP POP DUP2 PUSH32 0x0 AND SWAP2 DUP3 EXTCODESIZE ISZERO PUSH2 0xA4E JUMPI DUP4 MLOAD PUSH32 0xD58B1DB00000000000000000000000000000000000000000000000000000000 DUP2 MSTORE PUSH1 0x20 PUSH1 0x4 DUP3 ADD MSTORE SWAP5 MLOAD PUSH1 0x24 DUP7 ADD DUP2 SWAP1 MSTORE DUP6 SWAP3 PUSH1 0x44 DUP5 ADD SWAP3 SWAP1 SWAP2 PUSH1 0x0 SWAP2 JUMPDEST DUP2 DUP4 LT PUSH2 0x256F JUMPI POP POP POP POP SWAP2 DUP2 PUSH1 0x0 DUP2 DUP2 SWAP6 SUB SWAP3 GAS CALL SWAP1 DUP2 ISZERO PUSH2 0x1811 JUMPI POP PUSH2 0x148B JUMPI POP PUSH2 0xE71 JUMP JUMPDEST SWAP2 SWAP4 DUP4 SWAP6 POP PUSH1 0x80 PUSH1 0x20 SWAP2 DUP5 PUSH1 0x60 PUSH1 0x1 SWAP6 SWAP8 MLOAD DUP3 DUP2 MLOAD AND DUP5 MSTORE DUP3 DUP7 DUP3 ADD MLOAD AND DUP7 DUP6 ADD MSTORE DUP3 DUP14 DUP3 ADD MLOAD AND DUP14 DUP6 ADD MSTORE ADD MLOAD AND PUSH1 0x60 DUP3 ADD MSTORE ADD SWAP6 ADD SWAP4 ADD SWAP1 SWAP2 DUP8 SWAP5 SWAP4 SWAP3 PUSH2 0x2547 JUMP JUMPDEST DUP2 DUP6 PUSH2 0x25BF DUP4 DUP11 PUSH2 0x3B8F JUMP JUMPDEST MLOAD MLOAD AND SUB PUSH2 0x25F6 JUMPI PUSH32 0xFFFFFFFFFFFFFFFFFFFFFFFFFFFFFFFFFFFFFFFFFFFFFFFFFFFFFFFFFFFFFFFF DUP2 EQ PUSH2 0x1B03 JUMPI PUSH1 0x1 ADD PUSH2 0x24D0 JUMP JUMPDEST PUSH1 0x4 DUP7 MLOAD PUSH32 0xE700287700000000000000000000000000000000000000000000000000000000 DUP2 MSTORE REVERT JUMPDEST PUSH1 0x80 PUSH1 0x20 DUP6 DUP5 SUB ADD SLT PUSH2 0xA4E JUMPI PUSH1 0x20 PUSH1 0x80 SWAP2 DUP8 MLOAD PUSH2 0x263C DUP2 PUSH2 0x358A JUMP JUMPDEST PUSH2 0x2645 DUP8 PUSH2 0xA76 JUMP JUMPDEST DUP2 MSTORE PUSH2 0x2652 DUP4 DUP9 ADD PUSH2 0xA76 JUMP JUMPDEST DUP4 DUP3 ADD MSTORE PUSH2 0x2661 DUP10 DUP9 ADD PUSH2 0xA76 JUMP JUMPDEST DUP10 DUP3 ADD MSTORE PUSH2 0x2671 PUSH1 0x60 DUP9 ADD PUSH2 0xA76 JUMP JUMPDEST PUSH1 0x60 DUP3 ADD MSTORE DUP2 MSTORE ADD SWAP4 ADD SWAP3 PUSH2 0x24A4 JUMP JUMPDEST SWAP3 SWAP5 POP POP POP PUSH1 0xE DUP2 SUB PUSH2 0x2783 JUMPI POP PUSH1 0x40 SWAP2 DUP3 MLOAD SWAP1 PUSH32 0x70A0823100000000000000000000000000000000000000000000000000000000 DUP3 MSTORE PUSH1 0x20 DUP3 PUSH1 0x24 DUP2 PUSH20 0xFFFFFFFFFFFFFFFFFFFFFFFFFFFFFFFFFFFFFFFF DUP1 PUSH1 0x4 SWAP9 CALLDATALOAD AND DUP9 DUP4 ADD MSTORE DUP9 DUP7 PUSH1 0x80 MLOAD ADD ADD CALLDATALOAD AND GAS STATICCALL SWAP2 DUP3 ISZERO PUSH2 0x1AB8 JUMPI PUSH1 0x0 SWAP3 PUSH2 0x274E JUMPI JUMPDEST POP PUSH1 0x80 MLOAD ADD PUSH1 0x60 ADD CALLDATALOAD GT DUP1 ISZERO SWAP3 SWAP1 PUSH2 0x2710 JUMPI POP POP PUSH2 0xE71 JUMP JUMPDEST MLOAD PUSH32 0xA328167200000000000000000000000000000000000000000000000000000000 PUSH1 0x20 DUP3 ADD MSTORE SWAP1 DUP2 MSTORE SWAP1 SWAP2 POP PUSH2 0x2746 DUP2 PUSH2 0x35C2 JUMP JUMPDEST SWAP1 CODESIZE DUP1 PUSH2 0x15D7 JUMP JUMPDEST SWAP1 SWAP2 PUSH1 0x20 DUP3 RETURNDATASIZE PUSH1 0x20 GT PUSH2 0x277B JUMPI JUMPDEST DUP2 PUSH2 0x2769 PUSH1 0x20 SWAP4 DUP4 PUSH2 0x35FA JUMP JUMPDEST DUP2 ADD SUB SLT PUSH2 0x387 JUMPI POP MLOAD SWAP1 PUSH1 0x60 PUSH2 0x26F7 JUMP JUMPDEST RETURNDATASIZE SWAP2 POP PUSH2 0x275C JUMP JUMPDEST PUSH1 0x24 SWAP1 PUSH1 0x40 MLOAD SWAP1 PUSH32 0xD76A1E9E00000000000000000000000000000000000000000000000000000000 DUP3 MSTORE PUSH1 0x4 DUP3 ADD MSTORE REVERT JUMPDEST SWAP2 POP SWAP2 POP PUSH1 0x18 SWAP12 SWAP6 SWAP4 SWAP9 SWAP8 SWAP10 SWAP7 SWAP3 SWAP5 SWAP12 DUP1 DUP4 LT PUSH1 0x0 EQ PUSH2 0x2D43 JUMPI POP DUP2 SUB PUSH2 0x282A JUMPI POP POP POP PUSH1 0x0 SWAP3 POP SWAP1 PUSH2 0x27E8 DUP4 SWAP3 DUP3 PUSH2 0x429A JUMP JUMPDEST DUP2 PUSH1 0x40 MLOAD SWAP3 DUP4 SWAP3 DUP4 CALLDATACOPY DUP2 ADD DUP5 DUP2 MSTORE SUB SWAP2 CALLDATALOAD PUSH32 0x0 GAS CALL PUSH2 0x2824 PUSH2 0x3675 JUMP JUMPDEST SWAP1 PUSH2 0xE71 JUMP JUMPDEST PUSH1 0x11 DUP2 SUB PUSH2 0x2881 JUMPI POP POP POP PUSH1 0x0 SWAP3 POP SWAP1 PUSH2 0x2845 DUP4 SWAP3 DUP3 PUSH2 0x429A JUMP JUMPDEST DUP2 PUSH1 0x40 MLOAD SWAP3 DUP4 SWAP3 DUP4 CALLDATACOPY DUP2 ADD DUP5 DUP2 MSTORE SUB SWAP2 CALLDATALOAD PUSH32 0x0 GAS CALL PUSH2 0x2824 PUSH2 0x3675 JUMP JUMPDEST PUSH1 0x12 DUP2 SUB PUSH2 0x28D8 JUMPI POP POP POP PUSH1 0x0 SWAP3 POP SWAP1 PUSH2 0x289C DUP4 SWAP3 DUP3 PUSH2 0x429A JUMP JUMPDEST DUP2 PUSH1 0x40 MLOAD SWAP3 DUP4 SWAP3 DUP4 CALLDATACOPY DUP2 ADD DUP5 DUP2 MSTORE SUB SWAP2 CALLDATALOAD PUSH32 0x0 GAS CALL PUSH2 0x2824 PUSH2 0x3675 JUMP JUMPDEST SWAP2 SWAP4 SWAP3 POP SWAP1 PUSH1 0x13 DUP2 SUB PUSH2 0x2A3E JUMPI POP POP SWAP1 SWAP2 POP CALLDATALOAD PUSH32 0x0 SWAP2 PUSH1 0x40 PUSH1 0x0 DUP1 DUP3 MLOAD PUSH1 0x20 DUP2 ADD SWAP1 PUSH32 0x8264FE9800000000000000000000000000000000000000000000000000000000 DUP3 MSTORE PUSH1 0x24 DUP8 DUP2 DUP4 ADD MSTORE DUP2 MSTORE PUSH2 0x294E DUP2 PUSH2 0x35DE JUMP JUMPDEST MLOAD SWAP1 PUSH1 0x60 DUP7 PUSH1 0x80 MLOAD ADD ADD CALLDATALOAD DUP9 GAS CALL SWAP3 PUSH2 0x2965 PUSH2 0x3675 JUMP JUMPDEST SWAP5 DUP5 ISZERO PUSH2 0x2A04 JUMPI DUP3 PUSH20 0xFFFFFFFFFFFFFFFFFFFFFFFFFFFFFFFFFFFFFFFF PUSH2 0x2993 SWAP3 AND SWAP5 PUSH1 0x80 MLOAD ADD ADD CALLDATALOAD PUSH2 0x3854 JUMP JUMPDEST SWAP1 DUP4 EXTCODESIZE ISZERO PUSH2 0xA4E JUMPI DUP3 MLOAD PUSH32 0x8B72A2EC00000000000000000000000000000000000000000000000000000000 DUP2 MSTORE PUSH20 0xFFFFFFFFFFFFFFFFFFFFFFFFFFFFFFFFFFFFFFFF SWAP3 SWAP1 SWAP3 AND PUSH1 0x4 DUP4 ADD MSTORE PUSH1 0x24 DUP3 ADD MSTORE SWAP2 PUSH1 0x0 SWAP1 DUP4 SWAP1 PUSH1 0x44 SWAP1 DUP3 SWAP1 DUP5 SWAP1 GAS CALL SWAP1 DUP2 ISZERO PUSH2 0x1811 JUMPI POP PUSH2 0x148B JUMPI POP PUSH2 0xE71 JUMP JUMPDEST POP POP SWAP2 SWAP3 POP POP MLOAD PUSH32 0xAE9BDF0000000000000000000000000000000000000000000000000000000000 PUSH1 0x20 DUP3 ADD MSTORE PUSH1 0x4 DUP2 MSTORE PUSH2 0x2824 DUP2 PUSH2 0x35C2 JUMP JUMPDEST PUSH1 0x15 DUP2 SUB PUSH2 0x2B4F JUMPI POP POP SWAP1 PUSH1 0x40 SWAP2 DUP3 DUP1 MLOAD SWAP2 PUSH32 0x6352211E00000000000000000000000000000000000000000000000000000000 DUP4 MSTORE PUSH1 0x20 DUP4 PUSH1 0x24 DUP2 PUSH1 0x4 SWAP8 PUSH1 0x60 DUP2 PUSH1 0x80 MLOAD ADD ADD CALLDATALOAD DUP10 DUP4 ADD MSTORE PUSH20 0xFFFFFFFFFFFFFFFFFFFFFFFFFFFFFFFFFFFFFFFF SWAP7 DUP8 SWAP2 PUSH1 0x80 MLOAD ADD ADD CALLDATALOAD AND GAS STATICCALL SWAP3 DUP4 ISZERO PUSH2 0x2B44 JUMPI PUSH1 0x0 SWAP4 PUSH2 0x2B05 JUMPI JUMPDEST POP DUP2 SWAP1 CALLDATALOAD AND SWAP2 AND EQ SWAP2 DUP3 ISZERO PUSH2 0x2ACF JUMPI POP POP PUSH2 0xE71 JUMP JUMPDEST MLOAD PUSH32 0x7DBE7E8900000000000000000000000000000000000000000000000000000000 PUSH1 0x20 DUP3 ADD MSTORE SWAP1 DUP2 MSTORE SWAP1 SWAP2 POP PUSH2 0x2746 DUP2 PUSH2 0x35C2 JUMP JUMPDEST PUSH1 0x20 SWAP4 SWAP2 SWAP4 DUP2 RETURNDATASIZE PUSH1 0x20 GT PUSH2 0x2B3C JUMPI JUMPDEST DUP2 PUSH2 0x2B21 PUSH1 0x20 SWAP4 DUP4 PUSH2 0x35FA JUMP JUMPDEST DUP2 ADD SUB SLT PUSH2 0x44B JUMPI MLOAD SWAP1 DUP3 DUP3 AND DUP3 SUB PUSH2 0x387 JUMPI POP SWAP2 DUP2 PUSH2 0x2AB9 JUMP JUMPDEST RETURNDATASIZE SWAP2 POP PUSH2 0x2B14 JUMP JUMPDEST DUP6 MLOAD RETURNDATASIZE PUSH1 0x0 DUP3 RETURNDATACOPY RETURNDATASIZE SWAP1 REVERT JUMPDEST PUSH1 0x16 DUP2 SUB PUSH2 0x2C76 JUMPI POP POP PUSH1 0x40 SWAP2 DUP3 MLOAD SWAP1 PUSH31 0xFDD58E00000000000000000000000000000000000000000000000000000000 DUP3 MSTORE PUSH1 0x20 DUP3 DUP1 PUSH2 0x2BC1 PUSH1 0x4 SWAP7 PUSH1 0x60 DUP7 PUSH1 0x80 MLOAD ADD ADD CALLDATALOAD SWAP1 CALLDATALOAD DUP9 DUP5 ADD PUSH1 0x20 SWAP1 SWAP4 SWAP3 SWAP2 SWAP4 PUSH20 0xFFFFFFFFFFFFFFFFFFFFFFFFFFFFFFFFFFFFFFFF PUSH1 0x40 DUP3 ADD SWAP6 AND DUP2 MSTORE ADD MSTORE JUMP JUMPDEST SUB DUP2 PUSH20 0xFFFFFFFFFFFFFFFFFFFFFFFFFFFFFFFFFFFFFFFF DUP9 DUP7 PUSH1 0x80 MLOAD ADD ADD CALLDATALOAD AND GAS STATICCALL SWAP2 DUP3 ISZERO PUSH2 0x1AB8 JUMPI PUSH1 0x0 SWAP3 PUSH2 0x2C41 JUMPI JUMPDEST POP PUSH1 0x80 SWAP1 DUP2 MLOAD ADD ADD CALLDATALOAD GT SWAP2 DUP3 ISZERO SWAP3 PUSH2 0x2C0B JUMPI POP POP PUSH2 0xE71 JUMP JUMPDEST MLOAD PUSH32 0x483A692900000000000000000000000000000000000000000000000000000000 PUSH1 0x20 DUP3 ADD MSTORE SWAP1 DUP2 MSTORE SWAP1 SWAP2 POP PUSH2 0x2746 DUP2 PUSH2 0x35C2 JUMP JUMPDEST SWAP1 SWAP2 PUSH1 0x20 DUP3 RETURNDATASIZE PUSH1 0x20 GT PUSH2 0x2C6E JUMPI JUMPDEST DUP2 PUSH2 0x2C5C PUSH1 0x20 SWAP4 DUP4 PUSH2 0x35FA JUMP JUMPDEST DUP2 ADD SUB SLT PUSH2 0x387 JUMPI POP MLOAD SWAP1 PUSH1 0x80 PUSH2 0x2BF2 JUMP JUMPDEST RETURNDATASIZE SWAP2 POP PUSH2 0x2C4F JUMP JUMPDEST SWAP1 SWAP3 SWAP1 PUSH1 0x17 EQ PUSH2 0x2C87 JUMPI POP POP PUSH2 0xE71 JUMP JUMPDEST PUSH1 0x40 SWAP1 PUSH20 0xFFFFFFFFFFFFFFFFFFFFFFFFFFFFFFFFFFFFFFFF PUSH2 0x2CAF DUP4 DUP4 PUSH1 0x80 MLOAD ADD ADD CALLDATALOAD PUSH2 0x3854 JUMP JUMPDEST SWAP4 CALLDATALOAD AND SWAP3 DUP4 EXTCODESIZE ISZERO PUSH2 0xA4E JUMPI DUP3 MLOAD PUSH32 0x42842E0E00000000000000000000000000000000000000000000000000000000 DUP2 MSTORE PUSH1 0x80 MLOAD ADDRESS PUSH1 0x4 DUP4 ADD MSTORE PUSH20 0xFFFFFFFFFFFFFFFFFFFFFFFFFFFFFFFFFFFFFFFF SWAP1 SWAP3 AND PUSH1 0x24 DUP3 ADD MSTORE SWAP2 ADD PUSH1 0x60 ADD CALLDATALOAD PUSH1 0x44 DUP3 ADD MSTORE SWAP2 PUSH1 0x0 SWAP1 DUP4 SWAP1 DUP2 DUP4 DUP2 PUSH1 0x64 DUP2 ADD SUB SWAP3 GAS CALL SWAP1 DUP2 ISZERO PUSH2 0x1811 JUMPI POP PUSH2 0x2D34 JUMPI JUMPDEST DUP1 PUSH2 0x15D7 JUMP JUMPDEST PUSH2 0x2D3D SWAP1 PUSH2 0x3576 JUMP JUMPDEST CODESIZE PUSH2 0x2D2E JUMP JUMPDEST SWAP4 SWAP7 SWAP4 DUP3 EQ ISZERO SWAP1 POP PUSH2 0x2D7E JUMPI POP POP POP PUSH2 0x2824 SWAP3 POP PUSH32 0x0 SWAP2 PUSH2 0x3717 JUMP JUMPDEST PUSH1 0x19 DUP2 SUB PUSH2 0x2DD5 JUMPI POP POP POP PUSH1 0x0 SWAP3 POP SWAP1 PUSH2 0x2D99 DUP4 SWAP3 DUP3 PUSH2 0x429A JUMP JUMPDEST DUP2 PUSH1 0x40 MLOAD SWAP3 DUP4 SWAP3 DUP4 CALLDATACOPY DUP2 ADD DUP5 DUP2 MSTORE SUB SWAP2 CALLDATALOAD PUSH32 0x0 GAS CALL PUSH2 0x2824 PUSH2 0x3675 JUMP JUMPDEST PUSH1 0x1A DUP2 SUB PUSH2 0x2E2C JUMPI POP POP POP PUSH1 0x0 SWAP3 POP SWAP1 PUSH2 0x2DF0 DUP4 SWAP3 DUP3 PUSH2 0x429A JUMP JUMPDEST DUP2 PUSH1 0x40 MLOAD SWAP3 DUP4 SWAP3 DUP4 CALLDATACOPY DUP2 ADD DUP5 DUP2 MSTORE SUB SWAP2 CALLDATALOAD PUSH32 0x0 GAS CALL PUSH2 0x2824 PUSH2 0x3675 JUMP JUMPDEST PUSH1 0x1B DUP2 SUB PUSH2 0x2F53 JUMPI POP POP POP PUSH1 0x0 PUSH2 0x2E44 DUP2 SWAP3 DUP5 PUSH2 0x429A JUMP JUMPDEST SWAP4 SWAP1 PUSH1 0x40 SWAP5 DUP2 DUP7 MLOAD SWAP3 DUP4 SWAP3 DUP4 CALLDATACOPY DUP2 ADD DUP5 DUP2 MSTORE SUB SWAP2 CALLDATALOAD PUSH32 0x0 GAS CALL SWAP2 DUP3 SWAP2 PUSH2 0x2E87 PUSH2 0x3675 JUMP JUMPDEST SWAP3 PUSH2 0x2E95 JUMPI JUMPDEST POP POP SWAP1 PUSH2 0xE71 JUMP JUMPDEST PUSH20 0xFFFFFFFFFFFFFFFFFFFFFFFFFFFFFFFFFFFFFFFF PUSH1 0x80 DUP4 DUP2 MLOAD ADD ADD CALLDATALOAD AND PUSH2 0x2EC4 PUSH1 0x60 DUP5 PUSH1 0x80 MLOAD ADD ADD CALLDATALOAD PUSH2 0x3854 JUMP JUMPDEST SWAP1 DUP3 MLOAD SWAP1 PUSH2 0x2ED1 DUP3 PUSH2 0x35A6 JUMP JUMPDEST PUSH1 0x0 DUP3 MSTORE DUP1 EXTCODESIZE ISZERO PUSH2 0xA4E JUMPI PUSH2 0x2F2D SWAP5 PUSH1 0x0 DUP1 SWAP5 DUP7 MLOAD SWAP8 DUP9 SWAP6 DUP7 SWAP5 DUP6 SWAP4 PUSH32 0xF242432A00000000000000000000000000000000000000000000000000000000 DUP6 MSTORE PUSH1 0xA0 PUSH1 0xC0 DUP4 PUSH1 0x80 MLOAD ADD ADD CALLDATALOAD SWAP3 PUSH1 0x80 MLOAD ADD ADD CALLDATALOAD SWAP1 ADDRESS PUSH1 0x4 DUP8 ADD PUSH2 0x380F JUMP JUMPDEST SUB SWAP3 GAS CALL SWAP1 DUP2 ISZERO PUSH2 0x1811 JUMPI POP PUSH2 0x2F44 JUMPI JUMPDEST DUP1 PUSH2 0x2E8D JUMP JUMPDEST PUSH2 0x2F4D SWAP1 PUSH2 0x3576 JUMP JUMPDEST CODESIZE PUSH2 0x2F3E JUMP JUMPDEST SWAP2 SWAP5 SWAP1 SWAP2 PUSH1 0x1C DUP2 SUB PUSH2 0x2F8E JUMPI POP POP POP PUSH2 0x2824 SWAP3 POP PUSH32 0x0 SWAP2 PUSH2 0x3717 JUMP JUMPDEST SWAP2 SWAP4 SWAP3 SWAP1 SWAP2 PUSH1 0x1D DUP2 SUB PUSH2 0x3117 JUMPI POP POP PUSH1 0x60 DUP2 PUSH1 0x80 MLOAD ADD ADD CALLDATALOAD SWAP1 PUSH1 0x40 SWAP2 PUSH20 0xFFFFFFFFFFFFFFFFFFFFFFFFFFFFFFFFFFFFFFFF PUSH2 0x2FCF DUP5 DUP5 PUSH1 0x80 MLOAD ADD ADD CALLDATALOAD PUSH2 0x3854 JUMP JUMPDEST SWAP5 CALLDATALOAD AND DUP4 MLOAD SWAP5 PUSH31 0xFDD58E00000000000000000000000000000000000000000000000000000000 DUP7 MSTORE PUSH1 0x4 SWAP4 PUSH1 0x20 DUP8 DUP1 PUSH2 0x302E DUP8 ADDRESS DUP11 DUP5 ADD PUSH1 0x20 SWAP1 SWAP4 SWAP3 SWAP2 SWAP4 PUSH20 0xFFFFFFFFFFFFFFFFFFFFFFFFFFFFFFFFFFFFFFFF PUSH1 0x40 DUP3 ADD SWAP6 AND DUP2 MSTORE ADD MSTORE JUMP JUMPDEST SUB DUP2 DUP7 GAS STATICCALL SWAP7 DUP8 ISZERO PUSH2 0x225B JUMPI PUSH1 0x0 SWAP8 PUSH2 0x30E2 JUMPI JUMPDEST POP PUSH1 0x80 SWAP1 DUP2 MLOAD ADD ADD CALLDATALOAD DUP7 LT PUSH2 0x30BA JUMPI DUP5 MLOAD PUSH2 0x305C DUP2 PUSH2 0x35A6 JUMP JUMPDEST PUSH1 0x0 DUP2 MSTORE DUP3 EXTCODESIZE ISZERO PUSH2 0xA4E JUMPI PUSH1 0x0 SWAP5 PUSH2 0x30A4 DUP7 SWAP3 DUP9 MLOAD SWAP10 DUP11 SWAP8 DUP9 SWAP7 DUP8 SWAP6 PUSH32 0xF242432A00000000000000000000000000000000000000000000000000000000 DUP8 MSTORE ADDRESS SWAP1 DUP8 ADD PUSH2 0x380F JUMP JUMPDEST SUB SWAP3 GAS CALL SWAP1 DUP2 ISZERO PUSH2 0x1811 JUMPI POP PUSH2 0x148B JUMPI POP PUSH2 0xE71 JUMP JUMPDEST DUP4 DUP6 MLOAD PUSH32 0x675CAE3800000000000000000000000000000000000000000000000000000000 DUP2 MSTORE REVERT JUMPDEST SWAP1 SWAP7 PUSH1 0x20 DUP3 RETURNDATASIZE PUSH1 0x20 GT PUSH2 0x310F JUMPI JUMPDEST DUP2 PUSH2 0x30FD PUSH1 0x20 SWAP4 DUP4 PUSH2 0x35FA JUMP JUMPDEST DUP2 ADD SUB SLT PUSH2 0x387 JUMPI POP MLOAD SWAP6 PUSH1 0x80 PUSH2 0x3042 JUMP JUMPDEST RETURNDATASIZE SWAP2 POP PUSH2 0x30F0 JUMP JUMPDEST SWAP3 SWAP5 POP SWAP3 POP POP PUSH1 0x1E DUP2 SUB PUSH2 0x2783 JUMPI POP DUP2 PUSH2 0x3135 PUSH1 0x0 SWAP4 SWAP3 DUP5 SWAP4 PUSH2 0x429A JUMP JUMPDEST DUP2 PUSH1 0x40 MLOAD SWAP3 DUP4 SWAP3 DUP4 CALLDATACOPY DUP2 ADD DUP5 DUP2 MSTORE SUB SWAP2 CALLDATALOAD PUSH32 0x0 GAS CALL PUSH2 0x2824 PUSH2 0x3675 JUMP JUMPDEST SWAP5 SWAP10 SWAP9 SWAP11 SWAP3 POP PUSH1 0x20 DUP2 SWAP14 SWAP8 SWAP3 SWAP7 SWAP14 SWAP9 SWAP5 SWAP9 EQ PUSH1 0x0 EQ PUSH2 0x31DA JUMPI POP POP POP POP POP POP DUP1 PUSH2 0x319E PUSH1 0x0 SWAP4 DUP5 SWAP4 PUSH2 0x429A JUMP JUMPDEST DUP2 PUSH1 0x40 MLOAD SWAP3 DUP4 SWAP3 DUP4 CALLDATACOPY DUP2 ADD DUP5 DUP2 MSTORE SUB SWAP2 CALLDATALOAD PUSH32 0x0 GAS CALL PUSH2 0x2824 PUSH2 0x3675 JUMP JUMPDEST PUSH1 0x21 SWAP1 DUP1 DUP3 SUB PUSH2 0x3351 JUMPI POP POP POP POP SWAP1 SWAP2 PUSH2 0x31FF PUSH2 0x31F7 DUP7 DUP7 PUSH2 0x4279 JUMP JUMPDEST SWAP7 SWAP1 SWAP6 PUSH2 0x429A JUMP JUMPDEST SWAP3 SWAP1 PUSH2 0x3241 PUSH1 0x40 SWAP8 DUP9 MLOAD SWAP8 PUSH1 0x20 DUP10 ADD SWAP10 PUSH32 0x24856BC300000000000000000000000000000000000000000000000000000000 DUP12 MSTORE PUSH1 0x24 DUP11 ADD MSTORE PUSH1 0x64 DUP10 ADD SWAP2 PUSH2 0x3537 JUMP JUMPDEST PUSH32 0xFFFFFFFFFFFFFFFFFFFFFFFFFFFFFFFFFFFFFFFFFFFFFFFFFFFFFFFFFFFFFFDC DUP8 DUP3 SUB ADD PUSH1 0x44 DUP9 ADD MSTORE DUP2 DUP2 MSTORE PUSH1 0x20 DUP3 DUP2 DUP4 ADD SWAP6 SHL DUP3 ADD ADD SWAP6 DUP6 PUSH1 0x0 SWAP2 JUMPDEST DUP5 DUP4 LT PUSH2 0x32D3 JUMPI POP POP POP POP POP POP POP POP SWAP2 DUP2 PUSH2 0x32C5 PUSH1 0x0 SWAP5 SWAP4 DUP6 SWAP5 SUB PUSH32 0xFFFFFFFFFFFFFFFFFFFFFFFFFFFFFFFFFFFFFFFFFFFFFFFFFFFFFFFFFFFFFFE0 DUP2 ADD DUP4 MSTORE DUP3 PUSH2 0x35FA JUMP JUMPDEST MLOAD SWAP1 DUP3 ADDRESS GAS CALL PUSH2 0x2824 PUSH2 0x3675 JUMP JUMPDEST SWAP1 SWAP2 SWAP3 SWAP4 SWAP5 SWAP6 SWAP7 SWAP8 PUSH32 0xFFFFFFFFFFFFFFFFFFFFFFFFFFFFFFFFFFFFFFFFFFFFFFFFFFFFFFFFFFFFFFE0 DUP6 DUP3 SUB ADD DUP9 MSTORE DUP9 CALLDATALOAD DUP3 DUP5 CALLDATASIZE SUB ADD DUP2 SLT ISZERO PUSH2 0xA4E JUMPI DUP4 ADD SWAP1 PUSH1 0x20 DUP3 CALLDATALOAD SWAP3 ADD SWAP2 PUSH8 0xFFFFFFFFFFFFFFFF DUP2 GT PUSH2 0xA4E JUMPI DUP1 CALLDATASIZE SUB DUP4 SGT PUSH2 0xA4E JUMPI PUSH2 0x3341 PUSH1 0x20 SWAP3 DUP4 SWAP3 DUP12 SWAP6 PUSH2 0x3537 JUMP JUMPDEST SWAP11 ADD SWAP9 ADD SWAP7 SWAP6 SWAP5 SWAP4 ADD SWAP2 SWAP1 PUSH2 0x327F JUMP JUMPDEST SWAP3 SWAP8 POP SWAP3 SWAP6 SWAP4 POP SWAP4 POP PUSH1 0x22 DUP2 EQ PUSH1 0x0 EQ PUSH2 0x2783 JUMPI POP PUSH1 0x40 DUP1 SWAP4 PUSH1 0x80 MLOAD ADD ADD CALLDATALOAD SWAP1 PUSH1 0x0 SWAP1 PUSH1 0x2 DUP4 LT ISZERO PUSH2 0x34E1 JUMPI POP POP DUP1 DUP5 SWAP2 ISZERO PUSH1 0x0 EQ PUSH2 0x3489 JUMPI POP POP PUSH1 0x0 SWAP1 PUSH32 0x0 SWAP3 JUMPDEST PUSH1 0x20 DUP4 DUP3 MLOAD SWAP4 PUSH32 0x95EA7B300000000000000000000000000000000000000000000000000000000 DUP6 MSTORE PUSH1 0x4 SWAP7 DUP8 DUP7 ADD MSTORE PUSH1 0x24 SWAP5 PUSH32 0xFFFFFFFFFFFFFFFFFFFFFFFFFFFFFFFFFFFFFFFFFFFFFFFFFFFFFFFFFFFFFFFF DUP7 DUP3 ADD MSTORE PUSH1 0x44 SWAP7 DUP8 SWAP3 CALLDATALOAD GAS CALL RETURNDATASIZE ISZERO PUSH1 0x1F RETURNDATASIZE GT DUP8 PUSH1 0x0 MLOAD EQ AND OR AND ISZERO PUSH2 0x342E JUMPI POP POP POP POP PUSH2 0xE71 JUMP JUMPDEST SWAP2 PUSH1 0xE PUSH32 0x415050524F56455F4641494C4544000000000000000000000000000000000000 SWAP3 PUSH1 0x20 PUSH1 0x64 SWAP7 SWAP6 MLOAD SWAP6 PUSH32 0x8C379A000000000000000000000000000000000000000000000000000000000 DUP8 MSTORE DUP7 ADD MSTORE DUP5 ADD MSTORE DUP3 ADD MSTORE REVERT JUMPDEST SUB PUSH2 0x34B8 JUMPI PUSH1 0x0 SWAP1 PUSH32 0x0 SWAP3 PUSH2 0x33B2 JUMP JUMPDEST PUSH1 0x4 DUP3 MLOAD PUSH32 0x5461585F00000000000000000000000000000000000000000000000000000000 DUP2 MSTORE REVERT JUMPDEST PUSH1 0x24 SWAP3 POP PUSH32 0x4E487B7100000000000000000000000000000000000000000000000000000000 DUP3 MSTORE PUSH1 0x4 MSTORE REVERT JUMPDEST PUSH1 0x4 PUSH1 0x40 MLOAD PUSH32 0xFF633A3800000000000000000000000000000000000000000000000000000000 DUP2 MSTORE REVERT JUMPDEST PUSH1 0x1F DUP3 PUSH1 0x20 SWAP5 SWAP4 PUSH32 0xFFFFFFFFFFFFFFFFFFFFFFFFFFFFFFFFFFFFFFFFFFFFFFFFFFFFFFFFFFFFFFE0 SWAP4 DUP2 DUP7 MSTORE DUP7 DUP7 ADD CALLDATACOPY PUSH1 0x0 DUP6 DUP3 DUP7 ADD ADD MSTORE ADD AND ADD ADD SWAP1 JUMP JUMPDEST PUSH8 0xFFFFFFFFFFFFFFFF DUP2 GT PUSH2 0xF7D JUMPI PUSH1 0x40 MSTORE JUMP JUMPDEST PUSH1 0x80 DUP2 ADD SWAP1 DUP2 LT PUSH8 0xFFFFFFFFFFFFFFFF DUP3 GT OR PUSH2 0xF7D JUMPI PUSH1 0x40 MSTORE JUMP JUMPDEST PUSH1 0x20 DUP2 ADD SWAP1 DUP2 LT PUSH8 0xFFFFFFFFFFFFFFFF DUP3 GT OR PUSH2 0xF7D JUMPI PUSH1 0x40 MSTORE JUMP JUMPDEST PUSH1 0x40 DUP2 ADD SWAP1 DUP2 LT PUSH8 0xFFFFFFFFFFFFFFFF DUP3 GT OR PUSH2 0xF7D JUMPI PUSH1 0x40 MSTORE JUMP JUMPDEST PUSH1 0x60 DUP2 ADD SWAP1 DUP2 LT PUSH8 0xFFFFFFFFFFFFFFFF DUP3 GT OR PUSH2 0xF7D JUMPI PUSH1 0x40 MSTORE JUMP JUMPDEST SWAP1 PUSH1 0x1F PUSH32 0xFFFFFFFFFFFFFFFFFFFFFFFFFFFFFFFFFFFFFFFFFFFFFFFFFFFFFFFFFFFFFFE0 SWAP2 ADD AND DUP2 ADD SWAP1 DUP2 LT PUSH8 0xFFFFFFFFFFFFFFFF DUP3 GT OR PUSH2 0xF7D JUMPI PUSH1 0x40 MSTORE JUMP JUMPDEST PUSH8 0xFFFFFFFFFFFFFFFF DUP2 GT PUSH2 0xF7D JUMPI PUSH1 0x1F ADD PUSH32 0xFFFFFFFFFFFFFFFFFFFFFFFFFFFFFFFFFFFFFFFFFFFFFFFFFFFFFFFFFFFFFFE0 AND PUSH1 0x20 ADD SWAP1 JUMP JUMPDEST RETURNDATASIZE ISZERO PUSH2 0x36A0 JUMPI RETURNDATASIZE SWAP1 PUSH2 0x3686 DUP3 PUSH2 0x363B JUMP JUMPDEST SWAP2 PUSH2 0x3694 PUSH1 0x40 MLOAD SWAP4 DUP5 PUSH2 0x35FA JUMP JUMPDEST DUP3 MSTORE RETURNDATASIZE PUSH1 0x0 PUSH1 0x20 DUP5 ADD RETURNDATACOPY JUMP JUMPDEST PUSH1 0x60 SWAP1 JUMP JUMPDEST PUSH8 0xFFFFFFFFFFFFFFFF DUP2 GT PUSH2 0xF7D JUMPI PUSH1 0x5 SHL PUSH1 0x20 ADD SWAP1 JUMP JUMPDEST CALLDATALOAD SWAP1 PUSH6 0xFFFFFFFFFFFF DUP3 AND DUP3 SUB PUSH2 0xA4E JUMPI JUMP JUMPDEST DUP2 PUSH1 0x1F DUP3 ADD SLT ISZERO PUSH2 0xA4E JUMPI DUP1 CALLDATALOAD SWAP1 PUSH2 0x36E7 DUP3 PUSH2 0x363B JUMP JUMPDEST SWAP3 PUSH2 0x36F5 PUSH1 0x40 MLOAD SWAP5 DUP6 PUSH2 0x35FA JUMP JUMPDEST DUP3 DUP5 MSTORE PUSH1 0x20 DUP4 DUP4 ADD ADD GT PUSH2 0xA4E JUMPI DUP2 PUSH1 0x0 SWAP3 PUSH1 0x20 DUP1 SWAP4 ADD DUP4 DUP7 ADD CALLDATACOPY DUP4 ADD ADD MSTORE SWAP1 JUMP JUMPDEST SWAP2 SWAP3 SWAP1 PUSH2 0x3724 SWAP1 DUP4 PUSH2 0x429A JUMP JUMPDEST SWAP1 SWAP4 DUP5 PUSH1 0x40 MLOAD SWAP6 DUP7 SWAP4 DUP5 CALLDATACOPY DUP3 ADD SWAP1 PUSH1 0x0 SWAP6 DUP7 SWAP4 DUP4 DUP6 DUP1 SWAP6 MSTORE SUB SWAP2 DUP7 CALLDATALOAD SWAP1 GAS CALL SWAP3 PUSH2 0x374C PUSH2 0x3675 JUMP JUMPDEST SWAP3 DUP5 PUSH2 0x3756 JUMPI POP POP JUMP JUMPDEST PUSH20 0xFFFFFFFFFFFFFFFFFFFFFFFFFFFFFFFFFFFFFFFF PUSH1 0x60 DUP3 ADD CALLDATALOAD AND PUSH2 0x377E PUSH1 0x40 DUP4 ADD CALLDATALOAD PUSH2 0x3854 JUMP JUMPDEST SWAP2 DUP2 EXTCODESIZE ISZERO PUSH2 0x6AD JUMPI PUSH1 0x40 MLOAD PUSH32 0x42842E0E00000000000000000000000000000000000000000000000000000000 DUP2 MSTORE ADDRESS PUSH1 0x4 DUP3 ADD MSTORE PUSH20 0xFFFFFFFFFFFFFFFFFFFFFFFFFFFFFFFFFFFFFFFF SWAP4 SWAP1 SWAP4 AND PUSH1 0x24 DUP5 ADD MSTORE PUSH1 0x80 ADD CALLDATALOAD PUSH1 0x44 DUP4 ADD MSTORE SWAP1 SWAP2 SWAP1 DUP2 SWAP1 DUP4 SWAP1 PUSH1 0x64 SWAP1 DUP3 SWAP1 DUP5 SWAP1 GAS CALL SWAP1 DUP2 ISZERO PUSH2 0x3803 JUMPI POP PUSH2 0x37F8 JUMPI POP JUMP JUMPDEST PUSH2 0x3801 SWAP1 PUSH2 0x3576 JUMP JUMPDEST JUMP JUMPDEST PUSH1 0x40 MLOAD SWAP1 RETURNDATASIZE SWAP1 DUP3 RETURNDATACOPY RETURNDATASIZE SWAP1 REVERT JUMPDEST SWAP2 SWAP3 PUSH2 0x3851 SWAP6 SWAP5 SWAP2 PUSH1 0xA0 SWAP5 PUSH20 0xFFFFFFFFFFFFFFFFFFFFFFFFFFFFFFFFFFFFFFFF DUP1 SWAP3 AND DUP6 MSTORE AND PUSH1 0x20 DUP5 ADD MSTORE PUSH1 0x40 DUP4 ADD MSTORE PUSH1 0x60 DUP3 ADD MSTORE DUP2 PUSH1 0x80 DUP3 ADD MSTORE ADD SWAP1 PUSH2 0xAF6 JUMP JUMPDEST SWAP1 JUMP JUMPDEST PUSH20 0xFFFFFFFFFFFFFFFFFFFFFFFFFFFFFFFFFFFFFFFF SWAP1 DUP1 DUP3 AND PUSH1 0x1 DUP2 SUB PUSH2 0x387E JUMPI POP POP PUSH1 0x1 SLOAD AND SWAP1 JUMP JUMPDEST SWAP1 SWAP2 POP PUSH1 0x2 SUB PUSH2 0x3851 JUMPI POP ADDRESS SWAP1 JUMP JUMPDEST SWAP1 DUP2 PUSH1 0x20 SWAP2 SUB SLT PUSH2 0xA4E JUMPI MLOAD DUP1 ISZERO ISZERO DUP2 SUB PUSH2 0xA4E JUMPI SWAP1 JUMP JUMPDEST SWAP1 SWAP3 SWAP2 SWAP1 PUSH20 0xFFFFFFFFFFFFFFFFFFFFFFFFFFFFFFFFFFFFFFFF AND DUP1 PUSH2 0x38CF JUMPI POP PUSH2 0x3801 SWAP2 SWAP3 PUSH2 0x3984 JUMP JUMPDEST PUSH32 0x8000000000000000000000000000000000000000000000000000000000000000 DUP3 EQ PUSH2 0x3902 JUMPI JUMPDEST SWAP3 PUSH2 0x3801 SWAP3 SWAP4 PUSH2 0x39F2 JUMP JUMPDEST SWAP1 POP PUSH1 0x40 MLOAD SWAP3 PUSH32 0x70A0823100000000000000000000000000000000000000000000000000000000 DUP5 MSTORE ADDRESS PUSH1 0x4 DUP6 ADD MSTORE PUSH1 0x20 DUP5 PUSH1 0x24 DUP2 DUP6 GAS STATICCALL SWAP4 DUP5 ISZERO PUSH2 0xF71 JUMPI PUSH1 0x0 SWAP5 PUSH2 0x3951 JUMPI JUMPDEST POP SWAP3 SWAP1 PUSH2 0x38F7 JUMP JUMPDEST PUSH1 0x20 DUP2 RETURNDATASIZE DUP3 GT PUSH2 0x397C JUMPI JUMPDEST DUP2 PUSH2 0x3969 PUSH1 0x20 SWAP4 DUP4 PUSH2 0x35FA JUMP JUMPDEST DUP2 ADD SUB SLT PUSH2 0x217 JUMPI MLOAD SWAP4 POP PUSH2 0x3801 PUSH2 0x3949 JUMP JUMPDEST RETURNDATASIZE SWAP2 POP PUSH2 0x395C JUMP JUMPDEST PUSH1 0x0 DUP1 DUP1 SWAP4 DUP2 SWAP4 GAS CALL ISZERO PUSH2 0x3994 JUMPI JUMP JUMPDEST PUSH1 0x64 PUSH1 0x40 MLOAD PUSH32 0x8C379A000000000000000000000000000000000000000000000000000000000 DUP2 MSTORE PUSH1 0x20 PUSH1 0x4 DUP3 ADD MSTORE PUSH1 0x13 PUSH1 0x24 DUP3 ADD MSTORE PUSH32 0x4554485F5452414E534645525F4641494C454400000000000000000000000000 PUSH1 0x44 DUP3 ADD MSTORE REVERT JUMPDEST PUSH1 0x0 SWAP2 DUP3 PUSH1 0x44 SWAP3 PUSH1 0x20 SWAP6 PUSH1 0x40 MLOAD SWAP4 PUSH32 0xA9059CBB00000000000000000000000000000000000000000000000000000000 DUP6 MSTORE PUSH1 0x4 DUP6 ADD MSTORE PUSH1 0x24 DUP5 ADD MSTORE GAS CALL RETURNDATASIZE ISZERO PUSH1 0x1F RETURNDATASIZE GT PUSH1 0x1 PUSH1 0x0 MLOAD EQ AND OR AND ISZERO PUSH2 0x3A45 JUMPI JUMP JUMPDEST PUSH1 0x64 PUSH1 0x40 MLOAD PUSH32 0x8C379A000000000000000000000000000000000000000000000000000000000 DUP2 MSTORE PUSH1 0x20 PUSH1 0x4 DUP3 ADD MSTORE PUSH1 0xF PUSH1 0x24 DUP3 ADD MSTORE PUSH32 0x5452414E534645525F4641494C45440000000000000000000000000000000000 PUSH1 0x44 DUP3 ADD MSTORE REVERT JUMPDEST DUP2 DUP2 MUL SWAP3 SWAP2 DUP2 ISZERO SWAP2 DUP5 DIV EQ OR ISZERO PUSH2 0x1B03 JUMPI JUMP JUMPDEST DUP2 ISZERO PUSH2 0x3AC0 JUMPI DIV SWAP1 JUMP JUMPDEST PUSH32 0x4E487B7100000000000000000000000000000000000000000000000000000000 PUSH1 0x0 MSTORE PUSH1 0x12 PUSH1 0x4 MSTORE PUSH1 0x24 PUSH1 0x0 REVERT JUMPDEST SWAP2 SWAP3 PUSH20 0xFFFFFFFFFFFFFFFFFFFFFFFFFFFFFFFFFFFFFFFF SWAP2 DUP3 PUSH32 0x0 AND SWAP4 DUP5 EXTCODESIZE ISZERO PUSH2 0xA4E JUMPI PUSH1 0x0 SWAP5 DUP5 DUP7 SWAP3 DUP2 PUSH1 0x84 SWAP7 DUP2 PUSH1 0x40 MLOAD SWAP12 DUP13 SWAP11 DUP12 SWAP10 PUSH32 0x36C7851600000000000000000000000000000000000000000000000000000000 DUP12 MSTORE AND PUSH1 0x4 DUP11 ADD MSTORE AND PUSH1 0x24 DUP9 ADD MSTORE AND PUSH1 0x44 DUP7 ADD MSTORE AND PUSH1 0x64 DUP5 ADD MSTORE GAS CALL DUP1 ISZERO PUSH2 0xF71 JUMPI PUSH2 0x37F8 JUMPI POP JUMP JUMPDEST DUP1 MLOAD DUP3 LT ISZERO PUSH2 0x1B4C JUMPI PUSH1 0x20 SWAP2 PUSH1 0x5 SHL ADD ADD SWAP1 JUMP JUMPDEST SWAP2 SWAP1 DUP2 LT ISZERO PUSH2 0x1B4C JUMPI PUSH1 0x5 SHL ADD SWAP1 JUMP JUMPDEST CALLDATALOAD PUSH20 0xFFFFFFFFFFFFFFFFFFFFFFFFFFFFFFFFFFFFFFFF DUP2 AND DUP2 SUB PUSH2 0xA4E JUMPI SWAP1 JUMP JUMPDEST SWAP2 SWAP1 DUP3 SUB SWAP2 DUP3 GT PUSH2 0x1B03 JUMPI JUMP JUMPDEST SWAP3 SWAP2 SWAP1 PUSH20 0xFFFFFFFFFFFFFFFFFFFFFFFFFFFFFFFFFFFFFFFF DUP1 DUP3 AND ADDRESS SUB PUSH2 0x3C0D JUMPI POP POP PUSH2 0x3801 SWAP3 PUSH2 0x38A5 JUMP JUMPDEST DUP1 DUP5 SWAP6 SWAP5 GT PUSH2 0x3C21 JUMPI PUSH2 0x3801 SWAP5 AND SWAP3 PUSH2 0x3AEF JUMP JUMPDEST PUSH1 0x4 PUSH1 0x40 MLOAD PUSH32 0xC4BD89A900000000000000000000000000000000000000000000000000000000 DUP2 MSTORE REVERT JUMPDEST SWAP2 PUSH20 0xFFFFFFFFFFFFFFFFFFFFFFFFFFFFFFFFFFFFFFFF SWAP4 PUSH2 0x3D4C SWAP2 PUSH1 0x40 MLOAD SWAP1 PUSH1 0x20 DUP3 ADD SWAP3 PUSH32 0xFFFFFFFFFFFFFFFFFFFFFFFFFFFFFFFFFFFFFFFF000000000000000000000000 DUP1 SWAP3 PUSH1 0x60 SHL AND DUP5 MSTORE PUSH1 0x60 SHL AND PUSH1 0x34 DUP3 ADD MSTORE PUSH1 0x28 DUP2 MSTORE PUSH2 0x3CAE DUP2 PUSH2 0x35DE JUMP JUMPDEST MLOAD SWAP1 KECCAK256 PUSH2 0x3D20 PUSH1 0x40 MLOAD SWAP4 DUP5 SWAP3 PUSH1 0x20 DUP5 ADD SWAP7 DUP8 SWAP2 PUSH32 0xFFFFFFFFFFFFFFFFFFFFFFFFFFFFFFFFFFFFFFFF000000000000000000000000 PUSH1 0x55 SWAP5 SWAP3 PUSH32 0xFF00000000000000000000000000000000000000000000000000000000000000 DUP6 MSTORE PUSH1 0x60 SHL AND PUSH1 0x1 DUP5 ADD MSTORE PUSH1 0x15 DUP4 ADD MSTORE PUSH1 0x35 DUP3 ADD MSTORE ADD SWAP1 JUMP JUMPDEST SUB PUSH32 0xFFFFFFFFFFFFFFFFFFFFFFFFFFFFFFFFFFFFFFFFFFFFFFFFFFFFFFFFFFFFFFE0 DUP2 ADD DUP4 MSTORE DUP3 PUSH2 0x35FA JUMP JUMPDEST MLOAD SWAP1 KECCAK256 AND SWAP1 JUMP JUMPDEST PUSH20 0xFFFFFFFFFFFFFFFFFFFFFFFFFFFFFFFFFFFFFFFF DUP3 DUP2 AND SWAP1 DUP3 AND LT ISZERO PUSH2 0x3D77 JUMPI SWAP2 JUMP JUMPDEST SWAP1 SWAP2 JUMP JUMPDEST MLOAD SWAP1 PUSH14 0xFFFFFFFFFFFFFFFFFFFFFFFFFFFF DUP3 AND DUP3 SUB PUSH2 0xA4E JUMPI JUMP JUMPDEST SWAP1 DUP2 PUSH1 0x60 SWAP2 SUB SLT PUSH2 0xA4E JUMPI PUSH2 0x3DAA DUP2 PUSH2 0x3D7B JUMP JUMPDEST SWAP2 PUSH1 0x40 PUSH2 0x3DB9 PUSH1 0x20 DUP5 ADD PUSH2 0x3D7B JUMP JUMPDEST SWAP3 ADD MLOAD PUSH4 0xFFFFFFFF DUP2 AND DUP2 SUB PUSH2 0xA4E JUMPI SWAP1 JUMP JUMPDEST SWAP3 PUSH1 0x2 DUP3 LT PUSH2 0x4242 JUMPI DUP2 ISZERO PUSH2 0x1B4C JUMPI PUSH2 0x3DE4 DUP5 PUSH2 0x3BB3 JUMP JUMPDEST SWAP2 PUSH1 0x1 SWAP5 DUP2 DUP7 LT ISZERO PUSH2 0x1B4C JUMPI SWAP2 PUSH2 0x3E02 PUSH1 0x20 SWAP5 PUSH2 0x190F DUP7 DUP7 ADD PUSH2 0x3BB3 JUMP JUMPDEST POP SWAP3 PUSH1 0x0 SWAP4 JUMPDEST PUSH32 0xFFFFFFFFFFFFFFFFFFFFFFFFFFFFFFFFFFFFFFFFFFFFFFFFFFFFFFFFFFFFFFFF DUP5 ADD DUP6 LT PUSH2 0x3E3B JUMPI POP POP POP POP POP POP POP POP JUMP JUMPDEST PUSH2 0x3E49 PUSH2 0x19B9 DUP7 DUP7 DUP6 PUSH2 0x3BA3 JUMP JUMPDEST SWAP3 PUSH2 0x3E5A PUSH2 0x19B9 DUP11 DUP9 ADD DUP8 DUP7 PUSH2 0x3BA3 JUMP JUMPDEST SWAP4 PUSH1 0x40 SWAP1 DUP2 MLOAD SWAP6 PUSH32 0x902F1AC00000000000000000000000000000000000000000000000000000000 DUP8 MSTORE PUSH20 0xFFFFFFFFFFFFFFFFFFFFFFFFFFFFFFFFFFFFFFFF DUP1 SWAP5 AND SWAP5 PUSH1 0x60 SWAP3 PUSH1 0x4 SWAP4 DUP1 DUP11 DUP7 DUP2 DUP12 GAS STATICCALL SWAP10 DUP11 ISZERO PUSH2 0x225B JUMPI SWAP1 DUP14 SWAP6 SWAP5 SWAP4 SWAP3 SWAP2 PUSH1 0x0 SWAP2 DUP3 SWAP13 PUSH2 0x421C JUMPI JUMPDEST POP POP DUP8 DUP1 SWAP2 PUSH14 0xFFFFFFFFFFFFFFFFFFFFFFFFFFFF DUP1 SWAP2 AND SWAP13 AND SWAP3 AND SWAP3 AND DUP3 EQ SWAP10 DUP11 PUSH1 0x0 EQ PUSH2 0x4216 JUMPI JUMPDEST DUP7 MLOAD SWAP6 DUP7 DUP1 SWAP5 PUSH32 0x70A0823100000000000000000000000000000000000000000000000000000000 DUP3 MSTORE DUP12 DUP9 DUP4 ADD MSTORE PUSH1 0x24 SWAP9 DUP10 SWAP2 GAS STATICCALL SWAP3 DUP4 ISZERO PUSH2 0x420B JUMPI DUP15 PUSH1 0x0 SWAP5 PUSH2 0x41DA JUMPI JUMPDEST POP POP DUP1 DUP4 SUB SWAP2 DUP2 ISZERO SWAP4 DUP5 DUP1 ISZERO PUSH2 0x41D2 JUMPI JUMPDEST PUSH2 0x41AA JUMPI DUP3 PUSH2 0x3E5 DUP1 DUP7 MUL SWAP6 DUP7 DIV EQ SWAP2 EQ OR ISZERO PUSH2 0x417D JUMPI PUSH2 0x3F62 SWAP1 DUP4 PUSH2 0x3AA3 JUMP JUMPDEST SWAP3 PUSH2 0x3E8 DUP1 DUP4 MUL SWAP3 DUP4 DIV EQ OR ISZERO PUSH2 0x4150 JUMPI PUSH2 0x3F87 SWAP3 SWAP2 PUSH2 0x3F81 SWAP2 PUSH2 0x426C JUMP JUMPDEST SWAP1 PUSH2 0x3AB6 JUMP JUMPDEST SWAP8 ISZERO PUSH2 0x4148 JUMPI PUSH1 0x0 SWAP8 SWAP1 JUMPDEST DUP10 DUP12 PUSH32 0xFFFFFFFFFFFFFFFFFFFFFFFFFFFFFFFFFFFFFFFFFFFFFFFFFFFFFFFFFFFFFFFE DUP3 ADD DUP2 LT ISZERO PUSH2 0x413C JUMPI SWAP2 PUSH2 0x190F PUSH2 0x19B9 PUSH2 0x3FD8 SWAP4 PUSH1 0x2 PUSH2 0x4022 SWAP13 SWAP7 ADD SWAP1 DUP14 PUSH2 0x3BA3 JUMP JUMPDEST DUP2 SWAP9 SWAP2 PUSH32 0x0 PUSH32 0x0 PUSH2 0x3C4B JUMP JUMPDEST SWAP7 JUMPDEST SWAP9 DUP6 MLOAD SWAP2 DUP14 DUP4 ADD SWAP4 PUSH8 0xFFFFFFFFFFFFFFFF SWAP5 DUP5 DUP2 LT DUP7 DUP3 GT OR PUSH2 0x410F JUMPI DUP9 MSTORE PUSH1 0x0 DUP5 MSTORE DUP2 EXTCODESIZE ISZERO PUSH2 0xA4E JUMPI PUSH1 0x0 DUP11 SWAP4 PUSH2 0x40A2 DUP3 SWAP7 DUP12 MLOAD SWAP13 DUP14 SWAP8 DUP9 SWAP7 DUP8 SWAP6 PUSH32 0x22C0D9F00000000000000000000000000000000000000000000000000000000 DUP8 MSTORE DUP14 DUP8 ADD MSTORE DUP14 DUP7 ADD MSTORE AND PUSH1 0x44 DUP5 ADD MSTORE PUSH1 0x80 PUSH1 0x64 DUP5 ADD MSTORE PUSH1 0x84 DUP4 ADD SWAP1 PUSH2 0xAF6 JUMP JUMPDEST SUB SWAP3 GAS CALL DUP1 ISZERO PUSH2 0x1AB8 JUMPI SWAP1 DUP14 SWAP7 SWAP6 SWAP5 SWAP4 SWAP3 SWAP2 PUSH2 0x40C7 JUMPI JUMPDEST POP POP POP POP POP SWAP5 ADD SWAP4 SWAP2 PUSH2 0x3E08 JUMP JUMPDEST SWAP1 SWAP2 SWAP3 SWAP4 DUP1 SWAP6 SWAP7 POP GT PUSH2 0x40E3 JUMPI POP POP MSTORE DUP8 SWAP1 CODESIZE DUP1 DUP1 DUP1 DUP1 PUSH2 0x40B9 JUMP JUMPDEST PUSH1 0x41 SWAP1 PUSH32 0x4E487B7100000000000000000000000000000000000000000000000000000000 PUSH1 0x0 MSTORE MSTORE PUSH1 0x0 REVERT JUMPDEST DUP8 PUSH1 0x41 DUP9 PUSH32 0x4E487B7100000000000000000000000000000000000000000000000000000000 PUSH1 0x0 MSTORE MSTORE PUSH1 0x0 REVERT JUMPDEST POP POP POP DUP12 SWAP6 PUSH1 0x0 PUSH2 0x4024 JUMP JUMPDEST PUSH1 0x0 SWAP1 PUSH2 0x3F92 JUMP JUMPDEST DUP6 PUSH1 0x11 DUP7 PUSH32 0x4E487B7100000000000000000000000000000000000000000000000000000000 PUSH1 0x0 MSTORE MSTORE PUSH1 0x0 REVERT JUMPDEST DUP7 PUSH1 0x11 DUP8 PUSH32 0x4E487B7100000000000000000000000000000000000000000000000000000000 PUSH1 0x0 MSTORE MSTORE PUSH1 0x0 REVERT JUMPDEST DUP7 DUP10 MLOAD PUSH32 0x7B9C891600000000000000000000000000000000000000000000000000000000 DUP2 MSTORE REVERT JUMPDEST POP DUP2 ISZERO PUSH2 0x3F41 JUMP JUMPDEST DUP2 DUP2 SWAP6 SWAP3 SWAP4 SWAP6 RETURNDATASIZE DUP4 GT PUSH2 0x4204 JUMPI JUMPDEST PUSH2 0x41F2 DUP2 DUP4 PUSH2 0x35FA JUMP JUMPDEST DUP2 ADD SUB SLT PUSH2 0x387 JUMPI POP MLOAD SWAP2 CODESIZE DUP15 PUSH2 0x3F30 JUMP JUMPDEST POP RETURNDATASIZE PUSH2 0x41E8 JUMP JUMPDEST DUP8 MLOAD RETURNDATASIZE PUSH1 0x0 DUP3 RETURNDATACOPY RETURNDATASIZE SWAP1 REVERT JUMPDEST SWAP1 PUSH2 0x3EEB JUMP JUMPDEST DUP10 SWAP13 POP DUP10 SWAP3 POP SWAP1 DUP2 PUSH2 0x4239 SWAP3 SWAP1 RETURNDATASIZE LT PUSH2 0x1F13 JUMPI PUSH2 0x1F02 DUP2 DUP4 PUSH2 0x35FA JUMP JUMPDEST POP SWAP12 SWAP1 SWAP2 PUSH2 0x3EC2 JUMP JUMPDEST PUSH1 0x4 PUSH1 0x40 MLOAD PUSH32 0xAE52AD0C00000000000000000000000000000000000000000000000000000000 DUP2 MSTORE REVERT JUMPDEST SWAP2 SWAP1 DUP3 ADD DUP1 SWAP3 GT PUSH2 0x1B03 JUMPI JUMP JUMPDEST SWAP2 DUP3 CALLDATALOAD DUP4 ADD SWAP2 PUSH2 0x4293 PUSH1 0x20 DUP5 CALLDATALOAD SWAP6 DUP2 DUP7 ADD SWAP6 SUB ADD DUP6 PUSH2 0x426C JUMP JUMPDEST GT PUSH2 0x105D JUMPI JUMP JUMPDEST SWAP2 PUSH1 0x20 DUP4 ADD CALLDATALOAD DUP4 ADD SWAP2 PUSH2 0x4293 PUSH1 0x20 DUP5 CALLDATALOAD SWAP6 DUP2 DUP7 ADD SWAP6 SUB ADD DUP6 PUSH2 0x426C JUMP JUMPDEST SWAP2 PUSH1 0x60 DUP4 ADD CALLDATALOAD DUP4 ADD SWAP2 PUSH2 0x4293 PUSH1 0x20 DUP5 CALLDATALOAD SWAP6 DUP2 DUP7 ADD SWAP6 SUB ADD DUP6 PUSH2 0x426C JUMP JUMPDEST PUSH32 0x8000000000000000000000000000000000000000000000000000000000000000 DUP2 EQ PUSH2 0x1B03 JUMPI PUSH1 0x0 SUB SWAP1 JUMP JUMPDEST SWAP4 SWAP2 SWAP4 PUSH1 0x2B DUP5 LT PUSH2 0x105D JUMPI DUP5 PUSH3 0xFFFFFF PUSH1 0x0 PUSH2 0x4386 SWAP5 PUSH2 0x440D PUSH2 0x43B8 SWAP10 CALLDATALOAD SWAP9 DUP10 PUSH1 0x60 SHR SWAP11 DUP12 SWAP11 PUSH2 0x435A PUSH1 0x17 DUP10 ADD CALLDATALOAD PUSH1 0x60 SHR SWAP14 DUP15 LT SWAP13 PUSH20 0xFFFFFFFFFFFFFFFFFFFFFFFFFFFFFFFFFFFFFFFF SWAP15 DUP16 SWAP10 DUP11 SWAP5 PUSH1 0x48 SHR AND SWAP2 PUSH2 0x4484 JUMP JUMPDEST AND SWAP7 DUP12 DUP7 EQ PUSH2 0x4469 JUMPI PUSH5 0x1000276A4 SWAP11 JUMPDEST PUSH1 0x40 SWAP14 DUP15 SWAP12 DUP13 SWAP4 DUP5 MLOAD SWAP7 DUP8 SWAP6 PUSH1 0x20 DUP8 ADD MSTORE PUSH1 0x60 DUP7 ADD SWAP2 PUSH2 0x3537 JUMP JUMPDEST SWAP2 AND DUP12 DUP4 ADD MSTORE SUB PUSH32 0xFFFFFFFFFFFFFFFFFFFFFFFFFFFFFFFFFFFFFFFFFFFFFFFFFFFFFFFFFFFFFFE0 DUP2 ADD DUP4 MSTORE DUP3 PUSH2 0x35FA JUMP JUMPDEST DUP5 DUP9 MLOAD SWAP10 DUP11 SWAP9 DUP10 SWAP8 DUP9 SWAP7 PUSH32 0x128ACB0800000000000000000000000000000000000000000000000000000000 DUP9 MSTORE AND PUSH1 0x4 DUP8 ADD MSTORE DUP13 PUSH1 0x24 DUP8 ADD MSTORE PUSH1 0x44 DUP7 ADD MSTORE AND PUSH1 0x64 DUP5 ADD MSTORE PUSH1 0xA0 PUSH1 0x84 DUP5 ADD MSTORE PUSH1 0xA4 DUP4 ADD SWAP1 PUSH2 0xAF6 JUMP JUMPDEST SUB SWAP3 GAS CALL SWAP1 DUP2 ISZERO PUSH2 0x445E JUMPI PUSH1 0x0 SWAP4 DUP5 SWAP3 PUSH2 0x4428 JUMPI JUMPDEST POP POP SWAP2 SWAP3 JUMP JUMPDEST SWAP1 DUP1 SWAP5 SWAP3 POP DUP2 RETURNDATASIZE DUP4 GT PUSH2 0x4457 JUMPI JUMPDEST PUSH2 0x4440 DUP2 DUP4 PUSH2 0x35FA JUMP JUMPDEST DUP2 ADD SUB SLT PUSH2 0x387 JUMPI POP PUSH1 0x20 DUP3 MLOAD SWAP3 ADD MLOAD CODESIZE DUP1 PUSH2 0x4422 JUMP JUMPDEST POP RETURNDATASIZE PUSH2 0x4436 JUMP JUMPDEST DUP4 MLOAD RETURNDATASIZE PUSH1 0x0 DUP3 RETURNDATACOPY RETURNDATASIZE SWAP1 REVERT JUMPDEST PUSH20 0xFFFD8963EFD1FC6A506488495D951D5263988D25 SWAP11 PUSH2 0x436B JUMP JUMPDEST PUSH20 0xFFFFFFFFFFFFFFFFFFFFFFFFFFFFFFFFFFFFFFFF SWAP3 DUP4 DUP4 AND DUP5 DUP4 AND GT PUSH2 0x45E8 JUMPI JUMPDEST PUSH3 0xFFFFFF SWAP1 DUP5 PUSH1 0x40 MLOAD SWAP5 DUP2 PUSH1 0x20 DUP8 ADD SWAP6 AND DUP6 MSTORE AND PUSH1 0x40 DUP6 ADD MSTORE AND PUSH1 0x60 DUP4 ADD MSTORE PUSH1 0x60 DUP3 MSTORE PUSH1 0x80 DUP3 ADD SWAP1 DUP3 DUP3 LT PUSH8 0xFFFFFFFFFFFFFFFF DUP4 GT OR PUSH2 0xF7D JUMPI PUSH32 0xFFFFFFFFFFFFFFFFFFFFFFFFFFFFFFFFFFFFFFFFFFFFFFFFFFFFFFFFFFFFFF80 PUSH2 0x3D4C SWAP2 DUP4 PUSH1 0x40 MSTORE DUP5 MLOAD SWAP1 KECCAK256 SWAP4 PUSH2 0x45BB PUSH1 0xA0 DUP3 ADD SWAP6 PUSH32 0x0 SWAP1 PUSH32 0x0 DUP9 SWAP2 PUSH32 0xFFFFFFFFFFFFFFFFFFFFFFFFFFFFFFFFFFFFFFFF000000000000000000000000 PUSH1 0x55 SWAP5 SWAP3 PUSH32 0xFF00000000000000000000000000000000000000000000000000000000000000 DUP6 MSTORE PUSH1 0x60 SHL AND PUSH1 0x1 DUP5 ADD MSTORE PUSH1 0x15 DUP4 ADD MSTORE PUSH1 0x35 DUP3 ADD MSTORE ADD SWAP1 JUMP JUMPDEST SUB PUSH32 0xFFFFFFFFFFFFFFFFFFFFFFFFFFFFFFFFFFFFFFFFFFFFFFFFFFFFFFFFFFFFFF60 DUP2 ADD DUP5 MSTORE ADD DUP3 PUSH2 0x35FA JUMP JUMPDEST SWAP1 SWAP2 SWAP1 PUSH2 0x44A6 JUMP INVALID LOG1 PUSH5 0x736F6C6343 STOP ADDMOD GT STOP EXP "},"methodIdentifiers":{"collectRewards(bytes)":"709a1cc2","execute(bytes,bytes[])":"24856bc3","execute(bytes,bytes[],uint256)":"3593564c","onERC1155BatchReceived(address,address,uint256[],uint256[],bytes)":"bc197c81","onERC1155Received(address,address,uint256,uint256,bytes)":"f23a6e61","onERC721Received(address,address,uint256,bytes)":"150b7a02","supportsInterface(bytes4)":"01ffc9a7","uniswapV3SwapCallback(int256,int256,bytes)":"fa461e33"}}}}}