{"permit2/src/Permit2.sol":{"Permit2":{"abi":[{"inputs":[{"internalType":"uint256","name":"deadline","type":"uint256"}],"name":"AllowanceExpired","type":"error"},{"inputs":[],"name":"ExcessiveInvalidation","type":"error"},{"inputs":[{"internalType":"uint256","name":"amount","type":"uint256"}],"name":"InsufficientAllowance","type":"error"},{"inputs":[{"internalType":"uint256","name":"maxAmount","type":"uint256"}],"name":"InvalidAmount","type":"error"},{"inputs":[],"name":"InvalidContractSignature","type":"error"},{"inputs":[],"name":"InvalidNonce","type":"error"},{"inputs":[],"name":"InvalidSignature","type":"error"},{"inputs":[],"name":"InvalidSignatureLength","type":"error"},{"inputs":[],"name":"InvalidSigner","type":"error"},{"inputs":[],"name":"LengthMismatch","type":"error"},{"inputs":[{"internalType":"uint256","name":"signatureDeadline","type":"uint256"}],"name":"SignatureExpired","type":"error"},{"anonymous":false,"inputs":[{"indexed":true,"internalType":"address","name":"owner","type":"address"},{"indexed":true,"internalType":"address","name":"token","type":"address"},{"indexed":true,"internalType":"address","name":"spender","type":"address"},{"indexed":false,"internalType":"uint160","name":"amount","type":"uint160"},{"indexed":false,"internalType":"uint48","name":"expiration","type":"uint48"}],"name":"Approval","type":"event"},{"anonymous":false,"inputs":[{"indexed":true,"internalType":"address","name":"owner","type":"address"},{"indexed":false,"internalType":"address","name":"token","type":"address"},{"indexed":false,"internalType":"address","name":"spender","type":"address"}],"name":"Lockdown","type":"event"},{"anonymous":false,"inputs":[{"indexed":true,"internalType":"address","name":"owner","type":"address"},{"indexed":true,"internalType":"address","name":"token","type":"address"},{"indexed":true,"internalType":"address","name":"spender","type":"address"},{"indexed":false,"internalType":"uint48","name":"newNonce","type":"uint48"},{"indexed":false,"internalType":"uint48","name":"oldNonce","type":"uint48"}],"name":"NonceInvalidation","type":"event"},{"anonymous":false,"inputs":[{"indexed":true,"internalType":"address","name":"owner","type":"address"},{"indexed":true,"internalType":"address","name":"token","type":"address"},{"indexed":true,"internalType":"address","name":"spender","type":"address"},{"indexed":false,"internalType":"uint160","name":"amount","type":"uint160"},{"indexed":false,"internalType":"uint48","name":"expiration","type":"uint48"},{"indexed":false,"internalType":"uint48","name":"nonce","type":"uint48"}],"name":"Permit","type":"event"},{"anonymous":false,"inputs":[{"indexed":true,"internalType":"address","name":"owner","type":"address"},{"indexed":false,"internalType":"uint256","name":"word","type":"uint256"},{"indexed":false,"internalType":"uint256","name":"mask","type":"uint256"}],"name":"UnorderedNonceInvalidation","type":"event"},{"inputs":[],"name":"DOMAIN_SEPARATOR","outputs":[{"internalType":"bytes32","name":"","type":"bytes32"}],"stateMutability":"view","type":"function"},{"inputs":[{"internalType":"address","name":"","type":"address"},{"internalType":"address","name":"","type":"address"},{"internalType":"address","name":"","type":"address"}],"name":"allowance","outputs":[{"internalType":"uint160","name":"amount","type":"uint160"},{"internalType":"uint48","name":"expiration","type":"uint48"},{"internalType":"uint48","name":"nonce","type":"uint48"}],"stateMutability":"view","type":"function"},{"inputs":[{"internalType":"address","name":"token","type":"address"},{"internalType":"address","name":"spender","type":"address"},{"internalType":"uint160","name":"amount","type":"uint160"},{"internalType":"uint48","name":"expiration","type":"uint48"}],"name":"approve","outputs":[],"stateMutability":"nonpayable","type":"function"},{"inputs":[{"internalType":"address","name":"token","type":"address"},{"internalType":"address","name":"spender","type":"address"},{"internalType":"uint48","name":"newNonce","type":"uint48"}],"name":"invalidateNonces","outputs":[],"stateMutability":"nonpayable","type":"function"},{"inputs":[{"internalType":"uint256","name":"wordPos","type":"uint256"},{"internalType":"uint256","name":"mask","type":"uint256"}],"name":"invalidateUnorderedNonces","outputs":[],"stateMutability":"nonpayable","type":"function"},{"inputs":[{"components":[{"internalType":"address","name":"token","type":"address"},{"internalType":"address","name":"spender","type":"address"}],"internalType":"struct IAllowanceTransfer.TokenSpenderPair[]","name":"approvals","type":"tuple[]"}],"name":"lockdown","outputs":[],"stateMutability":"nonpayable","type":"function"},{"inputs":[{"internalType":"address","name":"","type":"address"},{"internalType":"uint256","name":"","type":"uint256"}],"name":"nonceBitmap","outputs":[{"internalType":"uint256","name":"","type":"uint256"}],"stateMutability":"view","type":"function"},{"inputs":[{"internalType":"address","name":"owner","type":"address"},{"components":[{"components":[{"internalType":"address","name":"token","type":"address"},{"internalType":"uint160","name":"amount","type":"uint160"},{"internalType":"uint48","name":"expiration","type":"uint48"},{"internalType":"uint48","name":"nonce","type":"uint48"}],"internalType":"struct IAllowanceTransfer.PermitDetails[]","name":"details","type":"tuple[]"},{"internalType":"address","name":"spender","type":"address"},{"internalType":"uint256","name":"sigDeadline","type":"uint256"}],"internalType":"struct IAllowanceTransfer.PermitBatch","name":"permitBatch","type":"tuple"},{"internalType":"bytes","name":"signature","type":"bytes"}],"name":"permit","outputs":[],"stateMutability":"nonpayable","type":"function"},{"inputs":[{"internalType":"address","name":"owner","type":"address"},{"components":[{"components":[{"internalType":"address","name":"token","type":"address"},{"internalType":"uint160","name":"amount","type":"uint160"},{"internalType":"uint48","name":"expiration","type":"uint48"},{"internalType":"uint48","name":"nonce","type":"uint48"}],"internalType":"struct IAllowanceTransfer.PermitDetails","name":"details","type":"tuple"},{"internalType":"address","name":"spender","type":"address"},{"internalType":"uint256","name":"sigDeadline","type":"uint256"}],"internalType":"struct IAllowanceTransfer.PermitSingle","name":"permitSingle","type":"tuple"},{"internalType":"bytes","name":"signature","type":"bytes"}],"name":"permit","outputs":[],"stateMutability":"nonpayable","type":"function"},{"inputs":[{"components":[{"components":[{"internalType":"address","name":"token","type":"address"},{"internalType":"uint256","name":"amount","type":"uint256"}],"internalType":"struct ISignatureTransfer.TokenPermissions","name":"permitted","type":"tuple"},{"internalType":"uint256","name":"nonce","type":"uint256"},{"internalType":"uint256","name":"deadline","type":"uint256"}],"internalType":"struct ISignatureTransfer.PermitTransferFrom","name":"permit","type":"tuple"},{"components":[{"internalType":"address","name":"to","type":"address"},{"internalType":"uint256","name":"requestedAmount","type":"uint256"}],"internalType":"struct ISignatureTransfer.SignatureTransferDetails","name":"transferDetails","type":"tuple"},{"internalType":"address","name":"owner","type":"address"},{"internalType":"bytes","name":"signature","type":"bytes"}],"name":"permitTransferFrom","outputs":[],"stateMutability":"nonpayable","type":"function"},{"inputs":[{"components":[{"components":[{"internalType":"address","name":"token","type":"address"},{"internalType":"uint256","name":"amount","type":"uint256"}],"internalType":"struct ISignatureTransfer.TokenPermissions[]","name":"permitted","type":"tuple[]"},{"internalType":"uint256","name":"nonce","type":"uint256"},{"internalType":"uint256","name":"deadline","type":"uint256"}],"internalType":"struct ISignatureTransfer.PermitBatchTransferFrom","name":"permit","type":"tuple"},{"components":[{"internalType":"address","name":"to","type":"address"},{"internalType":"uint256","name":"requestedAmount","type":"uint256"}],"internalType":"struct ISignatureTransfer.SignatureTransferDetails[]","name":"transferDetails","type":"tuple[]"},{"internalType":"address","name":"owner","type":"address"},{"internalType":"bytes","name":"signature","type":"bytes"}],"name":"permitTransferFrom","outputs":[],"stateMutability":"nonpayable","type":"function"},{"inputs":[{"components":[{"components":[{"internalType":"address","name":"token","type":"address"},{"internalType":"uint256","name":"amount","type":"uint256"}],"internalType":"struct ISignatureTransfer.TokenPermissions","name":"permitted","type":"tuple"},{"internalType":"uint256","name":"nonce","type":"uint256"},{"internalType":"uint256","name":"deadline","type":"uint256"}],"internalType":"struct ISignatureTransfer.PermitTransferFrom","name":"permit","type":"tuple"},{"components":[{"internalType":"address","name":"to","type":"address"},{"internalType":"uint256","name":"requestedAmount","type":"uint256"}],"internalType":"struct ISignatureTransfer.SignatureTransferDetails","name":"transferDetails","type":"tuple"},{"internalType":"address","name":"owner","type":"address"},{"internalType":"bytes32","name":"witness","type":"bytes32"},{"internalType":"string","name":"witnessTypeString","type":"string"},{"internalType":"bytes","name":"signature","type":"bytes"}],"name":"permitWitnessTransferFrom","outputs":[],"stateMutability":"nonpayable","type":"function"},{"inputs":[{"components":[{"components":[{"internalType":"address","name":"token","type":"address"},{"internalType":"uint256","name":"amount","type":"uint256"}],"internalType":"struct ISignatureTransfer.TokenPermissions[]","name":"permitted","type":"tuple[]"},{"internalType":"uint256","name":"nonce","type":"uint256"},{"internalType":"uint256","name":"deadline","type":"uint256"}],"internalType":"struct ISignatureTransfer.PermitBatchTransferFrom","name":"permit","type":"tuple"},{"components":[{"internalType":"address","name":"to","type":"address"},{"internalType":"uint256","name":"requestedAmount","type":"uint256"}],"internalType":"struct ISignatureTransfer.SignatureTransferDetails[]","name":"transferDetails","type":"tuple[]"},{"internalType":"address","name":"owner","type":"address"},{"internalType":"bytes32","name":"witness","type":"bytes32"},{"internalType":"string","name":"witnessTypeString","type":"string"},{"internalType":"bytes","name":"signature","type":"bytes"}],"name":"permitWitnessTransferFrom","outputs":[],"stateMutability":"nonpayable","type":"function"},{"inputs":[{"components":[{"internalType":"address","name":"from","type":"address"},{"internalType":"address","name":"to","type":"address"},{"internalType":"uint160","name":"amount","type":"uint160"},{"internalType":"address","name":"token","type":"address"}],"internalType":"struct IAllowanceTransfer.AllowanceTransferDetails[]","name":"transferDetails","type":"tuple[]"}],"name":"transferFrom","outputs":[],"stateMutability":"nonpayable","type":"function"},{"inputs":[{"internalType":"address","name":"from","type":"address"},{"internalType":"address","name":"to","type":"address"},{"internalType":"uint160","name":"amount","type":"uint160"},{"internalType":"address","name":"token","type":"address"}],"name":"transferFrom","outputs":[],"stateMutability":"nonpayable","type":"function"}],"evm":{"bytecode":{"linkReferences":{},"object":"60c0346100bb574660a052602081017f8cad95687ba82c2ce50e74f7b754645e5117c3a5bec8151c0726d5857980a86681527f9ac997416e8ff9d2ff6bebeb7149f65cdae5e32e2b90440b566bb3044041d36a60408301524660608301523060808301526080825260a082019180831060018060401b038411176100a557826040525190206080526123c090816100c1823960805181611a90015260a05181611a6a0152f35b634e487b7160e01b600052604160045260246000fd5b600080fdfe6040608081526004908136101561001557600080fd5b600090813560e01c80630d58b1db1461126c578063137c29fe146110755780632a2d80d114610db75780632b67b57014610bde57806330f28b7a14610ade5780633644e51514610a9d57806336c7851614610a285780633ff9dcb1146109a85780634fe02b441461093f57806365d9723c146107ac57806387517c451461067a578063927da105146105c3578063cc53287f146104a3578063edd9444b1461033a5763fe8ec1a7146100c657600080fd5b346103365760c07ffffffffffffffffffffffffffffffffffffffffffffffffffffffffffffffffc3601126103365767ffffffffffffffff833581811161033257610114903690860161164b565b60243582811161032e5761012b903690870161161a565b6101336114e6565b9160843585811161032a5761014b9036908a016115c1565b98909560a43590811161032657610164913691016115c1565b969095815190610173826113ff565b606b82527f5065726d697442617463685769746e6573735472616e7366657246726f6d285460208301527f6f6b656e5065726d697373696f6e735b5d207065726d69747465642c61646472838301527f657373207370656e6465722c75696e74323536206e6f6e63652c75696e74323560608301527f3620646561646c696e652c000000000000000000000000000000000000000000608083015282519a8b9181610222602085018096611edc565b918237018a8152039961025b7fffffffffffffffffffffffffffffffffffffffffffffffffffffffffffffffe09b8c8101835282611437565b5190209085515161026b81611e04565b908a5b8181106102f95750506102f6999a6102ed9183516102a081610294602082018095611eaf565b03848101835282611437565b519020602089810151858b015195519182019687526040820192909252336060820152608081019190915260a081019390935260643560c08401528260e081015b03908101835282611437565b51902093611c40565b80f35b8061031161030b610321938c5161175e565b51611f9d565b61031b828661175e565b52611e53565b61026e565b8880fd5b8780fd5b8480fd5b8380fd5b5080fd5b5091346103365760807ffffffffffffffffffffffffffffffffffffffffffffffffffffffffffffffffc3601126103365767ffffffffffffffff9080358281116103325761038b903690830161164b565b60243583811161032e576103a2903690840161161a565b9390926103ad6114e6565b9160643590811161049f576103c4913691016115c1565b949093835151976103d489611e04565b98885b81811061047d5750506102f697988151610425816103f9602082018095611eaf565b037fffffffffffffffffffffffffffffffffffffffffffffffffffffffffffffffe08101835282611437565b5190206020860151828701519083519260208401947ffcf35f5ac6a2c28868dc44c302166470266239195f02b0ee408334829333b7668652840152336060840152608083015260a082015260a081526102ed8161141b565b808b61031b8261049461030b61049a968d5161175e565b9261175e565b6103d7565b8680fd5b5082346105bf57602090817ffffffffffffffffffffffffffffffffffffffffffffffffffffffffffffffffc3601126103325780359067ffffffffffffffff821161032e576104f49136910161161a565b929091845b848110610504578580f35b8061051a61051560019388886118b5565b6118c5565b61052f84610529848a8a6118b5565b016118c5565b3389528385528589209173ffffffffffffffffffffffffffffffffffffffff80911692838b528652868a20911690818a5285528589207fffffffffffffffffffffffff000000000000000000000000000000000000000081541690558551918252848201527f89b1add15eff56b3dfe299ad94e01f2b52fbcb80ae1a3baea6ae8c04cb2b98a4853392a2016104f9565b8280fd5b50346103365760607ffffffffffffffffffffffffffffffffffffffffffffffffffffffffffffffffc36011261033657610676816105ff6114a0565b936106086114c3565b6106106114e6565b73ffffffffffffffffffffffffffffffffffffffff968716835260016020908152848420928816845291825283832090871683528152919020549251938316845260a083901c65ffffffffffff169084015260d09190911c604083015281906060820190565b0390f35b50346103365760807ffffffffffffffffffffffffffffffffffffffffffffffffffffffffffffffffc360112610336576106b26114a0565b906106bb6114c3565b916106c46114e6565b65ffffffffffff926064358481169081810361032a5779ffffffffffff0000000000000000000000000000000000000000947fda9fa7c1b00402c17d0161b249b1ab8bbec047c5a52207b9c112deffd817036b94338a5260016020527fffffffffffff0000000000000000000000000000000000000000000000000000858b209873ffffffffffffffffffffffffffffffffffffffff809416998a8d5260205283878d209b169a8b8d52602052868c209486156000146107a457504216925b8454921697889360a01b16911617179055815193845260208401523392a480f35b905092610783565b5082346105bf5760607ffffffffffffffffffffffffffffffffffffffffffffffffffffffffffffffffc3601126105bf576107e56114a0565b906107ee6114c3565b9265ffffffffffff604435818116939084810361032a57338852602091600183528489209673ffffffffffffffffffffffffffffffffffffffff80911697888b528452858a20981697888a5283528489205460d01c93848711156109175761ffff9085840316116108f05750907f55eb90d810e1700b35a8e7e25395ff7f2b2259abd7415ca2284dfb1c246418f393929133895260018252838920878a528252838920888a5282528389209079ffffffffffffffffffffffffffffffffffffffffffffffffffff7fffffffffffff000000000000000000000000000000000000000000000000000083549260d01b16911617905582519485528401523392a480f35b84517f24d35a26000000000000000000000000000000000000000000000000000000008152fd5b5084517f756688fe000000000000000000000000000000000000000000000000000000008152fd5b503461033657807ffffffffffffffffffffffffffffffffffffffffffffffffffffffffffffffffc360112610336578060209273ffffffffffffffffffffffffffffffffffffffff61098f6114a0565b1681528084528181206024358252845220549051908152f35b5082346105bf57817ffffffffffffffffffffffffffffffffffffffffffffffffffffffffffffffffc3601126105bf577f3704902f963766a4e561bbaab6e6cdc1b1dd12f6e9e99648da8843b3f46b918d90359160243533855284602052818520848652602052818520818154179055815193845260208401523392a280f35b8234610a9a5760807ffffffffffffffffffffffffffffffffffffffffffffffffffffffffffffffffc360112610a9a57610a606114a0565b610a686114c3565b610a706114e6565b6064359173ffffffffffffffffffffffffffffffffffffffff8316830361032e576102f6936117a1565b80fd5b503461033657817ffffffffffffffffffffffffffffffffffffffffffffffffffffffffffffffffc36011261033657602090610ad7611a67565b9051908152f35b508290346105bf576101007ffffffffffffffffffffffffffffffffffffffffffffffffffffffffffffffffc3601126105bf57610b1a3661152a565b90807fffffffffffffffffffffffffffffffffffffffffffffffffffffffffffffff7c36011261033257610b4c611478565b9160e43567ffffffffffffffff8111610bda576102f694610b6f913691016115c1565b939092610b7c8351611f9d565b6020840151828501519083519260208401947f939c21a48a8dbe3a9a2404a1d46691e4d39f6583d6ec6b35714604c986d801068652840152336060840152608083015260a082015260a08152610bd18161141b565b51902091611b6e565b8580fd5b509134610336576101007ffffffffffffffffffffffffffffffffffffffffffffffffffffffffffffffffc36011261033657610c186114a0565b7fffffffffffffffffffffffffffffffffffffffffffffffffffffffffffffffdc360160c08112610332576080855191610c51836113e3565b1261033257845190610c6282611398565b73ffffffffffffffffffffffffffffffffffffffff91602435838116810361049f578152604435838116810361049f57602082015265ffffffffffff606435818116810361032a5788830152608435908116810361049f576060820152815260a435938285168503610bda576020820194855260c4359087830182815260e43567ffffffffffffffff811161032657610cfe90369084016115c1565b929093804211610d88575050918591610d786102f6999a610d7e95610d238851611f07565b90898c511690519083519260208401947ff3841cd1ff0085026a6327b620b67997ce40f282c88a8e905a7a5626e310f3d086528401526060830152608082015260808152610d70816113ff565b519020611b22565b91612010565b51925116916118e6565b602492508a51917fcd21db4f000000000000000000000000000000000000000000000000000000008352820152fd5b5091346103365760607ffffffffffffffffffffffffffffffffffffffffffffffffffffffffffffffffc93818536011261033257610df36114a0565b9260249081359267ffffffffffffffff9788851161032a578590853603011261049f578051978589018981108282111761104a578252848301358181116103265785019036602383011215610326578382013591610e50836115ef565b90610e5d85519283611437565b838252602093878584019160071b83010191368311611046578801905b828210610fe9575050508a526044610e93868801611509565b96838c01978852013594838b0191868352604435908111610fe557610ebb90369087016115c1565b959096804211610fba575050508998995151610ed681611e04565b908b5b818110610f9757505092889492610d7892610f6497958351610f02816103f98682018095611eaf565b5190209073ffffffffffffffffffffffffffffffffffffffff9a8b8b51169151928551948501957faf1b0d30d2cab0380e68f0689007e3254993c596f2fdd0aaa7f4d04f794408638752850152830152608082015260808152610d70816113ff565b51169082515192845b848110610f78578580f35b80610f918585610f8b600195875161175e565b516118e6565b01610f6d565b80610311610fac8e9f9e93610fb2945161175e565b51611f07565b9b9a9b610ed9565b8551917fcd21db4f000000000000000000000000000000000000000000000000000000008352820152fd5b8a80fd5b6080823603126110465785608091885161100281611398565b61100b85611509565b8152611018838601611509565b838201526110278a8601611607565b8a8201528d611037818701611607565b90820152815201910190610e7a565b8c80fd5b84896041867f4e487b7100000000000000000000000000000000000000000000000000000000835252fd5b5082346105bf576101407ffffffffffffffffffffffffffffffffffffffffffffffffffffffffffffffffc3601126105bf576110b03661152a565b91807fffffffffffffffffffffffffffffffffffffffffffffffffffffffffffffff7c360112610332576110e2611478565b67ffffffffffffffff93906101043585811161049f5761110590369086016115c1565b90936101243596871161032a57611125610bd1966102f6983691016115c1565b969095825190611134826113ff565b606482527f5065726d69745769746e6573735472616e7366657246726f6d28546f6b656e5060208301527f65726d697373696f6e73207065726d69747465642c6164647265737320737065848301527f6e6465722c75696e74323536206e6f6e63652c75696e7432353620646561646c60608301527f696e652c0000000000000000000000000000000000000000000000000000000060808301528351948591816111e3602085018096611edc565b918237018b8152039361121c7fffffffffffffffffffffffffffffffffffffffffffffffffffffffffffffffe095868101835282611437565b5190209261122a8651611f9d565b6020878101518589015195519182019687526040820192909252336060820152608081019190915260a081019390935260e43560c08401528260e081016102e1565b5082346105bf576020807ffffffffffffffffffffffffffffffffffffffffffffffffffffffffffffffffc36011261033257813567ffffffffffffffff92838211610bda5736602383011215610bda5781013592831161032e576024906007368386831b8401011161049f57865b8581106112e5578780f35b80821b83019060807fffffffffffffffffffffffffffffffffffffffffffffffffffffffffffffffdc83360301126103265761139288876001946060835161132c81611398565b611368608461133c8d8601611509565b9485845261134c60448201611509565b809785015261135d60648201611509565b809885015201611509565b918291015273ffffffffffffffffffffffffffffffffffffffff80808093169516931691166117a1565b016112da565b6080810190811067ffffffffffffffff8211176113b457604052565b7f4e487b7100000000000000000000000000000000000000000000000000000000600052604160045260246000fd5b6060810190811067ffffffffffffffff8211176113b457604052565b60a0810190811067ffffffffffffffff8211176113b457604052565b60c0810190811067ffffffffffffffff8211176113b457604052565b90601f7fffffffffffffffffffffffffffffffffffffffffffffffffffffffffffffffe0910116810190811067ffffffffffffffff8211176113b457604052565b60c4359073ffffffffffffffffffffffffffffffffffffffff8216820361149b57565b600080fd5b6004359073ffffffffffffffffffffffffffffffffffffffff8216820361149b57565b6024359073ffffffffffffffffffffffffffffffffffffffff8216820361149b57565b6044359073ffffffffffffffffffffffffffffffffffffffff8216820361149b57565b359073ffffffffffffffffffffffffffffffffffffffff8216820361149b57565b7ffffffffffffffffffffffffffffffffffffffffffffffffffffffffffffffffc01906080821261149b576040805190611563826113e3565b8082941261149b57805181810181811067ffffffffffffffff8211176113b457825260043573ffffffffffffffffffffffffffffffffffffffff8116810361149b578152602435602082015282526044356020830152606435910152565b9181601f8401121561149b5782359167ffffffffffffffff831161149b576020838186019501011161149b57565b67ffffffffffffffff81116113b45760051b60200190565b359065ffffffffffff8216820361149b57565b9181601f8401121561149b5782359167ffffffffffffffff831161149b576020808501948460061b01011161149b57565b91909160608184031261149b576040805191611666836113e3565b8294813567ffffffffffffffff9081811161149b57830182601f8201121561149b578035611693816115ef565b926116a087519485611437565b818452602094858086019360061b8501019381851161149b579086899897969594939201925b8484106116e3575050505050855280820135908501520135910152565b90919293949596978483031261149b578851908982019082821085831117611730578a928992845261171487611509565b81528287013583820152815201930191908897969594936116c6565b602460007f4e487b710000000000000000000000000000000000000000000000000000000081526041600452fd5b80518210156117725760209160051b010190565b7f4e487b7100000000000000000000000000000000000000000000000000000000600052603260045260246000fd5b92919273ffffffffffffffffffffffffffffffffffffffff604060008284168152600160205282828220961695868252602052818120338252602052209485549565ffffffffffff8760a01c16804211611884575082871696838803611812575b5050611810955016926122fc565b565b878484161160001461184f57602488604051907ff96fb0710000000000000000000000000000000000000000000000000000000082526004820152fd5b7fffffffffffffffffffffffff000000000000000000000000000000000000000084846118109a031691161790553880611802565b602490604051907fd81b2f2e0000000000000000000000000000000000000000000000000000000082526004820152fd5b91908110156117725760061b0190565b3573ffffffffffffffffffffffffffffffffffffffff8116810361149b5790565b9065ffffffffffff908160608401511673ffffffffffffffffffffffffffffffffffffffff908185511694826020820151169280866040809401511695169560009187835260016020528383208984526020528383209916988983526020528282209184835460d01c03611a3e579185611a1794927fc6a377bfc4eb120024a8ac08eef205be16b817020812c73223e81d1bdb9708ec98979694508715600014611a1c5779ffffffffffff00000000000000000000000000000000000000009042165b60a01b167fffffffffffff00000000000000000000000000000000000000000000000000006001860160d01b1617179055519384938491604091949373ffffffffffffffffffffffffffffffffffffffff606085019616845265ffffffffffff809216602085015216910152565b0390a4565b5079ffffffffffff0000000000000000000000000000000000000000876119a9565b600484517f756688fe000000000000000000000000000000000000000000000000000000008152fd5b467f000000000000000000000000000000000000000000000000000000000000000003611ab2577f000000000000000000000000000000000000000000000000000000000000000090565b60405160208101907f8cad95687ba82c2ce50e74f7b754645e5117c3a5bec8151c0726d5857980a86682527f9ac997416e8ff9d2ff6bebeb7149f65cdae5e32e2b90440b566bb3044041d36a604082015246606082015230608082015260808152611b1c816113ff565b51902090565b611b2a611a67565b906040519060208201927f190100000000000000000000000000000000000000000000000000000000000084526022830152604282015260428152611b1c81611398565b9192909360a435936040840151804211611c0f5750602084510151808611611bde5750918591610d78611bae94611ba9602088015186611d90565b611b22565b73ffffffffffffffffffffffffffffffffffffffff809151511692608435918216820361149b57611810936122fc565b602490604051907f3728b83d0000000000000000000000000000000000000000000000000000000082526004820152fd5b602490604051907fcd21db4f0000000000000000000000000000000000000000000000000000000082526004820152fd5b959093958051519560409283830151804211611d605750848803611d3757611c77918691610d7860209b611ba98d88015186611d90565b60005b868110611c8b575050505050505050565b611c9681835161175e565b5188611ca383878a6118b5565b01359089810151808311611d07575091818888886001968596611ccd575b50505050505001611c7a565b611cfc95611cf69273ffffffffffffffffffffffffffffffffffffffff610515935116956118b5565b916122fc565b803888888883611cc1565b6024908651907f3728b83d0000000000000000000000000000000000000000000000000000000082526004820152fd5b600484517fff633a38000000000000000000000000000000000000000000000000000000008152fd5b6024908551907fcd21db4f0000000000000000000000000000000000000000000000000000000082526004820152fd5b9073ffffffffffffffffffffffffffffffffffffffff600160ff83161b9216600052600060205260406000209060081c6000526020526040600020818154188091551615611dda57565b60046040517f756688fe000000000000000000000000000000000000000000000000000000008152fd5b90611e0e826115ef565b611e1b6040519182611437565b8281527fffffffffffffffffffffffffffffffffffffffffffffffffffffffffffffffe0611e4982946115ef565b0190602036910137565b7fffffffffffffffffffffffffffffffffffffffffffffffffffffffffffffffff8114611e805760010190565b7f4e487b7100000000000000000000000000000000000000000000000000000000600052601160045260246000fd5b805160208092019160005b828110611ec8575050505090565b835185529381019392810192600101611eba565b9081519160005b838110611ef4575050016000815290565b8060208092840101518185015201611ee3565b60405160208101917f65626cad6cb96493bf6f5ebea28756c966f023ab9e8a83a7101849d5573b3678835273ffffffffffffffffffffffffffffffffffffffff8082511660408401526020820151166060830152606065ffffffffffff9182604082015116608085015201511660a082015260a0815260c0810181811067ffffffffffffffff8211176113b45760405251902090565b6040516020808201927f618358ac3db8dc274f0cd8829da7e234bd48cd73c4a740aede1adec9846d06a1845273ffffffffffffffffffffffffffffffffffffffff81511660408401520151606082015260608152611b1c81611398565b919082604091031261149b576020823592013590565b6000843b6121775750604182036120f55761202d82820182611ffa565b939092604010156117725760209360009360ff6040608095013560f81c5b60405194855216868401526040830152606082015282805260015afa156120e95773ffffffffffffffffffffffffffffffffffffffff80600051169182156120bf57160361209557565b60046040517f815e1d64000000000000000000000000000000000000000000000000000000008152fd5b60046040517f8baa579f000000000000000000000000000000000000000000000000000000008152fd5b6040513d6000823e3d90fd5b6040820361214d5761210991810190611ffa565b91601b7f7fffffffffffffffffffffffffffffffffffffffffffffffffffffffffffffff84169360ff1c019060ff8211611e805760209360009360ff60809461204b565b60046040517f4be6321b000000000000000000000000000000000000000000000000000000008152fd5b929391601f928173ffffffffffffffffffffffffffffffffffffffff60646020957fffffffffffffffffffffffffffffffffffffffffffffffffffffffffffffffe0604051988997889687947f1626ba7e000000000000000000000000000000000000000000000000000000009e8f8752600487015260406024870152816044870152868601378b85828601015201168101030192165afa9081156122f1578291612273575b507fffffffff000000000000000000000000000000000000000000000000000000009150160361224957565b60046040517fb0669cbc000000000000000000000000000000000000000000000000000000008152fd5b90506020813d82116122e9575b8161228d60209383611437565b810103126103365751907fffffffff0000000000000000000000000000000000000000000000000000000082168203610a9a57507fffffffff00000000000000000000000000000000000000000000000000000000903861221d565b3d9150612280565b6040513d84823e3d90fd5b9060006064926020958295604051947f23b872dd0000000000000000000000000000000000000000000000000000000086526004860152602485015260448401525af13d15601f3d116001600051141617161561235557565b60646040517f08c379a000000000000000000000000000000000000000000000000000000000815260206004820152601460248201527f5452414e534645525f46524f4d5f4641494c45440000000000000000000000006044820152fdfea164736f6c6343000811000a","opcodes":"PUSH1 0xC0 CALLVALUE PUSH2 0xBB JUMPI CHAINID PUSH1 0xA0 MSTORE PUSH1 0x20 DUP2 ADD PUSH32 0x8CAD95687BA82C2CE50E74F7B754645E5117C3A5BEC8151C0726D5857980A866 DUP2 MSTORE PUSH32 0x9AC997416E8FF9D2FF6BEBEB7149F65CDAE5E32E2B90440B566BB3044041D36A PUSH1 0x40 DUP4 ADD MSTORE CHAINID PUSH1 0x60 DUP4 ADD MSTORE ADDRESS PUSH1 0x80 DUP4 ADD MSTORE PUSH1 0x80 DUP3 MSTORE PUSH1 0xA0 DUP3 ADD SWAP2 DUP1 DUP4 LT PUSH1 0x1 DUP1 PUSH1 0x40 SHL SUB DUP5 GT OR PUSH2 0xA5 JUMPI DUP3 PUSH1 0x40 MSTORE MLOAD SWAP1 KECCAK256 PUSH1 0x80 MSTORE PUSH2 0x23C0 SWAP1 DUP2 PUSH2 0xC1 DUP3 CODECOPY PUSH1 0x80 MLOAD DUP2 PUSH2 0x1A90 ADD MSTORE PUSH1 0xA0 MLOAD DUP2 PUSH2 0x1A6A ADD MSTORE RETURN JUMPDEST PUSH4 0x4E487B71 PUSH1 0xE0 SHL PUSH1 0x0 MSTORE PUSH1 0x41 PUSH1 0x4 MSTORE PUSH1 0x24 PUSH1 0x0 REVERT JUMPDEST PUSH1 0x0 DUP1 REVERT INVALID PUSH1 0x40 PUSH1 0x80 DUP2 MSTORE PUSH1 0x4 SWAP1 DUP2 CALLDATASIZE LT ISZERO PUSH2 0x15 JUMPI PUSH1 0x0 DUP1 REVERT JUMPDEST PUSH1 0x0 SWAP1 DUP2 CALLDATALOAD PUSH1 0xE0 SHR DUP1 PUSH4 0xD58B1DB EQ PUSH2 0x126C JUMPI DUP1 PUSH4 0x137C29FE EQ PUSH2 0x1075 JUMPI DUP1 PUSH4 0x2A2D80D1 EQ PUSH2 0xDB7 JUMPI DUP1 PUSH4 0x2B67B570 EQ PUSH2 0xBDE JUMPI DUP1 PUSH4 0x30F28B7A EQ PUSH2 0xADE JUMPI DUP1 PUSH4 0x3644E515 EQ PUSH2 0xA9D JUMPI DUP1 PUSH4 0x36C78516 EQ PUSH2 0xA28 JUMPI DUP1 PUSH4 0x3FF9DCB1 EQ PUSH2 0x9A8 JUMPI DUP1 PUSH4 0x4FE02B44 EQ PUSH2 0x93F JUMPI DUP1 PUSH4 0x65D9723C EQ PUSH2 0x7AC JUMPI DUP1 PUSH4 0x87517C45 EQ PUSH2 0x67A JUMPI DUP1 PUSH4 0x927DA105 EQ PUSH2 0x5C3 JUMPI DUP1 PUSH4 0xCC53287F EQ PUSH2 0x4A3 JUMPI DUP1 PUSH4 0xEDD9444B EQ PUSH2 0x33A JUMPI PUSH4 0xFE8EC1A7 EQ PUSH2 0xC6 JUMPI PUSH1 0x0 DUP1 REVERT JUMPDEST CALLVALUE PUSH2 0x336 JUMPI PUSH1 0xC0 PUSH32 0xFFFFFFFFFFFFFFFFFFFFFFFFFFFFFFFFFFFFFFFFFFFFFFFFFFFFFFFFFFFFFFFC CALLDATASIZE ADD SLT PUSH2 0x336 JUMPI PUSH8 0xFFFFFFFFFFFFFFFF DUP4 CALLDATALOAD DUP2 DUP2 GT PUSH2 0x332 JUMPI PUSH2 0x114 SWAP1 CALLDATASIZE SWAP1 DUP7 ADD PUSH2 0x164B JUMP JUMPDEST PUSH1 0x24 CALLDATALOAD DUP3 DUP2 GT PUSH2 0x32E JUMPI PUSH2 0x12B SWAP1 CALLDATASIZE SWAP1 DUP8 ADD PUSH2 0x161A JUMP JUMPDEST PUSH2 0x133 PUSH2 0x14E6 JUMP JUMPDEST SWAP2 PUSH1 0x84 CALLDATALOAD DUP6 DUP2 GT PUSH2 0x32A JUMPI PUSH2 0x14B SWAP1 CALLDATASIZE SWAP1 DUP11 ADD PUSH2 0x15C1 JUMP JUMPDEST SWAP9 SWAP1 SWAP6 PUSH1 0xA4 CALLDATALOAD SWAP1 DUP2 GT PUSH2 0x326 JUMPI PUSH2 0x164 SWAP2 CALLDATASIZE SWAP2 ADD PUSH2 0x15C1 JUMP JUMPDEST SWAP7 SWAP1 SWAP6 DUP2 MLOAD SWAP1 PUSH2 0x173 DUP3 PUSH2 0x13FF JUMP JUMPDEST PUSH1 0x6B DUP3 MSTORE PUSH32 0x5065726D697442617463685769746E6573735472616E7366657246726F6D2854 PUSH1 0x20 DUP4 ADD MSTORE PUSH32 0x6F6B656E5065726D697373696F6E735B5D207065726D69747465642C61646472 DUP4 DUP4 ADD MSTORE PUSH32 0x657373207370656E6465722C75696E74323536206E6F6E63652C75696E743235 PUSH1 0x60 DUP4 ADD MSTORE PUSH32 0x3620646561646C696E652C000000000000000000000000000000000000000000 PUSH1 0x80 DUP4 ADD MSTORE DUP3 MLOAD SWAP11 DUP12 SWAP2 DUP2 PUSH2 0x222 PUSH1 0x20 DUP6 ADD DUP1 SWAP7 PUSH2 0x1EDC JUMP JUMPDEST SWAP2 DUP3 CALLDATACOPY ADD DUP11 DUP2 MSTORE SUB SWAP10 PUSH2 0x25B PUSH32 0xFFFFFFFFFFFFFFFFFFFFFFFFFFFFFFFFFFFFFFFFFFFFFFFFFFFFFFFFFFFFFFE0 SWAP12 DUP13 DUP2 ADD DUP4 MSTORE DUP3 PUSH2 0x1437 JUMP JUMPDEST MLOAD SWAP1 KECCAK256 SWAP1 DUP6 MLOAD MLOAD PUSH2 0x26B DUP2 PUSH2 0x1E04 JUMP JUMPDEST SWAP1 DUP11 JUMPDEST DUP2 DUP2 LT PUSH2 0x2F9 JUMPI POP POP PUSH2 0x2F6 SWAP10 SWAP11 PUSH2 0x2ED SWAP2 DUP4 MLOAD PUSH2 0x2A0 DUP2 PUSH2 0x294 PUSH1 0x20 DUP3 ADD DUP1 SWAP6 PUSH2 0x1EAF JUMP JUMPDEST SUB DUP5 DUP2 ADD DUP4 MSTORE DUP3 PUSH2 0x1437 JUMP JUMPDEST MLOAD SWAP1 KECCAK256 PUSH1 0x20 DUP10 DUP2 ADD MLOAD DUP6 DUP12 ADD MLOAD SWAP6 MLOAD SWAP2 DUP3 ADD SWAP7 DUP8 MSTORE PUSH1 0x40 DUP3 ADD SWAP3 SWAP1 SWAP3 MSTORE CALLER PUSH1 0x60 DUP3 ADD MSTORE PUSH1 0x80 DUP2 ADD SWAP2 SWAP1 SWAP2 MSTORE PUSH1 0xA0 DUP2 ADD SWAP4 SWAP1 SWAP4 MSTORE PUSH1 0x64 CALLDATALOAD PUSH1 0xC0 DUP5 ADD MSTORE DUP3 PUSH1 0xE0 DUP2 ADD JUMPDEST SUB SWAP1 DUP2 ADD DUP4 MSTORE DUP3 PUSH2 0x1437 JUMP JUMPDEST MLOAD SWAP1 KECCAK256 SWAP4 PUSH2 0x1C40 JUMP JUMPDEST DUP1 RETURN JUMPDEST DUP1 PUSH2 0x311 PUSH2 0x30B PUSH2 0x321 SWAP4 DUP13 MLOAD PUSH2 0x175E JUMP JUMPDEST MLOAD PUSH2 0x1F9D JUMP JUMPDEST PUSH2 0x31B DUP3 DUP7 PUSH2 0x175E JUMP JUMPDEST MSTORE PUSH2 0x1E53 JUMP JUMPDEST PUSH2 0x26E JUMP JUMPDEST DUP9 DUP1 REVERT JUMPDEST DUP8 DUP1 REVERT JUMPDEST DUP5 DUP1 REVERT JUMPDEST DUP4 DUP1 REVERT JUMPDEST POP DUP1 REVERT JUMPDEST POP SWAP2 CALLVALUE PUSH2 0x336 JUMPI PUSH1 0x80 PUSH32 0xFFFFFFFFFFFFFFFFFFFFFFFFFFFFFFFFFFFFFFFFFFFFFFFFFFFFFFFFFFFFFFFC CALLDATASIZE ADD SLT PUSH2 0x336 JUMPI PUSH8 0xFFFFFFFFFFFFFFFF SWAP1 DUP1 CALLDATALOAD DUP3 DUP2 GT PUSH2 0x332 JUMPI PUSH2 0x38B SWAP1 CALLDATASIZE SWAP1 DUP4 ADD PUSH2 0x164B JUMP JUMPDEST PUSH1 0x24 CALLDATALOAD DUP4 DUP2 GT PUSH2 0x32E JUMPI PUSH2 0x3A2 SWAP1 CALLDATASIZE SWAP1 DUP5 ADD PUSH2 0x161A JUMP JUMPDEST SWAP4 SWAP1 SWAP3 PUSH2 0x3AD PUSH2 0x14E6 JUMP JUMPDEST SWAP2 PUSH1 0x64 CALLDATALOAD SWAP1 DUP2 GT PUSH2 0x49F JUMPI PUSH2 0x3C4 SWAP2 CALLDATASIZE SWAP2 ADD PUSH2 0x15C1 JUMP JUMPDEST SWAP5 SWAP1 SWAP4 DUP4 MLOAD MLOAD SWAP8 PUSH2 0x3D4 DUP10 PUSH2 0x1E04 JUMP JUMPDEST SWAP9 DUP9 JUMPDEST DUP2 DUP2 LT PUSH2 0x47D JUMPI POP POP PUSH2 0x2F6 SWAP8 SWAP9 DUP2 MLOAD PUSH2 0x425 DUP2 PUSH2 0x3F9 PUSH1 0x20 DUP3 ADD DUP1 SWAP6 PUSH2 0x1EAF JUMP JUMPDEST SUB PUSH32 0xFFFFFFFFFFFFFFFFFFFFFFFFFFFFFFFFFFFFFFFFFFFFFFFFFFFFFFFFFFFFFFE0 DUP2 ADD DUP4 MSTORE DUP3 PUSH2 0x1437 JUMP JUMPDEST MLOAD SWAP1 KECCAK256 PUSH1 0x20 DUP7 ADD MLOAD DUP3 DUP8 ADD MLOAD SWAP1 DUP4 MLOAD SWAP3 PUSH1 0x20 DUP5 ADD SWAP5 PUSH32 0xFCF35F5AC6A2C28868DC44C302166470266239195F02B0EE408334829333B766 DUP7 MSTORE DUP5 ADD MSTORE CALLER PUSH1 0x60 DUP5 ADD MSTORE PUSH1 0x80 DUP4 ADD MSTORE PUSH1 0xA0 DUP3 ADD MSTORE PUSH1 0xA0 DUP2 MSTORE PUSH2 0x2ED DUP2 PUSH2 0x141B JUMP JUMPDEST DUP1 DUP12 PUSH2 0x31B DUP3 PUSH2 0x494 PUSH2 0x30B PUSH2 0x49A SWAP7 DUP14 MLOAD PUSH2 0x175E JUMP JUMPDEST SWAP3 PUSH2 0x175E JUMP JUMPDEST PUSH2 0x3D7 JUMP JUMPDEST DUP7 DUP1 REVERT JUMPDEST POP DUP3 CALLVALUE PUSH2 0x5BF JUMPI PUSH1 0x20 SWAP1 DUP2 PUSH32 0xFFFFFFFFFFFFFFFFFFFFFFFFFFFFFFFFFFFFFFFFFFFFFFFFFFFFFFFFFFFFFFFC CALLDATASIZE ADD SLT PUSH2 0x332 JUMPI DUP1 CALLDATALOAD SWAP1 PUSH8 0xFFFFFFFFFFFFFFFF DUP3 GT PUSH2 0x32E JUMPI PUSH2 0x4F4 SWAP2 CALLDATASIZE SWAP2 ADD PUSH2 0x161A JUMP JUMPDEST SWAP3 SWAP1 SWAP2 DUP5 JUMPDEST DUP5 DUP2 LT PUSH2 0x504 JUMPI DUP6 DUP1 RETURN JUMPDEST DUP1 PUSH2 0x51A PUSH2 0x515 PUSH1 0x1 SWAP4 DUP9 DUP9 PUSH2 0x18B5 JUMP JUMPDEST PUSH2 0x18C5 JUMP JUMPDEST PUSH2 0x52F DUP5 PUSH2 0x529 DUP5 DUP11 DUP11 PUSH2 0x18B5 JUMP JUMPDEST ADD PUSH2 0x18C5 JUMP JUMPDEST CALLER DUP10 MSTORE DUP4 DUP6 MSTORE DUP6 DUP10 KECCAK256 SWAP2 PUSH20 0xFFFFFFFFFFFFFFFFFFFFFFFFFFFFFFFFFFFFFFFF DUP1 SWAP2 AND SWAP3 DUP4 DUP12 MSTORE DUP7 MSTORE DUP7 DUP11 KECCAK256 SWAP2 AND SWAP1 DUP2 DUP11 MSTORE DUP6 MSTORE DUP6 DUP10 KECCAK256 PUSH32 0xFFFFFFFFFFFFFFFFFFFFFFFF0000000000000000000000000000000000000000 DUP2 SLOAD AND SWAP1 SSTORE DUP6 MLOAD SWAP2 DUP3 MSTORE DUP5 DUP3 ADD MSTORE PUSH32 0x89B1ADD15EFF56B3DFE299AD94E01F2B52FBCB80AE1A3BAEA6AE8C04CB2B98A4 DUP6 CALLER SWAP3 LOG2 ADD PUSH2 0x4F9 JUMP JUMPDEST DUP3 DUP1 REVERT JUMPDEST POP CALLVALUE PUSH2 0x336 JUMPI PUSH1 0x60 PUSH32 0xFFFFFFFFFFFFFFFFFFFFFFFFFFFFFFFFFFFFFFFFFFFFFFFFFFFFFFFFFFFFFFFC CALLDATASIZE ADD SLT PUSH2 0x336 JUMPI PUSH2 0x676 DUP2 PUSH2 0x5FF PUSH2 0x14A0 JUMP JUMPDEST SWAP4 PUSH2 0x608 PUSH2 0x14C3 JUMP JUMPDEST PUSH2 0x610 PUSH2 0x14E6 JUMP JUMPDEST PUSH20 0xFFFFFFFFFFFFFFFFFFFFFFFFFFFFFFFFFFFFFFFF SWAP7 DUP8 AND DUP4 MSTORE PUSH1 0x1 PUSH1 0x20 SWAP1 DUP2 MSTORE DUP5 DUP5 KECCAK256 SWAP3 DUP9 AND DUP5 MSTORE SWAP2 DUP3 MSTORE DUP4 DUP4 KECCAK256 SWAP1 DUP8 AND DUP4 MSTORE DUP2 MSTORE SWAP2 SWAP1 KECCAK256 SLOAD SWAP3 MLOAD SWAP4 DUP4 AND DUP5 MSTORE PUSH1 0xA0 DUP4 SWAP1 SHR PUSH6 0xFFFFFFFFFFFF AND SWAP1 DUP5 ADD MSTORE PUSH1 0xD0 SWAP2 SWAP1 SWAP2 SHR PUSH1 0x40 DUP4 ADD MSTORE DUP2 SWAP1 PUSH1 0x60 DUP3 ADD SWAP1 JUMP JUMPDEST SUB SWAP1 RETURN JUMPDEST POP CALLVALUE PUSH2 0x336 JUMPI PUSH1 0x80 PUSH32 0xFFFFFFFFFFFFFFFFFFFFFFFFFFFFFFFFFFFFFFFFFFFFFFFFFFFFFFFFFFFFFFFC CALLDATASIZE ADD SLT PUSH2 0x336 JUMPI PUSH2 0x6B2 PUSH2 0x14A0 JUMP JUMPDEST SWAP1 PUSH2 0x6BB PUSH2 0x14C3 JUMP JUMPDEST SWAP2 PUSH2 0x6C4 PUSH2 0x14E6 JUMP JUMPDEST PUSH6 0xFFFFFFFFFFFF SWAP3 PUSH1 0x64 CALLDATALOAD DUP5 DUP2 AND SWAP1 DUP2 DUP2 SUB PUSH2 0x32A JUMPI PUSH26 0xFFFFFFFFFFFF0000000000000000000000000000000000000000 SWAP5 PUSH32 0xDA9FA7C1B00402C17D0161B249B1AB8BBEC047C5A52207B9C112DEFFD817036B SWAP5 CALLER DUP11 MSTORE PUSH1 0x1 PUSH1 0x20 MSTORE PUSH32 0xFFFFFFFFFFFF0000000000000000000000000000000000000000000000000000 DUP6 DUP12 KECCAK256 SWAP9 PUSH20 0xFFFFFFFFFFFFFFFFFFFFFFFFFFFFFFFFFFFFFFFF DUP1 SWAP5 AND SWAP10 DUP11 DUP14 MSTORE PUSH1 0x20 MSTORE DUP4 DUP8 DUP14 KECCAK256 SWAP12 AND SWAP11 DUP12 DUP14 MSTORE PUSH1 0x20 MSTORE DUP7 DUP13 KECCAK256 SWAP5 DUP7 ISZERO PUSH1 0x0 EQ PUSH2 0x7A4 JUMPI POP TIMESTAMP AND SWAP3 JUMPDEST DUP5 SLOAD SWAP3 AND SWAP8 DUP9 SWAP4 PUSH1 0xA0 SHL AND SWAP2 AND OR OR SWAP1 SSTORE DUP2 MLOAD SWAP4 DUP5 MSTORE PUSH1 0x20 DUP5 ADD MSTORE CALLER SWAP3 LOG4 DUP1 RETURN JUMPDEST SWAP1 POP SWAP3 PUSH2 0x783 JUMP JUMPDEST POP DUP3 CALLVALUE PUSH2 0x5BF JUMPI PUSH1 0x60 PUSH32 0xFFFFFFFFFFFFFFFFFFFFFFFFFFFFFFFFFFFFFFFFFFFFFFFFFFFFFFFFFFFFFFFC CALLDATASIZE ADD SLT PUSH2 0x5BF JUMPI PUSH2 0x7E5 PUSH2 0x14A0 JUMP JUMPDEST SWAP1 PUSH2 0x7EE PUSH2 0x14C3 JUMP JUMPDEST SWAP3 PUSH6 0xFFFFFFFFFFFF PUSH1 0x44 CALLDATALOAD DUP2 DUP2 AND SWAP4 SWAP1 DUP5 DUP2 SUB PUSH2 0x32A JUMPI CALLER DUP9 MSTORE PUSH1 0x20 SWAP2 PUSH1 0x1 DUP4 MSTORE DUP5 DUP10 KECCAK256 SWAP7 PUSH20 0xFFFFFFFFFFFFFFFFFFFFFFFFFFFFFFFFFFFFFFFF DUP1 SWAP2 AND SWAP8 DUP9 DUP12 MSTORE DUP5 MSTORE DUP6 DUP11 KECCAK256 SWAP9 AND SWAP8 DUP9 DUP11 MSTORE DUP4 MSTORE DUP5 DUP10 KECCAK256 SLOAD PUSH1 0xD0 SHR SWAP4 DUP5 DUP8 GT ISZERO PUSH2 0x917 JUMPI PUSH2 0xFFFF SWAP1 DUP6 DUP5 SUB AND GT PUSH2 0x8F0 JUMPI POP SWAP1 PUSH32 0x55EB90D810E1700B35A8E7E25395FF7F2B2259ABD7415CA2284DFB1C246418F3 SWAP4 SWAP3 SWAP2 CALLER DUP10 MSTORE PUSH1 0x1 DUP3 MSTORE DUP4 DUP10 KECCAK256 DUP8 DUP11 MSTORE DUP3 MSTORE DUP4 DUP10 KECCAK256 DUP9 DUP11 MSTORE DUP3 MSTORE DUP4 DUP10 KECCAK256 SWAP1 PUSH26 0xFFFFFFFFFFFFFFFFFFFFFFFFFFFFFFFFFFFFFFFFFFFFFFFFFFFF PUSH32 0xFFFFFFFFFFFF0000000000000000000000000000000000000000000000000000 DUP4 SLOAD SWAP3 PUSH1 0xD0 SHL AND SWAP2 AND OR SWAP1 SSTORE DUP3 MLOAD SWAP5 DUP6 MSTORE DUP5 ADD MSTORE CALLER SWAP3 LOG4 DUP1 RETURN JUMPDEST DUP5 MLOAD PUSH32 0x24D35A2600000000000000000000000000000000000000000000000000000000 DUP2 MSTORE REVERT JUMPDEST POP DUP5 MLOAD PUSH32 0x756688FE00000000000000000000000000000000000000000000000000000000 DUP2 MSTORE REVERT JUMPDEST POP CALLVALUE PUSH2 0x336 JUMPI DUP1 PUSH32 0xFFFFFFFFFFFFFFFFFFFFFFFFFFFFFFFFFFFFFFFFFFFFFFFFFFFFFFFFFFFFFFFC CALLDATASIZE ADD SLT PUSH2 0x336 JUMPI DUP1 PUSH1 0x20 SWAP3 PUSH20 0xFFFFFFFFFFFFFFFFFFFFFFFFFFFFFFFFFFFFFFFF PUSH2 0x98F PUSH2 0x14A0 JUMP JUMPDEST AND DUP2 MSTORE DUP1 DUP5 MSTORE DUP2 DUP2 KECCAK256 PUSH1 0x24 CALLDATALOAD DUP3 MSTORE DUP5 MSTORE KECCAK256 SLOAD SWAP1 MLOAD SWAP1 DUP2 MSTORE RETURN JUMPDEST POP DUP3 CALLVALUE PUSH2 0x5BF JUMPI DUP2 PUSH32 0xFFFFFFFFFFFFFFFFFFFFFFFFFFFFFFFFFFFFFFFFFFFFFFFFFFFFFFFFFFFFFFFC CALLDATASIZE ADD SLT PUSH2 0x5BF JUMPI PUSH32 0x3704902F963766A4E561BBAAB6E6CDC1B1DD12F6E9E99648DA8843B3F46B918D SWAP1 CALLDATALOAD SWAP2 PUSH1 0x24 CALLDATALOAD CALLER DUP6 MSTORE DUP5 PUSH1 0x20 MSTORE DUP2 DUP6 KECCAK256 DUP5 DUP7 MSTORE PUSH1 0x20 MSTORE DUP2 DUP6 KECCAK256 DUP2 DUP2 SLOAD OR SWAP1 SSTORE DUP2 MLOAD SWAP4 DUP5 MSTORE PUSH1 0x20 DUP5 ADD MSTORE CALLER SWAP3 LOG2 DUP1 RETURN JUMPDEST DUP3 CALLVALUE PUSH2 0xA9A JUMPI PUSH1 0x80 PUSH32 0xFFFFFFFFFFFFFFFFFFFFFFFFFFFFFFFFFFFFFFFFFFFFFFFFFFFFFFFFFFFFFFFC CALLDATASIZE ADD SLT PUSH2 0xA9A JUMPI PUSH2 0xA60 PUSH2 0x14A0 JUMP JUMPDEST PUSH2 0xA68 PUSH2 0x14C3 JUMP JUMPDEST PUSH2 0xA70 PUSH2 0x14E6 JUMP JUMPDEST PUSH1 0x64 CALLDATALOAD SWAP2 PUSH20 0xFFFFFFFFFFFFFFFFFFFFFFFFFFFFFFFFFFFFFFFF DUP4 AND DUP4 SUB PUSH2 0x32E JUMPI PUSH2 0x2F6 SWAP4 PUSH2 0x17A1 JUMP JUMPDEST DUP1 REVERT JUMPDEST POP CALLVALUE PUSH2 0x336 JUMPI DUP2 PUSH32 0xFFFFFFFFFFFFFFFFFFFFFFFFFFFFFFFFFFFFFFFFFFFFFFFFFFFFFFFFFFFFFFFC CALLDATASIZE ADD SLT PUSH2 0x336 JUMPI PUSH1 0x20 SWAP1 PUSH2 0xAD7 PUSH2 0x1A67 JUMP JUMPDEST SWAP1 MLOAD SWAP1 DUP2 MSTORE RETURN JUMPDEST POP DUP3 SWAP1 CALLVALUE PUSH2 0x5BF JUMPI PUSH2 0x100 PUSH32 0xFFFFFFFFFFFFFFFFFFFFFFFFFFFFFFFFFFFFFFFFFFFFFFFFFFFFFFFFFFFFFFFC CALLDATASIZE ADD SLT PUSH2 0x5BF JUMPI PUSH2 0xB1A CALLDATASIZE PUSH2 0x152A JUMP JUMPDEST SWAP1 DUP1 PUSH32 0xFFFFFFFFFFFFFFFFFFFFFFFFFFFFFFFFFFFFFFFFFFFFFFFFFFFFFFFFFFFFFF7C CALLDATASIZE ADD SLT PUSH2 0x332 JUMPI PUSH2 0xB4C PUSH2 0x1478 JUMP JUMPDEST SWAP2 PUSH1 0xE4 CALLDATALOAD PUSH8 0xFFFFFFFFFFFFFFFF DUP2 GT PUSH2 0xBDA JUMPI PUSH2 0x2F6 SWAP5 PUSH2 0xB6F SWAP2 CALLDATASIZE SWAP2 ADD PUSH2 0x15C1 JUMP JUMPDEST SWAP4 SWAP1 SWAP3 PUSH2 0xB7C DUP4 MLOAD PUSH2 0x1F9D JUMP JUMPDEST PUSH1 0x20 DUP5 ADD MLOAD DUP3 DUP6 ADD MLOAD SWAP1 DUP4 MLOAD SWAP3 PUSH1 0x20 DUP5 ADD SWAP5 PUSH32 0x939C21A48A8DBE3A9A2404A1D46691E4D39F6583D6EC6B35714604C986D80106 DUP7 MSTORE DUP5 ADD MSTORE CALLER PUSH1 0x60 DUP5 ADD MSTORE PUSH1 0x80 DUP4 ADD MSTORE PUSH1 0xA0 DUP3 ADD MSTORE PUSH1 0xA0 DUP2 MSTORE PUSH2 0xBD1 DUP2 PUSH2 0x141B JUMP JUMPDEST MLOAD SWAP1 KECCAK256 SWAP2 PUSH2 0x1B6E JUMP JUMPDEST DUP6 DUP1 REVERT JUMPDEST POP SWAP2 CALLVALUE PUSH2 0x336 JUMPI PUSH2 0x100 PUSH32 0xFFFFFFFFFFFFFFFFFFFFFFFFFFFFFFFFFFFFFFFFFFFFFFFFFFFFFFFFFFFFFFFC CALLDATASIZE ADD SLT PUSH2 0x336 JUMPI PUSH2 0xC18 PUSH2 0x14A0 JUMP JUMPDEST PUSH32 0xFFFFFFFFFFFFFFFFFFFFFFFFFFFFFFFFFFFFFFFFFFFFFFFFFFFFFFFFFFFFFFDC CALLDATASIZE ADD PUSH1 0xC0 DUP2 SLT PUSH2 0x332 JUMPI PUSH1 0x80 DUP6 MLOAD SWAP2 PUSH2 0xC51 DUP4 PUSH2 0x13E3 JUMP JUMPDEST SLT PUSH2 0x332 JUMPI DUP5 MLOAD SWAP1 PUSH2 0xC62 DUP3 PUSH2 0x1398 JUMP JUMPDEST PUSH20 0xFFFFFFFFFFFFFFFFFFFFFFFFFFFFFFFFFFFFFFFF SWAP2 PUSH1 0x24 CALLDATALOAD DUP4 DUP2 AND DUP2 SUB PUSH2 0x49F JUMPI DUP2 MSTORE PUSH1 0x44 CALLDATALOAD DUP4 DUP2 AND DUP2 SUB PUSH2 0x49F JUMPI PUSH1 0x20 DUP3 ADD MSTORE PUSH6 0xFFFFFFFFFFFF PUSH1 0x64 CALLDATALOAD DUP2 DUP2 AND DUP2 SUB PUSH2 0x32A JUMPI DUP9 DUP4 ADD MSTORE PUSH1 0x84 CALLDATALOAD SWAP1 DUP2 AND DUP2 SUB PUSH2 0x49F JUMPI PUSH1 0x60 DUP3 ADD MSTORE DUP2 MSTORE PUSH1 0xA4 CALLDATALOAD SWAP4 DUP3 DUP6 AND DUP6 SUB PUSH2 0xBDA JUMPI PUSH1 0x20 DUP3 ADD SWAP5 DUP6 MSTORE PUSH1 0xC4 CALLDATALOAD SWAP1 DUP8 DUP4 ADD DUP3 DUP2 MSTORE PUSH1 0xE4 CALLDATALOAD PUSH8 0xFFFFFFFFFFFFFFFF DUP2 GT PUSH2 0x326 JUMPI PUSH2 0xCFE SWAP1 CALLDATASIZE SWAP1 DUP5 ADD PUSH2 0x15C1 JUMP JUMPDEST SWAP3 SWAP1 SWAP4 DUP1 TIMESTAMP GT PUSH2 0xD88 JUMPI POP POP SWAP2 DUP6 SWAP2 PUSH2 0xD78 PUSH2 0x2F6 SWAP10 SWAP11 PUSH2 0xD7E SWAP6 PUSH2 0xD23 DUP9 MLOAD PUSH2 0x1F07 JUMP JUMPDEST SWAP1 DUP10 DUP13 MLOAD AND SWAP1 MLOAD SWAP1 DUP4 MLOAD SWAP3 PUSH1 0x20 DUP5 ADD SWAP5 PUSH32 0xF3841CD1FF0085026A6327B620B67997CE40F282C88A8E905A7A5626E310F3D0 DUP7 MSTORE DUP5 ADD MSTORE PUSH1 0x60 DUP4 ADD MSTORE PUSH1 0x80 DUP3 ADD MSTORE PUSH1 0x80 DUP2 MSTORE PUSH2 0xD70 DUP2 PUSH2 0x13FF JUMP JUMPDEST MLOAD SWAP1 KECCAK256 PUSH2 0x1B22 JUMP JUMPDEST SWAP2 PUSH2 0x2010 JUMP JUMPDEST MLOAD SWAP3 MLOAD AND SWAP2 PUSH2 0x18E6 JUMP JUMPDEST PUSH1 0x24 SWAP3 POP DUP11 MLOAD SWAP2 PUSH32 0xCD21DB4F00000000000000000000000000000000000000000000000000000000 DUP4 MSTORE DUP3 ADD MSTORE REVERT JUMPDEST POP SWAP2 CALLVALUE PUSH2 0x336 JUMPI PUSH1 0x60 PUSH32 0xFFFFFFFFFFFFFFFFFFFFFFFFFFFFFFFFFFFFFFFFFFFFFFFFFFFFFFFFFFFFFFFC SWAP4 DUP2 DUP6 CALLDATASIZE ADD SLT PUSH2 0x332 JUMPI PUSH2 0xDF3 PUSH2 0x14A0 JUMP JUMPDEST SWAP3 PUSH1 0x24 SWAP1 DUP2 CALLDATALOAD SWAP3 PUSH8 0xFFFFFFFFFFFFFFFF SWAP8 DUP9 DUP6 GT PUSH2 0x32A JUMPI DUP6 SWAP1 DUP6 CALLDATASIZE SUB ADD SLT PUSH2 0x49F JUMPI DUP1 MLOAD SWAP8 DUP6 DUP10 ADD DUP10 DUP2 LT DUP3 DUP3 GT OR PUSH2 0x104A JUMPI DUP3 MSTORE DUP5 DUP4 ADD CALLDATALOAD DUP2 DUP2 GT PUSH2 0x326 JUMPI DUP6 ADD SWAP1 CALLDATASIZE PUSH1 0x23 DUP4 ADD SLT ISZERO PUSH2 0x326 JUMPI DUP4 DUP3 ADD CALLDATALOAD SWAP2 PUSH2 0xE50 DUP4 PUSH2 0x15EF JUMP JUMPDEST SWAP1 PUSH2 0xE5D DUP6 MLOAD SWAP3 DUP4 PUSH2 0x1437 JUMP JUMPDEST DUP4 DUP3 MSTORE PUSH1 0x20 SWAP4 DUP8 DUP6 DUP5 ADD SWAP2 PUSH1 0x7 SHL DUP4 ADD ADD SWAP2 CALLDATASIZE DUP4 GT PUSH2 0x1046 JUMPI DUP9 ADD SWAP1 JUMPDEST DUP3 DUP3 LT PUSH2 0xFE9 JUMPI POP POP POP DUP11 MSTORE PUSH1 0x44 PUSH2 0xE93 DUP7 DUP9 ADD PUSH2 0x1509 JUMP JUMPDEST SWAP7 DUP4 DUP13 ADD SWAP8 DUP9 MSTORE ADD CALLDATALOAD SWAP5 DUP4 DUP12 ADD SWAP2 DUP7 DUP4 MSTORE PUSH1 0x44 CALLDATALOAD SWAP1 DUP2 GT PUSH2 0xFE5 JUMPI PUSH2 0xEBB SWAP1 CALLDATASIZE SWAP1 DUP8 ADD PUSH2 0x15C1 JUMP JUMPDEST SWAP6 SWAP1 SWAP7 DUP1 TIMESTAMP GT PUSH2 0xFBA JUMPI POP POP POP DUP10 SWAP9 SWAP10 MLOAD MLOAD PUSH2 0xED6 DUP2 PUSH2 0x1E04 JUMP JUMPDEST SWAP1 DUP12 JUMPDEST DUP2 DUP2 LT PUSH2 0xF97 JUMPI POP POP SWAP3 DUP9 SWAP5 SWAP3 PUSH2 0xD78 SWAP3 PUSH2 0xF64 SWAP8 SWAP6 DUP4 MLOAD PUSH2 0xF02 DUP2 PUSH2 0x3F9 DUP7 DUP3 ADD DUP1 SWAP6 PUSH2 0x1EAF JUMP JUMPDEST MLOAD SWAP1 KECCAK256 SWAP1 PUSH20 0xFFFFFFFFFFFFFFFFFFFFFFFFFFFFFFFFFFFFFFFF SWAP11 DUP12 DUP12 MLOAD AND SWAP2 MLOAD SWAP3 DUP6 MLOAD SWAP5 DUP6 ADD SWAP6 PUSH32 0xAF1B0D30D2CAB0380E68F0689007E3254993C596F2FDD0AAA7F4D04F79440863 DUP8 MSTORE DUP6 ADD MSTORE DUP4 ADD MSTORE PUSH1 0x80 DUP3 ADD MSTORE PUSH1 0x80 DUP2 MSTORE PUSH2 0xD70 DUP2 PUSH2 0x13FF JUMP JUMPDEST MLOAD AND SWAP1 DUP3 MLOAD MLOAD SWAP3 DUP5 JUMPDEST DUP5 DUP2 LT PUSH2 0xF78 JUMPI DUP6 DUP1 RETURN JUMPDEST DUP1 PUSH2 0xF91 DUP6 DUP6 PUSH2 0xF8B PUSH1 0x1 SWAP6 DUP8 MLOAD PUSH2 0x175E JUMP JUMPDEST MLOAD PUSH2 0x18E6 JUMP JUMPDEST ADD PUSH2 0xF6D JUMP JUMPDEST DUP1 PUSH2 0x311 PUSH2 0xFAC DUP15 SWAP16 SWAP15 SWAP4 PUSH2 0xFB2 SWAP5 MLOAD PUSH2 0x175E JUMP JUMPDEST MLOAD PUSH2 0x1F07 JUMP JUMPDEST SWAP12 SWAP11 SWAP12 PUSH2 0xED9 JUMP JUMPDEST DUP6 MLOAD SWAP2 PUSH32 0xCD21DB4F00000000000000000000000000000000000000000000000000000000 DUP4 MSTORE DUP3 ADD MSTORE REVERT JUMPDEST DUP11 DUP1 REVERT JUMPDEST PUSH1 0x80 DUP3 CALLDATASIZE SUB SLT PUSH2 0x1046 JUMPI DUP6 PUSH1 0x80 SWAP2 DUP9 MLOAD PUSH2 0x1002 DUP2 PUSH2 0x1398 JUMP JUMPDEST PUSH2 0x100B DUP6 PUSH2 0x1509 JUMP JUMPDEST DUP2 MSTORE PUSH2 0x1018 DUP4 DUP7 ADD PUSH2 0x1509 JUMP JUMPDEST DUP4 DUP3 ADD MSTORE PUSH2 0x1027 DUP11 DUP7 ADD PUSH2 0x1607 JUMP JUMPDEST DUP11 DUP3 ADD MSTORE DUP14 PUSH2 0x1037 DUP2 DUP8 ADD PUSH2 0x1607 JUMP JUMPDEST SWAP1 DUP3 ADD MSTORE DUP2 MSTORE ADD SWAP2 ADD SWAP1 PUSH2 0xE7A JUMP JUMPDEST DUP13 DUP1 REVERT JUMPDEST DUP5 DUP10 PUSH1 0x41 DUP7 PUSH32 0x4E487B7100000000000000000000000000000000000000000000000000000000 DUP4 MSTORE MSTORE REVERT JUMPDEST POP DUP3 CALLVALUE PUSH2 0x5BF JUMPI PUSH2 0x140 PUSH32 0xFFFFFFFFFFFFFFFFFFFFFFFFFFFFFFFFFFFFFFFFFFFFFFFFFFFFFFFFFFFFFFFC CALLDATASIZE ADD SLT PUSH2 0x5BF JUMPI PUSH2 0x10B0 CALLDATASIZE PUSH2 0x152A JUMP JUMPDEST SWAP2 DUP1 PUSH32 0xFFFFFFFFFFFFFFFFFFFFFFFFFFFFFFFFFFFFFFFFFFFFFFFFFFFFFFFFFFFFFF7C CALLDATASIZE ADD SLT PUSH2 0x332 JUMPI PUSH2 0x10E2 PUSH2 0x1478 JUMP JUMPDEST PUSH8 0xFFFFFFFFFFFFFFFF SWAP4 SWAP1 PUSH2 0x104 CALLDATALOAD DUP6 DUP2 GT PUSH2 0x49F JUMPI PUSH2 0x1105 SWAP1 CALLDATASIZE SWAP1 DUP7 ADD PUSH2 0x15C1 JUMP JUMPDEST SWAP1 SWAP4 PUSH2 0x124 CALLDATALOAD SWAP7 DUP8 GT PUSH2 0x32A JUMPI PUSH2 0x1125 PUSH2 0xBD1 SWAP7 PUSH2 0x2F6 SWAP9 CALLDATASIZE SWAP2 ADD PUSH2 0x15C1 JUMP JUMPDEST SWAP7 SWAP1 SWAP6 DUP3 MLOAD SWAP1 PUSH2 0x1134 DUP3 PUSH2 0x13FF JUMP JUMPDEST PUSH1 0x64 DUP3 MSTORE PUSH32 0x5065726D69745769746E6573735472616E7366657246726F6D28546F6B656E50 PUSH1 0x20 DUP4 ADD MSTORE PUSH32 0x65726D697373696F6E73207065726D69747465642C6164647265737320737065 DUP5 DUP4 ADD MSTORE PUSH32 0x6E6465722C75696E74323536206E6F6E63652C75696E7432353620646561646C PUSH1 0x60 DUP4 ADD MSTORE PUSH32 0x696E652C00000000000000000000000000000000000000000000000000000000 PUSH1 0x80 DUP4 ADD MSTORE DUP4 MLOAD SWAP5 DUP6 SWAP2 DUP2 PUSH2 0x11E3 PUSH1 0x20 DUP6 ADD DUP1 SWAP7 PUSH2 0x1EDC JUMP JUMPDEST SWAP2 DUP3 CALLDATACOPY ADD DUP12 DUP2 MSTORE SUB SWAP4 PUSH2 0x121C PUSH32 0xFFFFFFFFFFFFFFFFFFFFFFFFFFFFFFFFFFFFFFFFFFFFFFFFFFFFFFFFFFFFFFE0 SWAP6 DUP7 DUP2 ADD DUP4 MSTORE DUP3 PUSH2 0x1437 JUMP JUMPDEST MLOAD SWAP1 KECCAK256 SWAP3 PUSH2 0x122A DUP7 MLOAD PUSH2 0x1F9D JUMP JUMPDEST PUSH1 0x20 DUP8 DUP2 ADD MLOAD DUP6 DUP10 ADD MLOAD SWAP6 MLOAD SWAP2 DUP3 ADD SWAP7 DUP8 MSTORE PUSH1 0x40 DUP3 ADD SWAP3 SWAP1 SWAP3 MSTORE CALLER PUSH1 0x60 DUP3 ADD MSTORE PUSH1 0x80 DUP2 ADD SWAP2 SWAP1 SWAP2 MSTORE PUSH1 0xA0 DUP2 ADD SWAP4 SWAP1 SWAP4 MSTORE PUSH1 0xE4 CALLDATALOAD PUSH1 0xC0 DUP5 ADD MSTORE DUP3 PUSH1 0xE0 DUP2 ADD PUSH2 0x2E1 JUMP JUMPDEST POP DUP3 CALLVALUE PUSH2 0x5BF JUMPI PUSH1 0x20 DUP1 PUSH32 0xFFFFFFFFFFFFFFFFFFFFFFFFFFFFFFFFFFFFFFFFFFFFFFFFFFFFFFFFFFFFFFFC CALLDATASIZE ADD SLT PUSH2 0x332 JUMPI DUP2 CALLDATALOAD PUSH8 0xFFFFFFFFFFFFFFFF SWAP3 DUP4 DUP3 GT PUSH2 0xBDA JUMPI CALLDATASIZE PUSH1 0x23 DUP4 ADD SLT ISZERO PUSH2 0xBDA JUMPI DUP2 ADD CALLDATALOAD SWAP3 DUP4 GT PUSH2 0x32E JUMPI PUSH1 0x24 SWAP1 PUSH1 0x7 CALLDATASIZE DUP4 DUP7 DUP4 SHL DUP5 ADD ADD GT PUSH2 0x49F JUMPI DUP7 JUMPDEST DUP6 DUP2 LT PUSH2 0x12E5 JUMPI DUP8 DUP1 RETURN JUMPDEST DUP1 DUP3 SHL DUP4 ADD SWAP1 PUSH1 0x80 PUSH32 0xFFFFFFFFFFFFFFFFFFFFFFFFFFFFFFFFFFFFFFFFFFFFFFFFFFFFFFFFFFFFFFDC DUP4 CALLDATASIZE SUB ADD SLT PUSH2 0x326 JUMPI PUSH2 0x1392 DUP9 DUP8 PUSH1 0x1 SWAP5 PUSH1 0x60 DUP4 MLOAD PUSH2 0x132C DUP2 PUSH2 0x1398 JUMP JUMPDEST PUSH2 0x1368 PUSH1 0x84 PUSH2 0x133C DUP14 DUP7 ADD PUSH2 0x1509 JUMP JUMPDEST SWAP5 DUP6 DUP5 MSTORE PUSH2 0x134C PUSH1 0x44 DUP3 ADD PUSH2 0x1509 JUMP JUMPDEST DUP1 SWAP8 DUP6 ADD MSTORE PUSH2 0x135D PUSH1 0x64 DUP3 ADD PUSH2 0x1509 JUMP JUMPDEST DUP1 SWAP9 DUP6 ADD MSTORE ADD PUSH2 0x1509 JUMP JUMPDEST SWAP2 DUP3 SWAP2 ADD MSTORE PUSH20 0xFFFFFFFFFFFFFFFFFFFFFFFFFFFFFFFFFFFFFFFF DUP1 DUP1 DUP1 SWAP4 AND SWAP6 AND SWAP4 AND SWAP2 AND PUSH2 0x17A1 JUMP JUMPDEST ADD PUSH2 0x12DA JUMP JUMPDEST PUSH1 0x80 DUP2 ADD SWAP1 DUP2 LT PUSH8 0xFFFFFFFFFFFFFFFF DUP3 GT OR PUSH2 0x13B4 JUMPI PUSH1 0x40 MSTORE JUMP JUMPDEST PUSH32 0x4E487B7100000000000000000000000000000000000000000000000000000000 PUSH1 0x0 MSTORE PUSH1 0x41 PUSH1 0x4 MSTORE PUSH1 0x24 PUSH1 0x0 REVERT JUMPDEST PUSH1 0x60 DUP2 ADD SWAP1 DUP2 LT PUSH8 0xFFFFFFFFFFFFFFFF DUP3 GT OR PUSH2 0x13B4 JUMPI PUSH1 0x40 MSTORE JUMP JUMPDEST PUSH1 0xA0 DUP2 ADD SWAP1 DUP2 LT PUSH8 0xFFFFFFFFFFFFFFFF DUP3 GT OR PUSH2 0x13B4 JUMPI PUSH1 0x40 MSTORE JUMP JUMPDEST PUSH1 0xC0 DUP2 ADD SWAP1 DUP2 LT PUSH8 0xFFFFFFFFFFFFFFFF DUP3 GT OR PUSH2 0x13B4 JUMPI PUSH1 0x40 MSTORE JUMP JUMPDEST SWAP1 PUSH1 0x1F PUSH32 0xFFFFFFFFFFFFFFFFFFFFFFFFFFFFFFFFFFFFFFFFFFFFFFFFFFFFFFFFFFFFFFE0 SWAP2 ADD AND DUP2 ADD SWAP1 DUP2 LT PUSH8 0xFFFFFFFFFFFFFFFF DUP3 GT OR PUSH2 0x13B4 JUMPI PUSH1 0x40 MSTORE JUMP JUMPDEST PUSH1 0xC4 CALLDATALOAD SWAP1 PUSH20 0xFFFFFFFFFFFFFFFFFFFFFFFFFFFFFFFFFFFFFFFF DUP3 AND DUP3 SUB PUSH2 0x149B JUMPI JUMP JUMPDEST PUSH1 0x0 DUP1 REVERT JUMPDEST PUSH1 0x4 CALLDATALOAD SWAP1 PUSH20 0xFFFFFFFFFFFFFFFFFFFFFFFFFFFFFFFFFFFFFFFF DUP3 AND DUP3 SUB PUSH2 0x149B JUMPI JUMP JUMPDEST PUSH1 0x24 CALLDATALOAD SWAP1 PUSH20 0xFFFFFFFFFFFFFFFFFFFFFFFFFFFFFFFFFFFFFFFF DUP3 AND DUP3 SUB PUSH2 0x149B JUMPI JUMP JUMPDEST PUSH1 0x44 CALLDATALOAD SWAP1 PUSH20 0xFFFFFFFFFFFFFFFFFFFFFFFFFFFFFFFFFFFFFFFF DUP3 AND DUP3 SUB PUSH2 0x149B JUMPI JUMP JUMPDEST CALLDATALOAD SWAP1 PUSH20 0xFFFFFFFFFFFFFFFFFFFFFFFFFFFFFFFFFFFFFFFF DUP3 AND DUP3 SUB PUSH2 0x149B JUMPI JUMP JUMPDEST PUSH32 0xFFFFFFFFFFFFFFFFFFFFFFFFFFFFFFFFFFFFFFFFFFFFFFFFFFFFFFFFFFFFFFFC ADD SWAP1 PUSH1 0x80 DUP3 SLT PUSH2 0x149B JUMPI PUSH1 0x40 DUP1 MLOAD SWAP1 PUSH2 0x1563 DUP3 PUSH2 0x13E3 JUMP JUMPDEST DUP1 DUP3 SWAP5 SLT PUSH2 0x149B JUMPI DUP1 MLOAD DUP2 DUP2 ADD DUP2 DUP2 LT PUSH8 0xFFFFFFFFFFFFFFFF DUP3 GT OR PUSH2 0x13B4 JUMPI DUP3 MSTORE PUSH1 0x4 CALLDATALOAD PUSH20 0xFFFFFFFFFFFFFFFFFFFFFFFFFFFFFFFFFFFFFFFF DUP2 AND DUP2 SUB PUSH2 0x149B JUMPI DUP2 MSTORE PUSH1 0x24 CALLDATALOAD PUSH1 0x20 DUP3 ADD MSTORE DUP3 MSTORE PUSH1 0x44 CALLDATALOAD PUSH1 0x20 DUP4 ADD MSTORE PUSH1 0x64 CALLDATALOAD SWAP2 ADD MSTORE JUMP JUMPDEST SWAP2 DUP2 PUSH1 0x1F DUP5 ADD SLT ISZERO PUSH2 0x149B JUMPI DUP3 CALLDATALOAD SWAP2 PUSH8 0xFFFFFFFFFFFFFFFF DUP4 GT PUSH2 0x149B JUMPI PUSH1 0x20 DUP4 DUP2 DUP7 ADD SWAP6 ADD ADD GT PUSH2 0x149B JUMPI JUMP JUMPDEST PUSH8 0xFFFFFFFFFFFFFFFF DUP2 GT PUSH2 0x13B4 JUMPI PUSH1 0x5 SHL PUSH1 0x20 ADD SWAP1 JUMP JUMPDEST CALLDATALOAD SWAP1 PUSH6 0xFFFFFFFFFFFF DUP3 AND DUP3 SUB PUSH2 0x149B JUMPI JUMP JUMPDEST SWAP2 DUP2 PUSH1 0x1F DUP5 ADD SLT ISZERO PUSH2 0x149B JUMPI DUP3 CALLDATALOAD SWAP2 PUSH8 0xFFFFFFFFFFFFFFFF DUP4 GT PUSH2 0x149B JUMPI PUSH1 0x20 DUP1 DUP6 ADD SWAP5 DUP5 PUSH1 0x6 SHL ADD ADD GT PUSH2 0x149B JUMPI JUMP JUMPDEST SWAP2 SWAP1 SWAP2 PUSH1 0x60 DUP2 DUP5 SUB SLT PUSH2 0x149B JUMPI PUSH1 0x40 DUP1 MLOAD SWAP2 PUSH2 0x1666 DUP4 PUSH2 0x13E3 JUMP JUMPDEST DUP3 SWAP5 DUP2 CALLDATALOAD PUSH8 0xFFFFFFFFFFFFFFFF SWAP1 DUP2 DUP2 GT PUSH2 0x149B JUMPI DUP4 ADD DUP3 PUSH1 0x1F DUP3 ADD SLT ISZERO PUSH2 0x149B JUMPI DUP1 CALLDATALOAD PUSH2 0x1693 DUP2 PUSH2 0x15EF JUMP JUMPDEST SWAP3 PUSH2 0x16A0 DUP8 MLOAD SWAP5 DUP6 PUSH2 0x1437 JUMP JUMPDEST DUP2 DUP5 MSTORE PUSH1 0x20 SWAP5 DUP6 DUP1 DUP7 ADD SWAP4 PUSH1 0x6 SHL DUP6 ADD ADD SWAP4 DUP2 DUP6 GT PUSH2 0x149B JUMPI SWAP1 DUP7 DUP10 SWAP9 SWAP8 SWAP7 SWAP6 SWAP5 SWAP4 SWAP3 ADD SWAP3 JUMPDEST DUP5 DUP5 LT PUSH2 0x16E3 JUMPI POP POP POP POP POP DUP6 MSTORE DUP1 DUP3 ADD CALLDATALOAD SWAP1 DUP6 ADD MSTORE ADD CALLDATALOAD SWAP2 ADD MSTORE JUMP JUMPDEST SWAP1 SWAP2 SWAP3 SWAP4 SWAP5 SWAP6 SWAP7 SWAP8 DUP5 DUP4 SUB SLT PUSH2 0x149B JUMPI DUP9 MLOAD SWAP1 DUP10 DUP3 ADD SWAP1 DUP3 DUP3 LT DUP6 DUP4 GT OR PUSH2 0x1730 JUMPI DUP11 SWAP3 DUP10 SWAP3 DUP5 MSTORE PUSH2 0x1714 DUP8 PUSH2 0x1509 JUMP JUMPDEST DUP2 MSTORE DUP3 DUP8 ADD CALLDATALOAD DUP4 DUP3 ADD MSTORE DUP2 MSTORE ADD SWAP4 ADD SWAP2 SWAP1 DUP9 SWAP8 SWAP7 SWAP6 SWAP5 SWAP4 PUSH2 0x16C6 JUMP JUMPDEST PUSH1 0x24 PUSH1 0x0 PUSH32 0x4E487B7100000000000000000000000000000000000000000000000000000000 DUP2 MSTORE PUSH1 0x41 PUSH1 0x4 MSTORE REVERT JUMPDEST DUP1 MLOAD DUP3 LT ISZERO PUSH2 0x1772 JUMPI PUSH1 0x20 SWAP2 PUSH1 0x5 SHL ADD ADD SWAP1 JUMP JUMPDEST PUSH32 0x4E487B7100000000000000000000000000000000000000000000000000000000 PUSH1 0x0 MSTORE PUSH1 0x32 PUSH1 0x4 MSTORE PUSH1 0x24 PUSH1 0x0 REVERT JUMPDEST SWAP3 SWAP2 SWAP3 PUSH20 0xFFFFFFFFFFFFFFFFFFFFFFFFFFFFFFFFFFFFFFFF PUSH1 0x40 PUSH1 0x0 DUP3 DUP5 AND DUP2 MSTORE PUSH1 0x1 PUSH1 0x20 MSTORE DUP3 DUP3 DUP3 KECCAK256 SWAP7 AND SWAP6 DUP7 DUP3 MSTORE PUSH1 0x20 MSTORE DUP2 DUP2 KECCAK256 CALLER DUP3 MSTORE PUSH1 0x20 MSTORE KECCAK256 SWAP5 DUP6 SLOAD SWAP6 PUSH6 0xFFFFFFFFFFFF DUP8 PUSH1 0xA0 SHR AND DUP1 TIMESTAMP GT PUSH2 0x1884 JUMPI POP DUP3 DUP8 AND SWAP7 DUP4 DUP9 SUB PUSH2 0x1812 JUMPI JUMPDEST POP POP PUSH2 0x1810 SWAP6 POP AND SWAP3 PUSH2 0x22FC JUMP JUMPDEST JUMP JUMPDEST DUP8 DUP5 DUP5 AND GT PUSH1 0x0 EQ PUSH2 0x184F JUMPI PUSH1 0x24 DUP9 PUSH1 0x40 MLOAD SWAP1 PUSH32 0xF96FB07100000000000000000000000000000000000000000000000000000000 DUP3 MSTORE PUSH1 0x4 DUP3 ADD MSTORE REVERT JUMPDEST PUSH32 0xFFFFFFFFFFFFFFFFFFFFFFFF0000000000000000000000000000000000000000 DUP5 DUP5 PUSH2 0x1810 SWAP11 SUB AND SWAP2 AND OR SWAP1 SSTORE CODESIZE DUP1 PUSH2 0x1802 JUMP JUMPDEST PUSH1 0x24 SWAP1 PUSH1 0x40 MLOAD SWAP1 PUSH32 0xD81B2F2E00000000000000000000000000000000000000000000000000000000 DUP3 MSTORE PUSH1 0x4 DUP3 ADD MSTORE REVERT JUMPDEST SWAP2 SWAP1 DUP2 LT ISZERO PUSH2 0x1772 JUMPI PUSH1 0x6 SHL ADD SWAP1 JUMP JUMPDEST CALLDATALOAD PUSH20 0xFFFFFFFFFFFFFFFFFFFFFFFFFFFFFFFFFFFFFFFF DUP2 AND DUP2 SUB PUSH2 0x149B JUMPI SWAP1 JUMP JUMPDEST SWAP1 PUSH6 0xFFFFFFFFFFFF SWAP1 DUP2 PUSH1 0x60 DUP5 ADD MLOAD AND PUSH20 0xFFFFFFFFFFFFFFFFFFFFFFFFFFFFFFFFFFFFFFFF SWAP1 DUP2 DUP6 MLOAD AND SWAP5 DUP3 PUSH1 0x20 DUP3 ADD MLOAD AND SWAP3 DUP1 DUP7 PUSH1 0x40 DUP1 SWAP5 ADD MLOAD AND SWAP6 AND SWAP6 PUSH1 0x0 SWAP2 DUP8 DUP4 MSTORE PUSH1 0x1 PUSH1 0x20 MSTORE DUP4 DUP4 KECCAK256 DUP10 DUP5 MSTORE PUSH1 0x20 MSTORE DUP4 DUP4 KECCAK256 SWAP10 AND SWAP9 DUP10 DUP4 MSTORE PUSH1 0x20 MSTORE DUP3 DUP3 KECCAK256 SWAP2 DUP5 DUP4 SLOAD PUSH1 0xD0 SHR SUB PUSH2 0x1A3E JUMPI SWAP2 DUP6 PUSH2 0x1A17 SWAP5 SWAP3 PUSH32 0xC6A377BFC4EB120024A8AC08EEF205BE16B817020812C73223E81D1BDB9708EC SWAP9 SWAP8 SWAP7 SWAP5 POP DUP8 ISZERO PUSH1 0x0 EQ PUSH2 0x1A1C JUMPI PUSH26 0xFFFFFFFFFFFF0000000000000000000000000000000000000000 SWAP1 TIMESTAMP AND JUMPDEST PUSH1 0xA0 SHL AND PUSH32 0xFFFFFFFFFFFF0000000000000000000000000000000000000000000000000000 PUSH1 0x1 DUP7 ADD PUSH1 0xD0 SHL AND OR OR SWAP1 SSTORE MLOAD SWAP4 DUP5 SWAP4 DUP5 SWAP2 PUSH1 0x40 SWAP2 SWAP5 SWAP4 PUSH20 0xFFFFFFFFFFFFFFFFFFFFFFFFFFFFFFFFFFFFFFFF PUSH1 0x60 DUP6 ADD SWAP7 AND DUP5 MSTORE PUSH6 0xFFFFFFFFFFFF DUP1 SWAP3 AND PUSH1 0x20 DUP6 ADD MSTORE AND SWAP2 ADD MSTORE JUMP JUMPDEST SUB SWAP1 LOG4 JUMP JUMPDEST POP PUSH26 0xFFFFFFFFFFFF0000000000000000000000000000000000000000 DUP8 PUSH2 0x19A9 JUMP JUMPDEST PUSH1 0x4 DUP5 MLOAD PUSH32 0x756688FE00000000000000000000000000000000000000000000000000000000 DUP2 MSTORE REVERT JUMPDEST CHAINID PUSH32 0x0 SUB PUSH2 0x1AB2 JUMPI PUSH32 0x0 SWAP1 JUMP JUMPDEST PUSH1 0x40 MLOAD PUSH1 0x20 DUP2 ADD SWAP1 PUSH32 0x8CAD95687BA82C2CE50E74F7B754645E5117C3A5BEC8151C0726D5857980A866 DUP3 MSTORE PUSH32 0x9AC997416E8FF9D2FF6BEBEB7149F65CDAE5E32E2B90440B566BB3044041D36A PUSH1 0x40 DUP3 ADD MSTORE CHAINID PUSH1 0x60 DUP3 ADD MSTORE ADDRESS PUSH1 0x80 DUP3 ADD MSTORE PUSH1 0x80 DUP2 MSTORE PUSH2 0x1B1C DUP2 PUSH2 0x13FF JUMP JUMPDEST MLOAD SWAP1 KECCAK256 SWAP1 JUMP JUMPDEST PUSH2 0x1B2A PUSH2 0x1A67 JUMP JUMPDEST SWAP1 PUSH1 0x40 MLOAD SWAP1 PUSH1 0x20 DUP3 ADD SWAP3 PUSH32 0x1901000000000000000000000000000000000000000000000000000000000000 DUP5 MSTORE PUSH1 0x22 DUP4 ADD MSTORE PUSH1 0x42 DUP3 ADD MSTORE PUSH1 0x42 DUP2 MSTORE PUSH2 0x1B1C DUP2 PUSH2 0x1398 JUMP JUMPDEST SWAP2 SWAP3 SWAP1 SWAP4 PUSH1 0xA4 CALLDATALOAD SWAP4 PUSH1 0x40 DUP5 ADD MLOAD DUP1 TIMESTAMP GT PUSH2 0x1C0F JUMPI POP PUSH1 0x20 DUP5 MLOAD ADD MLOAD DUP1 DUP7 GT PUSH2 0x1BDE JUMPI POP SWAP2 DUP6 SWAP2 PUSH2 0xD78 PUSH2 0x1BAE SWAP5 PUSH2 0x1BA9 PUSH1 0x20 DUP9 ADD MLOAD DUP7 PUSH2 0x1D90 JUMP JUMPDEST PUSH2 0x1B22 JUMP JUMPDEST PUSH20 0xFFFFFFFFFFFFFFFFFFFFFFFFFFFFFFFFFFFFFFFF DUP1 SWAP2 MLOAD MLOAD AND SWAP3 PUSH1 0x84 CALLDATALOAD SWAP2 DUP3 AND DUP3 SUB PUSH2 0x149B JUMPI PUSH2 0x1810 SWAP4 PUSH2 0x22FC JUMP JUMPDEST PUSH1 0x24 SWAP1 PUSH1 0x40 MLOAD SWAP1 PUSH32 0x3728B83D00000000000000000000000000000000000000000000000000000000 DUP3 MSTORE PUSH1 0x4 DUP3 ADD MSTORE REVERT JUMPDEST PUSH1 0x24 SWAP1 PUSH1 0x40 MLOAD SWAP1 PUSH32 0xCD21DB4F00000000000000000000000000000000000000000000000000000000 DUP3 MSTORE PUSH1 0x4 DUP3 ADD MSTORE REVERT JUMPDEST SWAP6 SWAP1 SWAP4 SWAP6 DUP1 MLOAD MLOAD SWAP6 PUSH1 0x40 SWAP3 DUP4 DUP4 ADD MLOAD DUP1 TIMESTAMP GT PUSH2 0x1D60 JUMPI POP DUP5 DUP9 SUB PUSH2 0x1D37 JUMPI PUSH2 0x1C77 SWAP2 DUP7 SWAP2 PUSH2 0xD78 PUSH1 0x20 SWAP12 PUSH2 0x1BA9 DUP14 DUP9 ADD MLOAD DUP7 PUSH2 0x1D90 JUMP JUMPDEST PUSH1 0x0 JUMPDEST DUP7 DUP2 LT PUSH2 0x1C8B JUMPI POP POP POP POP POP POP POP POP JUMP JUMPDEST PUSH2 0x1C96 DUP2 DUP4 MLOAD PUSH2 0x175E JUMP JUMPDEST MLOAD DUP9 PUSH2 0x1CA3 DUP4 DUP8 DUP11 PUSH2 0x18B5 JUMP JUMPDEST ADD CALLDATALOAD SWAP1 DUP10 DUP2 ADD MLOAD DUP1 DUP4 GT PUSH2 0x1D07 JUMPI POP SWAP2 DUP2 DUP9 DUP9 DUP9 PUSH1 0x1 SWAP7 DUP6 SWAP7 PUSH2 0x1CCD JUMPI JUMPDEST POP POP POP POP POP POP ADD PUSH2 0x1C7A JUMP JUMPDEST PUSH2 0x1CFC SWAP6 PUSH2 0x1CF6 SWAP3 PUSH20 0xFFFFFFFFFFFFFFFFFFFFFFFFFFFFFFFFFFFFFFFF PUSH2 0x515 SWAP4 MLOAD AND SWAP6 PUSH2 0x18B5 JUMP JUMPDEST SWAP2 PUSH2 0x22FC JUMP JUMPDEST DUP1 CODESIZE DUP9 DUP9 DUP9 DUP4 PUSH2 0x1CC1 JUMP JUMPDEST PUSH1 0x24 SWAP1 DUP7 MLOAD SWAP1 PUSH32 0x3728B83D00000000000000000000000000000000000000000000000000000000 DUP3 MSTORE PUSH1 0x4 DUP3 ADD MSTORE REVERT JUMPDEST PUSH1 0x4 DUP5 MLOAD PUSH32 0xFF633A3800000000000000000000000000000000000000000000000000000000 DUP2 MSTORE REVERT JUMPDEST PUSH1 0x24 SWAP1 DUP6 MLOAD SWAP1 PUSH32 0xCD21DB4F00000000000000000000000000000000000000000000000000000000 DUP3 MSTORE PUSH1 0x4 DUP3 ADD MSTORE REVERT JUMPDEST SWAP1 PUSH20 0xFFFFFFFFFFFFFFFFFFFFFFFFFFFFFFFFFFFFFFFF PUSH1 0x1 PUSH1 0xFF DUP4 AND SHL SWAP3 AND PUSH1 0x0 MSTORE PUSH1 0x0 PUSH1 0x20 MSTORE PUSH1 0x40 PUSH1 0x0 KECCAK256 SWAP1 PUSH1 0x8 SHR PUSH1 0x0 MSTORE PUSH1 0x20 MSTORE PUSH1 0x40 PUSH1 0x0 KECCAK256 DUP2 DUP2 SLOAD XOR DUP1 SWAP2 SSTORE AND ISZERO PUSH2 0x1DDA JUMPI JUMP JUMPDEST PUSH1 0x4 PUSH1 0x40 MLOAD PUSH32 0x756688FE00000000000000000000000000000000000000000000000000000000 DUP2 MSTORE REVERT JUMPDEST SWAP1 PUSH2 0x1E0E DUP3 PUSH2 0x15EF JUMP JUMPDEST PUSH2 0x1E1B PUSH1 0x40 MLOAD SWAP2 DUP3 PUSH2 0x1437 JUMP JUMPDEST DUP3 DUP2 MSTORE PUSH32 0xFFFFFFFFFFFFFFFFFFFFFFFFFFFFFFFFFFFFFFFFFFFFFFFFFFFFFFFFFFFFFFE0 PUSH2 0x1E49 DUP3 SWAP5 PUSH2 0x15EF JUMP JUMPDEST ADD SWAP1 PUSH1 0x20 CALLDATASIZE SWAP2 ADD CALLDATACOPY JUMP JUMPDEST PUSH32 0xFFFFFFFFFFFFFFFFFFFFFFFFFFFFFFFFFFFFFFFFFFFFFFFFFFFFFFFFFFFFFFFF DUP2 EQ PUSH2 0x1E80 JUMPI PUSH1 0x1 ADD SWAP1 JUMP JUMPDEST PUSH32 0x4E487B7100000000000000000000000000000000000000000000000000000000 PUSH1 0x0 MSTORE PUSH1 0x11 PUSH1 0x4 MSTORE PUSH1 0x24 PUSH1 0x0 REVERT JUMPDEST DUP1 MLOAD PUSH1 0x20 DUP1 SWAP3 ADD SWAP2 PUSH1 0x0 JUMPDEST DUP3 DUP2 LT PUSH2 0x1EC8 JUMPI POP POP POP POP SWAP1 JUMP JUMPDEST DUP4 MLOAD DUP6 MSTORE SWAP4 DUP2 ADD SWAP4 SWAP3 DUP2 ADD SWAP3 PUSH1 0x1 ADD PUSH2 0x1EBA JUMP JUMPDEST SWAP1 DUP2 MLOAD SWAP2 PUSH1 0x0 JUMPDEST DUP4 DUP2 LT PUSH2 0x1EF4 JUMPI POP POP ADD PUSH1 0x0 DUP2 MSTORE SWAP1 JUMP JUMPDEST DUP1 PUSH1 0x20 DUP1 SWAP3 DUP5 ADD ADD MLOAD DUP2 DUP6 ADD MSTORE ADD PUSH2 0x1EE3 JUMP JUMPDEST PUSH1 0x40 MLOAD PUSH1 0x20 DUP2 ADD SWAP2 PUSH32 0x65626CAD6CB96493BF6F5EBEA28756C966F023AB9E8A83A7101849D5573B3678 DUP4 MSTORE PUSH20 0xFFFFFFFFFFFFFFFFFFFFFFFFFFFFFFFFFFFFFFFF DUP1 DUP3 MLOAD AND PUSH1 0x40 DUP5 ADD MSTORE PUSH1 0x20 DUP3 ADD MLOAD AND PUSH1 0x60 DUP4 ADD MSTORE PUSH1 0x60 PUSH6 0xFFFFFFFFFFFF SWAP2 DUP3 PUSH1 0x40 DUP3 ADD MLOAD AND PUSH1 0x80 DUP6 ADD MSTORE ADD MLOAD AND PUSH1 0xA0 DUP3 ADD MSTORE PUSH1 0xA0 DUP2 MSTORE PUSH1 0xC0 DUP2 ADD DUP2 DUP2 LT PUSH8 0xFFFFFFFFFFFFFFFF DUP3 GT OR PUSH2 0x13B4 JUMPI PUSH1 0x40 MSTORE MLOAD SWAP1 KECCAK256 SWAP1 JUMP JUMPDEST PUSH1 0x40 MLOAD PUSH1 0x20 DUP1 DUP3 ADD SWAP3 PUSH32 0x618358AC3DB8DC274F0CD8829DA7E234BD48CD73C4A740AEDE1ADEC9846D06A1 DUP5 MSTORE PUSH20 0xFFFFFFFFFFFFFFFFFFFFFFFFFFFFFFFFFFFFFFFF DUP2 MLOAD AND PUSH1 0x40 DUP5 ADD MSTORE ADD MLOAD PUSH1 0x60 DUP3 ADD MSTORE PUSH1 0x60 DUP2 MSTORE PUSH2 0x1B1C DUP2 PUSH2 0x1398 JUMP JUMPDEST SWAP2 SWAP1 DUP3 PUSH1 0x40 SWAP2 SUB SLT PUSH2 0x149B JUMPI PUSH1 0x20 DUP3 CALLDATALOAD SWAP3 ADD CALLDATALOAD SWAP1 JUMP JUMPDEST PUSH1 0x0 DUP5 EXTCODESIZE PUSH2 0x2177 JUMPI POP PUSH1 0x41 DUP3 SUB PUSH2 0x20F5 JUMPI PUSH2 0x202D DUP3 DUP3 ADD DUP3 PUSH2 0x1FFA JUMP JUMPDEST SWAP4 SWAP1 SWAP3 PUSH1 0x40 LT ISZERO PUSH2 0x1772 JUMPI PUSH1 0x20 SWAP4 PUSH1 0x0 SWAP4 PUSH1 0xFF PUSH1 0x40 PUSH1 0x80 SWAP6 ADD CALLDATALOAD PUSH1 0xF8 SHR JUMPDEST PUSH1 0x40 MLOAD SWAP5 DUP6 MSTORE AND DUP7 DUP5 ADD MSTORE PUSH1 0x40 DUP4 ADD MSTORE PUSH1 0x60 DUP3 ADD MSTORE DUP3 DUP1 MSTORE PUSH1 0x1 GAS STATICCALL ISZERO PUSH2 0x20E9 JUMPI PUSH20 0xFFFFFFFFFFFFFFFFFFFFFFFFFFFFFFFFFFFFFFFF DUP1 PUSH1 0x0 MLOAD AND SWAP2 DUP3 ISZERO PUSH2 0x20BF JUMPI AND SUB PUSH2 0x2095 JUMPI JUMP JUMPDEST PUSH1 0x4 PUSH1 0x40 MLOAD PUSH32 0x815E1D6400000000000000000000000000000000000000000000000000000000 DUP2 MSTORE REVERT JUMPDEST PUSH1 0x4 PUSH1 0x40 MLOAD PUSH32 0x8BAA579F00000000000000000000000000000000000000000000000000000000 DUP2 MSTORE REVERT JUMPDEST PUSH1 0x40 MLOAD RETURNDATASIZE PUSH1 0x0 DUP3 RETURNDATACOPY RETURNDATASIZE SWAP1 REVERT JUMPDEST PUSH1 0x40 DUP3 SUB PUSH2 0x214D JUMPI PUSH2 0x2109 SWAP2 DUP2 ADD SWAP1 PUSH2 0x1FFA JUMP JUMPDEST SWAP2 PUSH1 0x1B PUSH32 0x7FFFFFFFFFFFFFFFFFFFFFFFFFFFFFFFFFFFFFFFFFFFFFFFFFFFFFFFFFFFFFFF DUP5 AND SWAP4 PUSH1 0xFF SHR ADD SWAP1 PUSH1 0xFF DUP3 GT PUSH2 0x1E80 JUMPI PUSH1 0x20 SWAP4 PUSH1 0x0 SWAP4 PUSH1 0xFF PUSH1 0x80 SWAP5 PUSH2 0x204B JUMP JUMPDEST PUSH1 0x4 PUSH1 0x40 MLOAD PUSH32 0x4BE6321B00000000000000000000000000000000000000000000000000000000 DUP2 MSTORE REVERT JUMPDEST SWAP3 SWAP4 SWAP2 PUSH1 0x1F SWAP3 DUP2 PUSH20 0xFFFFFFFFFFFFFFFFFFFFFFFFFFFFFFFFFFFFFFFF PUSH1 0x64 PUSH1 0x20 SWAP6 PUSH32 0xFFFFFFFFFFFFFFFFFFFFFFFFFFFFFFFFFFFFFFFFFFFFFFFFFFFFFFFFFFFFFFE0 PUSH1 0x40 MLOAD SWAP9 DUP10 SWAP8 DUP9 SWAP7 DUP8 SWAP5 PUSH32 0x1626BA7E00000000000000000000000000000000000000000000000000000000 SWAP15 DUP16 DUP8 MSTORE PUSH1 0x4 DUP8 ADD MSTORE PUSH1 0x40 PUSH1 0x24 DUP8 ADD MSTORE DUP2 PUSH1 0x44 DUP8 ADD MSTORE DUP7 DUP7 ADD CALLDATACOPY DUP12 DUP6 DUP3 DUP7 ADD ADD MSTORE ADD AND DUP2 ADD SUB ADD SWAP3 AND GAS STATICCALL SWAP1 DUP2 ISZERO PUSH2 0x22F1 JUMPI DUP3 SWAP2 PUSH2 0x2273 JUMPI JUMPDEST POP PUSH32 0xFFFFFFFF00000000000000000000000000000000000000000000000000000000 SWAP2 POP AND SUB PUSH2 0x2249 JUMPI JUMP JUMPDEST PUSH1 0x4 PUSH1 0x40 MLOAD PUSH32 0xB0669CBC00000000000000000000000000000000000000000000000000000000 DUP2 MSTORE REVERT JUMPDEST SWAP1 POP PUSH1 0x20 DUP2 RETURNDATASIZE DUP3 GT PUSH2 0x22E9 JUMPI JUMPDEST DUP2 PUSH2 0x228D PUSH1 0x20 SWAP4 DUP4 PUSH2 0x1437 JUMP JUMPDEST DUP2 ADD SUB SLT PUSH2 0x336 JUMPI MLOAD SWAP1 PUSH32 0xFFFFFFFF00000000000000000000000000000000000000000000000000000000 DUP3 AND DUP3 SUB PUSH2 0xA9A JUMPI POP PUSH32 0xFFFFFFFF00000000000000000000000000000000000000000000000000000000 SWAP1 CODESIZE PUSH2 0x221D JUMP JUMPDEST RETURNDATASIZE SWAP2 POP PUSH2 0x2280 JUMP JUMPDEST PUSH1 0x40 MLOAD RETURNDATASIZE DUP5 DUP3 RETURNDATACOPY RETURNDATASIZE SWAP1 REVERT JUMPDEST SWAP1 PUSH1 0x0 PUSH1 0x64 SWAP3 PUSH1 0x20 SWAP6 DUP3 SWAP6 PUSH1 0x40 MLOAD SWAP5 PUSH32 0x23B872DD00000000000000000000000000000000000000000000000000000000 DUP7 MSTORE PUSH1 0x4 DUP7 ADD MSTORE PUSH1 0x24 DUP6 ADD MSTORE PUSH1 0x44 DUP5 ADD MSTORE GAS CALL RETURNDATASIZE ISZERO PUSH1 0x1F RETURNDATASIZE GT PUSH1 0x1 PUSH1 0x0 MLOAD EQ AND OR AND ISZERO PUSH2 0x2355 JUMPI JUMP JUMPDEST PUSH1 0x64 PUSH1 0x40 MLOAD PUSH32 0x8C379A000000000000000000000000000000000000000000000000000000000 DUP2 MSTORE PUSH1 0x20 PUSH1 0x4 DUP3 ADD MSTORE PUSH1 0x14 PUSH1 0x24 DUP3 ADD MSTORE PUSH32 0x5452414E534645525F46524F4D5F4641494C4544000000000000000000000000 PUSH1 0x44 DUP3 ADD MSTORE REVERT INVALID LOG1 PUSH5 0x736F6C6343 STOP ADDMOD GT STOP EXP "},"methodIdentifiers":{"DOMAIN_SEPARATOR()":"3644e515","allowance(address,address,address)":"927da105","approve(address,address,uint160,uint48)":"87517c45","invalidateNonces(address,address,uint48)":"65d9723c","invalidateUnorderedNonces(uint256,uint256)":"3ff9dcb1","lockdown((address,address)[])":"cc53287f","nonceBitmap(address,uint256)":"4fe02b44","permit(address,((address,uint160,uint48,uint48),address,uint256),bytes)":"2b67b570","permit(address,((address,uint160,uint48,uint48)[],address,uint256),bytes)":"2a2d80d1","permitTransferFrom(((address,uint256),uint256,uint256),(address,uint256),address,bytes)":"30f28b7a","permitTransferFrom(((address,uint256)[],uint256,uint256),(address,uint256)[],address,bytes)":"edd9444b","permitWitnessTransferFrom(((address,uint256),uint256,uint256),(address,uint256),address,bytes32,string,bytes)":"137c29fe","permitWitnessTransferFrom(((address,uint256)[],uint256,uint256),(address,uint256)[],address,bytes32,string,bytes)":"fe8ec1a7","transferFrom((address,address,uint160,address)[])":"0d58b1db","transferFrom(address,address,uint160,address)":"36c78516"}}}}}