{"permit2/contracts/EIP712.sol":{"EIP712":{"abi":[{"inputs":[],"stateMutability":"nonpayable","type":"constructor"},{"inputs":[],"name":"DOMAIN_SEPARATOR","outputs":[{"internalType":"bytes32","name":"","type":"bytes32"}],"stateMutability":"view","type":"function"}],"evm":{"bytecode":{"linkReferences":{},"object":"60c0346100b9574660a052602081017f8cad95687ba82c2ce50e74f7b754645e5117c3a5bec8151c0726d5857980a86681527f9ac997416e8ff9d2ff6bebeb7149f65cdae5e32e2b90440b566bb3044041d36a60408301524660608301523060808301526080825260a082019180831060018060401b038411176100a3578260405251902060805261016f90816100bf8239608051816085015260a05181605b0152f35b634e487b7160e01b600052604160045260246000fd5b600080fdfe608080604052600436101561001357600080fd5b600090813560e01c633644e5151461002a57600080fd5b3461015e57817ffffffffffffffffffffffffffffffffffffffffffffffffffffffffffffffffc36011261015e57467f0000000000000000000000000000000000000000000000000000000000000000036100ad57505060207f00000000000000000000000000000000000000000000000000000000000000005b604051908152f35b60208101907f8cad95687ba82c2ce50e74f7b754645e5117c3a5bec8151c0726d5857980a86682527f9ac997416e8ff9d2ff6bebeb7149f65cdae5e32e2b90440b566bb3044041d36a60408201524660608201523060808201526080815260a0810181811067ffffffffffffffff82111761013157602093506040525190206100a5565b6024847f4e487b710000000000000000000000000000000000000000000000000000000081526041600452fd5b5080fdfea164736f6c6343000811000a","opcodes":"PUSH1 0xC0 CALLVALUE PUSH2 0xB9 JUMPI CHAINID PUSH1 0xA0 MSTORE PUSH1 0x20 DUP2 ADD PUSH32 0x8CAD95687BA82C2CE50E74F7B754645E5117C3A5BEC8151C0726D5857980A866 DUP2 MSTORE PUSH32 0x9AC997416E8FF9D2FF6BEBEB7149F65CDAE5E32E2B90440B566BB3044041D36A PUSH1 0x40 DUP4 ADD MSTORE CHAINID PUSH1 0x60 DUP4 ADD MSTORE ADDRESS PUSH1 0x80 DUP4 ADD MSTORE PUSH1 0x80 DUP3 MSTORE PUSH1 0xA0 DUP3 ADD SWAP2 DUP1 DUP4 LT PUSH1 0x1 DUP1 PUSH1 0x40 SHL SUB DUP5 GT OR PUSH2 0xA3 JUMPI DUP3 PUSH1 0x40 MSTORE MLOAD SWAP1 KECCAK256 PUSH1 0x80 MSTORE PUSH2 0x16F SWAP1 DUP2 PUSH2 0xBF DUP3 CODECOPY PUSH1 0x80 MLOAD DUP2 PUSH1 0x85 ADD MSTORE PUSH1 0xA0 MLOAD DUP2 PUSH1 0x5B ADD MSTORE RETURN JUMPDEST PUSH4 0x4E487B71 PUSH1 0xE0 SHL PUSH1 0x0 MSTORE PUSH1 0x41 PUSH1 0x4 MSTORE PUSH1 0x24 PUSH1 0x0 REVERT JUMPDEST PUSH1 0x0 DUP1 REVERT INVALID PUSH1 0x80 DUP1 PUSH1 0x40 MSTORE PUSH1 0x4 CALLDATASIZE LT ISZERO PUSH2 0x13 JUMPI PUSH1 0x0 DUP1 REVERT JUMPDEST PUSH1 0x0 SWAP1 DUP2 CALLDATALOAD PUSH1 0xE0 SHR PUSH4 0x3644E515 EQ PUSH2 0x2A JUMPI PUSH1 0x0 DUP1 REVERT JUMPDEST CALLVALUE PUSH2 0x15E JUMPI DUP2 PUSH32 0xFFFFFFFFFFFFFFFFFFFFFFFFFFFFFFFFFFFFFFFFFFFFFFFFFFFFFFFFFFFFFFFC CALLDATASIZE ADD SLT PUSH2 0x15E JUMPI CHAINID PUSH32 0x0 SUB PUSH2 0xAD JUMPI POP POP PUSH1 0x20 PUSH32 0x0 JUMPDEST PUSH1 0x40 MLOAD SWAP1 DUP2 MSTORE RETURN JUMPDEST PUSH1 0x20 DUP2 ADD SWAP1 PUSH32 0x8CAD95687BA82C2CE50E74F7B754645E5117C3A5BEC8151C0726D5857980A866 DUP3 MSTORE PUSH32 0x9AC997416E8FF9D2FF6BEBEB7149F65CDAE5E32E2B90440B566BB3044041D36A PUSH1 0x40 DUP3 ADD MSTORE CHAINID PUSH1 0x60 DUP3 ADD MSTORE ADDRESS PUSH1 0x80 DUP3 ADD MSTORE PUSH1 0x80 DUP2 MSTORE PUSH1 0xA0 DUP2 ADD DUP2 DUP2 LT PUSH8 0xFFFFFFFFFFFFFFFF DUP3 GT OR PUSH2 0x131 JUMPI PUSH1 0x20 SWAP4 POP PUSH1 0x40 MSTORE MLOAD SWAP1 KECCAK256 PUSH2 0xA5 JUMP JUMPDEST PUSH1 0x24 DUP5 PUSH32 0x4E487B7100000000000000000000000000000000000000000000000000000000 DUP2 MSTORE PUSH1 0x41 PUSH1 0x4 MSTORE REVERT JUMPDEST POP DUP1 REVERT INVALID LOG1 PUSH5 0x736F6C6343 STOP ADDMOD GT STOP EXP "},"methodIdentifiers":{"DOMAIN_SEPARATOR()":"3644e515"}}}}}