{"permit2/contracts/libraries/PermitHash.sol":{"PermitHash":{"abi":[{"inputs":[],"name":"_PERMIT_BATCH_TRANSFER_FROM_TYPEHASH","outputs":[{"internalType":"bytes32","name":"","type":"bytes32"}],"stateMutability":"view","type":"function"},{"inputs":[],"name":"_PERMIT_BATCH_TYPEHASH","outputs":[{"internalType":"bytes32","name":"","type":"bytes32"}],"stateMutability":"view","type":"function"},{"inputs":[],"name":"_PERMIT_BATCH_WITNESS_TRANSFER_FROM_TYPEHASH_STUB","outputs":[{"internalType":"string","name":"","type":"string"}],"stateMutability":"view","type":"function"},{"inputs":[],"name":"_PERMIT_DETAILS_TYPEHASH","outputs":[{"internalType":"bytes32","name":"","type":"bytes32"}],"stateMutability":"view","type":"function"},{"inputs":[],"name":"_PERMIT_SINGLE_TYPEHASH","outputs":[{"internalType":"bytes32","name":"","type":"bytes32"}],"stateMutability":"view","type":"function"},{"inputs":[],"name":"_PERMIT_TRANSFER_FROM_TYPEHASH","outputs":[{"internalType":"bytes32","name":"","type":"bytes32"}],"stateMutability":"view","type":"function"},{"inputs":[],"name":"_PERMIT_TRANSFER_FROM_WITNESS_TYPEHASH_STUB","outputs":[{"internalType":"string","name":"","type":"string"}],"stateMutability":"view","type":"function"},{"inputs":[],"name":"_TOKEN_PERMISSIONS_TYPEHASH","outputs":[{"internalType":"bytes32","name":"","type":"bytes32"}],"stateMutability":"view","type":"function"},{"inputs":[],"name":"_TOKEN_PERMISSIONS_TYPESTRING","outputs":[{"internalType":"string","name":"","type":"string"}],"stateMutability":"view","type":"function"}],"evm":{"bytecode":{"linkReferences":{},"object":"6080806040523461001a576105a29081610020823930815050f35b600080fdfe60806040818152600436101561001457600080fd5b600091823560e01c9081633eb8b8fd146104dc57508063415e982d146104895780636302c3cf146104365780636e4f2775146103e357806378f168301461039057806384b8efbb146102a057806390bbf2f3146101b0578063c0c7fa7e146100db5763c5df4f031461008557600080fd5b817ffffffffffffffffffffffffffffffffffffffffffffffffffffffffffffffffc3601126100d757602090517ff3841cd1ff0085026a6327b620b67997ce40f282c88a8e905a7a5626e310f3d08152f35b5080fd5b50817ffffffffffffffffffffffffffffffffffffffffffffffffffffffffffffffffc3601126100d7578051906060820182811067ffffffffffffffff8211176101835761017f93508152602e82527f546f6b656e5065726d697373696f6e73286164647265737320746f6b656e2c7560208301527f696e7432353620616d6f756e742900000000000000000000000000000000000081830152519182918261052f565b0390f35b6024847f4e487b710000000000000000000000000000000000000000000000000000000081526041600452fd5b50817ffffffffffffffffffffffffffffffffffffffffffffffffffffffffffffffffc3601126100d75780519060a0820182811067ffffffffffffffff8211176101835761017f93508152606b82527f5065726d697442617463685769746e6573735472616e7366657246726f6d285460208301527f6f6b656e5065726d697373696f6e735b5d207065726d69747465642c61646472818301527f657373207370656e6465722c75696e74323536206e6f6e63652c75696e74323560608301527f3620646561646c696e652c0000000000000000000000000000000000000000006080830152519182918261052f565b50817ffffffffffffffffffffffffffffffffffffffffffffffffffffffffffffffffc3601126100d75780519060a0820182811067ffffffffffffffff8211176101835761017f93508152606482527f5065726d69745769746e6573735472616e7366657246726f6d28546f6b656e5060208301527f65726d697373696f6e73207065726d69747465642c6164647265737320737065818301527f6e6465722c75696e74323536206e6f6e63652c75696e7432353620646561646c60608301527f696e652c000000000000000000000000000000000000000000000000000000006080830152519182918261052f565b50817ffffffffffffffffffffffffffffffffffffffffffffffffffffffffffffffffc3601126100d757602090517f939c21a48a8dbe3a9a2404a1d46691e4d39f6583d6ec6b35714604c986d801068152f35b50817ffffffffffffffffffffffffffffffffffffffffffffffffffffffffffffffffc3601126100d757602090517f65626cad6cb96493bf6f5ebea28756c966f023ab9e8a83a7101849d5573b36788152f35b50817ffffffffffffffffffffffffffffffffffffffffffffffffffffffffffffffffc3601126100d757602090517faf1b0d30d2cab0380e68f0689007e3254993c596f2fdd0aaa7f4d04f794408638152f35b50817ffffffffffffffffffffffffffffffffffffffffffffffffffffffffffffffffc3601126100d757602090517f618358ac3db8dc274f0cd8829da7e234bd48cd73c4a740aede1adec9846d06a18152f35b8390817ffffffffffffffffffffffffffffffffffffffffffffffffffffffffffffffffc3601126100d757807ffcf35f5ac6a2c28868dc44c302166470266239195f02b0ee408334829333b76660209252f35b60208082528251818301819052939260005b858110610581575050507fffffffffffffffffffffffffffffffffffffffffffffffffffffffffffffffe0601f8460006040809697860101520116010190565b81810183015184820160400152820161054156fea164736f6c6343000811000a","opcodes":"PUSH1 0x80 DUP1 PUSH1 0x40 MSTORE CALLVALUE PUSH2 0x1A JUMPI PUSH2 0x5A2 SWAP1 DUP2 PUSH2 0x20 DUP3 CODECOPY ADDRESS DUP2 POP POP RETURN JUMPDEST PUSH1 0x0 DUP1 REVERT INVALID PUSH1 0x80 PUSH1 0x40 DUP2 DUP2 MSTORE PUSH1 0x4 CALLDATASIZE LT ISZERO PUSH2 0x14 JUMPI PUSH1 0x0 DUP1 REVERT JUMPDEST PUSH1 0x0 SWAP2 DUP3 CALLDATALOAD PUSH1 0xE0 SHR SWAP1 DUP2 PUSH4 0x3EB8B8FD EQ PUSH2 0x4DC JUMPI POP DUP1 PUSH4 0x415E982D EQ PUSH2 0x489 JUMPI DUP1 PUSH4 0x6302C3CF EQ PUSH2 0x436 JUMPI DUP1 PUSH4 0x6E4F2775 EQ PUSH2 0x3E3 JUMPI DUP1 PUSH4 0x78F16830 EQ PUSH2 0x390 JUMPI DUP1 PUSH4 0x84B8EFBB EQ PUSH2 0x2A0 JUMPI DUP1 PUSH4 0x90BBF2F3 EQ PUSH2 0x1B0 JUMPI DUP1 PUSH4 0xC0C7FA7E EQ PUSH2 0xDB JUMPI PUSH4 0xC5DF4F03 EQ PUSH2 0x85 JUMPI PUSH1 0x0 DUP1 REVERT JUMPDEST DUP2 PUSH32 0xFFFFFFFFFFFFFFFFFFFFFFFFFFFFFFFFFFFFFFFFFFFFFFFFFFFFFFFFFFFFFFFC CALLDATASIZE ADD SLT PUSH2 0xD7 JUMPI PUSH1 0x20 SWAP1 MLOAD PUSH32 0xF3841CD1FF0085026A6327B620B67997CE40F282C88A8E905A7A5626E310F3D0 DUP2 MSTORE RETURN JUMPDEST POP DUP1 REVERT JUMPDEST POP DUP2 PUSH32 0xFFFFFFFFFFFFFFFFFFFFFFFFFFFFFFFFFFFFFFFFFFFFFFFFFFFFFFFFFFFFFFFC CALLDATASIZE ADD SLT PUSH2 0xD7 JUMPI DUP1 MLOAD SWAP1 PUSH1 0x60 DUP3 ADD DUP3 DUP2 LT PUSH8 0xFFFFFFFFFFFFFFFF DUP3 GT OR PUSH2 0x183 JUMPI PUSH2 0x17F SWAP4 POP DUP2 MSTORE PUSH1 0x2E DUP3 MSTORE PUSH32 0x546F6B656E5065726D697373696F6E73286164647265737320746F6B656E2C75 PUSH1 0x20 DUP4 ADD MSTORE PUSH32 0x696E7432353620616D6F756E7429000000000000000000000000000000000000 DUP2 DUP4 ADD MSTORE MLOAD SWAP2 DUP3 SWAP2 DUP3 PUSH2 0x52F JUMP JUMPDEST SUB SWAP1 RETURN JUMPDEST PUSH1 0x24 DUP5 PUSH32 0x4E487B7100000000000000000000000000000000000000000000000000000000 DUP2 MSTORE PUSH1 0x41 PUSH1 0x4 MSTORE REVERT JUMPDEST POP DUP2 PUSH32 0xFFFFFFFFFFFFFFFFFFFFFFFFFFFFFFFFFFFFFFFFFFFFFFFFFFFFFFFFFFFFFFFC CALLDATASIZE ADD SLT PUSH2 0xD7 JUMPI DUP1 MLOAD SWAP1 PUSH1 0xA0 DUP3 ADD DUP3 DUP2 LT PUSH8 0xFFFFFFFFFFFFFFFF DUP3 GT OR PUSH2 0x183 JUMPI PUSH2 0x17F SWAP4 POP DUP2 MSTORE PUSH1 0x6B DUP3 MSTORE PUSH32 0x5065726D697442617463685769746E6573735472616E7366657246726F6D2854 PUSH1 0x20 DUP4 ADD MSTORE PUSH32 0x6F6B656E5065726D697373696F6E735B5D207065726D69747465642C61646472 DUP2 DUP4 ADD MSTORE PUSH32 0x657373207370656E6465722C75696E74323536206E6F6E63652C75696E743235 PUSH1 0x60 DUP4 ADD MSTORE PUSH32 0x3620646561646C696E652C000000000000000000000000000000000000000000 PUSH1 0x80 DUP4 ADD MSTORE MLOAD SWAP2 DUP3 SWAP2 DUP3 PUSH2 0x52F JUMP JUMPDEST POP DUP2 PUSH32 0xFFFFFFFFFFFFFFFFFFFFFFFFFFFFFFFFFFFFFFFFFFFFFFFFFFFFFFFFFFFFFFFC CALLDATASIZE ADD SLT PUSH2 0xD7 JUMPI DUP1 MLOAD SWAP1 PUSH1 0xA0 DUP3 ADD DUP3 DUP2 LT PUSH8 0xFFFFFFFFFFFFFFFF DUP3 GT OR PUSH2 0x183 JUMPI PUSH2 0x17F SWAP4 POP DUP2 MSTORE PUSH1 0x64 DUP3 MSTORE PUSH32 0x5065726D69745769746E6573735472616E7366657246726F6D28546F6B656E50 PUSH1 0x20 DUP4 ADD MSTORE PUSH32 0x65726D697373696F6E73207065726D69747465642C6164647265737320737065 DUP2 DUP4 ADD MSTORE PUSH32 0x6E6465722C75696E74323536206E6F6E63652C75696E7432353620646561646C PUSH1 0x60 DUP4 ADD MSTORE PUSH32 0x696E652C00000000000000000000000000000000000000000000000000000000 PUSH1 0x80 DUP4 ADD MSTORE MLOAD SWAP2 DUP3 SWAP2 DUP3 PUSH2 0x52F JUMP JUMPDEST POP DUP2 PUSH32 0xFFFFFFFFFFFFFFFFFFFFFFFFFFFFFFFFFFFFFFFFFFFFFFFFFFFFFFFFFFFFFFFC CALLDATASIZE ADD SLT PUSH2 0xD7 JUMPI PUSH1 0x20 SWAP1 MLOAD PUSH32 0x939C21A48A8DBE3A9A2404A1D46691E4D39F6583D6EC6B35714604C986D80106 DUP2 MSTORE RETURN JUMPDEST POP DUP2 PUSH32 0xFFFFFFFFFFFFFFFFFFFFFFFFFFFFFFFFFFFFFFFFFFFFFFFFFFFFFFFFFFFFFFFC CALLDATASIZE ADD SLT PUSH2 0xD7 JUMPI PUSH1 0x20 SWAP1 MLOAD PUSH32 0x65626CAD6CB96493BF6F5EBEA28756C966F023AB9E8A83A7101849D5573B3678 DUP2 MSTORE RETURN JUMPDEST POP DUP2 PUSH32 0xFFFFFFFFFFFFFFFFFFFFFFFFFFFFFFFFFFFFFFFFFFFFFFFFFFFFFFFFFFFFFFFC CALLDATASIZE ADD SLT PUSH2 0xD7 JUMPI PUSH1 0x20 SWAP1 MLOAD PUSH32 0xAF1B0D30D2CAB0380E68F0689007E3254993C596F2FDD0AAA7F4D04F79440863 DUP2 MSTORE RETURN JUMPDEST POP DUP2 PUSH32 0xFFFFFFFFFFFFFFFFFFFFFFFFFFFFFFFFFFFFFFFFFFFFFFFFFFFFFFFFFFFFFFFC CALLDATASIZE ADD SLT PUSH2 0xD7 JUMPI PUSH1 0x20 SWAP1 MLOAD PUSH32 0x618358AC3DB8DC274F0CD8829DA7E234BD48CD73C4A740AEDE1ADEC9846D06A1 DUP2 MSTORE RETURN JUMPDEST DUP4 SWAP1 DUP2 PUSH32 0xFFFFFFFFFFFFFFFFFFFFFFFFFFFFFFFFFFFFFFFFFFFFFFFFFFFFFFFFFFFFFFFC CALLDATASIZE ADD SLT PUSH2 0xD7 JUMPI DUP1 PUSH32 0xFCF35F5AC6A2C28868DC44C302166470266239195F02B0EE408334829333B766 PUSH1 0x20 SWAP3 MSTORE RETURN JUMPDEST PUSH1 0x20 DUP1 DUP3 MSTORE DUP3 MLOAD DUP2 DUP4 ADD DUP2 SWAP1 MSTORE SWAP4 SWAP3 PUSH1 0x0 JUMPDEST DUP6 DUP2 LT PUSH2 0x581 JUMPI POP POP POP PUSH32 0xFFFFFFFFFFFFFFFFFFFFFFFFFFFFFFFFFFFFFFFFFFFFFFFFFFFFFFFFFFFFFFE0 PUSH1 0x1F DUP5 PUSH1 0x0 PUSH1 0x40 DUP1 SWAP7 SWAP8 DUP7 ADD ADD MSTORE ADD AND ADD ADD SWAP1 JUMP JUMPDEST DUP2 DUP2 ADD DUP4 ADD MLOAD DUP5 DUP3 ADD PUSH1 0x40 ADD MSTORE DUP3 ADD PUSH2 0x541 JUMP INVALID LOG1 PUSH5 0x736F6C6343 STOP ADDMOD GT STOP EXP "},"methodIdentifiers":{"_PERMIT_BATCH_TRANSFER_FROM_TYPEHASH()":"3eb8b8fd","_PERMIT_BATCH_TYPEHASH()":"6302c3cf","_PERMIT_BATCH_WITNESS_TRANSFER_FROM_TYPEHASH_STUB()":"90bbf2f3","_PERMIT_DETAILS_TYPEHASH()":"6e4f2775","_PERMIT_SINGLE_TYPEHASH()":"c5df4f03","_PERMIT_TRANSFER_FROM_TYPEHASH()":"78f16830","_PERMIT_TRANSFER_FROM_WITNESS_TYPEHASH_STUB()":"84b8efbb","_TOKEN_PERMISSIONS_TYPEHASH()":"415e982d","_TOKEN_PERMISSIONS_TYPESTRING()":"c0c7fa7e"}}}}}